:020000040800F2
:10000000480D01201D030008538D00085B5F0008A8
:100010008D680008E12B000869F10008000000006D
:1000200000000000000000000000000079A80008A7
:10003000F133000800000000098E00082DB0000810
:1000400037030008370300083703000837030008A8
:100050003703000837030008F333000801340008B1
:100060000734000837030008370300083703000887
:100070003703000837030008370300083703000878
:100080003703000837030008370300083703000868
:100090003703000837030008370300083703000858
:1000A0003703000837030008370300083703000848
:1000B0003703000837030008370300083703000838
:1000C0003703000837030008370300083703000828
:1000D0003703000837030008370300083703000818
:1000E000F933000837030008370300083703000816
:1000F00037030008370300083703000837030008F8
:1001000037030008370300083703000837030008E7
:1001100037030008370300083703000837030008D7
:1001200037030008370300083703000837030008C7
:1001300037030008370300083703000837030008B7
:10014000370300083703000837030008758D0008DF
:100150003703000837030008370300083703000897
:100160003703000837030008370300083703000887
:1001700037030008370300083703000800000000B9
:10018000370300083703000800F002F800F0B6F863
:100190000AA090E8000C82448344AAF10107DA45E2
:1001A00001D100F0ABF8AFF2090EBAE80F0013F07E
:1001B000010F18BFFB1A43F0010318472803010081
:1001C000480301000A444FF0000C10F8013B13F003
:1001D000070408BF10F8014B1D1108BF10F8015BA0
:1001E000641E05D010F8016B641E01F8016BF9D193
:1001F00013F0080F1EBF10F8014BAD1C0C1B09D1EA
:100200006D1E58BF01F801CBFAD505E014F8016B5B
:1002100001F8016B6D1EF9D59142D6D370470000ED
:100220000023002400250026103A28BF78C1FBD8FF
:10023000520728BF30C148BF0B6070476E2900F0DD
:100240001383702900F05D84662910F02A806529E7
:1002500010F02780672910F02480612910F0238096
:1002600003681B0A28BF41F08001692900F0C082A1
:10027000642900F0BD82752900F0BA826F2900F070
:10028000EA83782900F02984E92900F08583E429AC
:1002900000F08283F52900F07F83EF2900F0E783E7
:1002A000F82900F028840368DB0928BF41F08001A9
:1002B000632901F04D81732901F05281E32901F096
:1002C0005D81F32901F06281002070471FB50FF0B6
:1002D000F5FE9DE8030000F0E7F901F0B1F9040034
:1002E000002000210FF0F0FD401C60600020002184
:1002F0000FF0D4FDE0601FBD10B510BD01F072F924
:100300001146FFF7E3FF0FF069FC01F04FFA03B469
:10031000FFF7F2FF03BC01F07FFA000009488047B5
:1003200009480047FEE7FEE7FEE7FEE7FEE7FEE7D7
:10033000FEE7FEE7FEE7FEE704480549054A064BEF
:100340007047000059B100088901000848AD00203D
:10035000480D012048DD002048DD002070B506462C
:1003600000F086F9056806F10B0020F00704B4429E
:100370009CBF002070BD2B466A68BAB11068A042CD
:1003800010D304F1080188423CBF5068586007D37D
:100390005168101941601168091B016058601460B0
:1003A000101D70BD13465268002AE7D12146284629
:1003B00000F066F90028DED170BD70B50446051F57
:1003C00000F056F90068002C14BF446870BD002C82
:1003D00018BFAC423CBF20466468F8D301680A18D5
:1003E000AA4218BF456003D12A680546114401603E
:1003F00028684119A1421CBF6C6070BD61686960CA
:1004000021680844286070BD53EA020C00F069803E
:100410002DE9F04B4FF00006002B1FBFB3FA83F518
:1004200003FA05F424FA05F65E4012BF1643B2FA49
:1004300082F502FA05F4C5F120051EBF22FA05FC7B
:1004400044EA0C04203556EA044C4FEA144418BF21
:10045000641C4FF000084FF00009904271EB030C50
:1004600039D3002919BFB1FA81F701FA07F6B0FABA
:1004700080F700FA07F6C7F120071EBF20FA07FC35
:1004800046EA0C062037B6FBF4FCA7EB0507103F45
:1004900007F01F0BCBF120060CFA0BFB2CFA06F62B
:1004A00044BFB3460026202FA4BF5E464FF0000B8A
:1004B0005BEA060C08BF4FF0010B19EB0B09ABFB15
:1004C000027C48EB0608C01B06FB02CC0BFB03CCEE
:1004D00071EB0C01C1E70B46024641464846BDE8B8
:1004E000F08B13B54FF000004FF00001AFF3008028
:1004F000BDE81C40704700007CB51D4616460C0048
:10050000009001D02044401E074B7B442A46694698
:100510000190304600F0C1F905461CB10020694643
:1005200000F0CEF928467CBDBD030000032A40F24E
:10053000308010F0030C00F0158011F8013BBCF185
:10054000020F624498BF11F801CB00F8013B38BF9D
:1005500011F8013BA2F1040298BF00F801CB38BFAB
:1005600000F8013B11F0030300F02580083AC0F0C9
:10057000088051F8043B083A51F804CBA0E8081071
:10058000F5E7121D5CBF51F8043B40F8043BAFF3A4
:100590000080D20724BF11F8013B11F801CB48BFFE
:1005A00011F8012B24BF00F8013B00F801CB48BF34
:1005B00000F8012B704710B5203AC0F00B80B1E86D
:1005C0001850203AA0E81850B1E81850A0E8185088
:1005D000BFF4F5AF5FEA027C24BFB1E81850A0E891
:1005E000185044BF18C918C0BDE810405FEA827CAB
:1005F00024BF51F8043B40F8043B08BF7047D207C2
:1006000028BF31F8023B48BF11F8012B28BF20F862
:10061000023B48BF00F8012B70474FF0000200B5C5
:10062000134694469646203922BFA0E80C50A0E815
:100630000C50B1F12001BFF4F7AF090728BFA0E8C3
:100640000C5048BF0CC05DF804EB890028BF40F88F
:10065000042B08BF704748BF20F8022B11F0804FD1
:1006600018BF00F8012B70477047704770470000B3
:1006700000487047F0AC00207047704770477047E3
:1006800038B504460A4600206946AFF300800028CA
:1006900008BF38BD02460099204600F009FB012042
:1006A00038BD012000F096BFF8B5AFF300800546D5
:1006B00000200C46102000BF0646A819A0420DD904
:1006C000324669460020AFF30080070008BF00F003
:1006D00081FF0098A04218BF0546C419FFF7C8FF64
:1006E00005600746F01D20F007004619284600F077
:1006F0000AF8B44208BFF8BDA21B31463868BDE80D
:10070000F84000F0D5BA00210160C0E9011070473F
:100710001020704710B500F0C7FA006810BD10B582
:10072000044600F0C1FA046010BD70B50446856946
:100730000068C10601D5302600E02026C00707D09A
:1007400070BDD4E9012130469047206A401C2062E8
:100750006D1EF6D570BD70B5044685690078C0077A
:1007600007D170BDD4E9012120209047206A401CA8
:1007700020626D1EF6D570BD09684A0501D540B2EC
:100780007047C905FCD500B2704709684A0501D514
:10079000C0B27047C905FCD580B2704770B50C4631
:1007A0000546012A05D02878800600D5EA6900238D
:1007B00002E0012305E05B1C934202D2E05C0028CA
:1007C000F9D1A869E618C01AA861286A18442862F5
:1007D0002846FFF7AAFF04E0D5E9012114F8010B30
:1007E0009047B442F8D32846FFF7B5FF70BD00002C
:1007F0002DE9F0410646002410687529314616A5FA
:1008000010D0FFF7B9FF002802DA404213A507E035
:1008100031688A0701D512A502E0490704D511A560
:10082000012401E0FFF7B1FF00210A2206F12407AD
:1008300009E0B0FBF2FCB0FBF2F302FB1C0030302D
:1008400078541846491C0028F3D123462A463046DE
:10085000BDE8F04100F08BBA000000002D00000060
:100860002B0000002000000011680268006A530598
:1008700001D508700AE0D30501D5088006E013060B
:1008800003D5C217C1E9000200E0086001207047EB
:1008900001694A1C02610878704700B58FB0CDE944
:1008A00001310021059105497944CDE90310114634
:1008B000684600F031F90FB000BD0000E5FFFFFF12
:1008C0000A6802F8010B0A607047D1E900239A42D6
:1008D00002D2531C0B601070704700002DE9FF5FBF
:1008E00015468A460446DFF8AC80F8440027D8E96C
:1008F00000103E46CDE9001010E03AF816106A46A6
:1009000002A800F047FE411C07D02178890603D5D4
:10091000E269391891420DD80744761C2078800688
:1009200002D5E069B84205DDAE42E6DB3AF81600D2
:100930000028E2D1A069C01BA0612046FFF7F5FEA8
:10094000D8E90010CDE90010002017E03AF818109F
:100950006A4602A800F01EFEB0F1FF3F81460BD0B0
:1009600000250DF1080B05E0D4E901211BF8050075
:1009700090476D1C4D45F7D308F10100B042804609
:10098000E4DB206A384420622046FFF7E4FEBDE83D
:10099000FF9F0000D6F900002DE9F0418046D21DEE
:1009A00022F007020025D2E90002F52915A614D08D
:1009B000011E72F1000106DA0023D0EB030063EBA5
:1009C000020211A608E0D8F800108B0701D50FA687
:1009D00002E0490701D50EA601251146002408F1C1
:1009E000240704E000F07EF930323A55641C50EAE6
:1009F0000102F7D12B46324621464046BDE8F04180
:100A000000F0B5B9000000002D0000002B00000030
:100A10002000000030B4002100F1240408E002F0BE
:100A20000705D208303542EA4372DB086554491C99
:100A300052EA0305F3D10468002310A2250707D565
:100A4000A40600D421B1C46901230DA2641EC461AF
:100A500030BC00F08CB910B5044621461068FFF791
:100A600094FE02462046BDE810400023D2E7D21D86
:100A700022F00701D1E90023CCE7000000000000CC
:100A800030000000F0B40D460188090502D5214C64
:100A90007C4402E01F4C7C440E34002100F124060B
:100AA00008E002F00F071209E75D42EA03721B0932
:100AB0007754491C52EA0307F3D102780023120746
:100AC00004D5702D06D009B1022311342246F0BCA2
:100AD00000F04DB901231034F8E770B504460D4617
:100AE00021461068FFF751FE024629462046BDE820
:100AF00070400023C6E7D21D22F00703D3E900238C
:100B0000C0E70368126843F0200303600823C36151
:100B10000023B7E738F800002DE9F05F8946044666
:100B20004FF0000ADFF874B1FB44C0F820A0204663
:100B3000E1688847002874D0252806D0D4E901212F
:100B40009047206A401C2062F1E700265F4620465D
:100B5000E16888472028054607DB312D05D2781942
:100B600010F8200C08B10643F1E7B00701D526F0D4
:100B70000406C4F81CA00027C4F818A02A2D09D028
:100B800028460FF023F838B304EB8708303DC8F847
:100B9000185019E059F8041B204604EB87029161B4
:100BA000E1688847012F054618D1E069002820DA5E
:100BB00026F020061DE0D8F8180000EB800005EBB9
:100BC00040003038C8F818002046E16888470546DC
:100BD0000EF0FCFF0028EED1012F0AD02E2D08D1F7
:100BE0002046E16888477F1C0546022F46F0200614
:100BF000C4DBA069002803DA404246F00106A06188
:100C0000F00701D026F010066C2D0BD0682D09D00E
:100C10004C2D39D06A2D35D0742D35D07A2D33D066
:100C200016E038E0E1682F4620468847B84205467E
:100C300009D16C2F26D04FF48060E168064320462E
:100C40008847054604E06C2F1AD04FF480700643A5
:100C50000DB3A5F14100192802D8203546F40066ED
:100C60004A462946204626604E46FFF7E7FA80B1FD
:100C700001280BD0F61D26F0070000F1080956E701
:100C80004020E4E78020D8E70020D6E706F10409F9
:100C90004DE7284652E7206ABDE8F09FC8F70000FC
:100CA00000487047E8AC002000487047E8AC0020DE
:100CB000034640688C46002818BF88423CBF034664
:100CC0004068F8D318681844884207D00CF1030034
:100CD00020F00700001D411A521A0146081D0A6043
:100CE000FFF76BBB30B5B0F10A024FEA900E71F11D
:100CF00000034EEA817EB0EB0E0061EB91014FEAFA
:100D0000101E4EEA017E10EB0E0041EB11114FEA6E
:100D1000102E4EEA016E10EB0E0041EB11214FEA4E
:100D2000104E4EEA014E10EB0E0041EB11414018FF
:100D300041F100014FEAD00040EA41704FEAD10191
:100D400010EB80054FEA810444EA907444EB0104FF
:100D50006D1944EB0404521BA3414FF0000348BF3C
:100D60000A3200D530BD401C41F1000130BD2DE9F3
:100D7000F0470D4699469246044600F12408016862
:100D8000880604D5E06921F01001216000E001200F
:100D9000A84201DD471B00E00027A1697A1902EB98
:100DA0000900081AA0612078C00602D42046FFF787
:100DB000BCFC002608E0D4E901211AF8060090479F
:100DC000206A401C761C20624E45F4DB2078C00669
:100DD0000AD52046FFF7A9FC06E0D4E9012130201E
:100DE0009047206A401C2062381EA7F10107F4DCFE
:100DF00007E0D4E9012118F805009047206A401C5B
:100E00002062281EA5F10105F3DC2046FFF7A3FCB4
:100E10002078000602D50220BDE8F0870120FBE71C
:100E200070472DE9FF4F0C461E464FF0FF378BB041
:100E3000D2E90001DDF860800A908A46C1F30A55C4
:100E400005B93D46002108464FF00000BAF1000FF9
:100E500000F4400005DA00EB80004FF4400101EAA5
:100E600050004FEA9059B9F1010F00DDB9460A98D8
:100E700050EA4A000ED044F61050A5F2FF35454323
:100E80002F14B8F1000F1ED07542291E1EDDC9F1C6
:100E900000021CE0B8F1010F4FF0000001D030213A
:100EA00003E0F24305E02154401CB042FBDB304636
:100EB0000022002121540B99C1F80880C1E90020CB
:100EC0000FB0BDE8F08FBD1B6D1CDEE74A4600DAAF
:100ED000694206A800F0F8FB06AB93E8070003ABF5
:100EE00083E8070050460A9900F0FDFC8DE80700F2
:100EF000A0F500501F3800900398002D0ADD42F243
:100F00001F014A460844002303A90390684600F0E5
:100F100066FF09E0A0F500504A461F38002303A9E8
:100F20000390684600F070FF8DE807000004000C95
:100F300003D04FF0FF30410800E01046B8F1000F39
:100F400003D00022009215461EE0751E05D4FFF75F
:100F5000C9FE303262556D1EF9D5B34601220843F1
:100F600002D000227F1C04E02078302801D100222A
:100F70007F1E002A099784D01DE0112D07DAFFF7A4
:100F8000B1FE303262556D1C50EA0102F5D10843C2
:100F900002D00098C8B10EE00021681E05E0235C75
:100FA000625C63542254401E491C8142F7DBAB460D
:100FB000A81B401E0990002004F80B000B98099A0A
:100FC000C0F80880C0E9002B7AE711264FF000082E
:100FD00057E72DE9F04F88460446D21D22F007015D
:100FE00091B0D1E90001CDE90A010EF0FBF802460B
:100FF0000B98C00F01D02D2007E02068810701D594
:101000002B2002E0202101EAC000032A099001D030
:10101000072A05DB03464146204600F015FB0BE19D
:101020002078800601D5E06900E00620B8F1650F60
:10103000814606D0B8F1660F18D0B8F1670F70D1AD
:1010400031E00020B9F1110F009001DB112301E024
:1010500009F101030AAA01A90CA8FFF7E2FEDDE9E4
:101060000C70002609F10105834647E001204B463C
:1010700000904FF000470AAA01A90CA8FFF7D1FE83
:10108000DDE90DB00C995D46002610B909F10100AB
:101090000D18B9EB050003D4C0F1FF3609F10105C5
:1010A000A5EB09002BE0B9F1010F01DA4FF00109BE
:1010B0000020B9F1110F0090484601DD112300E036
:1010C00003460AAA01A90CA8FFF7ABFEDDE90C70E4
:1010D0004D4600268346207800070AD4AB4500DA47
:1010E0005D4601A8012D04DD411911F8011C3029CC
:1010F00007D04F4502DA17F1040F04DA01208246C7
:101100000FE06D1EEEE7002F02DCED1B3E4403E016
:10111000781CA84200DD7D1CB81B00F1010A4FF0CD
:1011200000472078000703D4AA4501DB4FF0FF3ABF
:101130000021B7F1004F0DF143088DF8431024D082
:1011400002202B23002F01DA7F422D230A21021EC9
:10115000A0F1010000DC5FB197FBF1FC97FBF1F21D
:1011600001FB1C7C17460CF1300C08F801CDEEE7B2
:10117000A8F1010003702188090501D5452100E08F
:101180006521A0F1010800F8011C09980FA9A1EB45
:101190000807FF1D00B10120411901EBEA70A169A8
:1011A0003844081A401EA0612078C00602D42046A8
:1011B000FFF7BBFA099828B1D4E901219047206ACA
:1011C000401C20622078C00622D52046FFF7ADFAE9
:1011D0001EE0002E04DBB34502DD01A8805D00E0C7
:1011E0003020D4E901219047206A401C2062761CFF
:1011F000AAF101005FEA000A0AD100F021FAC068F2
:101200000168405CD4E901219047206A401C2062BB
:10121000281EA5F10105DCDC07E0D4E9012118F85E
:10122000010B9047206A401C2062381EA7F101077D
:10123000F3DC2046FFF78FFA032011B041E60000EF
:101240002DE9F04F04460D46D21D22F0070089B06B
:10125000D0E90097484639460DF0C4FF0246F80F22
:1012600001D02D2307E02068810701D52B2302E060
:10127000202101EAC0038DF820300BB1012000E0ED
:101280000020032A824601D0072A04DB2946204693
:1012900000F0DAF93FE12078800601D40D2500E066
:1012A000E569C7F30A560D2D49DA00214FEA175BAD
:1012B00008464FF00000002F00F4400007DA00EB72
:1012C00080004FF4400100EBD07001EA600081150E
:1012D000012901DD4FF0FF3100224FEA850CBCF1FE
:1012E000180F06D31346ACF118004FF08052C240DD
:1012F00003E04FF4801323FA0CF30CF10C0CBCF157
:10130000200F04D3ACF1200C09FA0CF001E007FA2D
:101310000CF000294FF0004801DD18B90FE00ED1A4
:1013200040450CD319EB02095F4121B9404502D178
:101330009F4329EA0209BBEB175F00D0761C208887
:10134000000502D57B48784402E07A487844193891
:1013500008AA302302F80A30037C0AF10101002EAA
:101360000AF1020A53546A4602DC4FF0300101E0F0
:101370004FF031014FF001088DF8001002D0A6F2B5
:10138000FF3603E059EA470100D06B4E002D02DC26
:101390002178090704D54FF002082E218DF801109D
:1013A000C44600210BE0C7F303433F01C35C491C63
:1013B0006D1E02F80830052908F1010801DA002D38
:1013C000F1DC00210CE000EB1973491C1B786D1E49
:1013D000082902F808304FEA091908F1010801DA72
:1013E000002DF0DC21688B0602D516E0A8F101087B
:1013F000E04505DD02EB080313F8013C302BF5D086
:10140000B8F1000F09DD02EB080313F8013C2E2BA5
:1014100003D1090701D4A8F10108002D05DD3E2103
:1014200002F808106D1E08F10108407C002E02F839
:10143000080008F1010804DA2D20764202F80800BD
:1014400002E02B2002F808000A214FF47A7086424D
:1014500008F101080BDB96FBF0F3303302F808309B
:1014600096FBF0F308F1010800FB136601E0642E1F
:101470000CDB642096FBF0F3303302F8083096FB67
:10148000F0F308F1010800FB136601E00A2E06DB09
:1014900096FBF1F0303002F8080008F1010896FBE5
:1014A000F1F001FB1060303002F80800A16908F18A
:1014B000010808EB050202EB0A00081AA061207877
:1014C000C00602D42046FFF730F9216A08AE01EBCE
:1014D0000A00206204E0D4E9012116F8010B9047CC
:1014E000BAF1010AF7D22078C00602D52046FFF7EC
:1014F0001CF96E4609E016F8010B3E280FD0D4E91E
:1015000001219047206A401C2062B8F10108F2D204
:101510002046FFF720F909B00320BDE8F08F206ACC
:101520002844206203E0D4E90121302090476D1E59
:10153000EBD3F8E7F1EF000002FCFFFF10B54369C1
:1015400013B1AFF3008001E0FFF728F9012010BDCF
:10155000127800F124010A7000224A700122EDE79E
:1015600011684FF0FF32E9E710B5436913B1AFF3EB
:10157000008001E0FFF7B2F9012010BD128800F1F0
:10158000240182840022C2840122EDE711684FF019
:10159000FF32E9E770B516460C46054600F048F8FC
:1015A000036893F80101012806D0FF2C0FD8185DBD
:1015B00068B101202C7070BDD3F807013246214676
:1015C00003F2071303442846BDE8704018474FF064
:1015D000FF3070BD10B500F0F7F8BDE8104000F026
:1015E000EEB870477546FFF75BFBAE4605006946EF
:1015F000534620F00700854618B020B5FEF79CFE44
:10160000BDE820404FF000064FF000074FF0000803
:101610004FF0000B21F00701AC46ACE8C009ACE884
:10162000C009ACE8C009ACE8C0098D4670470000AD
:1016300010B500F005F8001D10BD00BF8DE80000DA
:101640000048704708AD00202DE9F0411F460446D0
:1016500003260168072A01F4006004DB08B116A51F
:1016600005E016A503E008B115A500E015A521F0D9
:1016700010002060A069C01EA0610FB1401EA061D3
:101680002046FFF752F84FB1D4E901213846904780
:10169000206A401C2062C01C206206E0206AFAE733
:1016A000D4E9012115F8010B9047761EF8D22046A7
:1016B000FFF751F8BDE8F0814E414E006E616E00BB
:1016C000494E4600696E66002DE9F0478146164690
:1016D0008AB0354878440DC88DE80D00324878440A
:1016E000801C03AC0DC884E80D0041F69B30084413
:1016F000372190FBF1F290FBF1F5A5F1800501FB9C
:1017000012041B3C02D56442012000E00020DFF8F7
:1017100098A080460027FA44AAF1BE0A0EE0E0072E
:101720000AD03246684607EB470101230AEB8101E4
:1017300000F06AFB8DE8070064107F1C002CEED1DE
:10174000194F7F44AE3F19E0E80715D007EB0410AE
:101750000DF1180A90E80E008AE80E00C068F04209
:1017600001D1981908903246012306A903A800F078
:101770004BFB03AB83E807006D10641C002DE3D125
:101780004FF0010332466946B8F1000F03A802D0BA
:1017900000F025FB01E000F037FBC9E90001C9F8C2
:1017A00008200AB0BDE8F087F4EC000010B504464C
:1017B000AFF300802046BDE81040FEF7A8BD00282A
:1017C00001D000F029B8704710B5012805D00021DC
:1017D00003A000F027F8012010BD09A1F8E70000E0
:1017E00053494752544D454D3A204F7574206F660A
:1017F0002068656170206D656D6F72790000000072
:101800003A2048656170206D656D6F727920636F55
:10181000727275707465640001491820ABBEFEE7F2
:101820002600020070B505460C460A2000E06D1C3B
:1018300000F052F835B128780028F8D102E0641C95
:1018400000F04AF814B120780028F8D1BDE87040C3
:101850000A2000F041B800004FF0013C50F8042B82
:1018600051F8043B9A4221D1A2EB0C03934313EAB3
:10187000CC1317D150F8042B51F8043B9A4215D1E0
:10188000A2EB0C03934313EACC130BD150F8042BB7
:1018900051F8043B9A4209D1A2EB0C03934313EA9B
:1018A000CC13DBD04FF00000704700BFD01A01BA54
:1018B000B1FA81F101F0180122FA01F0CB40C1F137
:1018C0002001DBB2C0B2C01A2CFA01F3D11A914345
:1018D00011EAC311E6D1704708B569468DF80000DA
:1018E0000320ABBE08BD5FEA400C08BF91F0000FBB
:1018F0004FEA8C234FEAC12243EA51514FEA1C5070
:1019000018BF00F5F0404FEA300018BF41F0004129
:101910005FEA6C5C00F02980BCF1FF3F08BF40F03B
:1019200080407047130C06BF12044FF0100C4FF0AC
:10193000000C130E04BF12020CF1080C130F04BFAD
:1019400012010CF1040C930F04BF92000CF1020C75
:10195000D30F04BF52000CF1010C11464FF00002EE
:10196000A0F11F00A0EB0C00704711F0004F08BF62
:10197000704731F000413FF4D5AF0B0C06BF0904AE
:101980004FF0100C4FF0000C0B0E04BF09020CF1CD
:10199000080C0B0F04BF09010CF1040C8B0F04BFE2
:1019A00089000CF1020CCB0F04BF49000CF1010CB3
:1019B000CCF12003A0EB0C0022FA03F302FA0CF2A4
:1019C00041EA030100F10100704720F07F4C80EAFA
:1019D000030023F07F47ACEB070303F57C5300F0D3
:1019E000004003F1FF032DE980494FEA154B09B48C
:1019F0004FEA144325EA0B4E24EA03480FF204266B
:101A000006EB132749083E785FEA320203FB0667BC
:101A1000C7F5000707FB06F64FEA54374FEAD646EC
:101A200006F1020607FB066CCCF1005C4FEA1C478E
:101A30002CEA074C07FB06F40CFB06F504EB1546F5
:101A40004FEA961634BF00204FF000404FEAD137DE
:101A500006FB07FC4FEA1C4C0CFB0BF7D21B03FBED
:101A60000CF761EB07010CFB0EF7B0EB074072EBD4
:101A700017420CFB08F734BFA2EB0742B2EB074258
:101A800061EB17414FEA0C444FEA910706FB07FC54
:101A90004FEA1C4C0CFB0BF7B0EBC74072EB573214
:101AA00003FB0CF734BFA2EBC742B2EBC74261EBBA
:101AB00057310CFB0EF7B0EBC70072EB57720CFB03
:101AC00008F734BFA2EBC702B2EBC70261EB577154
:101AD000039F4FEA816141EA921104EBCC044FEA83
:101AE000D1374FEA826206FB07FC42EA90124FEAC6
:101AF00080604FEA1C4C0CFB0BF7D21B03FB0CF76E
:101B000061EB07010CFB0EF7B0EB074072EB1742DD
:101B10000CFB08F734BFA2EB0742B2EB074261EBC4
:101B200017414FEA8C554FEA910704EB9C2406FBC2
:101B300007FC4FEA1C4C0CFB0BF7B0EBC74072EBF9
:101B4000573203FB0CF734BFA2EBC742B2EBC742DC
:101B500061EB57310CFB0EF7B0EBC70072EB57721D
:101B60000CFB08F734BFA2EBC702B2EBC70261EB74
:101B7000577115EB4C254FEA816141EA92114FEA0A
:101B800082624FEAD13742EA901206FB07FC44F129
:101B900000044FEA80604FEA1C4C0CFB0BF7D21B91
:101BA00003FB0CF761EB07010CFB0EF7B0EB0740F2
:101BB00072EB17420CFB08F734BFA2EB0742B2EB03
:101BC000074261EB174115EB1C154FEA813141EAE1
:101BD00092414FEA823242EA90424FEA80304FEA25
:101BE0000C7644F1000448EA03434EEA0B484FF0F8
:101BF000000EB2EB080C71EB030724BF62463946B6
:101C00004EEB0E0E4FF0000B0018524149414BEBCA
:101C10000B0BB2EB080C71EB03077BF1000B24BF3D
:101C2000624639464EEB0E0E4FF0000B0018524143
:101C300049414BEB0B0BB2EB080C71EB03077BF14B
:101C4000000B24BF624639464EEB0E0E51EA0207E6
:101C500018BF46F0010616EB0E7655F1000254F15E
:101C6000000103D5BDE88901BDE80088BDE8890110
:101C7000BDE80048B619524141EB0101A3F101034F
:101C8000704780807F7E7D7C7B7A797877767675E9
:101C90007473727171706F6E6E6D6C6C6B6A6A6961
:101CA0006868676666656464636362616160605FFB
:101CB0005F5E5E5D5D5C5C5B5B5A5A595958585774
:101CC00057565655555554545353525252515150DC
:101CD00050504F4F4F4E4E4D4D4D4C4C4C4B4B4B2F
:101CE0004A4A4A4949494848484747474746464675
:101CF00045454544444444434343434242424241B0
:101D00004141002B9C4630D477002BD01CB54FEAC4
:101D1000370703B44FF010004FF01001BAF1000F75
:101D200006D0BCF1000FDCBF40F0080040F0080115
:101D30004FF000000FBCBDE810400BF1010BBBF1F0
:101D4000010F08BF5FEA170722BF12F1010211F16C
:101D500001014FF0004143F1000300F0004043EA6D
:101D600000007047F9D35708D0E746EA064613F15A
:101D7000400F4FEA16461FDD13F1200FDFBF164359
:101D80000A46002120335B42BED0C3F1200746EA59
:101D9000064602FA07F74FEA164646EA0706C3F177
:101DA000200722FA03F201FA07F721FA03F14FF0B4
:101DB000000342EA0702A7E746EA020646EA0646A9
:101DC0004FEA164646EA0106BCBF46EA0646360C0E
:101DD0004FF000034FF000024FF0000194E72DE9AF
:101DE000804C9A46934670B491E8380007C831EAAF
:101DF000400C48BF34EA430C03D5FFF7E6FDFFF77C
:101E000080FFF0BCBDE8008C2DE9804C9A469346DB
:101E100070B491E8380007C810F0804F08BF13F085
:101E2000804F03D100F005F8FFF76BFFF0BCBDE871
:101E3000008C20F07F4780EA030023F07F4C07EB03
:101E40000C03A3F57C5300F00040A3F1FE0392F0D5
:101E5000000F00F0B38095F0000F00F077802DE9BF
:101E600001494FEA11404FEA144621EA004800FBBD
:101E700006FC24EA064708FB06F607FB08F800FB09
:101E800007F718EB06484CEB164C4FEA124B18EBD1
:101E900007484FEA15464CEB174022EA0B4E0BFB66
:101EA00006FC25EA06470EFB06F607FB0EFE0BFBBB
:101EB00007F71EEB064E4CEB164C4FF000061EEBE0
:101EC000074E4CEB174B18EB0B0840F1000018EBDA
:101ED0000E0B58EB000840F100008F1A4FF0000184
:101EE0003CBFC943661B14BFB5EB040C00213CBFCB
:101EF000C943F61B4FEA17444EEA8E0E27EA044503
:101F00004FEA1C4704FB07622CEA074C05FB07F766
:101F10000CFB05F604FB0CFC16EB074642EB1742E4
:101F200016EB0C4642EB1C421BEB060658EB02027A
:101F3000414146EA9E0601D5BDE80189B6195241E4
:101F400041EB0101A3F10103BDE801894FEA14450A
:101F50004FEA114724EA054621EA074C05FB07F43E
:101F600006FB07F70CFB06F105FB0CFC11EB074128
:101F700044EB17444FEA124711EB0C4144EB1C446D
:101F800022EA074C05FB07F206FB07F70CFB06F6F7
:101F900005FB0CFC16EB074642EB174216EB0C4612
:101FA00042EB1C456A1854F1000148BF7047B6194E
:101FB000524141EB0101A3F10103704795F0000F7D
:101FC00037D04FEA11424FEA144721EA024624EA89
:101FD000074C02FB07F106FB07F70CFB06F402FBBC
:101FE0000CFC14EB074441EB17414FEA154714EB87
:101FF0000C4441EB1C4125EA074C02FB07F506FBAC
:1020000007F70CFB06F602FB0CFC16EB074645EB4C
:10201000174516EB0C4645EB1C42121951F1000115
:1020200048BF7047B619524141EB0101A3F10103CA
:1020300070474FEA14454FEA114724EA054621EA62
:10204000074C05FB07F106FB07F70CFB06F24FF008
:10205000000605FB0CFC12EB074241EB174112EBAB
:102060000C4251EB1C4148BF7047921841EB0101F3
:10207000A3F1010370470000454910B54A6822F4F6
:1020800040324A604A6843681A434A6001684A68B5
:1020900022F480724A6001684A68036942EA0322B6
:1020A0004A6001684A6822F040724A6001684A68E2
:1020B00083681A434A6001688A6822F400628A6071
:1020C00001688A68C3681A438A60816A6FF0706227
:1020D000D14201688A6822F070628A6001688A6869
:1020E0000CD0836A1A438A6001688A6822F04052E1
:1020F0008A6001688A68C36A1A4301E022F040528C
:102100008A6001688A6822F002028A6001688A682F
:10211000836942EA43028A60016A002901684A68C9
:102120000FD042F400624A6001684A6822F46042BB
:102130004A6001684A68174C436A04EB43331A4308
:1021400001E022F400624A600168CA6A22F4700267
:10215000CA620168CA6A838B0F4C04EB03531A43AB
:10216000CA6201688A6822F400728A6001688A681B
:10217000036B42EA43228A6001688A6822F4806223
:102180008A6001688A68406942EA8020886010BDE0
:102190000023014000E0FFFF0000F0FF10B52DED2F
:1021A000028BB0EE408A18EE100AB0F17E5F23DD9C
:1021B000B0EE480A01F0D4FBC0EE080A9FED100A09
:1021C00020EE808AB0EE480A0DF05AFB0D4CD4ED9B
:1021D000090A30EE200A84ED090AB0EE480A0DF033
:1021E00091F9D4ED0A0AA4F5807130EE200A84ED4D
:1021F0000A0A488D401C4885BDEC028B10BD0000CA
:10220000DB0FC94000010020002818D00021818187
:1022100001829FED0B0A012180ED0C0A80ED0D0A71
:1022200080ED0E0A80ED0F0A80ED100A80ED110A94
:1022300080ED120A80ED130A80ED140A4170704798
:102240000000000080B1B1F5807F0DD800EB810067
:1022500061B150ED010A084B70EE600AF0EEE00A41
:1022600010EE902A9A4201DA0846704780ED000A83
:10227000491C88B2704700000AD7233B10B521499A
:1022800000202DED028B9FED1E0AC87001F1800029
:102290001E4980ED050A9FED1C0A80ED060A90EDAF
:1022A000050ABCEEC00A10EE100AA1F8720001F097
:1022B000D1FCB7EE008A1648C8EE000AC0ED000A4D
:1022C00001F0B6FCC8EE000A11486838C0ED000AFB
:1022D00001F0AEFCC8EE000A0D489FED0E0A34383E
:1022E0000021C0ED000A0C4880ED080AC18007F00B
:1022F0002DF8BDEC028BBDE8104007F01DB80000C2
:1023000000007A46000000200000FA45508C0020B2
:1023100048020020000000004C45002070B50C462B
:102320002DED068BB0EE419AF0EE609AB0EE40AA29
:10233000050035D0002C33D01B48DFED1C0A90ED92
:10234000030A20EE208AB5EEC08AF1EE10FA01D21F
:102350009FED178A01F0B6FBF0EE408A01F0C8FB52
:1023600020EE090ADFED130AB5EEC08A20EE200A3E
:10237000F1EE10FA04D8F5EEC08AF1EE10FA0FD99A
:1023800020EE081AD5ED000A48EE0A8A41EE290A25
:10239000C5ED000AD4ED000A40EE680AC4ED000A5B
:1023A000BDEC068B70BD00002C060020BD378635C5
:1023B000000000005077D63DF0B5864E2DED088B1D
:1023C000B0EE609AB0EE40BA83B0D6ED0D0A96ED4D
:1023D0000B0AF5EEC00AF1EE10FA01D8DFED7E0A25
:1023E000B5EEC00AF1EE10FA01D8B1EE000A20EE07
:1023F000800ADFED7AAA80EE2A8A01F041FCB0EE75
:10240000401ADFED778AB0EE490AF0EE680A00F074
:1024100019FF744CB0EE40AAF0EE689A94F87A0076
:1024200020B100EE100AB8EE409A01E0B7EE009A33
:1024300018EE100A4FF07E57B84201DA9FED6A8A13
:102440006A4DB0EE4B0AB0EE481A85ED108AF1EEF7
:10245000480A00F0F7FEB0EE408A94ED000A10EE54
:10246000100AB84201DDCAEE009A9FED611AF0EE43
:10247000680AB0EE690A00F0E5FEF0EE409A28EE38
:102480002A0AC5ED138AC5ED148A5848C0EE090A18
:102490008030C5ED0D0A95ED0D0A85ED120AC0EDEF
:1024A000078A85ED198A95ED0D0A85ED1A0A01F066
:1024B000BFFB60EE090A96ED080AB5EEC00AF1EE20
:1024C00010FA01DC9FED4B0A20EE080A80EE201A7C
:1024D000F0EE690AB0EE480A85ED1B1A00F0C2FE64
:1024E000F6EE001A30EE612A94ED000A70EEE10A71
:1024F00022EE002A60EE800A84ED012AC4ED020A71
:1025000071EE610A20EE800A84ED030A94ED070A59
:102510000DF0B6F9B0EE408A94ED070A0CF0F2FF28
:10252000F0EE408A94ED080A01A98DED000A94EDC1
:10253000090A68468DED010A00F060F82E4E9DED07
:10254000000A304686ED000A9DED010A86ED010A7B
:102550003169884796ED020A06F11405284685ED93
:10256000000A96ED030A85ED010A85ED028AC5EDA4
:10257000038AA969884795ED040A304684ED040A68
:1025800095ED050A84ED050A94ED010A86ED000A31
:1025900094ED020A86ED010A3169884796ED020A38
:1025A000284685ED000A96ED030A85ED010A85EDC2
:1025B000028AC5ED038AA969884795ED040A84ED6E
:1025C0000B0A95ED050A84ED0C0A03B0BDEC088BEF
:1025D000F0BD00002C06002000803B45000070424A
:1025E00000000000508C0020000048430000002044
:1025F0009A99593F000080497C010020002820D092
:1026000000291ED00F4A13780BB1127901E00E4A4F
:10261000927B02B10122D1ED000A90ED000AC0EDDB
:10262000000A81ED000A002A0BD090ED000AB1EEFD
:10263000400A80ED000A91ED000AB1EE400A81EDFA
:10264000000A70474C450020000000203448B0EEDE
:10265000402AF5EEC01A90ED0A0AD0ED0B2AF1EEF1
:1026600010FA07D9B5EEC01AF1EE10FA02D92D48CA
:10267000407B10B1B0EE600A7047B5EEC00AF1EED3
:1026800010FA01D89FED280AF5EEC02AF1EE10FAF3
:1026900001D8F0EE402ADFED253A21EE213A20EE76
:1026A000230A62EEA32AC3EE001A83EE220AF5EE95
:1026B000C01AF1EE10FA01D8F0EE411AB5EEC00AD8
:1026C000F1EE10FA01D8B0EE410A22EE201AB5EE72
:1026D000C01AF1EE10FA0BD3B0EEE01AF0EEC22AF7
:1026E000B4EEE21AF1EE10FA02DDB0EE611A01E08A
:1026F000B0EE401A30EEC20AB4EEC10AF1EE10FAA2
:1027000002DDB0EE410A08E0F1EE410AB4EEE00A63
:10271000F1EE10FA01D2B0EE600A32EE000A704714
:10272000E805002000000020000048436F12833AB3
:102730002748F0EE402AF5EEC01A90ED0A0A90ED17
:102740000B2AF1EE10FA04D9B5EEC01AF1EE10FA28
:1027500002D8B0EE600A7047B5EEC00AF1EE10FA8A
:1027600001D89FED1C0AB5EEC02AF1EE10FA01D88F
:10277000B0EE402A9FED183A61EE211A20EE030ACE
:1027800081EE801A22EE030A81EE802A30EEE20A00
:10279000F0EEE00AF0EEE21AF4EEE10AF1EE10FAE1
:1027A00001DCB0EE421AB4EEC10AF1EE10FA02DD1D
:1027B000B0EE410A08E0F1EE410AB4EEE00AF1EEB3
:1027C00010FA01D2B0EE600A32EE800A70470000C3
:1027D000E8050020000048436F12833A10B53448E2
:1027E0002DED048B82B0417831B1407803285BD164
:1027F00030480078022857D12F488078002853D0DD
:102800002E4890F8800802284ED32D4C2068B0F155
:102810007E5F49DD94ED080A69468DED010A94ED6D
:10282000090A01A88DED000AFFF7E8FE9DED010AF7
:102830009DED001AF1EE400A30EEC19A03F05EFD04
:10284000D4ED000A60EE208A9DED000A03F056FDEB
:10285000D4ED000A20EE208AB0EE490A03F04EFDC6
:10286000D4ED000AF0EE081A60EE200A38EE880A6D
:1028700030EE201A81EE210A94ED011A78EEC01A8A
:1028800031EE211A78EE401A30EEC00A84ED011ABA
:1028900094ED021A31EE211A84ED021A94ED031A16
:1028A00031EE000A84ED030A02B0BDEC048B10BDCA
:1028B000000000207C450020486300204883002061
:1028C000508C002010B540B1022906D3212904D82C
:1028D000B5EEC00AF1EE10FA01D8002010BD134A7F
:1028E000134B82ED1F0AA2F5006282F880180022C5
:1028F0000BE000BF00EB820494ED000A03EB8204BE
:1029000004F52054521C84ED210A8A42F2D39FED33
:10291000090A212A07D203EB820000F52050521C3D
:1029200080ED210AF5E70120987010BD488B00204A
:10293000486300200000000070B5594C2DED068B57
:10294000F0EE608AB0EE418AF0EE409AC4ED0B8A58
:1029500084ED0C8A2068B0F17E5F0EDA9FED510A9B
:10296000B6EE001A84ED010A84ED020A84ED030A32
:10297000F6EE000AB6EE000A8CE0B0EE690A0CF042
:102980007FFFB0EE409AB0EE690A0CF0BBFD464DF9
:10299000F0EE400A2846C5ED008A85ED018A85EDF6
:1029A000029AC5ED030AA969884795ED040A05F165
:1029B0001C06304686ED000A95ED050A86ED010AF3
:1029C0007169884796ED020A84ED010A96ED030AC3
:1029D00084ED020A96ED040A84ED030AFFF7FEFE79
:1029E00094ED000AB7EE001AB6EE008AC1EE000AB6
:1029F00094ED011AB0EE480A9FED2CAADFED2CAA47
:102A000001EE200A94ED021AF0EE401AB0EE480AE8
:102A100001EE200A94ED031AF0EE408AB0EE480A67
:102A200001EE200AB0EE4A1AF0EE6A0AF0EE409A81
:102A3000B0EE610A00F006FCB0EE409AB0EE4A1A21
:102A4000F0EE6A0AB0EE680A00F0FCFBF0EE408A95
:102A5000B0EE4A1AF0EE6A0AB0EE690A00F0F2FB34
:102A6000B0EE401A79EE480A94ED000A60EE800A52
:102A7000C4ED010A78EEC80A60EE800AC4ED020ACD
:102A800071EE480A20EE800AF0EE680A84ED030A2F
:102A9000B0EE490ABDEC068BBDE8704000F00EBFF9
:102AA000508C002000000000AC0100203333733F45
:102AB000CDCC4C3D70B504002DED088B4FF00001DE
:102AC0003AD094ED060A424AB0EEC08A18EE100AD7
:102AD000904201DA9FED3F8A94ED070AF0EEC08A3A
:102AE000F4EEC88AF1EE10FA01DDF0EE488A94EDBA
:102AF000080A394AF0EEC09A19EE900A904201DABB
:102B0000DFED369A94ED090AB0EEC09AB4EEE99A78
:102B1000F1EE10FA01D2B0EE699AF1EE68AAB6EEC3
:102B200000AAF0EE6ABAB1EE48BA49EE4ABA04F128
:102B300054054FF480760BE00020BDEC088B70BD8F
:102B4000B0EE4B0A2846FFF77DFB3BEE09BA014683
:102B5000F4EECBBAF1EE10FA01DDB142F0D9B0EEED
:102B600068BA09EE8ABA07E0B0EE6A0A2846FFF7AB
:102B700069FB7AEEA9AA0146B4EEEABAF1EE10FAC0
:102B800001DBB142F0D9B0EE48BA78EE89AA09EE7D
:102B90004ABA07E0B0EE6A0A2846FFF753FB7AEE1E
:102BA00089AA0146B4EEEABAF1EE10FA01DDB142AB
:102BB000F0D9B0EE480A2846FFF744FB84ED068AB8
:102BC000C4ED078AC4ED089A84ED099AB5E70000C0
:102BD000CDCCCC3DCDCCCC3D0AD7233C0AD7233C31
:102BE000FEE70020704700207047000010B500226B
:102BF0000449054808F040FD0449034808F036FD43
:102C0000002010BD1CA10020089100201C9900206C
:102C100010B5084A044600781070096820460BF089
:102C20001BF82146044808F021FD034808F002FD86
:102C3000002010BDB002002008910020094A10B504
:102C4000D2F81822D2F814220AB1012010BD0A4687
:102C50000146044808F010FDBDE81040014808F0A6
:102C60004BBD00000891002010B52DED048BB0EE97
:102C7000608A18EE100AB0F17E5F03DC0020BDEC24
:102C8000048B10BD2148D0ED0B8AF5EEC08AF1EE21
:102C900010FA01DCF1EE008AF5EEC08AF1EE10FACE
:102CA00001D8F7EE008AF6EE000A28EE209AB4EE7C
:102CB000C09AF1EE10FA01D230EE480AB1EE400AA5
:102CC0000CF07CFD9FED120A044668EE000A9FEDB1
:102CD000110A28EE801A80EE810A0CF06FFDFDEEDD
:102CE000C90ABDEEC80A204410EE901A814203DAE8
:102CF00010EE101A401AC2E710EE901A49428142B3
:102D0000BDDD10EE101A0844B9E700002C060020C3
:102D10009A19B4420000B44310B52DED028BB0EE09
:102D2000408A18EE100AB0F17E5F1FDD1248408D18
:102D3000E0B11248D0ED0A0A90ED090A0CF08CFAC5
:102D4000DFED0F0AB5EEC00AF1EE10FA01D230EE57
:102D5000200A20EE081A81EE200A00BFF0EE480A91
:102D6000BDEC028BBDE81040FFF77EBFB0EE480A15
:102D700000F0F6FDF2E70000000000200001002056
:102D8000DB0FC94010B50846002304E0D45C5B1C8F
:102D9000204480B2DBB28B42F8D300EB1020C0B2EB
:102DA00010BD000010B523489FED230A2DED028BC6
:102DB000D0ED000A214820EE808AD0ED010A20EEF5
:102DC000800AB5EEC00AF1EE10FA0BDDB5EEC08A4E
:102DD000F1EE10FA04D9B4EEC80AF1EE10FA01D2FD
:102DE000B0EE408A18EE100A1549884201DA9FEDCC
:102DF000158A154CDFED150AB0EE481A94ED020A5B
:102E0000B0EEC00A00F01EFA10EE100A104984ED70
:102E1000060A884201DA9FED0F0AB4EEC80AF1EE05
:102E200010FA01DDB0EE480A84ED0A0ABDEC028B0F
:102E300010BD00002C0600209A99193FE08C00205C
:102E4000CDCCCC3DCDCCCC3D4C450020000000008D
:102E5000CDCC4C3ECDCC4C3E10B53648B6EE000A3B
:102E60002DED028BD0ED000A334820EE801AD0ED14
:102E7000010A20EE800AB5EEC00AF1EE10FA0BDD71
:102E8000B5EEC01AF1EE10FA04D9B4EEC10AF1EEB3
:102E900010FA01D2B0EE401A11EE100A274988420A
:102EA00001DA9FED271A274C9FED278A94ED020A3D
:102EB000F0EE480AB0EEC00A00F0C4F984ED060A4C
:102EC00094ED030A9FED211AF6EE000A00F0BAF91C
:102ED00084ED070A207818B11D49A069884206DAF6
:102EE000B0EE480A84ED080ABDEC028B10BD00F07C
:102EF0009FFE94ED071AC1EE000A94ED080A30EE29
:102F0000800A10EE100A84ED080AB0F17E5F05DB3E
:102F1000F7EE000A30EE600A84ED080A10EE100A9F
:102F2000B0F17C5F02DA94ED060ADDE7B0EE480A04
:102F3000DAE700002C060020E08C0020CDCCCC3D50
:102F4000CDCCCC3D4C4500200000000000004842A4
:102F500017B7D1381948DFED180A017829B141783F
:102F600019B9807808B1DFED160A1648B6EE001AD6
:102F700090ED000A144820EE010A90ED0A1A20EEA6
:102F8000200A61EE200AF5EEC00AF1EE10FA0BDD20
:102F9000B5EEC00AF1EE10FA04D9F4EEC00AF1EE73
:102FA00010FA01D2B0EE600A10EE100AB0F17E5FA6
:102FB00001DAB7EE000A7047CDCC4C3E4C450020FC
:102FC0003333B33E508C00202C06002010B52DED7D
:102FD0000A8BB0EE60AAF0EE40AA9FED479AB5EEDC
:102FE000C0AAF1EE10FA04D8B0EE490ABDEC0A8B83
:102FF00010BD4248D0ED038A18EE900A0CF01DF97E
:1030000020B1F5EEC08AF1EE10FA01D8F7EE008A91
:10301000B1EE041AF0EE490AB0EE680A00F012F9B7
:10302000F0EE408A00F064FDF0EE400AB0EE608AF7
:1030300000F048FDF7EE080A68EE200A20EE808ACC
:10304000B5EEC08AF1EE10FA01D2B0EE498A2B48F3
:103050009FED2B0A4430F0EE489AD0ED050A60EE61
:1030600080BAD0ED200A20EE80BA00F0A1FD9FEDDD
:1030700026CAF5EEC08AB0EE408AF1EE10FA214C75
:1030800009D919EE900A2149884204DDB5EEC08ABB
:10309000F1EE10FA06D82AEE8C0AC4ED12AA84EDDD
:1030A000130AA1E7B0EE481AF1EE480AB0EE6A0A38
:1030B00000F0C8F8F0EE400AF0EE4A1AB0EE481AF6
:1030C00094ED120AFFF734FBF0EE400A94ED131A68
:1030D00020EE8C0AC4ED120A84ED130A70EE411A38
:1030E00081EE8A1A2BEE811A0BEE001A81EE290A64
:1030F00020EE280A7AE7000000000000E805002022
:103100006F12833A000100205077D63DBD378635D7
:10311000F0B518B111B1027CBABB01E04020F0BD9E
:103120002E4A92ED000A10EE103AB3F17E5F02DDF6
:1031300092ED000A01E09FED2A0AF0EE000A41F24A
:10314000883320EE200ABCEEC00A10EE102A9A4204
:1031500000D21A4644694FF0FF35641C4461944222
:1031600003D905744FF48070F0BD4FF0C8446288F5
:10317000A488866832448260C6683444C460468A43
:10318000761CB6B246829E4201D20020F0BDB2FB50
:10319000F3F296B2B4FBF3F297B2A6F5FE42A7F5AE
:1031A000FE43FF3AA3F1FF0300D55242002B00DAA1
:1031B0005B4200248460C460448244614FF4006434
:1031C000A24201D8A34203D905744FF40070F0BDA8
:1031D00021F8746F4F8001210174D6E7940000201C
:1031E00000007A460146F0EEC01A91ED010A002077
:1031F000F4EEC01AF1EE10FA0DDCF0EEE00AF4EE97
:10320000C00AF1EE10FA06DCF0EEC10AF4EEC00AD4
:10321000F1EE10FA00DD0120704700000146034A7C
:1032200089690020914200DD082070470000A0421B
:1032300000680349884201DD022070470020704782
:1032400000005C42B4EEC10AF1EE10FA02DDB0EE0D
:10325000410A7047B4EEE00AF1EE10FAF9D2B0EE8E
:10326000600A704710B556482DED048BB0EE608AA9
:10327000D0ED000AB4EEE00AF1EE10FA02DD90EDB6
:10328000000A0CE0D0ED000AF1EE600AB4EEE00AAC
:10329000F1EE10FA03D290ED000AB1EE400AB5EE5D
:1032A000C08AF1EE10FA02D29FED468A06E018EECF
:1032B000100A4549884201DD9FED448AF0EEC00ABC
:1032C00010EE900A4249F6EE008A884204DD18EEBC
:1032D000100A4049884210DCB0EE681AF0EE680A25
:1032E000B0EE680A00F0EAFAB0EE680AF0EE680A9A
:1032F000B0EE681ABDEC048B10BD3748D0ED000A63
:1033000010EE901AB1F17E5F02DDD0ED000A01E00F
:10331000DFED320AF7EE001A324C81EEA01ADFED33
:10332000300A314960EE201A94ED000A01EE810A5C
:1033300010EE100A84ED000A884202DB30EE600ACB
:1033400006E0B5EEC00AF1EE10FA03D230EE200A24
:1033500084ED000A0CF094FAB0EE409A94ED000A65
:103360000CF0D0F8FEEE000A9FED203A69EE202A1C
:10337000B0EE401AB0EE680AF0EE623A41EE032A6F
:1033800068EE001A41EE433AF0EE400AB0EE402AF1
:1033900001EEA20A01EE892A41EEA30AB0EE403AFC
:1033A000B0EE420AF0EE603AB0EE431A00F086FA50
:1033B000B0EE420AF0EE630AB0EE431A9AE700005C
:1033C00040000020000000006666663F6666663FBB
:1033D000CDCCCC3D6F12833A9400002000007A4699
:1033E000DB0FC94028040020DB0FC940D7B35D3F85
:1033F0007047012001F094BA4FF4005001F090BAE8
:10340000022001F08DBA042001F08ABA002229B10D
:1034100001291AD002291BD04FF440720E490B68C3
:1034200023F440730B600B6813430B600A6822F0AF
:10343000F8020A600A68022303EBC00002430A6034
:10344000086840F48030086070474FF48072E5E708
:103450004FF40072E2E70000103C0240134801689C
:1034600089050FD5016821F400710160016841F4FC
:1034700000610160016821F400610160016841F4AC
:1034800000710160016849050FD5016821F4806170
:103490000160016841F480510160016821F48051AC
:1034A0000160016841F4806101607047003C0240A6
:1034B00008490A6822F440720A600A6842F004026D
:1034C0000A600A684FF4803343EA002002430A602E
:1034D00070470000103C0240064A136823F4407312
:1034E000136013681360136843F0010313600170E5
:1034F00070470000103C0240084910B50C6824F4E5
:1035000040740C600C6844F440740C600C6844F027
:1035100001040C600260436010BD0000103C0240DA
:10352000074A136823F440731360136843F48073ED
:103530001360136843F001031360018070470000BB
:10354000103C0240074A136823F440731360136869
:1035500043F400731360136843F0010313600160C8
:1035600070470000103C024017490868C20617481F
:1035700005D5C26942F01002C26110220A600A68D1
:10358000920605D5C26942F00802C26120220A6093
:103590000A68520605D5C26942F00402C26140229F
:1035A0000A600A68120605D5C26942F00202C261C9
:1035B00080220A600A68920705D5C26942F020029B
:1035C000C2610220086070470C3C02401CA9002028
:1035D00070B5114904460020C86101F093FA06460F
:1035E0000E4D09E0601C07D024B101F08BFA801B5E
:1035F000A04201D9032070BD2868C003F2D4286816
:10360000C00701D001202860286810F0F200F2D035
:10361000FFF7AAFF012070BD1CA900200C3C02404E
:1036200070B5B3F5804F05D06FF0704140F82210AF
:10363000002070BD50F82240084B8E891C40D1E913
:10364000003543EA05138D6889692D0245EA064570
:103650002B430B43234340F82230E9E70000F0CF2F
:10366000F0B50C6850F82430114A1340D1E9012517
:10367000D1E903672A433E4332434E6932438E69A0
:103680003243CE6932430E6A32434E6A32438E6A07
:103690003243CE6A3243CE6B096B32430A431A433C
:1036A000082D01D142F0400240F824200020F0BD56
:1036B0008000F0FF30B500EB820250688D8900F089
:1036C0004043D1E9000440EA04108C68240244EA33
:1036D000054420430C8A074D05EB045420430C7D20
:1036E0006D0105EB04648969204308431843506069
:1036F000002030BD0000F0FF2DE9F0411C4C05001A
:10370000277A667A4FF00000E071207260720ED066
:10371000184904F18002096E9166032161712179D3
:10372000012901D0A07104E00121A17101E004216F
:1037300061718046014610489FED100A017081704A
:10374000C18080ED080A80ED090A80ED0A0A05F0C3
:1037500015FE05F09FFD1DB117B16670032102E053
:1037600084F801800521BDE8F041054807F077B8ED
:1037700000000020508C00204C450020000000007C
:10378000740100200F4900220A7008B1042000E0F3
:10379000032048700120C8700C489FED0B0A80ED93
:1037A000130A80ED140A80ED0D0A80ED120A80EDF7
:1037B0000E0A80ED0F0A4270052100F5BA7007F07D
:1037C0004EB8000048630020000000000000002008
:1037D000002206E050F822305B1C01D00120704727
:1037E000521C8A42F6D3002070470000F0B587B023
:1037F0000F46044600251646142168460595FCF739
:103800000CFF0220049024480095844201D200203D
:1038100023E022498C4201D201201EE020498C4243
:1038200001D2022019E01F498C4201D2032014E08A
:103830001D498C4201D204200FE01C498C4201D268
:1038400005200AE01A498C4201D2062005E01949F8
:103850008C4201D2072000E00B2002900120164983
:103860000390F320086005A9684600F063FE50B994
:1038700000250CE057F8252004EB850100230220E9
:1038800000F0AEFE10B1002007B0F0BD6D1CB542D7
:10389000F0D30120F8E70000004000080080000895
:1038A00000C0000800000108000002080000040831
:1038B00000000608000008080C3C0240DFED231A57
:1038C000B5EEC00AF1EE10FA01D2B0EE610AF5EEE3
:1038D000C00AF1EE10FA01D2F0EE610AB5EEC01A9C
:1038E000F1EE10FA01D2B0EE611A10EE101A18487B
:1038F000DFED181A814201DDB0EE610A10EE901A78
:10390000814201DDF0EE610A11EE101A814201DD03
:10391000B0EE611ADFED101A104920EE210A086896
:10392000BCEEC00A10EE102AC26320EEA10ABCEE63
:10393000C00A10EE102A826321EE210A0968BCEE4B
:10394000C00A10EE100A4863704700000000000033
:103950006666663F6666663F001024460C050020DA
:1039600010B52DED028BB0EE408A18EE100AB0F1C2
:103970007E5F04DC9FED0F0ABDEC028B10BD0E488C
:10398000D0ED130A0D48F5EEC00A90ED150AF1EEE0
:1039900010FAB8EEC00A01D038EE400AF0EE480A3C
:1039A0000BF0B4FEB5EEC00AF1EE10FAE4D230EE40
:1039B000080AE1E7000000002C060020508C0020DF
:1039C00010B519492DED028B0878DFED188A012812
:1039D0000BD0022809D006280FD007280DD0BDEC47
:1039E000028BBDE8104000F03FBCB0EE680ABDECB1
:1039F000028BBDE810400BF0B9BB91ED1D8A00F0C1
:103A000019F818EE100AB0F17C5F0ADC084890F84B
:103A10007A0020B100EE900AB8EE608A01E0B1EEC3
:103A2000008A40EE088AE0E77C450020732CC9BF7D
:103A3000508C002010B51E482DED028B90ED088AA9
:103A4000B5EEC08AF1EE10FA0ADD18EE100AB0F1F8
:103A50007E5F07DC174890ED1E0ABDEC028B10BD9F
:103A60009FED158AB0EE480AFFF77AFF1348D0EDB4
:103A7000180AF8EEE00A30EE800AF0EE480A0BF081
:103A800045FEB5EEC00AF1EE10FA01D230EE080A9A
:103A9000C0EE080AB7EE000ABDEC028BBDE810408C
:103AA00030EE600ADFED060A20EE200A0BF05EBB66
:103AB0002C0600200000002000008049508C0020CF
:103AC000DB0FC9400748DFED080A90ED040A20EE3D
:103AD000200AB5EEC00AF1EE10FA01D29FED030AFA
:103AE000704700002C0600206F12833A000000008F
:103AF000084890ED0B0AB5EEC00AF1EE10FA01D8B5
:103B0000B1EE000AB5EEC00AF1EE10FA01D8B7EE38
:103B1000000A70472C060020054890ED100ABCEE04
:103B2000C00A10EE100AC0B2012800D90020704768
:103B3000E80500201948DFED1B1A90ED010A90ED11
:103B4000001A1748B5EEC00AD0ED010A60EEA10ACE
:103B5000F1EE10FA01D8B0EE410AF5EEC00AF1EE2E
:103B600010FA0BDDB5EEC00AF1EE10FA04D9F4EE4E
:103B7000C00AF1EE10FA01D2B0EE600ADFED0A0AD7
:103B8000B5EEC00A0949F1EE10FA03D910EE100A99
:103B9000884201DAB0EE600A704700002C0600206F
:103BA000E08C00206666663FCDCC4C3ECDCC4C3ED2
:103BB000094890ED0C0AB5EEC00AF1EE10FA02D8F1
:103BC000443090ED0D0AB5EEC00AF1EE10FA01D8BE
:103BD0009FED020A70470000E805002000803B4589
:103BE00038B1012807D0022807D0032807D005A044
:103BF000704706A0704707A0704708A0704709A04B
:103C000070470000756E6B6E6F776E006E6F726D31
:103C1000616C0000696E7665727400007377617084
:103C200000000000737761702B696E766572740016
:103C3000064890ED050A10EE101AB1F17E5F02DD24
:103C400090ED050A70479FED020A70478000002042
:103C500000007A46094810B590ED060A10EE101AD9
:103C6000B1F17E5F02DD90ED060A10BDFFF7E0FFC7
:103C7000F6EE000A20EE200A10BD000080000020B1
:103C80001248DFED130A90ED000A124820EE200AD8
:103C9000D0ED0A0AF5EEC00AF1EE10FA06DDF4EEF8
:103CA000C00AF1EE10FA01D2B0EE600A10EE100A6E
:103CB000094A0A49904202DAB1EE080A704710EE4A
:103CC000100A8842FADD9FED060A7047508C0020EA
:103CD0003333333F2C0600200000C0400000204258
:103CE000000020422DE9F0414FF0C8480446B8F8E2
:103CF0000C20A4F86420B8F80E20A4F86620B8F8C8
:103D00001020A4F86820B8F81220A4F86A20B8F8A7
:103D10001420A4F86C20B8F81620A4F86E20B8F887
:103D20001800A4F8700091ED070A01200025BCEEF0
:103D3000C00A10EE102A042A73D006DC012A09D02A
:103D4000022A4CD0032A6DD1CBE00B2A6BD00C2A6F
:103D5000F9D144E0B4F8662094F8683042EA0342AE
:103D60006265D4F88830C4F8843094F880304BB160
:103D700091ED130AE06DB5EEC00AF1EE10FA07D12D
:103D8000101A06E084F880002846C4F8885002E043
:103D9000801AC4F8880091ED080ABDEEC00A10EE42
:103DA000101AB0EB610F10EE101A01DD401A06E098
:103DB00049104942884204DA10EE101A0844C4F847
:103DC0008800E265D4E91221C31710185941C4E9EB
:103DD0001201204607F01EF984F87F50CBE0B4F8BA
:103DE000662094F8683042EA03466665B4F86A7063
:103DF000A4F87C70D4F88820C4F8842094F880203B
:103E00004AB191ED130AE06DB5EEC00AF1EE10FA79
:103E10000AD1301A09E084F880002846C4F8885096
:103E200005E07DE12AE1ABE0801BC4F8880091ED5C
:103E3000080ABDEEC00A10EE102AB0EB620F10EEB9
:103E4000102A01DD801A06E052105242904204DA34
:103E500010EE102A1044C4F88800E66591ED060AB9
:103E6000BDEEC00A10EE100A70B1D4F88810D4E983
:103E70001220CB1751185841C4E91210204607F000
:103E8000C9F8B4F86C00F4E091ED130A086AB5EED5
:103E9000C00AF1EE10FA0ED10CF0C0F90246A2FBF6
:103EA000070301FB073102FB0511801941EBE671A5
:103EB000C4E91201E2E70CF0B1F90246A2FB0703E4
:103EC00001FB073102FB051183194FF0000241EBA2
:103ED000E6711046D3EB020260EB0100C4E9122048
:103EE000CCE7B4F86420C2F3032284F87F20B4F84E
:103EF0006A20B4F868301205120B42EA1322626598
:103F0000D4F88830C4F8843094F880304BB191ED07
:103F1000130AE06DB5EEC00AF1EE10FA07D1101ADF
:103F200006E084F880002846C4F8885002E0801A31
:103F3000C4F8880091ED080ABDEEC00A10EE101A10
:103F4000B0EB610F10EE101A01DD401A06E04910C7
:103F50004942884204DA10EE101A0844C4F8880076
:103F6000E265D4E91231C21718185141C4E91201AF
:103F7000204607F04FF8A4F87C5084F87E507DE08E
:103F8000B4F86820B4F8663002F0010643EA064649
:103F9000666594F86A301B0243EA1227A4F87C7025
:103FA000D4F88820C4F8842094F880204AB191ED98
:103FB000130AE06DB5EEC00AF1EE10FA07D1301A1F
:103FC00006E084F880002846C4F8885002E0801B90
:103FD000C4F8880091ED080ABDEEC00A10EE102A60
:103FE000B0EB620F10EE102A01DD801A06E05210CD
:103FF0005242904204DA10EE102A1044C4F88800AD
:10400000E66591ED060AB5EEC00AF1EE10FA7DD133
:1040100091ED130A086AB5EEC00AF1EE10FA0ED15E
:104020000CF0FCF80246A2FB070301FB073102FB80
:104030000511F21780195141C4E9120114E00CF086
:10404000EDF80246A2FB070301FB073102FB051155
:1040500083194FF0000241EBE6711046D3EB0202E8
:1040600060EB0100C4E91220204606F0D3FFB4F84B
:104070006400000A84F87E0084F87F50B8F80810C5
:104080004046A1F5FE41FF3900EE101AF8EEC00AD5
:104090009FED640A60EE800A9FED631A60EE810A6C
:1040A000C4ED000AB8F80210B4F87420891A00EEC2
:1040B000901AF8EEE00A60EE800A9FED5C1A60EE5E
:1040C000810AC4ED080A8188B4F87620F1EE600A0E
:1040D000891A01EE901AF8EEE11A61EE801A21EECB
:1040E000811A84ED091A70EEC10AC4ED0A0AC0886B
:1040F000A0F5FE40FF3800EE900AF8EEE00A20EE50
:10410000800ADFED4B0A20EE200A00E003E084ED98
:10411000060ABDE8F081D4E91231C21718188AE7FF
:10412000B4F86820B4F8663002F07F0643EA064629
:10413000666594F86A301B0243EA1227A4F87C7083
:10414000D4F88820C4F8842094F880204AB191EDF6
:10415000130AE06DB5EEC00AF1EE10FA07D1301A7D
:1041600006E084F880002846C4F8885002E0801BEE
:10417000C4F8880091ED080ABDEEC00A10EE102ABE
:10418000B0EB620F10EE102A01DD801A06E052102B
:104190005242904204DA10EE102A1044C4F888000B
:1041A000E66591ED060ABDEEC00A10EE100A30B1C8
:1041B000D4F88800D4E91231C217181812E091ED32
:1041C000130A086AB5EEC00AF1EE10FA0ED10CF02F
:1041D00025F80246A2FB070301FB073102FB05118C
:1041E000F21780195141C4E9120114E00CF016F8DD
:1041F0000246A2FB070301FB073102FB05118319ED
:104200004FF0000241EBE6711046D3EB020260EB87
:104210000100C4E91220204606F0FCFEB4F86A0052
:1042200027E70000000080371FFDAA44D7A3AAC1DA
:104230000000C84310B52DED048BB0EE419AF0EEAE
:10424000608AB0EE408AFFF767FC38EE680A012802
:1042500007D0F0EE490ABDEC048BBDE810400AF02F
:104260009BBFBDEC048B10BD0448DFED050A90ED4B
:10427000070A30EE200A0AF079BF0000508C0020B7
:10428000732CC9BF10B5294C2DED028BB0EE408ABE
:1042900094ED0D0AF0EEC00A94ED120AB0EEC00AD9
:1042A0000BF010FAF0EE400AB0EEC80A0BF00AFA72
:1042B000DFED1F0ADFED1F8AB7EE001AC0EE201AED
:1042C000F0EE680AB0EE610AFEF7BCFFDFED1A0AF5
:1042D0009FED1A8A1A4894ED121A00EE208A90ED8A
:1042E0000E0AD4ED0D0A70EEC00A31EE400AF0EE6F
:1042F000E00AB0EEC00A0BF0E5F9DFED120AB7EE06
:10430000001AC0EE201AF0EE680AB0EE610AFEF75D
:1043100099FFF0EE400AB5EE000A30EE481AB0EE12
:10432000480ABDEC028B00EE810A10BD000000209F
:104330000000F042000000000AD7A33D0AD7A33CCA
:10434000508C00200000164378B50024009490F8AB
:104350003C20012A19D0012280F83C200A6807235A
:104360000568092A13D9EE680A3A02EB4202934023
:104370009E43EE600B788A680A3B03EB43039A4046
:104380000368DD682A43DA6010E0022078BD2E69F8
:1043900002EB420293409E432E610B788A6803EB46
:1043A00043039A4003681D692A431A614A681F2320
:1043B000072A13D205686E6B521E02EB82029340ED
:1043C0009E436E630B790A885B1E92B203EB8303F4
:1043D0009A4003685D6B2A435A6327E005680D2AFB
:1043E00012D22E6BD21F02EB820293409E432E63A9
:1043F0000B790A88DB1F92B203EB83039A400368B0
:104400001D6B2A431A6311E0EE6A0D3A02EB820239
:1044100093409E43EE620B790A880D3B92B203EB08
:1044200083039A400368DD6A2A43DA62164B056803
:10443000144A9D4206D10D68122D03D1556845F4EA
:104440008005556005689D4218D10B68102B01D07E
:10445000112B13D1536843F40003536009681029EA
:104460000CD10A490A4A0968B1FBF2F101EB81015A
:10447000490000E0491E00910029FBD180F83C4032
:10448000002078BD00230140002001400C030020E3
:1044900040420F0070B504004FF0000503D0206CBF
:1044A000002610B107E0012070BD666484F83C600E
:1044B000204600F019F8206CC00610D4206C20F4BF
:1044C000885040F0020020642046FDF7D5FD666468
:1044D000206C20F0020040F00100206400E0012583
:1044E00084F83C60284670BD08B5006806498842DB
:1044F00008D10648016841F480710160006800F449
:104500008070009008BD0000002001404438024047
:1045100070B5044600F0F6FA0546601C02D0044867
:104520000078044400F0EEFA401BA042FAD370BDBC
:10453000000300202DE9F047044622480F46017E83
:1045400001290AD00121804601764CF250394846B3
:10455000FFF73EF8020003D02FE00220BDE8F0870D
:104560004FF0FF3038602068174D012801D0A66851
:104570001CE0207C6168FEF79BFF4846FFF728F8A7
:104580000246286820F00400286014E0217C3046B0
:10459000FEF73CFF4846FFF71BF80200286820F0B2
:1045A000FA00286001D03E6005E0761CD4E90210D4
:1045B0000844B042EAD8FEF751FF002188F81810ED
:1045C0001046CBE71CA90020103C024003480168BC
:1045D00041F000410160002070470000103C0240A3
:1045E0002DE9F0471B4E05461446307E1F4689468E
:1045F000012808D0012030764CF250384046FEF7B2
:10460000E7FF18B114E00220BDE8F0879DB1012D4D
:1046100016D0022D19D022463B464846FEF76CFFC5
:104620004046FEF7D5FF0C490A6822F001020A60F5
:1046300000213176E8E7E1B24846FEF74DFFEFE7AB
:10464000A1B24846FEF76CFFEAE721464846FEF76E
:1046500079FFE5E71CA90020103C02400749002033
:104660000A68002A09DA054A054B0C3A1360054B23
:1046700013600968002900DA01207047103C0240ED
:1046800023016745AB89EFCDF0B5204887B00168BD
:10469000002938D1012101601D480024016841F042
:1046A000010101600068022500F0010005901F2053
:1046B000CDE9000502AA03260C2782E8D00069464E
:1046C000144800F039F94FF68070CDE9000502AAD0
:1046D000694682E8D000104800F02EF94CF2B37021
:1046E000CDE9000502AA694682E8D0000B4800F037
:1046F00023F92802CDE9000502AA694682E8D00024
:10470000074800F019F907B0F0BD0000F8020020DA
:10471000383802400014024000100240000C0240F1
:10472000001802402DE9F047B0F5005F78D1022172
:10473000754800F0DEF90AF055F97448C168491C63
:10474000C160A0F18004A078002869D104F06CFC5D
:104750006F48FEF76DFD06466D48FEF75FFD6C4F36
:1047600040EA060590376A4E97F9100004F5BA78CA
:1047700000280EDD98F80000042801D0022808D196
:1047800006F12001624891EC030A9030FEF72AFD01
:1047900005430DB1284635E05E495D48FFF7A2FAB2
:1047A0000AF0D8F998F80000002506280ED007284E
:1047B0000CD001280ED0584F4FF0010902283CD0F0
:1047C00078B305284BD0032875D07EE0002006F092
:1047D0004FF96BE0788A20B947F6FF7026F8740F1E
:1047E0007080012006F044F9B6EE001AF6EE000AD9
:1047F000B6EE000AFFF762F8454901F19000FEF7B6
:1048000087FC18B1BDE8F04704F06EBC97F91000C2
:1048100000284BDD04F03EFDE07918B1022107E0ED
:104820001BE01CE0A07A10B1A572052100E0032175
:104830003648F43006F013F838E0022060710120A9
:1048400006F016F905F09AF80AF0ECFBB87810B10A
:104850000120FEF751FF84F80090BDE8F08704F0D6
:1048600019FE3D70BD709FED2D0AFD8087ED080A91
:1048700087ED090A87ED0A0AFD626079012802D0F6
:104880006079022800D16571E57125726572A572A3
:1048900004F000FD1C3696EC030A0AF019F900201A
:1048A00006F0E6F898F80000052802D02570D4E755
:1048B00001E00021BCE704F0EDFC012006F0D8F88F
:1048C00012480421F43005F0CAFF012006F0D0F8A8
:1048D000607801280BD0607804280FD06078032816
:1048E0000FD005F04BF800BF0AF09CFBB3E7D4ED06
:1048F0000F0A94ED0E0AFDF75FFDF5E705F06EFE79
:10490000F2E705F041FDEFE70010024080000020D3
:10491000508C00202C0600204C4500200000000098
:10492000044910B50A68024202D00860FFF7FAFE97
:1049300010BD0000143C01402DE9F84FDFF87CB1B8
:1049400000224FF001084FF0030A4FF00F090BF15E
:10495000040E00BF0B6808FA02F42340A3426ED194
:104960004D68022D01D0122D0ED1D50800EB850C1B
:10497000DCF820505607F70E09FA07F6B5430E6922
:10498000BE402E43CCF82060066855000F790AFA25
:1049900005FC07F0030726EA0C06AF403743076023
:1049A0004E68012E05D0022E03D0112E01D0122EFA
:1049B0000ED18668CF6826EA0C06AF403743876081
:1049C0004668A6430C79C4F3001494403443446011
:1049D000C6688C6826EA0C06AC403443C4604C6858
:1049E000E40065D5364C256845F48045256024688B
:1049F00022F0030504F480440094324C2E19D6F8BA
:104A0000084895072F0F09FA07F5AC432E4DA84229
:104A100001D1002524E02D4DA84201D101251FE040
:104A20002B4DA84201D102251AE02A4DA84201D1FE
:104A3000032515E0284DA84202D1042510E037E0F7
:104A4000264DA84201D105250AE0254DA84201D1F5
:104A5000062505E0234DA84201D1072500E00825E1
:104A6000BD402543C6F80858DBF800405D464E6857
:104A70009C43F60300D51C432C60DEF800407546CD
:104A80004E689C43B60300D51C432C600B4D083583
:104A90002C684E689C43F60200D51C432C60074DE1
:104AA0000C352C684E689C43B60200D51C432C6024
:104AB000521C102AFFF44EAFBDE8F88F003C0140B5
:104AC000443802400030014000000240000402402F
:104AD00000080240000C0240001002400014024096
:104AE00000180240001C02400069084000D001206C
:104AF000704742694A40426170470AB1816170471C
:104B00000904FBE7014880687047000000030020AB
:104B100002488168027811448160704700030020D8
:104B20000B4810B5016841F400710160016841F45F
:104B300080610160016841F480710160032000F030
:104B400097F8002000F006F800F024F8002010BDCF
:104B5000003C024070B50D4D04464FF47A71287840
:104B6000B1FBF0F00A490968B1FBF0F000F0D0FFAA
:104B700048B9102C07D200222146501E00F058F8E8
:104B800000206C6070BD012070BD0000000300209B
:104B90000C0300201F4808B5016841F48041016002
:104BA000006800F4804000901A48001F016841F03E
:104BB00080510160006800F080500090032000F0F8
:104BC00057F8002211466FF00B0000F031F8002278
:104BD00011466FF00A0000F02BF8002211466FF02A
:104BE000090000F025F800221146501F00F020F8BF
:104BF00000221146101F00F01BF800221146901EE3
:104C000000F016F80022BDE808401146501E00F0E2
:104C10000FB800004438024000F01F02012191400B
:104C20004009800000F1E020C0F80011704700004A
:104C3000F0B40E4B1B680C46C3F30223C3F1070507
:104C4000042D00D90425191D072901D2002300E0F5
:104C5000DB1E012606FA05F1491E214099409E40BF
:104C6000761E16403143F0BC04F074B80CED00E041
:104C7000064900F0070208684FF6FF03184040EAB3
:104C80000220034A10430860704700000CED00E06A
:104C90000000FA050068416200207047F0B5006826
:104CA0000023446A31B1856A4FF4827604EB1544DF
:104CB0004D1E0AE044EA024181620FE006EB8307E1
:104CC000C7595B1C04EB1744DBB2AB42F6DB4FF475
:104CD000807303EB810144EA024242500020F0BDA0
:104CE000D0F8EC0306F02ABFC1EBC10200EB820250
:104CF000D0F8EC03526C06F097BEC1EBC10200EB9A
:104D00008202D0F8EC03D2F8042206F0E2BED0F81A
:104D1000EC0306F015BF10B504460A460B0601F079
:104D20007F00C0EBC00104EB810101D5383101E007
:104D300001F5FC710870D009487094F8B803012897
:104D400009D0012084F8B803206807F03BFA00205E
:104D500084F8B80310BD022010BD70B50A460446A1
:104D6000090602F07F0005D5C0EBC00104EB81010C
:104D7000383105E0C2EBC20104EB810101F5FC71A1
:104D800000258D700870D009487094F8B803012888
:104D900009D0012084F8B803206807F0CCFD84F81E
:104DA000B853002070BD022070BD01F00F01C1EBAF
:104DB000C10100EB8100B0F8100280B2704770B5FD
:104DC00004460D460E0601F07F00C0EBC00104EB67
:104DD000810101D5383101E001F5FC71ED09087060
:104DE0004D708A60CB7000D0C8800025022B00D1A6
:104DF0000D7194F8B803012809D0012084F8B80394
:104E0000206807F033F9284684F8B85370BD0220B3
:104E100070BD70B50C4601F07F05C5EBC50100EB18
:104E20008101C1F80C32C1F804220023C1F810320C
:104E300081F8F93181F8F851036901F5FC71012B12
:104E400000D10A616206027C006803D007F0D4FD3D
:104E5000002070BD07F0B0FCFAE770B50D460446BF
:104E6000090605F07F0005D5C0EBC00104EB810108
:104E7000383105E0C5EBC50104EB810101F5FC719A
:104E800001228A700870E809487094F8B803012874
:104E900007D084F8B823206807F07FFD680602D0A9
:104EA00007E0022070BD217C04F56F72206807F0D6
:104EB00023FD002084F8B80370BD70B50C4601F0E6
:104EC0007F05C5EBC50100EB8101CB644A6400237B
:104ED0000B65012381F8393001F8385F0369012B34
:104EE00000D10A616206027C006803D007F084FDED
:104EF000002070BD07F060FCFAE700002DE9F84FD4
:104F0000044600680026054607F0CAFE002875D151
:104F1000206808F08CFE002870D0206808F087FE1A
:104F2000800704D52068416901F0020141612068D1
:104F300008F07DFE010304F56F704FF0010B4FF098
:104F4000000A00904DD5206808F053FE074646E061
:104F5000F80742D0F1B2206808F061FE8046C00731
:104F600028D005EB4612C2F808BB2069012811D1F0
:104F7000C6EBC60004EB8001D2F8102BD1F800027A
:104F8000C2F31202821AC1F81022D1F8042210448E
:104F9000C1F80402F1B22046FFF7AFFE20690128F4
:104FA00008D13EB9D4F80C0220B920680121009A3A
:104FB00007F0A2FC5FEA087007D5204600F0DCFA93
:104FC00005EB46110820C1F8080B5FEAC86004D55C
:104FD00005EB46111020C1F8080B7F08761C002F46
:104FE000B6D1206808F023FE40034FF040095ED59B
:104FF000206808F0F7FD0746002656E0D2E1F807E2
:1050000051D0F1B2206808F0FBFD8046C00724D0E3
:10501000D5F834280BFA06F08243C5F8342805EB9E
:105020004610C0F808B92069012807D1C6EBC600B0
:1050300004EB8000D0E9101211444164F1B2204623
:10504000FFF752FE2069012807D136B9E06C20B97C
:1050500020680121009A07F04FFC5FEA087004D530
:1050600005EB46110820C1F808095FEAC86004D5BD
:1050700005EB46111020C1F808095FEA486003D526
:1050800005EB4611C1F808995FEA887004D505EB75
:1050900046110220C1F808095FEA086003D53146CD
:1050A000204603F06DFE7F08761C002FA7D12068F4
:1050B00008F0BDFD00280DDAD5F8040820F0010045
:1050C000C5F80408204600F03DFA2168486900F060
:1050D00000404861206808F0AAFD00050BD5D5F80E
:1050E0000808C00702D0204600F062FA2068416933
:1050F00001F400614161206808F099FDC0044CD5BD
:10510000D5F8040820F00100C5F804081021206833
:1051100007F096FD0020FF2107E000BF05EB4012DD
:10512000C2F80819C2F8081B401C62688242F5D810
:105130004FF0FF30C5F81808D5F81C0840F00110F2
:10514000C5F81C08206B60B1D5F8840840F00B004E
:10515000C5F88408D5F8440840F00B00C5F84408A9
:105160000BE0D5F8140840F00B00C5F81408D5F88A
:10517000100840F00B00C5F81008D5F8000820F41E
:10518000FE60C5F80008217C2068009A07F0B4FB97
:105190002168486900F480504861206808F047FDA4
:1051A00080047DD5206806F0A1FF2068C16821F445
:1051B0007051C160206807F055FD78B10320C4F834
:1051C0001490E06000F0A4FA7749784A01449142D3
:1051D0000AD22068C16841F4705158E04FF4007061
:1051E000C4F80CA0606136E07149724A01449142F2
:1051F00004D22068C16841F4605148E06E496F4AAA
:105200000144914204D22068C16841F450513EE00B
:105210006B496C4A0144914204D22068C16841F450
:10522000405134E06849694A0144914204D22068FF
:10523000C16841F430512AE06549664A014491420F
:1052400004D22068C16841F4205120E0624942182C
:1052500062498A4204D22068C16841F4105116E0C4
:105260005F49604A0144914204D22068C16841F418
:1052700000510CE05C4908445C4988422068C168E0
:1052800003D241F4E05102E00AE041F4C051C160B0
:10529000204600F047F92068416901F4005141615E
:1052A000206808F0C4FCC00636D52168886920F063
:1052B00010008861D5F8208008F00F00C0EBC00016
:1052C00004EB8007C8F3434007F5FC77022802D0BF
:1052D000062812D01BE047F6F07018EA000F16D02F
:1052E000C8F30A1290462846F96808F0A4FCF8684A
:1052F0004044F860B869404408E008222846009914
:1053000008F099FCB969C8F30A100844B86120682C
:10531000816941F010018161206808F088FC000774
:1053200007D5204600F012F92068416901F0080114
:105330004161206808F07BFCC00208D5F1B220462C
:1053400000F056F82068416901F48011416120683D
:1053500008F06DFC800208D5F1B2204600F04CF850
:105360002068416901F400114161206808F05FFC88
:10537000400007D52046FFF7B3FC2068416901F0E3
:1053800080414161206808F052FC40070AD520683E
:105390004568680702D52046FFF7B9FC20684168D8
:1053A00029434160BDE8F88F405327FF00350C00CA
:1053B000401E1BFF40420F0000DC0BFF804F12001D
:1053C000808CF9FE20D6130060B6E5FE60E316007F
:1053D00000D3CEFE40771B00C05BB3FEC09121001E
:1053E00000CA91FE20753800E05459FEE09C41004F
:1053F000D0F8EC0306F002BCD0F8EC0306F000BCD9
:10540000F0B58BB004004FF0000556D0032084F8AF
:10541000B903204600F054F8206806F0EFFF04F1CD
:10542000100128220F466846FBF7C5F894E80F00E4
:1054300006F076FE0021206809F08AF80126002097
:10544000C5EBC50104EB810181F8396001F8385FD3
:10545000CD80C8708860C8606D1C48610F2DEFD387
:1054600000214FF4827300BFC1EBC10204EB820242
:1054700003EB810582F8F90182F8F811D18782F8EF
:10548000FB01C2F80002C2F80402C2F80C02226852
:105490005051491C0F29E7D3282239466846FBF7AB
:1054A0008AF894E80F0006F009FF84F8B9632068D1
:1054B00006F0F8FE00200BB0F0BD0120FBE7000075
:1054C00000B5006887B0B0F1A04F25D14FF4C050AF
:1054D00000900220019000200290032003900A20F7
:1054E000049069460D48FFF727FA0D48016841F01E
:1054F000800101600A481030016841F48041016078
:105500000068002200F48040059011464320FFF718
:105510008FFB4320FFF780FB07B000BD0000024077
:105520003438024010B50446C068012100B900219A
:10553000D4F8EC0306F0BAFBD4F8EC03BDE8104055
:1055400006F083BBD0F8EC0306F09EBBD0F8EC036A
:1055500006F0A0BB10B5044690F8B803012809D0A6
:10556000012084F8B803206809F008F8002084F8C6
:10557000B80310BD022010BDD0F8EC2300F56F7108
:10558000104606F0A6BB10B5044690F8B8030128F3
:105590000CD0012084F8B803206806F077FE20685C
:1055A00007F038FB002084F8B80310BD022010BDBE
:1055B00010B50446D0F8EC0306F0D8FB2068D0F80C
:1055C000001E41F00101C0F8001E206A002804D02E
:1055D0000248016841F00601016010BD10ED00E0D5
:1055E0002DE9F0470E46050065D0DFF81481D8F8A4
:1055F0000000F7B200F00F00B04207D288F8007048
:10560000D8F8000000F00F00B04254D128683D4C9B
:10561000810712D5400703D5206840F4E050206090
:105620002878000703D5206840F460402060206897
:10563000A96820F0F000084320602878C0072DD02A
:10564000304968680839012812D0022813D003288D
:1056500011D00968890700292DDA216821F003019A
:1056600001432160FFF74EFA814641F2883A0EE08D
:1056700009688903EFE709688901ECE7FFF742FA57
:10568000A0EB0901514502D90320BDE8F08720684D
:10569000696800F00C00B0EB810FEFD1D8F8001072
:1056A000404601F00F01B14207D90770006800F0D1
:1056B0000F00B04201D00120E7E72878400705D568
:1056C0002068E96820F4E05008432060287800074B
:1056D00006D52068296920F4604040EAC1002060B6
:1056E00000F01CF82168084AC1F30311515CC8405E
:1056F000064908600020FFF72DFA0020C5E70000EA
:10570000003C024008380240B20201080C030020AD
:1057100001480068704700000C030020154810B5D0
:10572000006810F00C02144813D01449042A0FD05A
:10573000082A0ED10F4C241F2268236802F03F0272
:105740005B0207D52068C0F38810A0FB010106E0CA
:10575000084610BD2168C1F38811A1FB0001002398
:10576000FAF752FE2168C1F30141491C4900B0FB20
:10577000F1F010BD083802400024F40040787D01AB
:105780002DE9F84F050076D02878DFF8F8B2BE4C46
:10579000C00749D0DBF800105846C1F38101012948
:1057A00008D00068C0F3810002280AD1201D0068DB
:1057B000400206D52068800336D568680028E2D00C
:1057C00032E06868B0F5803F10D0B0F5A02F2068B7
:1057D00010D020F480302060206820F480202060E9
:1057E0006868A0B1FFF78EF906460CE0206840F427
:1057F0008030F4E740F480202060F7E7FFF782F97B
:10580000801B642873D820688003F7D50CE0FFF76D
:1058100079F9064605E000BFFFF774F9801B64289C
:10582000F0D820688003F7D42878DFF860828007FA
:105830004FF000093ED5DBF80010584611F00C0F70
:1058400009D00068C0F3810002280BD18D48001FE9
:105850000068400206D42068800715D5E868012852
:1058600009D111E0E868B8B10120C8F80000FFF7DD
:1058700049F9064605E002E1FFF744F9801B0228DA
:10588000C0D820688007F7D52068296920F0F80083
:1058900040EAC10020600DE0C8F80090FFF732F93F
:1058A000064604E0FFF72EF9801B02281FD8206867
:1058B0008007F7D42878000722D5724E74486969AA
:1058C0006C3671B101210160FFF71CF9074604E055
:1058D000FFF718F9C01B022809D830688007F7D5F0
:1058E0000EE0C0F80090FFF70DF9074605E083E0F1
:1058F000FFF708F9C01B02287ED830688007F7D46C
:105900002878400768D5DFF87CA100270AF1380A1B
:10591000DAF80000C0000BD4DAF8001041F0805132
:10592000CAF80010DAF80000012700F0805000905B
:10593000584E3068C00510D4306840F48070306034
:10594000FFF7E0F8009005E0FFF7DCF80099401A57
:10595000022851D83068C005F6D54A4EA868683686
:1059600001280FD00528306810D020F001003060E9
:10597000306820F004003060A868B8B1FFF7C2F8C2
:1059800000900FE0306840F00100F4E740F00400C0
:105990003060F7E7FFF7B6F80099411A41F2883016
:1059A000814264D830688007F4D50EE0FFF7AAF88A
:1059B000009007E0FFF7A6F80099411A41F28830FD
:1059C000814254D830688007F4D42FB1DAF800103F
:1059D00021F08051CAF80010A869C0B3DBF80010AC
:1059E000C1F3810102294AD00228484607D0C8F8ED
:1059F0006000FFF787F800E039E005463AE04746E7
:105A0000C8F86000FFF77EF8064604E0FFF77AF872
:105A1000801B02282BD820688001F7D4D5E9070124
:105A20000843A96A1C4A490802EB01416A6A41EA33
:105A30008211084395F82C1040EA01611148001FBB
:105A4000016001203866FFF75DF8054605E014E0C7
:105A5000FFF758F8401B022809D820688001F7D5C5
:105A60000BE000BFFFF74EF8401B022802D90320CD
:105A7000BDE8F88F20688001F4D40020F8E7012009
:105A8000F6E70000083802400038024000004742B4
:105A9000800E4742007000400000FFFF70B51546C1
:105AA0000E46040003D094F8490010B107E001202D
:105AB00070BD002084F84800204600F01AF804F178
:105AC00008012068FDF7CCFD3146A2682068FDF78B
:105AD000F1FDD4E901022946236BFDF7A1FDA16880
