:020000040800F2
:1000000028C40020710200084B3600085F30000849
:10001000493600086D090008596D0008000000000D
:10002000000000000000000000000000613F000828
:100030008D0F000800000000013700086D40000827
:100040008B0200088B0200088B0200088B0200085C
:100050008B0200088B0200088F0F00089D0F00081C
:10006000A30F00088B0200088B0200088B02000817
:100070008B0200088B0200088B0200088B0200082C
:100080008B0200088B0200088B0200088B0200081C
:100090008B0200088B0200088B0200088B0200080C
:1000A0008B0200088B0200088B0200088B020008FC
:1000B0008B0200088B0200088B0200088B020008EC
:1000C0008B0200088B0200088B0200088B020008DC
:1000D0008B0200088B0200088B0200088B020008CC
:1000E000950F00088B0200088B0200088B020008A5
:1000F0008B0200088B0200088B0200088B020008AC
:100100008B0200088B0200088B0200088B0200089B
:100110008B0200088B0200088B0200088B0200088B
:100120008B0200088B0200088B0200088B0200087B
:100130008B0200088B0200088B0200088B0200086B
:100140008B0200088B0200088B0200086D36000845
:100150008B0200088B0200088B0200088B0200084B
:100160008B0200088B0200088B0200088B0200083B
:100170008B0200088B0200088B02000800000000C0
:100180008B0200088B02000800F002F800F060F813
:100190000AA090E8000C82448344AAF10107DA45E2
:1001A00001D100F055F8AFF2090EBAE80F0013F0D4
:1001B000010F18BFFB1A43F00103184770760000C7
:1001C000907600000A444FF0000C10F8013B13F049
:1001D000070408BF10F8014B1D1108BF10F8015BA0
:1001E000641E05D010F8016B641E01F8016BF9D193
:1001F00013F0080F1EBF10F8014BAD1C0C1B09D1EA
:100200006D1E58BF01F801CBFAD505E014F8016B5B
:1002100001F8016B6D1EF9D59142D6D370470000ED
:100220000023002400250026103A28BF78C1FBD8FF
:10023000520728BF30C148BF0B6070471FB507F099
:100240002EFA9DE8030000F0BDF91FBD10B510BDEA
:1002500000F024FA1146FFF7F1FF07F0AFF800F0C5
:1002600042FA03B4FFF7F2FF03BC00F073FA000098
:100270000948804709480047FEE7FEE7FEE7FEE73A
:10028000FEE7FEE7FEE7FEE7FEE7FEE70448054976
:10029000054A064B70470000994100088901000893
:1002A0002864002028C400202894002028940020DE
:1002B00070B5064600F06AF9056806F10B0020F0FB
:1002C0000704B4429CBF002070BD2B466A68BAB1D7
:1002D0001068A04210D304F1080188423CBF506866
:1002E000586007D35168101941601168091B0160FB
:1002F00058601460101D70BD13465268002AE7D183
:100300002146284600F04AF90028DED170BD70B5BC
:100310000446051F00F03AF90068002C14BF446839
:1003200070BD002C18BFAC423CBF20466468F8D3B7
:1003300001680A18AA4218BF456003D12A68054619
:100340001144016028684119A1421CBF6C6070BD56
:100350006168696021680844286070BD53EA020C36
:1003600000F069802DE9F04B4FF00006002B1FBF15
:10037000B3FA83F503FA05F424FA05F65E4012BFDA
:100380001643B2FA82F502FA05F4C5F120051EBF44
:1003900022FA05FC44EA0C04203556EA044C4FEAE4
:1003A000144418BF641C4FF000084FF0000990423D
:1003B00071EB030C39D3002919BFB1FA81F701FAA7
:1003C00007F6B0FA80F700FA07F6C7F120071EBF5C
:1003D00020FA07FC46EA0C062037B6FBF4FCA7EB34
:1003E0000507103F07F01F0BCBF120060CFA0BFBA3
:1003F0002CFA06F644BFB3460026202FA4BF5E4663
:100400004FF0000B5BEA060C08BF4FF0010B19EB35
:100410000B09ABFB027C48EB0608C01B06FB02CCB9
:100420000BFB03CC71EB0C01C1E70B4602464146C6
:100430004846BDE8F08B13B54FF000004FF00001C7
:10044000AFF30080BDE81C407047032A40F23080C3
:1004500010F0030C00F0158011F8013BBCF1020F05
:10046000624498BF11F801CB00F8013B38BF11F886
:10047000013BA2F1040298BF00F801CB38BF00F89D
:10048000013B11F0030300F02580083AC0F008801A
:1004900051F8043B083A51F804CBA0E80810F5E7FE
:1004A000121D5CBF51F8043B40F8043BAFF30080E1
:1004B000D20724BF11F8013B11F801CB48BF11F856
:1004C000012B24BF00F8013B00F801CB48BF00F826
:1004D000012B704710B5203AC0F00B80B1E81850DE
:1004E000203AA0E81850B1E81850A0E81850BFF41E
:1004F000F5AF5FEA027C24BFB1E81850A0E81850BD
:1005000044BF18C918C0BDE810405FEA827C24BF10
:1005100051F8043B40F8043B08BF7047D20728BF9E
:1005200031F8023B48BF11F8012B28BF20F8023BED
:1005300048BF00F8012B70474FF0000200B513468A
:1005400094469646203922BFA0E80C50A0E80C50F3
:10055000B1F12001BFF4F7AF090728BFA0E80C50A4
:1005600048BF0CC05DF804EB890028BF40F8042B9D
:1005700008BF704748BF20F8022B11F0804F18BF0A
:1005800000F8012B7047704770477047004870476C
:10059000D0630020704770477047704738B50446F5
:1005A0000A4600206946AFF30080002808BF38BD26
:1005B00002460099204600F04FF8012038BD012086
:1005C00000F064B8F8B5AFF30080054600200C4693
:1005D000102000BF0646A819A0420DD93246694630
:1005E0000020AFF30080070008BF00F04FF800982C
:1005F000A04218BF0546C419FFF7C8FF05600746AB
:10060000F01D20F007004619284600F00AF8B44211
:1006100008BFF8BDA21B31463868BDE8F84000F0BD
:100620001BB800210160C0E901107047102070471D
:1006300010B500F00DF8006810BD10B5044600F0CC
:1006400007F8046010BD000000487047C863002030
:1006500000487047C8630020034640688C46002865
:1006600018BF88423CBF03464068F8D31868184456
:10067000884207D00CF1030020F00700001D411A4A
:10068000521A0146081D0A60FFF741BE10B500F07E
:1006900039F8BDE8104000F02FB870477546FFF7F5
:1006A000D3FFAE4605006946534620F00700854655
:1006B00018B020B5FFF7EAFDBDE820404FF0000676
:1006C0004FF000074FF000084FF0000B21F007013A
:1006D000AC46ACE8C009ACE8C009ACE8C009ACE87D
:1006E000C0098D46704710B50446AFF30080204620
:1006F000BDE81040FFF7B5BD002801D000F02AB8D2
:100700007047000010B5012805D0002103A000F0BB
:1007100027F8012010BD09A1F8E70000534947520E
:10072000544D454D3A204F7574206F6620686561C1
:1007300070206D656D6F7279000000003A20486589
:100740006170206D656D6F727920636F7272757064
:100750007465640001491820ABBEFEE72600020064
:1007600070B505460C460A2000E06D1C00F011F83B
:1007700035B128780028F8D102E0641C00F009F8AF
:1007800014B120780028F8D1BDE870400A20AFF3FA
:10079000008008B569468DF800000320ABBE08BD97
:1007A000454910B54A6822F440324A604A684368B5
:1007B0001A434A6001684A6822F480724A600168FC
:1007C0004A68036942EA03224A6001684A6822F0E3
:1007D00040724A6001684A6883681A434A60016847
:1007E0008A6822F400628A6001688A68C3681A43D2
:1007F0008A60816A6FF07062D14201688A6822F073
:1008000070628A6001688A680CD0836A1A438A60C1
:1008100001688A6822F040528A6001688A68C36A67
:100820001A4301E022F040528A6001688A6822F08F
:1008300002028A6001688A68836942EA43028A6028
:10084000016A002901684A680FD042F400624A60D8
:1008500001684A6822F460424A6001684A68174C9D
:10086000436A04EB43331A4301E022F400624A6016
:100870000168CA6A22F47002CA620168CA6A838B7C
:100880000F4C04EB03531A43CA6201688A6822F4CE
:1008900000728A6001688A68036B42EA43228A60B8
:1008A00001688A6822F480628A6001688A68406907
:1008B00042EA8020886010BD0023014000E0FFFF75
:1008C0000000F0FF10B501282DED028B3ED0002076
:1008D0009FED200A2049C870F6EE000A81ED1C0A3F
:1008E00020EE200A81ED1D0A91ED1C0A1B49BCEE89
:1008F000C00A10EE100AA1F8660000F025FCB7EE61
:10090000008A1748C8EE000AC0ED000A00F00AFC91
:10091000C8EE000A12486838C0ED000A00F002FC78
:10092000C8EE000A0E489FED0F0A34380021C0EDD2
:10093000000A0A48283880ED060AC18002F0AAFFA2
:10094000BDEC028BBDE8104002F09ABF9FED060A95
:10095000C0E7000000007A460000002000440020AC
:10096000640100200000000000803B45FEE70020FD
:10097000704700207047000010B500220449054868
:1009800003F09AFE0449034803F090FE002010BDD6
:10099000BC580020A8480020BC50002010B5084AD0
:1009A0000446007810700968204605F057FB214680
:1009B000044803F07BFE034803F05CFE002010BDFA
:1009C0009C010020A8480020094A10B5D2F818223E
:1009D000D2F814220AB1012010BD0A46014604488B
:1009E00003F06AFEBDE81040014803F0A5BE000018
:1009F000A848002010B52DED048BB0EE408A18EE0B
:100A0000100AB0F17E5F03DC0020BDEC048B10BD4A
:100A10002D48D0ED0B8AF5EEC08AF1EE10FA01DC1C
:100A2000F1EE008AF5EEC08AF1EE10FA01D8F7EE89
:100A3000008AD0ED130A2548F5EEC00A90ED120A9F
:100A4000F1EE10FAB8EEC00A01D038EE400AF0EE2E
:100A5000480A06F057FAB5EEC00AF1EE10FA01D2D4
:100A600030EE080AF6EE000A28EE209AB4EEC09A9C
:100A7000F1EE10FA01D230EE480AB1EE400A06F06B
:100A800099FA9FED130A044668EE000A9FED110AD9
:100A900028EE801A80EE810A06F08CFAFDEEC90A73
:100AA000BDEEC80A204410EE901A814203DA10EE1F
:100AB000101A401AA9E710EE901A49428142A4DDAB
:100AC00010EE101A0844A0E7BC04002000440020E7
:100AD0000000B4420000B44310B50846002304E00F
:100AE000D45C5B1C204480B2DBB28B42F8D300EBB9
:100AF0001020C0B210BD000010B523482DED028BB0
:100B000090ED000ADFED218A214820EE288A90ED41
:100B1000010A20EE280AB5EEC00AF1EE10FA0BDD4C
:100B2000B5EEC08AF1EE10FA04D9B4EEC80AF1EEBF
:100B300010FA01D2B0EE408A18EE100A1549884228
:100B400001DA9FED158A124CDFED140AA83CB0EED5
:100B5000481A94ED020AB0EEC00A00F041F910EE16
:100B6000100A0F4984ED040A884201DAB0EE680ADF
:100B7000B4EEC80AF1EE10FA01DDB0EE480A84EDD9
:100B8000080ABDEC028B10BDBC040020CDCC4C3E4D
:100B900080440020CDCCCC3DCDCCCC3D000000002D
:100BA000CDCC4C3E10B536489FED360A2DED028B6C
:100BB000D0ED000A344820EE801AD0ED010A20EE74
:100BC000800AB5EEC00AF1EE10FA0BDDB5EEC01AE0
:100BD000F1EE10FA04D9B4EEC10AF1EE10FA01D226
:100BE000B0EE401A11EE100A2849884201DA9FED52
:100BF000281A254C9FED278AA83C94ED020AF0EEB6
:100C0000480AB0EEC00A00F0EBF884ED040A94ED57
:100C1000030A9FED211AF6EE000A00F0E1F884EDD8
:100C2000050A207818B11D492069884206DAB0EE1D
:100C3000480A84ED060ABDEC028B10BD00F072FA82
:100C400094ED051AC1EE000A94ED060A30EE800A12
:100C500010EE100A84ED060AB0F17E5F05DBF7EEB8
:100C6000000A30EE600A84ED060A10EE100A94EDD8
:100C7000040AB0F17C5FDEDBB1EE400ADBE7000086
:100C8000BC040020CDCC4C3E80440020CDCCCC3DDB
:100C9000CDCCCC3D000000000000484217B7D13851
:100CA000F0B518B111B1027CBABB01E04020F0BD33
:100CB0002E4A92ED000A10EE103AB3F17E5F02DD8B
:100CC00092ED000A01E09FED2A0AF0EE000A41F2DF
:100CD000883320EE200ABCEEC00A10EE102A9A4299
:100CE00000D21A4644694FF0FF35641C44619442B7
:100CF00003D905744FF48070F0BD4FF0C84462888A
:100D0000A488866832448260C6683444C460468AD7
:100D1000761CB6B246829E4201D20020F0BDB2FBE4
:100D2000F3F296B2B4FBF3F297B2A6F5FE42A7F542
:100D3000FE43FF3AA3F1FF0300D55242002B00DA35
:100D40005B4200248460C460448244614FF40064C8
:100D5000A24201D8A34203D905744FF40070F0BD3C
:100D600021F8686F4F8001210174D6E770000020E0
:100D700000007A460146F0EEC01A91ED010A00200B
:100D8000F4EEC01AF1EE10FA0DDCF0EEE00AF4EE2B
:100D9000C00AF1EE10FA06DCF0EEC10AF4EEC00A69
:100DA000F1EE10FA00DD012070470000054A81696C
:100DB000914201DD08207047034A9142FBDA00208E
:100DC000704700000000A0420000964200680349FE
:100DD000884201DD022070470020704700005C421D
:100DE000B4EEC10AF1EE10FA02DDB0EE410A70472E
:100DF000B4EEE00AF1EE10FAF9D2B0EE600A7047F4
:100E000010B556482DED048BB0EE608AD0ED000A87
:100E1000B4EEE00AF1EE10FA02DD90ED000A0CE00B
:100E2000D0ED000AF1EE600AB4EEE00AF1EE10FA3D
:100E300003D290ED000AB1EE400AB5EEC08AF1EEA1
:100E400010FA02D29FED468A06E018EE100A4549D4
:100E5000884201DD9FED448AF0EEC00A10EE900A50
:100E60004249F6EE008A884204DD18EE100A404935
:100E7000884210DCB0EE681AF0EE680AB0EE680A3C
:100E800000F0FEF8B0EE680AF0EE680AB0EE681AFC
:100E9000BDEC048B10BD3748D0ED000A10EE901A5F
:100EA000B1F17E5F02DDD0ED000A01E0DFED320A34
:100EB000F7EE001A324C81EEA01ADFED300A31490C
:100EC00060EE201A94ED000A01EE810A10EE100A7D
:100ED00084ED000A884202DB30EE600A06E0B5EEDF
:100EE000C00AF1EE10FA03D230EE200A84ED000AB7
:100EF00006F0C2F8B0EE409A94ED000A05F05AFFF1
:100F0000FEEE000A9FED203A69EE202AB0EE401A6C
:100F1000B0EE680AF0EE623A41EE032A68EE001A7B
:100F200041EE433AF0EE400AB0EE402A01EEA20A4A
:100F300001EE892A41EEA30AB0EE403AB0EE420A31
:100F4000F0EE603AB0EE431A00F09AF8B0EE420AC2
:100F5000F0EE630AB0EE431A9AE700002400002086
:100F6000000000006666663F6666663FCDCCCC3DFD
:100F70006F12833A7000002000007A46DB0FC940F0
:100F800014030020DB0FC940D7B35D3F7047012039
:100F900000F050BD4FF4005000F04CBD022000F0B6
:100FA00049BD042000F046BD70B5B3F5804F05D0B3
:100FB0006FF0704140F82210002070BD50F82240C0
:100FC000084B8E891C40D1E9003543EA05138D6832
:100FD00089692D0245EA06452B430B43234340F81C
:100FE0002230E9E70000F0CFF0B50C6850F824306B
:100FF000114A1340D1E90125D1E903672A433E4351
:1010000032434E6932438E693243CE6932430E6AAF
:1010100032434E6A32438E6A3243CE6A3243CE6BDB
:10102000096B32430A431A43082D01D142F04002B2
:1010300040F824200020F0BD8000F0FF30B500EB28
:10104000820250688D8900F04043D1E9000440EAF3
:1010500004108C68240244EA054420430C8A074D9E
:1010600005EB045420430C7D6D0105EB0464896994
:101070002043084318435060002030BD0000F0FFBB
:10108000DFED231AB5EEC00AF1EE10FA01D2B0EE90
:10109000610AF5EEC00AF1EE10FA01D2F0EE610A33
:1010A000B5EEC01AF1EE10FA01D2B0EE611A10EEF0
:1010B000101A1848DFED181A814201DDB0EE610AFE
:1010C00010EE901A814201DDF0EE610A11EE101A65
:1010D000814201DDB0EE611ADFED101A104920EEF9
:1010E000210A0868BCEEC00A10EE102AC26320EE86
:1010F000A10ABCEEC00A10EE102A826321EE210A7A
:101100000968BCEEC00A10EE100A48637047000080
:10111000000000006666663F6666663F0010244673
:10112000A0030020064890ED1C0A10EE101AB1F141
:101130007E5F02DD90ED1C0A70479FED020A70474A
:101140000000002000007A46094810B590ED1D0A05
:1011500010EE101AB1F17E5F02DD90ED1D0A10BD98
:10116000FFF7E0FFF6EE000A20EE200A10BD0000B7
:1011700000000020F0B54FF0C8439A89A0F858202D
:10118000DA89A0F85A201A8AA0F85C205A8AA0F8B6
:101190005E209A8AA0F86020DA8AA0F862201A8B72
:1011A000A0F8642091ED070A01250022BCEEC00AD8
:1011B00010EE104A042C7AD006DC012C09D0022C47
:1011C00047D0032C74D1B4E00B2C72D00C2CF9D185
:1011D0003FE0B0F85A4090F85C6044EA064484640A
:1011E000C66F866790F874604EB191ED130A056D75
:1011F000B5EEC00AF1EE10FA06D1651B05E080F8E5
:1012000074501546C26701E02D1BC56791ED080AB1
:10121000BDEEC00A10EE101AB5EB610F10EE101AF9
:1012200001DD691A06E0491049428D4203DA10EEE9
:10123000101A2944C167046590ED1F0AD0ED100A09
:10124000B8EEC00A30EE800A80ED100A80F87320F4
:10125000B4E0B0F85A4090F85C6044EA0644846414
:10126000B0F85E60A0F87060C76F876790F8747020
:101270004FB191ED130A056DB5EEC00AF1EE10FA0B
:1012800006D1651B05E080F874501546C26701E081
:101290002D1BC56791ED080ABDEEC00A10EE107A4D
:1012A000B5EB670F10EE107A04DDED1B09E04AE1A3
:1012B000F8E088E07F107F42BD4203DA10EE107A3A
:1012C0003D44C567046591ED060ABDEEC00A10EE07
:1012D000105A45B190ED1F0AD0ED100AB8EEC00AC1
:1012E00030EE800A20E091ED130AB5EEC00AF1EE6F
:1012F00010FA00EE104A0CD1F8EEC00A00EE106AA7
:1013000091ED081AB8EE400A40EE010AC0ED100A4D
:101310000CE0744200EE904AB8EEC00A91ED081A53
:10132000F8EEE00A10EE810A80ED100AB0F86010C5
:10133000B2E0B0F85840C4F3032480F87340B0F82A
:101340005E40B0F85C602405240B44EA16248464F3
:10135000C66F866790F874604EB191ED130A056D03
:10136000B5EEC00AF1EE10FA06D1651B05E080F873
:1013700074501546C26701E02D1BC56791ED080A40
:10138000BDEEC00A10EE101AB5EB610F10EE101A88
:1013900001DD691A06E0491049428D4203DA10EE78
:1013A000101A2944C167046590ED1F0AD0ED100A98
:1013B000B8EEC00A30EE800A80ED100AA0F8702066
:1013C00080F872206EE0B0F85C60B0F85A4006F029
:1013D000010744EA0744846490F85E703F0247EADC
:1013E0001626A0F87060C76F876790F874704FB1C9
:1013F00091ED130A056DB5EEC00AF1EE10FA06D1B3
:10140000651B05E080F874501546C26701E02D1B8E
:10141000C56791ED080ABDEEC00A10EE107AB5EB73
:10142000670F10EE107A01DDED1B06E07F107F42A2
:10143000BD4203DA10EE107A3D44C567046591EDB4
:10144000060AB5EEC00AF1EE10FA73D191ED130A57
:10145000B5EEC00AF1EE10FA00EE104A0CD1F8EE2B
:10146000C00A00EE106A91ED081AB8EE400A40EE8C
:10147000010AC0ED100A0DE0744200EE904AB8EE89
:10148000C00A91ED081AF8EEE00A10EE810A00BFDA
:1014900080ED100AB0F858105FEA112180F8721040
:1014A00080F873201989A1F5FE41FF3900EE101A6A
:1014B000F8EEC00A9FED610A60EE800A9FED601AA7
:1014C00060EE810AC0ED000A5988B0F86820891AD8
:1014D00000EE901AF8EEE00A20EE801ADFED590ACD
:1014E00021EE201A80ED081A9988B0F86A20B1EE32
:1014F000411A891A01EE901AF8EEE11A61EE801A8B
:1015000061EEA00AC0ED090A71EE600AC0ED0A0A98
:10151000D988A1F5FE41FF3900EE901AF8EEE00AF5
:1015200020EE800ADFED480A20EE200A80ED060A50
:10153000F0BDFFE700EE105AD0ED100AB8EEC00A79
:1015400030EE800AA4E7B0F85C60B0F85A4006F0CC
:101550007F0744EA07448464B0F85E704FEA076C82
:101560004FEA1C4C4CEA1626A0F87060D0F87CC0FC
:10157000C0F878C090F874C0BCF1000F09D091EDAC
:10158000130A056DB5EEC00AF1EE10FA06D1651B1F
:1015900005E080F874501546C26701E02D1BC56751
:1015A00091ED080ABDEEC00A10EE10CAB5EB6C0F43
:1015B00010EE10CA02DDA5EB0C0508E04FEA6C0C3A
:1015C000CCF1000C654503DA10EE10CA6544C5671E
:1015D000046591ED060ABDEEC00A10EE105A45B141
:1015E00090ED1F0AD0ED100AB8EEC00A30EE800A66
:1015F00020E091ED130AB5EEC00AF1EE10FA00EE0C
:10160000104A0CD1F8EEC00A00EE106A91ED081AEB
:10161000B8EE400A40EE010AC0ED100A0CE0744238
:1016200000EE904AB8EEC00A91ED081AF8EEE00A12
:1016300010EE810A80ED100A390A2FE7000080378A
:101640001FFDAA44D7A3AAC10000C84378B500244F
:10165000009490F83C20012A19D0012280F83C2007
:101660000A6807230568092A13D9EE680A3A02EBCB
:10167000420293409E43EE600B788A680A3B03EB7C
:1016800043039A400368DD682A43DA6010E00220D1
:1016900078BD2E6902EB420293409E432E610B7887
:1016A0008A6803EB43039A4003681D692A431A6161
:1016B0004A681F23072A13D205686E6B521E02EB7D
:1016C000820293409E436E630B790A885B1E92B23E
:1016D00003EB83039A4003685D6B2A435A6327E058
:1016E00005680D2A12D22E6BD21F02EB82029340A4
:1016F0009E432E630B790A88DB1F92B203EB8303B0
:101700009A4003681D6B2A431A6311E0EE6A0D3A92
:1017100002EB820293409E43EE620B790A880D3BF6
:1017200092B203EB83039A400368DD6A2A43DA62CC
:10173000164B0568144A9D4206D10D68122D03D13F
:10174000556845F48005556005689D4218D10B68C1
:10175000102B01D0112B13D1536843F400035360B5
:10176000096810290CD10A490A4A0968B1FBF2F14B
:1017700001EB8101490000E0491E00910029FBD1E5
:1017800080F83C40002078BD00230140002001404B
:10179000F801002040420F0070B504004FF0000532
:1017A00003D0206C002610B107E0012070BD6664F4
:1017B00084F83C60204600F019F8206CC00610D474
:1017C000206C20F4885040F0020020642046FEF790
:1017D000E7FF6664206C20F0020040F00100206406
:1017E00000E0012584F83C60284670BD08B500681B
:1017F0000649884208D10648016841F480710160B9
:10180000006800F48070009008BD000000200140D6
:101810004438024070B5044600F0F6F90546601CF5
:1018200002D004480078044400F0EEF9401BA042C6
:10183000FAD370BDEC010020F0B5204887B00168F4
:10184000002938D1012101601D480024016841F0C0
:10185000010101600068022500F0010005901F20D1
:10186000CDE9000502AA03260C2782E8D0006946CC
:10187000144800F0EBF84FF68070CDE9000502AA9D
:10188000694682E8D000104800F0E0F84CF2B370EE
:10189000CDE9000502AA694682E8D0000B4800F0B5
:1018A000D5F82802CDE9000502AA694682E8D000F1
:1018B000074800F0CBF807B0F0BD0000E4010020BD
:1018C000383802400014024000100240000C024070
:1018D000001802402DE9F04104F0D0FF514CA06EF9
:1018E000401CA066A07800287ED101F00BFF4E4876
:1018F000FFF76CFA06464C48FFF758FADFF82881E4
:1019000040EA060508F18008474E98F9100004F1F6
:10191000900700280ADD3878032807D106F1200156
:10192000404691EC030AFFF725FA05430DB128461E
:1019300031E03E493C48FFF71DFC05F00FF83878D0
:101940000025052809D0062807D0012809D070B342
:1019500004282DD002284BD054E0002002F036FBA2
:1019600041E0B8F81200474620B947F6FF7026F864
:10197000680F7080012002F029FBB6EE001AF6EE27
:10198000000AB6EE000AFFF77BFB274901F1800051
:10199000FFF786F918B1BDE8F04101F013BF97F9E0
:1019A000100000281FDD01F03DFF022117E0FFE7D6
:1019B0001D489FED1F0A283805704570C58080EDD1
:1019C000060A80ED070A80ED080A456201F02AFF49
:1019D000002002F0FBFA3878042804D100211148D5
:1019E000903002F0B0FA00E000E02570BDE8F08130
:1019F00001F018FF012002F0E9FA0A4803219030B3
:101A000002F0A1FA012002F0E1FA6078012806D084
:101A100001F060FF05F054F901202070E6E702F0C4
:101A200047F9F7E70000002000440020BC04002034
:101A300000000000044910B50A68024202D00860A4
:101A4000FFF748FF10BD0000143C01402DE9F84F9E
:101A5000DFF87CB100224FF001084FF0030A4FF08D
:101A60000F090BF1040E00BF0B6808FA02F42340C3
:101A7000A3426ED14D68022D01D0122D0ED1D50892
:101A800000EB850CDCF820505607F70E09FA07F634
:101A9000B5430E69BE402E43CCF820600668550061
:101AA0000F790AFA05FC07F0030726EA0C06AF4097
:101AB000374307604E68012E05D0022E03D0112E49
:101AC00001D0122E0ED18668CF6826EA0C06AF40F0
:101AD000374387604668A6430C79C4F300149440EA
:101AE00034434460C6688C6826EA0C06AC40344334
:101AF000C4604C68E40065D5364C256845F48045E3
:101B00002560246822F0030504F480440094324CDC
:101B10002E19D6F8084895072F0F09FA07F5AC4398
:101B20002E4DA84201D1002524E02D4DA84201D11F
:101B300001251FE02B4DA84201D102251AE02A4DB4
:101B4000A84201D1032515E0284DA84202D1042561
:101B500010E037E0264DA84201D105250AE0254DC9
:101B6000A84201D1062505E0234DA84201D1072551
:101B700000E00825BD402543C6F80858DBF80040C2
:101B80005D464E689C43F60300D51C432C60DEF88E
:101B9000004075464E689C43B60300D51C432C603C
:101BA0000B4D08352C684E689C43F60200D51C434B
:101BB0002C60074D0C352C684E689C43B60200D54E
:101BC0001C432C60521C102AFFF44EAFBDE8F88F66
:101BD000003C014044380240003001400000024017
:101BE0000004024000080240000C024000100240C5
:101BF0000014024000180240001C02400AB181613A
:101C000070470904FBE70000014880687047000046
:101C1000EC0100200248816802781144816070471D
:101C2000EC0100200B4810B5016841F4007101601F
:101C3000016841F480610160016841F480710160D4
:101C4000032000F097F8002000F006F800F024F8D8
:101C5000002010BD003C024070B50D4D04464FF40D
:101C60007A712878B1FBF0F00A490968B1FBF0F00D
:101C700000F0D0FF48B9102C07D200222146501E98
:101C800000F058F800206C6070BD012070BD0000AD
:101C9000EC010020F80100201F4808B5016841F45C
:101CA00080410160006800F4804000901A48001FE5
:101CB000016841F080510160006800F080500090A0
:101CC000032000F057F8002211466FF00B0000F0DF
:101CD00031F8002211466FF00A0000F02BF80022C4
:101CE00011466FF0090000F025F800221146501F40
:101CF00000F020F800221146101F00F01BF800220F
:101D00001146901E00F016F80022BDE8084011466A
:101D1000501E00F00FB800004438024000F01F02CF
:101D2000012191404009800000F1E020C0F800113D
:101D300070470000F0B40E4B1B680C46C3F302233F
:101D4000C3F10705042D00D90425191D072901D267
:101D5000002300E0DB1E012606FA05F1491E2140A2
:101D600099409E40761E16403143F0BC01F06EBC97
:101D70000CED00E0064900F0070208684FF6FF038B
:101D8000184040EA0220034A1043086070470000F0
:101D90000CED00E00000FA05006841620020704789
:101DA000F0B500680023446A31B1856A4FF4827649
:101DB00004EB15444D1E0AE044EA024181620FE043
:101DC00006EB8307C7595B1C04EB1744DBB2AB423D
:101DD000F6DB4FF4807303EB810144EA0242425088
:101DE0000020F0BDD0F8EC0302F0C8BEC1EBC10288
:101DF00000EB8202D0F8EC03526C02F035BEC1EB6E
:101E0000C10200EB8202D0F8EC03D2F8042202F007
:101E100080BED0F8EC0302F0B3BE10B504460A460B
:101E20000B0601F07F00C0EBC00104EB810101D57E
:101E3000383101E001F5FC710870D009487094F860
:101E4000B803012809D0012084F8B803206803F002
:101E5000D9F9002084F8B80310BD022010BD70B578
:101E60000A460446090602F07F0005D5C0EBC00112
:101E700004EB8101383105E0C2EBC20104EB8101C2
:101E800001F5FC7100258D700870D009487094F838
:101E9000B803012809D0012084F8B803206803F0B2
:101EA000ECFC84F8B853002070BD022070BD01F036
:101EB0000F01C1EBC10100EB8100B0F8100280B24C
:101EC000704770B504460D460E0601F07F00C0EB6A
:101ED000C00104EB810101D5383101E001F5FC714D
:101EE000ED0908704D708A60CB7000D0C880002565
:101EF000022B00D10D7194F8B803012809D00120FC
:101F000084F8B803206803F0D1F8284684F8B85361
:101F100070BD022070BD70B50C4601F07F05C5EBA9
:101F2000C50100EB8101C1F80C32C1F80422002385
:101F3000C1F8103281F8F93181F8F851036901F5DF
:101F4000FC71012B00D10A616206027C006803D09B
:101F500003F0F4FC002070BD03F0D0FBFAE770B58D
:101F60000D460446090605F07F0005D5C0EBC0010B
:101F700004EB8101383105E0C5EBC50104EB8101BB
:101F800001F5FC7101228A700870E809487094F824
:101F9000B803012807D084F8B823206803F09FFC19
:101FA000680602D007E0022070BD217C04F56F7244
:101FB000206803F043FC002084F8B80370BD70B5BE
:101FC0000C4601F07F05C5EBC50100EB8101CB6438
:101FD0004A6400230B65012381F8393001F8385F2A
:101FE0000369012B00D10A616206027C006803D0FC
:101FF00003F0A4FC002070BD03F080FBFAE70000B2
:102000002DE9F84F044600680026054603F0EAFD76
:10201000002875D1206804F00DF8002870D02068E1
:1020200004F008F8800704D52068416901F0020136
:102030004161206803F0FEFF010304F56F704FF06B
:10204000010B4FF0000A00904DD5206803F0D4FF3B
:10205000074646E0F80742D0F1B2206803F0E2FFFD
:102060008046C00728D005EB4612C2F808BB20699D
:10207000012811D1C6EBC60004EB8001D2F8102B69
:10208000D1F80002C2F31202821AC1F81022D1F86C
:1020900004221044C1F80402F1B22046FFF7AFFE5B
:1020A0002069012808D13EB9D4F80C0220B9206873
:1020B0000121009A03F0C2FB5FEA087007D52046B1
:1020C00000F0DCFA05EB46110820C1F8080B5FEAC6
:1020D000C86004D505EB46111020C1F8080B7F0835
:1020E000761C002FB6D1206803F0A4FF40034FF008
:1020F00040095ED5206803F078FF0746002656E0C9
:10210000D2E1F80751D0F1B2206803F07CFF80469D
:10211000C00724D0D5F834280BFA06F08243C5F85E
:10212000342805EB4610C0F808B92069012807D10A
:10213000C6EBC60004EB8000D0E9101211444164E4
:10214000F1B22046FFF752FE2069012807D136B9C7
:10215000E06C20B920680121009A03F06FFB5FEA70
:10216000087004D505EB46110820C1F808095FEA9C
:10217000C86004D505EB46111020C1F808095FEAD4
:10218000486003D505EB4611C1F808995FEA8870ED
:1021900004D505EB46110220C1F808095FEA086082
:1021A00003D53146204601F067FA7F08761C002FE0
:1021B000A7D1206803F03EFF00280DDAD5F8040807
:1021C00020F00100C5F80408204600F03DFA21681F
:1021D000486900F000404861206803F02BFF0005CB
:1021E0000BD5D5F80808C00702D0204600F062FAE7
:1021F0002068416901F400614161206803F01AFF21
:10220000C0044CD5D5F8040820F00100C5F8040836
:102210001021206803F0B6FC0020FF2107E000BF7A
:1022200005EB4012C2F80819C2F8081B401C62688E
:102230008242F5D84FF0FF30C5F81808D5F81C08D1
:1022400040F00110C5F81C08206B60B1D5F8840877
:1022500040F00B00C5F88408D5F8440840F00B00A6
:10226000C5F844080BE0D5F8140840F00B00C5F899
:102270001408D5F8100840F00B00C5F81008D5F880
:10228000000820F4FE60C5F80008217C2068009A50
:1022900003F0D4FA2168486900F48050486120684E
:1022A00003F0C8FE80047DD5206802F03FFF20685F
:1022B000C16821F47051C160206803F075FC78B1E9
:1022C0000320C4F81490E06000F0A4FA7749784A3B
:1022D000014491420AD22068C16841F4705158E02B
:1022E0004FF40070C4F80CA0606136E07149724A86
:1022F0000144914204D22068C16841F4605148E031
:102300006E496F4A0144914204D22068C16841F489
:1023100050513EE06B496C4A0144914204D220681E
:10232000C16841F4405134E06849694A014491422E
:1023300004D22068C16841F430512AE06549664AF8
:102340000144914204D22068C16841F4205120E048
:102350006249421862498A4204D22068C16841F445
:10236000105116E05F49604A0144914204D220684E
:10237000C16841F400510CE05C4908445C49884262
:102380002068C16803D241F4E05102E00AE041F460
:10239000C051C160204600F047F92068416901F44E
:1023A00000514161206803F045FEC00636D5216822
:1023B000886920F010008861D5F8208008F00F00AF
:1023C000C0EBC00004EB8007C8F3434007F5FC777F
:1023D000022802D0062812D01BE047F6F07018EA57
:1023E000000F16D0C8F30A1290462846F96803F089
:1023F00025FEF8684044F860B869404408E00822C7
:102400002846009903F01AFEB969C8F30A10084477
:10241000B8612068816941F010018161206803F092
:1024200009FE000707D5204600F012F9206841692F
:1024300001F008014161206803F0FCFDC00208D5ED
:10244000F1B2204600F056F82068416901F480118D
:102450004161206803F0EEFD800208D5F1B220460C
:1024600000F04CF82068416901F4001141612068D6
:1024700003F0E0FD400007D52046FFF7B3FC2068DD
:10248000416901F080414161206803F0D3FD4007BC
:102490000AD520684568680702D52046FFF7B9FCD1
:1024A0002068416829434160BDE8F88F405327FF09
:1024B00000350C00401E1BFF40420F0000DC0BFFEC
:1024C000804F1200808CF9FE20D6130060B6E5FE26
:1024D00060E3160000D3CEFE40771B00C05BB3FE66
:1024E000C091210000CA91FE20753800E05459FEC9
:1024F000E09C4100D0F8EC0302F0A0BBD0F8EC0364
:1025000002F09EBBF0B58BB004004FF0000556D032
:10251000032084F8B903204600F054F8206802F044
:102520008DFF04F1100128220F466846FDF7D2FF07
:1025300094E80F0002F014FE0021206804F018F85F
:1025400001260020C5EBC50104EB810181F839604B
:1025500001F8385FCD80C8708860C8606D1C486124
:102560000F2DEFD300214FF4827300BFC1EBC102E6
:1025700004EB820203EB810582F8F90182F8F8117D
:10258000D18782F8FB01C2F80002C2F80402C2F847
:102590000C0222685051491C0F29E7D328223946E2
:1025A0006846FDF797FF94E80F0002F0A7FE84F855
:1025B000B963206802F096FE00200BB0F0BD012048
:1025C000FBE7000000B5006887B0B0F1A04F25D14F
:1025D0004FF4C05000900220019000200290032090
:1025E00003900A20049069460D48FFF72FFA0D4822
:1025F000016841F0800101600A481030016841F42F
:10260000804101600068002200F48040059011467E
:102610004320FFF78FFB4320FFF780FB07B000BD8F
:10262000000002403438024010B50446C068012161
:1026300000B90021D4F8EC0302F058FBD4F8EC0305
:10264000BDE8104002F021BBD0F8EC0302F03CBB27
:10265000D0F8EC0302F03EBB10B5044690F8B80386
:10266000012809D0012084F8B803206803F096FF00
:10267000002084F8B80310BD022010BDD0F8EC2370
:1026800000F56F71104602F044BB10B5044690F897
:10269000B80301280CD0012084F8B803206802F0A8
:1026A00015FE206803F058FA002084F8B80310BD26
:1026B000022010BD10B50446D0F8EC0302F076FB02
:1026C0002068D0F8001E41F00101C0F8001E206A09
:1026D000002804D00248016841F00601016010BDE5
:1026E00010ED00E02DE9F0470E46050065D0DFF85B
:1026F0001481D8F80000F7B200F00F00B04207D202
:1027000088F80070D8F8000000F00F00B04254D1F3
:1027100028683D4C810712D5400703D5206840F456
:10272000E05020602878000703D5206840F460401E
:1027300020602068A96820F0F00008432060287815
:10274000C0072DD0304968680839012812D0022806
:1027500013D0032811D00968890700292DDA2168D0
:1027600021F0030101432160FFF74EFA814641F257
:10277000883A0EE009688903EFE709688901ECE708
:10278000FFF742FAA0EB0901514502D90320BDE849
:10279000F0872068696800F00C00B0EB810FEFD182
:1027A000D8F80010404601F00F01B14207D9077078
:1027B000006800F00F00B04201D00120E7E7287860
:1027C000400705D52068E96820F4E0500843206000
:1027D0002878000706D52068296920F4604040EA7F
:1027E000C100206000F01CF82168084AC1F3031101
:1027F000515CC840064908600020FFF72DFA002010
:10280000C5E70000003C024008380240FC770008A1
:10281000F80100200148006870470000F80100201E
:10282000154810B5006810F00C02144813D0144974
:10283000042A0FD0082A0ED10F4C241F22682368C7
:1028400002F03F025B0207D52068C0F38810A0FBAE
:10285000010106E0084610BD2168C1F38811A1FB03
:1028600000010023FDF77AFD2168C1F30141491CF5
:102870004900B0FBF1F010BD083802400024F4001C
:1028800040787D012DE9F84F050076D02878DFF8F3
:10289000F8B2BE4CC00749D0DBF800105846C1F36F
:1028A0008101012908D00068C0F3810002280AD103
:1028B000201D0068400206D52068800336D5686870
:1028C0000028E2D032E06868B0F5803F10D0B0F563
:1028D000A02F206810D020F480302060206820F4E1
:1028E000802020606868A0B1FFF78EF906460CE0F2
:1028F000206840F48030F4E740F480202060F7E75F
:10290000FFF782F9801B642873D820688003F7D50D
:102910000CE0FFF779F9064605E000BFFFF774F910
:10292000801B6428F0D820688003F7D42878DFF86B
:10293000608280074FF000093ED5DBF80010584652
:1029400011F00C0F09D00068C0F3810002280BD1F0
:102950008D48001F0068400206D42068800715D506
:10296000E868012809D111E0E868B8B10120C8F889
:102970000000FFF749F9064605E002E1FFF744F9D8
:10298000801B0228C0D820688007F7D520682969F5
:1029900020F0F80040EAC10020600DE0C8F8009087
:1029A000FFF732F9064604E0FFF72EF9801B0228F4
:1029B0001FD820688007F7D42878000722D5724EE8
:1029C000744869696C3671B101210160FFF71CF927
:1029D000074604E0FFF718F9C01B022809D8306841
:1029E0008007F7D50EE0C0F80090FFF70DF9074615
:1029F00005E083E0FFF708F9C01B02287ED83068A5
:102A00008007F7D42878400768D5DFF87CA1002735
:102A10000AF1380ADAF80000C0000BD4DAF8001026
:102A200041F08051CAF80010DAF80000012700F0E8
:102A300080500090584E3068C00510D4306840F483
:102A400080703060FFF7E0F8009005E0FFF7DCF8F9
:102A50000099401A022851D83068C005F6D54A4E70
:102A6000A868683601280FD00528306810D020F0FB
:102A700001003060306820F004003060A868B8B110
:102A8000FFF7C2F800900FE0306840F00100F4E773
:102A900040F004003060F7E7FFF7B6F80099411AFC
:102AA00041F28830814264D830688007F4D50EE066
:102AB000FFF7AAF8009007E0FFF7A6F80099411A7F
:102AC00041F28830814254D830688007F4D42FB165
:102AD000DAF8001021F08051CAF80010A869C0B3DC
:102AE000DBF80010C1F3810102294AD002284846D0
:102AF00007D0C8F86000FFF787F800E039E0054626
:102B00003AE04746C8F86000FFF77EF8064604E062
:102B1000FFF77AF8801B02282BD820688001F7D4B1
:102B2000D5E907010843A96A1C4A490802EB01419B
:102B30006A6A41EA8211084395F82C1040EA016163
:102B40001148001F016001203866FFF75DF8054657
:102B500005E014E0FFF758F8401B022809D8206868
:102B60008001F7D50BE000BFFFF74EF8401B0228AD
:102B700002D90320BDE8F88F20688001F4D400203A
:102B8000F8E70120F6E7000008380240003802406C
:102B900000004742800E4742007000400000FFFFE7
:102BA00070B515460E46040003D094F8490010B1E4
:102BB00007E0012070BD002084F84800204600F0A6
:102BC0001AF804F108012068FEF70EFA3146A268EF
:102BD0002068FEF733FAD4E901022946236BFEF799
:102BE000E3F9A168206850F8212042F0010240F882
:102BF0002120002070BDFEF71FBE4FF0E021042809
:102C0000086903D020F004000861704740F0040018
:102C1000FAE7704710B5401EB0F1807F01D3012064
:102C200010BD4FF0E02460610F21601700F00EFD31
:102C30000020A06107202061002010BD10B5FFF723
:102C4000E8FF10BD10B590F83820012A25D00122E8
:102C500080F83820CA688C6822F4407222434C689D
:102C600022F4806222430C6822F4006222430C6941
:102C700022F4805222434C6922F4005222438C6990
:102C800022F48042224322F40041026800232143BF
:102C9000516480F83830002010BD022010BD30B5DE
:102CA00090F83820012A20D0012280F83820022311
:102CB00080F8393003685C6824F070045C60036855
:102CC0005C680D682C435C6003689C6824F0800499
:102CD0009C6003689C6849680C439C6080F83920BC
:102CE000002180F83810084630BD022030BD10B5F4
:102CF00004460068042201F0E4FA2068416C41F4C3
:102D0000004141642068016841F001010160002038
:102D100010BD10B504460068002201F0D2FA206808
:102D2000036A41F211110B4240F2444206D1036A98
:102D3000134203D1436C23F4004343642068036AC5
:102D40000B4206D1016A114203D1016821F0010151
:102D50000160002010BD10B5040003D094F83900C4
:102D600010B107E0012010BD002084F83800204693
:102D700000F00CF8022084F83900211D206801F0D1
:102D800035FA012084F83900002010BD00B5006834
:102D90000D4987B0884215D10C480021026842F0E5
:102DA00002020260006800F002000590012000901D
:102DB0000220CDE901010320CDE903106946044852
:102DC000FEF744FE07B000BD000401404438024055
:102DD00000000240F0B500681A49002402251A4F8D
:102DE00085B0884209D140140090CDE901540120FA
:102DF000CDE90340694638461FE0144988421ED198
:102E000080200090CDE901540326CDE903466946B0
:102E10000F48FEF71BFE0096CDE90154CDE90346AD
:102E200069463846FEF712FE4FF470700090CDE907
:102E30000154CDE9034669460648FEF707FE05B092
:102E4000F0BD000000000140000402400004014009
:102E5000000002400008024070B5044690F83800B7
:102E60000D4601280DD0012684F83860022084F830
:102E7000390042B1042A18D0082A2AD00C2A4DD190
:102E800039E0022070BD206801F030FA20688169C5
:102E900041F0080181612068816921F004018161AC
:102EA000206881692A69114311E0206801F04AFA1B
:102EB0002068816941F4006181612068816921F4A1
:102EC00080618161206881692A6941EA022181610A
:102ED00024E0206801F068FA2068C16941F0080127
:102EE000C1612068C16921F00401C1612068C16924
:102EF0002A69114311E0206801F086FA2068C1694F
:102F000041F40061C1612068C16921F48061C1613F
:102F10002068C1692A6941EA0221C16184F83960E7
:102F2000002084F8380070BD10B5040003D094F878
:102F3000390010B107E0012010BD002084F83800EE
:102F4000204600F00DF8022084F83900211D206889
:102F500001F04CF9012084F83900002010BD000078
:102F600008B500680649884208D10648016841F062
:102F700001010160006800F00100009008BD000040
:102F8000000001404438024010B5044600680122A8
:102F900001F08CF908492068884202D0074988422C
:102FA00003D1416C41F4004141642068016841F063
:102FB00001010160002010BD00000140000401403B
:102FC00010B504460068002201F070F9114841F282
:102FD000111221689310814202D00F48814209D119
:102FE000086A104206D1086A184203D1486C20F4DE
:102FF000004048642068016A114206D1016A194202
:1030000003D1016821F001010160012084F8390039
:10301000002010BD000001400004014070B50446CE
:1030200090F83800012818D0012584F83850022083
:1030300084F83900204601F00FFA2068C16821F0B9
:103040004001C1602068C16821F48041C16084F8FA
:103050003950002084F8380070BD022070BDFEE7B2
:103060004FF4801140F8441F002180F8291040F6E9
:10307000B8324284042280F82A2047F6FF72828404
:10308000C284026981639FED090A8260416300ED99
:10309000040A00ED030A00ED010A00ED020A00ED4A
:1030A0000A0A80F83010C1604160704700000000DB
:1030B00010B540212548FDF73FFA244880214030D3
:1030C000FDF73AFA2148B7EE000ADFED210A80ED5C
:1030D000010AC0ED050AF1EE040AC0ED060ADFEDB3
:1030E0001D0A9FED1D1AC0ED0C0A80ED0E1A9FED12
:1030F0001B1A403080ED001A9FED191A80ED011A5D
:10310000B0EE081A80ED071A9FED161A80ED081A26
:103110009FED151A80ED091A9FED141A80ED0A1A19
:10312000C0ED0D0AF1EE000AC0ED0B0ADFED100A4A
:1031300080ED100AC0ED110A80ED130A03F0DCFCEB
:10314000BDE81040014803F039BB00007C040020BA
:103150000AD7A33C00803B4500000000CDCCCC3F0B
:10316000CDCC4C4000008049000048430000B642EE
:10317000000016437FB512481049002401604FF447
:103180008031C0E90114046184610E490462C0E920
:103190000A140125C460C56145610463FEF7FCFAA9
:1031A00000B1FEE71020CDE900056946029404480D
:1031B000FEF74CFA002800D0FEE77FBD002001405A
:1031C0001C0300200100000F2DE9F04F2B4887B0B1
:1031D0004FF02046DFF8A88000240660C0E9018493
:1031E0001025C460C0E904458461C4614FF4805A6D
:1031F0000462C0E9094AC4620463446384634464AA
:1032000001270F20CDE9007046204FF00609CDE9D7
:1032100002094FF0110B0495CDE905B4002269466F
:103220001648FFF7BDFC00B1FEE7144802215030FC
:103230000022C0E90214C0E904458461C46104624B
:10324000C0E9094AC4620463446384634464C0E916
:1032500000680F20CDE90070CDF80890CDE905B4E5
:103260000648CDE9037569465030FFF799FC002800
:1032700000D0FEE707B0BDE8F08F0000DC030020BF
:10328000040100A02DE9F04F814887B000240168B7
:1032900041F010010160016801F010010591016821
:1032A00041F020010160016801F0200105910168F1
:1032B00041F080010160016801F080010591016821
:1032C00041F004010160016801F004010591016809
:1032D00041F001010160016801F0010105910168FF
:1032E00041F002010160016801F0020105910168ED
:1032F00041F040010160016801F040010591016861
:1033000041F0080101600068DFF8889100F00800D2
:103310000590012204214846FEF770FCDFF878A1F1
:103320004FF48047002239465046FEF767FCDFF82D
:103330006CB1002240F605015846FEF75FFC002202
:1033400044215748FEF75AFC4FF4005801224146E9
:103350005846FEF753FC01224FF4C0715148FEF766
:103360004DFC002279114F48FEF748FC0022032152
:103370004846FEF743FC072601250096CDE9015497
:10338000694648460394FEF761FB47480096CDE93D
:10339000010469464548FEF759FB4FF4CE60CDE97C
:1033A0000004694642480294FEF750FBE802CDE96A
:1033B0000004694650460294FEF748FB3D48CDF8AC
:1033C0000080CDE9010469465046FEF73FFB0097B7
:1033D000CDE90154694650460394FEF737FB42F6A7
:1033E00005000090CDE90154694658460394FEF764
:1033F0002DFB44F26000CDE900046946294802949F
:10340000FEF724FB44200090CDE90154694624488E
:103410000394FEF71BFB0820CDE900046946204811
:103420000294FEF713FB4FF45440CDE900046946C3
:1034300058460294FEF70AFBF0010090CDE90154D2
:10344000694618480394FEF701FB0022012106207B
:10345000FEF770FC0620FEF761FC00220221072027
:10346000FEF768FC0720FEF759FC00220221082025
:10347000FEF760FC0820FEF751FC002211462820D0
:10348000FEF758FC2820FEF749FC07B0BDE8F08F96
:103490003038024000100240001402400018024080
:1034A000000C02400004024000002110000802400D
:1034B000000002400000111030B51E481C4991B0B8
:1034C0000024602580E8320042F60411C0E90314AC
:1034D0004461FFF729FD00B1FEE70E940EA91548DF
:1034E0000F94FFF7DCFB00B1FEE7CDE900540820A4
:1034F000CDE9024004940594002269460D480694E3
:10350000FFF7AAFC00B1FEE70794089409944FF472
:1035100000500A94CDE90B4007A906480D94FFF727
:1035200091FB00B1FEE70348FFF754FC11B030BD3A
:10353000000001406403002030B53448324995B0A2
:103540000024602580E8320042F60411C0E903142B
:103550004461FFF700FC00B1FEE72C48FFF7E4FCF4
:1035600000B1FEE704200E9070200F904FF4004051
:10357000CDE910040EA925481294FFF74FFD00B1C4
:10358000FEE7139413A921481494FFF788FB00B1B8
:10359000FEE702200095CDE901400820CDE90304B3
:1035A00005940022694619480694FFF755FC00B1BE
:1035B000FEE7042269461548FFF74EFC00B1FEE71E
:1035C000082269461148FFF747FC00B1FEE70C22CC
:1035D00069460E48FFF740FC00B1FEE70794CA2099
:1035E0000894CDE909404FF40050CDE90B4007A9FC
:1035F00006480D94FFF726FB00B1FEE70348FFF7EE
:10360000E9FB15B030BD000000040140A00300201C
:1036100010B500220849094801F0F1F908490748A6
:1036200001F0F1FB0749054801F038F8BDE810400A
:10363000024801F035BC0000A0010020A84800208D
:10364000DC020020D4010020FEE770470907090EC4
:10365000002806DA00F00F0000F1E02080F8141DC9
:10366000704700F1E02080F8001470470148FEF731
:10367000C7BC0000CC4A00202DE9F84F0F46C1EB33
:10368000C70100EB810582460668D5E91301441A9B
:10369000286C3835A04200D20446E01C4FEA90085E
:1036A00006EB471916E0441AA868A04200D2044667
:1036B000E01C4FEA90089AF810000090A3B2FAB20A
:1036C0003046E96803F052F8E8682044E860A869E9
:1036D0002044A861D9F8180980B2404505D9D5E938
:1036E0000501814201D20028DDD134B90120D6F88C
:1036F0003418B8408143C6F834180020BDE8F88F6C
:10370000704700004FF0C8410A892848C2814A88A2
:1037100042818A888281C9880182C1899FED251AE8
:10372000A1F5FE41FF3900EE101A2349F8EEC00A58
:103730009FED1F0A60EE800A60EE810AC1ED000A6B
:10374000B1F8682043899FED1D1A9A1A00EE902A5D
:10375000F8EEE00A60EE800A60EE810AC1ED080A28
:10376000B1F86A208389F1EE600A9A1A01EE902A74
:10377000F8EEE11A61EE801A21EE811A81ED091A44
:1037800070EEC10AC1ED0A0A008AA0F5FE40FF38BA
:1037900000EE900AF8EEE00A20EE800ADFED080A5B
:1037A00020EE200A81ED060A70470000000000208C
:1037B000000080371FFDAA4400440020D7A3AAC1FF
:1037C0000000C84370B5144C2189014321816182F6
:1037D000124A0121002582F80C1465709FED100A31
:1037E000C03A84ED070A84ED080A15705570D5803B
:1037F00082ED060A82ED070A82ED080A55628A1EEA
:10380000014604F1900000F083FB00F00BF800206B
:1038100000F0DCFB257070BD000000209844002003
:1038200000000000144810B5016B8847124834307E
:10383000016B884710486830016B88470E489FED40
:103840000F0AFC38002180ED0A0A80ED0B0A417155
:1038500080ED100A80ED110A80ED120A00F01AF8CE
:1038600000F00EF8BDE81040B6EE001AF6EE000AC1
:10387000B6EE000AFDF704BCFC00002000000000CA
:1038800003489FED020A80ED000A70470000000027
:10389000140300200A489FED090A00F1800180ED21
:1038A0001E0A80ED1F0A81ED000A0021818280ED51
:1038B000130A80ED0D0A80ED0F0A7047000000002A
:1038C00000000020002101808160C16001744182FC
:1038D000416170472DE9F05FEA4D00262DED088B20
:1038E0004FF07E5A286850450BDABDEC088BB6EED7
:1038F000001AF6EE000AB6EE000ABDE8F05FFDF72A
:10390000BFBBDFF8849399ED089AB5EEC09AF1EE4B
:1039100010FA01DC9FEDDD9ADA4C95ED078A283C20
:103920002078DFEDDB8AC0B1607848B1A0789FEDE8
:10393000D90A012808D0022809D003280DD160E057
:10394000B0EE688A012608E038EE000A01E038EEA1
:10395000400A03F003FAB0EE408AB0EE480A03F0E2
:103960008BFBF0EE409AB0EE480A03F023FAB0EE7B
:1039700040AAD5ED080A95ED090A2078A84668B155
:10398000207928B1B0EE601AF0EE400AB0EE410A9C
:10399000E07818B1F1EE600AB1EE400ABE4D28465B
:1039A000C5ED000A85ED010A2969884795ED020AEF
:1039B00005F11407384687ED000A95ED030A87EDF7
:1039C000010AC7ED029A87ED03AAB969884797ED06
:1039D000040A454688ED040A97ED050AB6EE00BADA
:1039E00088ED050AA0462078F7EE00AAA7F1AC04FE
:1039F000A0B3C4ED068AC4ED0B8A2EB1FDF77CF8A6
:103A000004E09FEDA60A9FE7FDF7CCF884ED0A0AD3
:103A100095ED000A60EE0B0A9FEDA10A20EE808A68
:103A2000D9ED0A0A20EE800AB5EEC00AF1EE10FACE
:103A30000BDDB5EEC08AF1EE10FA04D9B4EEC80A77
:103A4000F1EE10FA01D2B0EE408A18EE100A50459D
:103A500001DAB0EE6A8A88ED078A29E0FFE7C8ED4F
:103A6000078AC8ED088A6079401CC0B260710228DC
:103A700018D30020607195ED0D0AD4ED060A864F2B
:103A800030EEC00ACC37384687ED010AF96A88471C
:103A900097ED041AD7ED050A97ED0A0AFDF7A0F98C
:103AA00084ED0B0A95ED000ADFED7E0A20EE208AF8
:103AB000DFF8E4A10AF1640AB1EE480A8AED048A4B
:103AC0000AF1340B8AED050A8BED048A8BED050AA9
:103AD000AAF15001D4ED0A0A91ED040A5F4650465E
:103AE00030EEC00A8AED010A91ED050AD4ED0B0A09
:103AF00030EEC00A8BED010ADAF82C108847F96A1B
:103B000058468847B5EEC08A0C3FF1EE10FA07F12F
:103B1000340420D997ED000AD4ED000A20EE000A03
:103B200000EEA00A68EE080AB4EEE00AF1EE10FA20
:103B300011D903F069FBF0EE400A88EE200AD7EDB8
:103B4000000A60EE800AC7ED000AD4ED000A20EEFC
:103B5000800A84ED000ADAED0A0A4F4CC5ED0B0A23
:103B60009BED0A0A303485ED0C0AC4ED000A84EDA1
:103B7000010AC4ED029A84ED03AAA1692046884790
:103B800094ED040A04F11C07384687ED000A94ED11
:103B9000050A87ED010A79698847D7ED021AC5ED54
:103BA000011A97ED032A85ED022AD7ED042AC5ED07
:103BB000032A95ED000ACAEE800AB0EE4B0AB0EE79
:103BC000401A01EEA01AF0EE418AB0EE401A02EE61
:103BD000A00A02EE201AF0EE419A9FED33AADFED23
:103BE00033AAB0EE4A1AF0EE6A0AFDF7F9F8B0EE21
:103BF000408AB0EE4A1AF0EE6A0AB0EE690AFDF7A2
:103C0000EFF8F0EE409AB0EE4A1AF0EE6A0AB0EE23
:103C1000680AFDF7E5F8B0EE481AF0EE690AFDF71C
:103C20002FFA002E12D0FDF77DFAF5EE000A444679
:103C300020EE200ABCEEC00A10EE100A81B2B8F8DD
:103C40000600814206D9401CA8F80600BDEC088B8E
:103C5000BDE8F09FB0EE490AFCF7CCFE00EE100A7A
:103C6000606285ED150AB8EEC00A012089ED120ADE
:103C700060700020E080BDEC088BBDE8F05FFFF7CE
:103C8000D1BD000000440020BC0400200000804999
:103C900000000000DB0FC93F98000020DB0F494007
:103CA000CDCC4C3E6666E63E3333733FCDCC4C3DC7
:103CB0002DE9F041894E2DED068BD6ED0D0A96EDDE
:103CC0000B0AF5EEC00AF1EE10FA01D8DFED840A16
:103CD000B5EEC00AF1EE10FA01D8B1EE000A20EEFE
:103CE000800ADFED80AA804CC0EE2A8A94ED000A9B
:103CF000DFED7E0A20EE201A96ED0A0AB5EEC00A24
:103D0000F1EE10FA06DDB4EEC10AF1EE10FA01D2BE
:103D1000B0EE401A11EE100A754A7649904202DA66
:103D2000B1EE081A05E011EE100A884201DD9FEDA0
:103D3000721A9FED728A724DF0EE480A95ED080AEC
:103D4000FDF74EF894F86E00B0EE40AA20B100EEF8
:103D5000100AF8EE409A01E0F7EE009A18EE900A89
:103D60004FF07E57B84201DADFED668AC5ED098A69
:103D7000B0EE681AF0EE488A95ED070AF0EE680A90
:103D8000FDF72EF8B0EE409A94ED000A10EE100AFE
:103D9000B84201DD8AEE008A9FED5B1AF0EE680AF8
:103DA000B0EE480AFDF71CF8B0EE408A29EE2A0A68
:103DB000C5ED0A8AC5ED0B8AC0EE290AC5ED060AD3
:103DC00085ED109A95ED060A85ED110AFDF7AAF921
:103DD00060EE290A96ED080AB5EEC00AF1EE10FA77
:103DE00001DC9FED4A0A20EE090A80EE201AF0EE6F
:103DF000480AB0EE490A85ED121AFDF701F8F6EE11
:103E0000001A30EE612A94ED000A70EEE10A22EE0B
:103E1000002A60EE800A84ED012AC4ED020A71EEE8
:103E2000610A20EE800A84ED030A94ED070A03F08C
:103E300023F9B0EE408A94ED070A02F0BBFF304E42
:103E4000F0EE408A94ED080A9836304686ED000A76
:103E500094ED090A86ED010A3169884796ED020A58
:103E600006F11405284685ED000A96ED030A85ED56
:103E7000010A85ED028AC5ED038AA969884795ED97
:103E8000040A304684ED040A95ED050A84ED050A1E
:103E900094ED010A86ED000A94ED020A86ED010A0E
:103EA0003169884796ED020A284685ED000A96EDAD
:103EB000030A85ED010A85ED028AC5ED038AA96929
:103EC000884795ED040A84ED0B0A95ED050A84ED0B
:103ED0000C0ABDEC068BBDE8F0810000BC0400209C
:103EE00000803B4500007042004400203333333FE4
:103EF0000000C040000020420000204200000000FE
:103F000000000020000048439A99593F0000804972
:103F1000002810D043680B4313404360017805D05C
:103F2000052908D0062906D0052102E0052902D17D
:103F3000062100F008B87047002803D00021017066
:103F4000417041607047002809D00278052A01D0ED
:103F5000062A02D109B1042901D1427001707047CB
:103F600070472DE9F0410C0004F10101C0B0CEB260
:103F70004FF002018DF800104FF016018DF801107E
:103F80008DF8026013466F464FF003088DF803006A
:103F90004FF0040507D033B122461946381DFCF70F
:103FA00054FA241DA5B23C46FA1C31461620FCF7F3
:103FB00093FD60556D1CA8B204F80080401C81B2CE
:103FC000684602F0E7FB40B0BDE8F08110B5084C50
:103FD000217928B1002909D100F02AF8012004E054
:103FE000002903D000F006F80020207110BD000069
:103FF0000000002010B500210C48FEF7E1FF04216D
:104000000A48FEF7DDFF08210848FEF7D9FF002126
:104010000648FEF77EFE04210448FEF77AFEBDE85E
:10402000104008210148FEF774BE0000A0030020E4
:1040300010B500210C48FEF7A7FF04210A48FEF73F
:10404000A3FF08210848FEF79FFF00210648FEF75E
:104050004EFE04210448FEF74AFEBDE81040082148
:104060000148FEF744BE0000A003002010B5FDF794
:10407000D1FDBDE81040FEF7E1BD000030B5254898
:1040800093B00025016841F080510160006800F0A4
:10409000805011902048016841F48041016000681F
:1040A000022400F48040119001200090000401904F
:1040B0008001CDE90640192008904FF4A870CDE9A1
:1040C000090407200B906846FEF7DCFB00B1FEE711
:1040D0000CA90F2081E831004FF4A0500F904FF44D
:1040E0008050109005210CA8FEF7FCFA00B1FEE705
:1040F000FEF790FB4FF47A71B0FBF1F0FEF78AFD0A
:104100000420FEF77AFD00221146501EFDF712FE34
:1041100013B030BD403802400070004070B5194CFB
:104120002068194A10F00C01184804D0184D0429D1
:1041300003D0082903D002601BE0056019E0114993
:10414000091F0B68C3F380560B6803F03F0316B1D9
:10415000B5FBF3F201E0B2FBF3F20B680968C3F3BD
:1041600088135A43C1F30141491C4900B2FBF1F1E4
:1041700001602168074AC1F30311515C0268CA401B
:10418000026070BD083802400024F400F8010020ED
:1041900040787D01FC7700081048016841F4700107
:1041A00001600F48016841F0010101600C4A0021E3
:1041B0000832116002680B4B1A400260031D0A4A64
:1041C0001A60026822F48022026005480C30016007
:1041D00002495806803908607047000088ED00E009
:1041E00000380240FFFFF6FE10300024F0B50268F0
:1041F000234B244D244E254F254C4FF0804C9842A4
:1042000009D0604507D0A84205D0B04203D0B842DB
:1042100001D0A04204D122F0700E4A6842EA0E0298
:1042200098421BD0604519D0A84217D0B04215D093
:10423000B84213D0A04211D0164DA8420ED0164D50
:10424000A8420BD0154DA84208D0154DA84205D064
:10425000144DA84202D0144DA84203D122F4407557
:10426000CA682A4302608A68C2620A688262984207
:1042700001D0A04201D10969016301214161F0BD72
:10428000000001400004004000080040000C004015
:10429000000401400040014000440140004801404A
:1042A00000180040001C00400020004010B5012311
:1042B000046A8B409C430462036A8A40134303628E
:1042C00010BD10B50423046A8B409C430462036A4A
:1042D0008A401343036210BD10B5846842EA03228A
:1042E00024F47F440A432243826010BD30B5026A41
:1042F00022F001020262026A436884690D6824F0B8
:104300007304254322F002048A6822430B4CA04226
:1043100002D00B4CA0420BD122F00804CA6823F44F
:10432000407322434C6922F004021C438B692343EF
:104330004360856149684163026230BD000001400D
:104340000004014030B5026A22F010020262026AE3
:10435000436884690D6824F4E64444EA05248D68C2
:1043600022F0200242EA05120D4DA84202D00D4D66
:10437000A8420ED1CD6822F0800242EA05124D69B2
:1043800023F4406343EA85038D6922F0400243EA47
:1043900085034360846149688163026230BD000027
:1043A000000001400004014030B5026A22F480722E
:1043B0000262036A4268C46923F4007324F073053F
:1043C0000C682C438D6843EA05230D4DA84202D0AA
:1043D0000C4DA8420ED1CD6823F4006343EA0523B7
:1043E0004D6922F4405242EA05128D6923F480633C
:1043F00042EA05124260C4614968C163036230BD8C
:10440000000001400004014030B5026A22F48052ED
:104410000262046A4268C3690D6823F4E64343EA12
:1044200005238D6824F4005444EA0534084DA8425D
:1044300002D0084DA84204D14D6922F4804242EADC
:1044400085124260C36149680164046230BD0000A6
:10445000000001400004014030B403689A6822F073
:1044600070044A68224322F007040A6822439A60D3
:104470004A6812F00F0F1FD11211082A1CD2DFE870
:1044800002F01B1B1B1B0B1D23040B69D1E902212E
:10449000006830BCFFF720BF0268136A146A24F07A
:1044A0000104146202689469096924F0F00444EA82
:1044B000011191610068036230BC70470A69896824
:1044C000006830BC00F006B80A698968006830BC32
:1044D00000F011B810B5036A046A24F00104046204
:1044E000846924F0F00444EA021423F00A020A4327
:1044F0008461026210BD10B5036A23F010030362E9
:104500008369046A23F4704343EA023224F0A0036F
:1045100043EA01118261016210BDD0F8180220B196
:104520000021C0F81412084670470220704770B589
:104530000546D0F8184200F02EFBC4F80C02D5F85E
:10454000180248B1D5F81C12D4F80402CA6804F560
:1045500003719047002070BD022070BD70B5044605
:104560000025812100F070FA0121204600F06CFA4C
:104570008221204600F068FAD4F8180250B1D4F82D
:104580001C0204F50674406880472068FBF7BFFEF4
:1045900000202060284670BD10B5D0E9864159B191
:1045A00094F80002FF2807D08B6894F80122214676
:1045B0009847FF2084F80002002010BD0A210180E6
:1045C00000487047040200204321018000487047E2
:1045D000540200204321018000487047100200204F
:1045E0004321018000487047980200202DE9F041E6
:1045F0000446007C00254FF4007670B3402302226D
:104600008121204600F01EFB40230222012120468A
:1046100000F018FB082303228221204600F012FB41
:104620004FF40770FBF744FEC4F81802F0B10746D8
:10463000D4F81C02006880470020C7F81402C7F8AD
:104640001802207CD7F8042290B140230121204693
:1046500000F00BFB2846BDE8F081FFE7334602225D
:104660008121204600F0EEFA3346CEE70125F1E73E
:104670003346EBE710B5D0F8181269B1027C002A76
:10468000D1F8042205D04023012100F0EEFA0020E9
:1046900010BD4FF40073F7E7022010BD0246022060
:1046A000002902D00020C2F81C127047D0F818026E
:1046B000C0F8041200207047D0F81802C0F8102289
:1046C000C0F808120020704770B50646D0F818529E
:1046D00008780C4610F0600121D0202927D1E2880B
:1046E000AAB10006607807D5D6F81C128B68294657
:1046F0009847E288294617E085F80002A07985F8F6
:104700000102E2882946304600F050F80FE0D6F862
:104710001C12607800228B682146984707E0607879
:104720000A2804D103490122304600F059F800203C
:1047300070BD00000002002010B5D0F8181289B139
:10474000D1F814220AB1012010BD0122C1F81422AF
:10475000B1F8102293B2D1F80822812100F02FFB8A
:10476000002010BD022010BD10B5D0F814225268F0
:104770009047002010BD134610B50A46002100F0F6
:1047800074FA002010BD134610B50A46002100F04F
:1047900016FB002010BD10B50446802100F0E6FA9B
:1047A0002046BDE81040002100F0E0BA10B5032318
:1047B000C0F80821C0F8F431C0F80C2113460A46AD
:1047C000002100F052FA002010BD10B50521002391
:1047D000C0F8F4111A46194600F047FA002010BD3F
:1047E00010B502238261C0F8F431C26113460A4653
:1047F000002100F0E4FA002010BD10B504210023D0
:10480000C0F8F4111A46194600F0D9FA002010BD7C
:1048100010B50A46024903A000F0CEF8004810BDCA
:10482000BC4E002043444320436F6E66696700001E
:104830001220088000487047C001002010B50A46C9
:10484000024903A000F0B8F8004810BDBC4E00209B
:1048500043444320496E74657266616365000000DD
:104860000420088000487047BC01002010B50A46AB
:10487000024903A000F0A0F8004810BDBC4E002083
:104880004E52000010B50A46024903A000F094F809
:10489000004810BDBC4E0020457468657243415409
:1048A00020414320536572766F20447269766572A9
:1048B0000000000010B50A46024903A000F07CF891
:1048C000004810BDBC4E0020303030303030303029
:1048D0003030314100000000F8B5044648880D46EC
:1048E000010A08294BD2DFE801F04A0409174A4AB5
:1048F0004048D4F81012207C0A6832E0207C02265E
:104900000028D4F8140205D0C16A684688470146D9
:10491000467041E0816AF8E7C0B206282FD2DFE88E
:1049200000F003080D12171CD4F81012207C4A68FE
:1049300017E0D4F81012207C8A6812E0D4F8101224
:10494000207CCA680DE0D4F81012207C0A6908E0C7
:10495000D4F81012207C4A6903E0D4F81012207CAD
:104960008A6969469047014616E0207C38B9D4F838
:104970001402416B68468847F5E7207C20B1294640
:104980002046FFF708FFF8BDD4F81402016B684613
:104990008847014607204870BDF800000028F2D083
:1049A000EA88002AEFD0824200D90246ADF8002002
:1049B0002046FFF715FFF8BD70B5002300281DD075
:1049C0000446002502E06D1CEDB2641C2678002E22
:1049D000F9D1022404EB45041480CC545B1C03225F
:1049E000CA5400245B1C06E0CA545B1CDAB28C5427
:1049F000521CD3B2401C0278002AF5D170BD10B50C
:104A000080B1D0F8143213B10023C0F8143209B1C8
:104A1000C0F81012012180F8FC11027000F0C0F8FB
:104A2000002010BD022010BD10B50024D0F82002D7
:104A3000FDF715FA30B1012801D0022801D0022477
:104A400000E00124204610BD10B50024D0F820025B
:104A5000FDF7E3F930B1012801D0022801D002248A
:104A600000E00124204610BD2DE9F0411746044620
:104A700041B1D4F8140242698AB394F8FC010328C6
:104A800042D043E0D4F8F411002504F114000229C7
:104A900033D1D0E902639E4207D9F31A83609AB2F8
:104AA00039462046FFF76FFE12E04068B0FBF3F195
:104AB00003FB1101A1B9984212D3D4F8F81188422E
:104AC0000ED2002211462046FFF75DFEC4F8F851D1
:104AD00000231A461946204600F0C7F80DE012E000
:104AE000D4F81402C16829B194F8FC01032801D15B
:104AF000204688472046FFF768FE94F80002012808
:104B000004D184F8005201E0204690470020BDE81F
:104B1000F08170B51546044641B1D4F8140282699B
:104B20003AB394F8FC01032824D025E0D4F8F4111A
:104B300004F5827003291FD1D0E902218A420BD9E2
:104B4000531A83600846834200D303469AB229462B
:104B50002046FFF710FE0FE0D4F81402016929B1D6
:104B600094F8FC01032801D1204688472046FFF72E
:104B700044FE01E020469047002070BD00207047B1
:104B800010B5012180F8FC11D0F814220179526887
:104B90009047002010BDD0F82002FDF788B9000032
:104BA00010B5017859BB17490222C1F8EC03C0F8CF
:104BB00020124FF0A0400860042048600020C1E9A6
:104BC0000320C1E90502C86108624862C86208633F
:104BD0000846FDF797FC20B14FF4A5710AA002F03A
:104BE000D5F880210748FDF7D7F840220021054875
:104BF000FDF7D6F8802201210248FDF7D1F8002008
:104C000010BD0000CC4A00202E2E2F5372632F754A
:104C10007362645F636F6E662E6300000A0601F0C4
:104C20007F01D0F82002C1EBC10100EB810002D569
:104C300090F83A00704790F8FA01704700207047EA
:104C40000020704770B51D4613460024D0F820029E
:104C50002A46FDF736F930B1012801D0022801D0EB
:104C6000022400E00124204670BD10B50024D0F8D5
:104C70002002FDF750F930B1012801D0022801D0FF
:104C8000022400E00124204610BD70B50022044635
:104C900040231146FFF7D6FF40252B4600228021F6
:104CA0002046C4F81051FFF7CDFF0120256284F89B
:104CB000FC01D4F8180228B1D4F814022179426812
:104CC00020469047002070BD90F8FD1180F8FC113F
:104CD0000020704710B590F8FC11032904D1D0F8DA
:104CE0001412C96901B18847002010BD0174002069
:104CF000704710B50024D0F82002FDF7ADFC30B1AC
:104D0000012801D0022801D0022400E0012420461D
:104D100010BD70B5044600F50270054600F05FF85E
:104D20000120C4F8F401B4F80E02C4F8F80194F8B4
:104D3000080210F01F010AD001290DD0022910D05D
:104D400000F08001204600F011F8002070BD2946D7
:104D5000204600F0AAF8F8E72946204600F08CF932
:104D6000F3E72946204600F019F9EEE710B50024D4
:104D7000D0F82002FDF7F3F830B1012801D0022865
:104D800001D0022400E00124204610BD10B500240B
:104D9000D0F82002FDF779FC30B1012801D00228BB
:104DA00001D0022400E00124204610BD90F8FC113F
:104DB00080F8FD11042180F8FC110020704710B527
:104DC0000024D0F82002FDF7FAF830B1012801D014
:104DD000022801D0022400E00124204610BD0A78F8
:104DE00002704A7842708A78CB7802EB03224280C4
:104DF0000A794B7902EB032282808A79C97902EB26
:104E00000121C18070470246002011B1C2F814127E
:104E100070470220704710B5D0F8142202241AB14E
:104E20001268904700B90024204610BD70B50E46A8
:104E30001A4D897804462970012928D894F8FC0174
:104E4000022802D0032822D105E099B10320616035
:104E500084F8FC0109E091B1606888420AD0C1B2CF
:104E60002046FFF781FC297861602046FFF7D3FFD9
:104E700002280CD02046BDE87040FFF7BEBC0220DF
:104E800084F8FC0120466160FFF76EFCF2E73146D2
:104E90002046BDE87040FFF77EBC0000FC0100200A
:104EA00010B5FFF773FF002010BD2DE9F04100267B
:104EB0004B78012532460A2B43D2DFE803F03C58F9
:104EC0004251420805422A27FFF706FD63E00446E7
:104ED0008888C8B9C888B8B9887800F07F0794F87E
:104EE000FC01032810D084F8FE7139462046FFF7F4
:104EF00000FF2046FFF781FC1FB1022084F8FC016F
:104F000049E084F8FC5146E020461AE0FFF78EFFA6
:104F100041E0CB88012B14D190F8FC31022B02D058
:104F2000032B0ED104E08260012200F1080114E09D
:104F30000122011D11E090F8FC21022A04D0032A6D
:104F400002D0FFF728FC26E0C560D0F8041209B1B2
:104F50000321C160022200F10C01FFF741FC1AE0BD
:104F600004464888012816D1C4F804520BE00446D0
:104F700090F8FC01022801D00328C5D148880128F7
:104F800009D1C4F80422D4F814028268204690475C
:104F90002046FFF732FC3046BDE8F08170B50D4683
:104FA0000446287800260979C0F34110012806D06C
:104FB0006878A0B301281FD003283FD107E0D4F8B8
:104FC00014022946826820469047002070BD94F85C
:104FD000FC01022817D003282CD1688828B921B1F8
:104FE000802902D02046FFF7C1FED4F814022946DA
:104FF00082682046904713E094F8FC01022802D012
:10500000032817D103E0C9B180291BD116E06888B5
:10501000A0B9480604D02046FFF706FDE5E703E007
:105020002046FFF7EAFB09E094F8FC01022807D0CC
:1050300003280BD029462046FFF7ADFB304670BD54
:105040004806FBD02046FFF791FEF7E7080601F07F
:105050007F0004EB001501D5143501E005F58275DC
:105060002046FFF7DBFD00B101202860022229461F
:105070002046FFF7B5FBE1E770B5054690F8FC0167
:105080000C4603280DD1207901280AD8D5F814023E
:10509000826828469047E08830B92846FFF7ADFB84
:1050A00002E02846FFF777FB002070BD30B54C7852
:1050B0001D4B01220D78AA40012CD0F81C4818D0B5
:1050C00044EA0242C0F81C280A7800EB4210D0F8EB
:1050D000002B12040BD4D0F8002B0C89C4F30A0463
:1050E0002243C97843EA81410A43C0F8002B0020DB
:1050F00030BD92B21443C0F81C480C7800EB441049
:10510000D0F800291204F2D4D0F800290D89C5F393
:105110000A052A43C978890441EA84510A431A439B
:10512000C0F80029E3E7000000800010D0F8001963
:105130006FF30A01C0F80019D0F80818C1F3410153
:10514000022905D1D0F8001941F00301C0F8001977
:10515000D0F8041841F48071C0F80418002070479A
:1051600070B50446049D06990D9801290CD0E0689D
:1051700040F04000E060204600F028F84FF4803016
:10518000A063012D16D01DE0A16B21F48031A16335
:10519000E1680D4A1140E160E16821F44011E160ED
:1051A000012803D1E06840F48010E060204600F060
:1051B0000DF8E6E7A06840F00600A060A06840F0A7
:1051C0002000A060002070BDBFFFBDFF01220C4980
:1051D00002E0521C8A420BD80369002BF9DA0269FB
:1051E00042F001020261012204E0521C8A4201D90C
:1051F000032070470369DB07F7D1002070470000E8
:10520000400D0300F0B50D4604464F780126F20626
:10521000D3002D49287804EB4010012F14D0D0F88A
:10522000007B27F40047C0F8007B287804EB40108F
:10523000C0F8002B287804EB4010C0F8003B012098
:105240002A7804EB42122BE0D0F8007927F40047CB
:10525000C0F80079287804EB4010C0F800292878BD
:1052600004EB4010C0F8003901202A7804EB421208
:1052700002E0401C884211D8D2F808395B00F8D40B
:105280001021204600F07EFCD4F81C0829788E40BE
:10529000B1B2884314E0401C884201D90320F0BD1C
:1052A000D2F8083BDB06F6D4D4F8040840F480605A
:1052B000C4F80408D4F81C0829788E4020EA064077
:1052C000C4F81C080020F0BD400D030010B5D0F854
:1052D000041821F00201C0F804180320FCF79AFA20
:1052E000002010BD10B5D0F8041841F00201C0F83C
:1052F00004180320FCF78EFA002010BD2DE9F047BA
:105300000E460446DDE90A0A0025DDF83C80089FC8
:105310005FEA0801A16B11D041F40021A1634FF0B5
:105320000009C4F8009ED4F80018C4F80018012839
:1053300007D0D4F8000840F0030007E041F4001162
:10534000ECE7D4F800080BB140F00100C4F8000805
:105350001021204600F016FC204600F003FC4846D1
:10536000C4F81098C4F814984FF0FF31C4F8181816
:10537000C4F81C984FF0904CFF230FE004EB45114C
:10538000D1F80029002A02DAC1F800C901E0C1F809
:105390000009C1F81009C1F808396D1CAE42EDD8FA
:1053A00000210FE004EB4112D2F8005B002D02DA7D
:1053B000C2F800CB01E0C2F8000BC2F8100BC2F833
:1053C000083B491C8E42EDD8D4F8101821F48071A6
:1053D000C4F81018012F0AD11449C4F83018D4F8B1
:1053E0003018134A1143C4F83018D4F83018A061AB
:1053F0006FF0804060611FB9A06940F01000A061AB
:10540000A0690C490843A061BAF1000F03D0A0695C
:1054100040F00800A061B8F1010F03D1A06906496E
:105420000843A0610020BDE8F08700000001800073
:105430000300010000383C8004000040816821F036
:1054400001018160002070472DE9F05FDFF880A244
:105450001C462DED028B1646054600279FED9D8AC2
:10546000DFF87492DFF87482272972D016DC4FF0CF
:10547000010B1C296ED008DC012928D002297BD021
:10548000072946D00E291BD135E01D297ED04FF0CB
:10549000020825297BD0262912D1EBE0572977D0A5
:1054A00008DC282975D0292974D0552953D05629CC
:1054B00006D161E058296ED059296DD05A296CD097
:1054C000BDEC028BFF20BDE8F05F00F033BEF020A2
:1054D00000F030FE8AF80070814880ED008A814833
:1054E00080ED008A89F8007089ED068A89ED078AC7
:1054F000FEF7C6F93AE0F02000F01CFE21463046E7
:1055000000F0B2FC2EE0042830D0BDEC028BBDE8E8
:10551000F09FF02000F00EFE7348102C06D3326886
:10552000C8F80020B1684161F16804E0082C0AD392
:1055300031684161716881616B48BDEC028BBDE8E7
:10554000F05F01F03BB9042CDFD33168C8F80010DC
:10555000DBE7A2E072E0F02000F0ECFD21463046EF
:1055600000F024FC614800780028CCD1BDEC028B0F
:10557000BDE8F05F01F024B8F02000F0DBFD8AF810
:105580000070574880ED008A564807E020E064E04C
:105590002AE08CE058E032E03AE042E080ED008A18
:1055A000FEF76EF989F8007089ED068A504889ED9A
:1055B000078A88ED008A80ED008A4E48042180ED3C
:1055C000008A4A48BDEC028BBDE8F05FFEF7BBBC29
:1055D000F02000F0AFFDBDEC028B2246314628469C
:1055E000BDE8F05F00F086BCF02000F0A3FDBDEC4C
:1055F000028B21463046BDE8F05F00F02BBBF02067
:1056000000F098FDBDEC028BBDE8F05F00F058BBE8
:10561000F02000F08FFDBDEC028BBDE8F05F00F0E4
:105620009DBBF02000F086FD00200EB104B1307863
:10563000BDEC028BBDE8F05FFBF744B9F02000F051
:1056400079FD85F800B460E7F02000F073FDBDEC53
:10565000028BBDE8F05F00F0C9BAF02000F06AFDEF
:1056600014B13078102800D9102085F801B485F8DD
:1056700002740BE0F02000F05DFD14B130782028BA
:1056800000D9202085F8017485F802B485F80A74E1
:1056900085F8090485F8088437E7F02000F04AFD12
:1056A000102322463146104800F062FC44E7F02007
:1056B00000F040FD2023224631460F4800F058FC00
:1056C000BDEC028B0C48BDE8F05F01F015BA00009C
:1056D0000100002000000000D84300201800002036
:1056E0001C000020200000207C04002090000020EE
:1056F000280000202C000020BC04002030B54D788C
:105700004D4C0B7800EB4313012D28D0D3F8105BE0
:105710006FF31205C3F8105B0B7800EB4313D3F85B
:10572000105B2540C3F8105B4B690BB18B684B6174
:105730000B7800EB4313D3F8104B44F40024C3F868
:10574000104B0B7800EB4313D3F8104B8D68C5F367
:1057500012052C43C3F8104B012A5CD061E04D695F
:10576000002DD3F810593BD06FF31205C3F8105930
:105770000B7800EB4313D3F810592540C3F81059A8
:105780004C698B689C4200D94B610B7800EB43134A
:10579000D3F8104944F40024C3F810490B7800EB07
:1057A0004313D3F810494D69C5F3120554EA0504B3
:1057B000C3F810490B7800EB4313D3F8004944F0C9
:1057C0000444C3F80049012A1ED04A6912B3D0F834
:1057D00034280B78012199400A43C0F8342829E085
:1057E0002540C3F810590B7800EB4313D3F8104948
:1057F00044F40024C3F810490B7800EB4313D3F8AA
:1058000010496FF31204D3E70A69097800EB4110DD
:10581000C0F814290EE00B7800EB4313CA68C3F8F4
:10582000142B097800EB4110D0F8001B41F0044123
:10583000C0F8001B002030BDFFFF07E00023C0F8C8
:10584000103BD0F8103B43F40023C0F8103BD0F8D5
:10585000103B43F01803C0F8103BD0F8103B43F066
:10586000C043C0F8103B012905D1C0F8142B4FF0FC
:105870008021C0F8001B002070474B780A7800EBAD
:105880004212012B0BD0D2F8003B23F40013C2F8D4
:10589000003BCA78032A17D0022A15D01DE0D2F89F
:1058A000003923F40013C2F80039CA78032A01D062
:1058B000022A12D1097800EB4110D0F8001941F00A
:1058C0008051C0F8001908E0097800EB4110D0F8C9
:1058D000001B41F08051C0F8001B002070474B783E
:1058E0000A7800EB4212012B14D0D2F8003B002BB7
:1058F00005DBD2F8003B23F08043C2F8003B097877
:1059000000EB4110D0F8001B41F40011C0F8001B5F
:1059100000207047D2F80039002B05DBD2F800399F
:1059200023F08043C2F80039097800EB4110D0F829
:10593000001941F40011C0F80019E9E778B54E7874
:105940006FF06045834C0B7800EB4313012E2FD092
:10595000D3F8106B6FF31206C3F8106B0B7800EBE3
:105960004313D3F8106B2640C3F8106B4B69002B20
:105970007DD08C6823445B1EB3FBF4F39BB20C78A0
:1059800000EB4414D4F8106B05EAC3452E43C4F869
:10599000106B0C7800EB4414D4F8105B8E685E43F7
:1059A000C6F312031D43C4F8105B012A73D0B2E0A2
:1059B0004E6966B3D3F810696FF31206C3F8106925
:1059C0000B7800EB4313D3F810692640C3F8106935
:1059D0004C698B681C44641EB4FBF3F305EAC344B2
:1059E0000B7800EB4313D3F810592C43C3F810493C
:1059F0000B7800EB4313D3F810494D69C5F312053A
:105A00002C43C3F81049CB78012B16D027E0D3F8EC
:105A100010592540C3F810590B7800EB4313D3F805
:105A2000104944F40024C3F810490B7800EB4313E9
:105A3000D3F810496FF312040FE00B7800EB431317
:105A4000D3F8104924F0C044C3F810490B7800EB98
:105A50004313D3F8104944F00054C3F81049012A05
:105A600012D0CB78012B17D04B692BB300E037E075
:105A7000D0F834380D780124AC402343C0F83438D2
:105A8000CB78012B08D017E00C7800EB44140B699D
:105A9000C4F81439F4E738E0D0F80838DB050B789F
:105AA00000EB4313D3F8004902D444F0005401E062
:105AB00044F08054C3F800490B7800EB4313D3F84B
:105AC000004944F00444C3F80049CB78012B3ED18F
:105AD00000928A8A93B20A78C96800F047FE36E0DD
