:020000040800F2
:10000000D8E200201D030008296B0008CB5500082A
:10001000D15C000895270008F5C300080000000027
:10002000000000000000000000000000BD8100088A
:100030005D2E000800000000E16B000875870008D5
:1000400037030008370300083703000837030008A8
:1000500037030008370300085F2E00086D2E0008E4
:10006000732E000837030008370300083703000821
:100070003703000837030008370300083703000878
:100080003703000837030008370300083703000868
:100090003703000837030008370300083703000858
:1000A0003703000837030008370300083703000848
:1000B0003703000837030008370300083703000838
:1000C0003703000837030008370300083703000828
:1000D0003703000837030008370300083703000818
:1000E000652E0008370300083703000837030008AF
:1000F00037030008370300083703000837030008F8
:1001000037030008370300083703000837030008E7
:1001100037030008370300083703000837030008D7
:1001200037030008370300083703000837030008C7
:1001300037030008370300083703000837030008B7
:100140003703000837030008370300084D6B000829
:100150003703000837030008370300083703000897
:100160003703000837030008370300083703000887
:1001700037030008370300083703000800000000B9
:10018000370300083703000800F002F800F0B6F863
:100190000AA090E8000C82448344AAF10107DA45E2
:1001A00001D100F0ABF8AFF2090EBAE80F0013F07E
:1001B000010F18BFFB1A43F00103184700D40000D9
:1001C00020D400000A444FF0000C10F8013B13F05B
:1001D000070408BF10F8014B1D1108BF10F8015BA0
:1001E000641E05D010F8016B641E01F8016BF9D193
:1001F00013F0080F1EBF10F8014BAD1C0C1B09D1EA
:100200006D1E58BF01F801CBFAD505E014F8016B5B
:1002100001F8016B6D1EF9D59142D6D370470000ED
:100220000023002400250026103A28BF78C1FBD8FF
:10023000520728BF30C148BF0B6070476E2900F0DD
:100240001383702900F05D8466290DF0978065297D
:100250000DF0948067290DF0918061290DF0908058
:1002600003681B0A28BF41F08001692900F0C082A1
:10027000642900F0BD82752900F0BA826F2900F070
:10028000EA83782900F02984E92900F08583E429AC
:1002900000F08283F52900F07F83EF2900F0E783E7
:1002A000F82900F028840368DB0928BF41F08001A9
:1002B000632901F04D81732901F05281E32901F096
:1002C0005D81F32901F06281002070471FB50CF0B9
:1002D000A5FF9DE8030000F0E7F901F0B1F9040083
:1002E000002000210CF006FF401C6060002000216F
:1002F0000CF0EAFEE0601FBD10B510BD01F072F910
:100300001146FFF7E3FF0CF07DFD01F04FFA03B457
:10031000FFF7F2FF03BC01F07FFA000009488047B5
:1003200009480047FEE7FEE7FEE7FEE7FEE7FEE7D7
:10033000FEE7FEE7FEE7FEE704480549054A064BEF
:1003400070470000A188000889010008D8820020B9
:10035000D8E20020D8B20020D8B2002070B50646FE
:1003600000F086F9056806F10B0020F00704B4429E
:100370009CBF002070BD2B466A68BAB11068A042CD
:1003800010D304F1080188423CBF5068586007D37D
:100390005168101941601168091B016058601460B0
:1003A000101D70BD13465268002AE7D12146284629
:1003B00000F066F90028DED170BD70B50446051F57
:1003C00000F056F90068002C14BF446870BD002C82
:1003D00018BFAC423CBF20466468F8D301680A18D5
:1003E000AA4218BF456003D12A680546114401603E
:1003F00028684119A1421CBF6C6070BD61686960CA
:1004000021680844286070BD53EA020C00F069803E
:100410002DE9F04B4FF00006002B1FBFB3FA83F518
:1004200003FA05F424FA05F65E4012BF1643B2FA49
:1004300082F502FA05F4C5F120051EBF22FA05FC7B
:1004400044EA0C04203556EA044C4FEA144418BF21
:10045000641C4FF000084FF00009904271EB030C50
:1004600039D3002919BFB1FA81F701FA07F6B0FABA
:1004700080F700FA07F6C7F120071EBF20FA07FC35
:1004800046EA0C062037B6FBF4FCA7EB0507103F45
:1004900007F01F0BCBF120060CFA0BFB2CFA06F62B
:1004A00044BFB3460026202FA4BF5E464FF0000B8A
:1004B0005BEA060C08BF4FF0010B19EB0B09ABFB15
:1004C000027C48EB0608C01B06FB02CC0BFB03CCEE
:1004D00071EB0C01C1E70B46024641464846BDE8B8
:1004E000F08B13B54FF000004FF00001AFF3008028
:1004F000BDE81C40704700007CB51D4616460C0048
:10050000009001D02044401E074B7B442A46694698
:100510000190304600F0C1F905461CB10020694643
:1005200000F0CEF928467CBDBD030000032A40F24E
:10053000308010F0030C00F0158011F8013BBCF185
:10054000020F624498BF11F801CB00F8013B38BF9D
:1005500011F8013BA2F1040298BF00F801CB38BFAB
:1005600000F8013B11F0030300F02580083AC0F0C9
:10057000088051F8043B083A51F804CBA0E8081071
:10058000F5E7121D5CBF51F8043B40F8043BAFF3A4
:100590000080D20724BF11F8013B11F801CB48BFFE
:1005A00011F8012B24BF00F8013B00F801CB48BF34
:1005B00000F8012B704710B5203AC0F00B80B1E86D
:1005C0001850203AA0E81850B1E81850A0E8185088
:1005D000BFF4F5AF5FEA027C24BFB1E81850A0E891
:1005E000185044BF18C918C0BDE810405FEA827CAB
:1005F00024BF51F8043B40F8043B08BF7047D207C2
:1006000028BF31F8023B48BF11F8012B28BF20F862
:10061000023B48BF00F8012B70474FF0000200B5C5
:10062000134694469646203922BFA0E80C50A0E815
:100630000C50B1F12001BFF4F7AF090728BFA0E8C3
:100640000C5048BF0CC05DF804EB890028BF40F88F
:10065000042B08BF704748BF20F8022B11F0804FD1
:1006600018BF00F8012B70477047704770470000B3
:10067000004870478082002070477047704770477D
:1006800038B504460A4600206946AFF300800028CA
:1006900008BF38BD02460099204600F009FB012042
:1006A00038BD012000F096BFF8B5AFF300800546D5
:1006B00000200C46102000BF0646A819A0420DD904
:1006C000324669460020AFF30080070008BF00F003
:1006D00081FF0098A04218BF0546C419FFF7C8FF64
:1006E00005600746F01D20F007004619284600F077
:1006F0000AF8B44208BFF8BDA21B31463868BDE80D
:10070000F84000F0D5BA00210160C0E9011070473F
:100710001020704710B500F0C7FA006810BD10B582
:10072000044600F0C1FA046010BD70B50446856946
:100730000068C10601D5302600E02026C00707D09A
:1007400070BDD4E9012130469047206A401C2062E8
:100750006D1EF6D570BD70B5044685690078C0077A
:1007600007D170BDD4E9012120209047206A401CA8
:1007700020626D1EF6D570BD09684A0501D540B2EC
:100780007047C905FCD500B2704709684A0501D514
:10079000C0B27047C905FCD580B2704770B50C4631
:1007A0000546012A05D02878800600D5EA6900238D
:1007B00002E0012305E05B1C934202D2E05C0028CA
:1007C000F9D1A869E618C01AA861286A18442862F5
:1007D0002846FFF7AAFF04E0D5E9012114F8010B30
:1007E0009047B442F8D32846FFF7B5FF70BD00002C
:1007F0002DE9F0410646002410687529314616A5FA
:1008000010D0FFF7B9FF002802DA404213A507E035
:1008100031688A0701D512A502E0490704D511A560
:10082000012401E0FFF7B1FF00210A2206F12407AD
:1008300009E0B0FBF2FCB0FBF2F302FB1C0030302D
:1008400078541846491C0028F3D123462A463046DE
:10085000BDE8F04100F08BBA000000002D00000060
:100860002B0000002000000011680268006A530598
:1008700001D508700AE0D30501D5088006E013060B
:1008800003D5C217C1E9000200E0086001207047EB
:1008900001694A1C02610878704700B58FB0CDE944
:1008A00001310021059105497944CDE90310114634
:1008B000684600F031F90FB000BD0000E5FFFFFF12
:1008C0000A6802F8010B0A607047D1E900239A42D6
:1008D00002D2531C0B601070704700002DE9FF5FBF
:1008E00015468A460446DFF8AC80F8440027D8E96C
:1008F00000103E46CDE9001010E03AF816106A46A6
:1009000002A800F047FE411C07D02178890603D5D4
:10091000E269391891420DD80744761C2078800688
:1009200002D5E069B84205DDAE42E6DB3AF81600D2
:100930000028E2D1A069C01BA0612046FFF7F5FEA8
:10094000D8E90010CDE90010002017E03AF818109F
:100950006A4602A800F01EFEB0F1FF3F81460BD0B0
:1009600000250DF1080B05E0D4E901211BF8050075
:1009700090476D1C4D45F7D308F10100B042804609
:10098000E4DB206A384420622046FFF7E4FEBDE83D
:10099000FF9F0000AECA00002DE9F0418046D21D45
:1009A00022F007020025D2E90002F52915A614D08D
:1009B000011E72F1000106DA0023D0EB030063EBA5
:1009C000020211A608E0D8F800108B0701D50FA687
:1009D00002E0490701D50EA601251146002408F1C1
:1009E000240704E000F07EF930323A55641C50EAE6
:1009F0000102F7D12B46324621464046BDE8F04180
:100A000000F0B5B9000000002D0000002B00000030
:100A10002000000030B4002100F1240408E002F0BE
:100A20000705D208303542EA4372DB086554491C99
:100A300052EA0305F3D10468002310A2250707D565
:100A4000A40600D421B1C46901230DA2641EC461AF
:100A500030BC00F08CB910B5044621461068FFF791
:100A600094FE02462046BDE810400023D2E7D21D86
:100A700022F00701D1E90023CCE7000000000000CC
:100A800030000000F0B40D460188090502D5214C64
:100A90007C4402E01F4C7C440E34002100F124060B
:100AA00008E002F00F071209E75D42EA03721B0932
:100AB0007754491C52EA0307F3D102780023120746
:100AC00004D5702D06D009B1022311342246F0BCA2
:100AD00000F04DB901231034F8E770B504460D4617
:100AE00021461068FFF751FE024629462046BDE820
:100AF00070400023C6E7D21D22F00703D3E900238C
:100B0000C0E70368126843F0200303600823C36151
:100B10000023B7E710C900002DE9F05F89460446BD
:100B20004FF0000ADFF874B1FB44C0F820A0204663
:100B3000E1688847002874D0252806D0D4E901212F
:100B40009047206A401C2062F1E700265F4620465D
:100B5000E16888472028054607DB312D05D2781942
:100B600010F8200C08B10643F1E7B00701D526F0D4
:100B70000406C4F81CA00027C4F818A02A2D09D028
:100B800028460CF037F938B304EB8708303DC8F835
:100B9000185019E059F8041B204604EB87029161B4
:100BA000E1688847012F054618D1E069002820DA5E
:100BB00026F020061DE0D8F8180000EB800005EBB9
:100BC00040003038C8F818002046E16888470546DC
:100BD0000CF010F90028EED1012F0AD02E2D08D1EB
:100BE0002046E16888477F1C0546022F46F0200614
:100BF000C4DBA069002803DA404246F00106A06188
:100C0000F00701D026F010066C2D0BD0682D09D00E
:100C10004C2D39D06A2D35D0742D35D07A2D33D066
:100C200016E038E0E1682F4620468847B84205467E
:100C300009D16C2F26D04FF48060E168064320462E
:100C40008847054604E06C2F1AD04FF480700643A5
:100C50000DB3A5F14100192802D8203546F40066ED
:100C60004A462946204626604E46FFF7E7FA80B1FD
:100C700001280BD0F61D26F0070000F1080956E701
:100C80004020E4E78020D8E70020D6E706F10409F9
:100C90004DE7284652E7206ABDE8F09FA0C8000053
:100CA0000048704778820020004870477882002012
:100CB000034640688C46002818BF88423CBF034664
:100CC0004068F8D318681844884207D00CF1030034
:100CD00020F00700001D411A521A0146081D0A6043
:100CE000FFF76BBB30B5B0F10A024FEA900E71F11D
:100CF00000034EEA817EB0EB0E0061EB91014FEAFA
:100D0000101E4EEA017E10EB0E0041EB11114FEA6E
:100D1000102E4EEA016E10EB0E0041EB11214FEA4E
:100D2000104E4EEA014E10EB0E0041EB11414018FF
:100D300041F100014FEAD00040EA41704FEAD10191
:100D400010EB80054FEA810444EA907444EB0104FF
:100D50006D1944EB0404521BA3414FF0000348BF3C
:100D60000A3200D530BD401C41F1000130BD2DE9F3
:100D7000F0470D4699469246044600F12408016862
:100D8000880604D5E06921F01001216000E001200F
:100D9000A84201DD471B00E00027A1697A1902EB98
:100DA0000900081AA0612078C00602D42046FFF787
:100DB000BCFC002608E0D4E901211AF8060090479F
:100DC000206A401C761C20624E45F4DB2078C00669
:100DD0000AD52046FFF7A9FC06E0D4E9012130201E
:100DE0009047206A401C2062381EA7F10107F4DCFE
:100DF00007E0D4E9012118F805009047206A401C5B
:100E00002062281EA5F10105F3DC2046FFF7A3FCB4
:100E10002078000602D50220BDE8F0870120FBE71C
:100E200070472DE9FF4F0C461E464FF0FF378BB041
:100E3000D2E90001DDF860800A908A46C1F30A55C4
:100E400005B93D46002108464FF00000BAF1000FF9
:100E500000F4400005DA00EB80004FF4400101EAA5
:100E600050004FEA9059B9F1010F00DDB9460A98D8
:100E700050EA4A000ED044F61050A5F2FF35454323
:100E80002F14B8F1000F1ED07542291E1EDDC9F1C6
:100E900000021CE0B8F1010F4FF0000001D030213A
:100EA00003E0F24305E02154401CB042FBDB304636
:100EB0000022002121540B99C1F80880C1E90020CB
:100EC0000FB0BDE8F08FBD1B6D1CDEE74A4600DAAF
:100ED000694206A800F0F8FB06AB93E8070003ABF5
:100EE00083E8070050460A9900F0FDFC8DE80700F2
:100EF000A0F500501F3800900398002D0ADD42F243
:100F00001F014A460844002303A90390684600F0E5
:100F100066FF09E0A0F500504A461F38002303A9E8
:100F20000390684600F070FF8DE807000004000C95
:100F300003D04FF0FF30410800E01046B8F1000F39
:100F400003D00022009215461EE0751E05D4FFF75F
:100F5000C9FE303262556D1EF9D5B34601220843F1
:100F600002D000227F1C04E02078302801D100222A
:100F70007F1E002A099784D01DE0112D07DAFFF7A4
:100F8000B1FE303262556D1C50EA0102F5D10843C2
:100F900002D00098C8B10EE00021681E05E0235C75
:100FA000625C63542254401E491C8142F7DBAB460D
:100FB000A81B401E0990002004F80B000B98099A0A
:100FC000C0F80880C0E9002B7AE711264FF000082E
:100FD00057E72DE9F04F88460446D21D22F007015D
:100FE00091B0D1E90001CDE90A010BF041FA0246C6
:100FF0000B98C00F01D02D2007E02068810701D594
:101000002B2002E0202101EAC000032A099001D030
:10101000072A05DB03464146204600F015FB0BE19D
:101020002078800601D5E06900E00620B8F1650F60
:10103000814606D0B8F1660F18D0B8F1670F70D1AD
:1010400031E00020B9F1110F009001DB112301E024
:1010500009F101030AAA01A90CA8FFF7E2FEDDE9E4
:101060000C70002609F10105834647E001204B463C
:1010700000904FF000470AAA01A90CA8FFF7D1FE83
:10108000DDE90DB00C995D46002610B909F10100AB
:101090000D18B9EB050003D4C0F1FF3609F10105C5
:1010A000A5EB09002BE0B9F1010F01DA4FF00109BE
:1010B0000020B9F1110F0090484601DD112300E036
:1010C00003460AAA01A90CA8FFF7ABFEDDE90C70E4
:1010D0004D4600268346207800070AD4AB4500DA47
:1010E0005D4601A8012D04DD411911F8011C3029CC
:1010F00007D04F4502DA17F1040F04DA01208246C7
:101100000FE06D1EEEE7002F02DCED1B3E4403E016
:10111000781CA84200DD7D1CB81B00F1010A4FF0CD
:1011200000472078000703D4AA4501DB4FF0FF3ABF
:101130000021B7F1004F0DF143088DF8431024D082
:1011400002202B23002F01DA7F422D230A21021EC9
:10115000A0F1010000DC5FB197FBF1FC97FBF1F21D
:1011600001FB1C7C17460CF1300C08F801CDEEE7B2
:10117000A8F1010003702188090501D5452100E08F
:101180006521A0F1010800F8011C09980FA9A1EB45
:101190000807FF1D00B10120411901EBEA70A169A8
:1011A0003844081A401EA0612078C00602D42046A8
:1011B000FFF7BBFA099828B1D4E901219047206ACA
:1011C000401C20622078C00622D52046FFF7ADFAE9
:1011D0001EE0002E04DBB34502DD01A8805D00E0C7
:1011E0003020D4E901219047206A401C2062761CFF
:1011F000AAF101005FEA000A0AD100F021FAC068F2
:101200000168405CD4E901219047206A401C2062BB
:10121000281EA5F10105DCDC07E0D4E9012118F85E
:10122000010B9047206A401C2062381EA7F101077D
:10123000F3DC2046FFF78FFA032011B041E60000EF
:101240002DE9F04F04460D46D21D22F0070089B06B
:10125000D0E90097484639460BF00AF90246F80FE4
:1012600001D02D2307E02068810701D52B2302E060
:10127000202101EAC0038DF820300BB1012000E0ED
:101280000020032A824601D0072A04DB2946204693
:1012900000F0DAF93FE12078800601D40D2500E066
:1012A000E569C7F30A560D2D49DA00214FEA175BAD
:1012B00008464FF00000002F00F4400007DA00EB72
:1012C00080004FF4400100EBD07001EA600081150E
:1012D000012901DD4FF0FF3100224FEA850CBCF1FE
:1012E000180F06D31346ACF118004FF08052C240DD
:1012F00003E04FF4801323FA0CF30CF10C0CBCF157
:10130000200F04D3ACF1200C09FA0CF001E007FA2D
:101310000CF000294FF0004801DD18B90FE00ED1A4
:1013200040450CD319EB02095F4121B9404502D178
:101330009F4329EA0209BBEB175F00D0761C208887
:10134000000502D57B48784402E07A487844193891
:1013500008AA302302F80A30037C0AF10101002EAA
:101360000AF1020A53546A4602DC4FF0300101E0F0
:101370004FF031014FF001088DF8001002D0A6F2B5
:10138000FF3603E059EA470100D06B4E002D02DC26
:101390002178090704D54FF002082E218DF801109D
:1013A000C44600210BE0C7F303433F01C35C491C63
:1013B0006D1E02F80830052908F1010801DA002D38
:1013C000F1DC00210CE000EB1973491C1B786D1E49
:1013D000082902F808304FEA091908F1010801DA72
:1013E000002DF0DC21688B0602D516E0A8F101087B
:1013F000E04505DD02EB080313F8013C302BF5D086
:10140000B8F1000F09DD02EB080313F8013C2E2BA5
:1014100003D1090701D4A8F10108002D05DD3E2103
:1014200002F808106D1E08F10108407C002E02F839
:10143000080008F1010804DA2D20764202F80800BD
:1014400002E02B2002F808000A214FF47A7086424D
:1014500008F101080BDB96FBF0F3303302F808309B
:1014600096FBF0F308F1010800FB136601E0642E1F
:101470000CDB642096FBF0F3303302F8083096FB67
:10148000F0F308F1010800FB136601E00A2E06DB09
:1014900096FBF1F0303002F8080008F1010896FBE5
:1014A000F1F001FB1060303002F80800A16908F18A
:1014B000010808EB050202EB0A00081AA061207877
:1014C000C00602D42046FFF730F9216A08AE01EBCE
:1014D0000A00206204E0D4E9012116F8010B9047CC
:1014E000BAF1010AF7D22078C00602D52046FFF7EC
:1014F0001CF96E4609E016F8010B3E280FD0D4E91E
:1015000001219047206A401C2062B8F10108F2D204
:101510002046FFF720F909B00320BDE8F08F206ACC
:101520002844206203E0D4E90121302090476D1E59
:10153000EBD3F8E7C9C0000002FCFFFF10B5436918
:1015400013B1AFF3008001E0FFF728F9012010BDCF
:10155000127800F124010A7000224A700122EDE79E
:1015600011684FF0FF32E9E710B5436913B1AFF3EB
:10157000008001E0FFF7B2F9012010BD128800F1F0
:10158000240182840022C2840122EDE711684FF019
:10159000FF32E9E770B516460C46054600F048F8FC
:1015A000036893F80101012806D0FF2C0FD8185DBD
:1015B00068B101202C7070BDD3F807013246214676
:1015C00003F2071303442846BDE8704018474FF064
:1015D000FF3070BD10B500F0F7F8BDE8104000F026
:1015E000EEB870477546FFF75BFBAE4605006946EF
:1015F000534620F00700854618B020B5FEF79CFE44
:10160000BDE820404FF000064FF000074FF0000803
:101610004FF0000B21F00701AC46ACE8C009ACE884
:10162000C009ACE8C009ACE8C0098D4670470000AD
:1016300010B500F005F8001D10BD00BFB9BA0000DC
:1016400000487047988200202DE9F0411F4604466B
:1016500003260168072A01F4006004DB08B116A51F
:1016600005E016A503E008B115A500E015A521F0D9
:1016700010002060A069C01EA0610FB1401EA061D3
:101680002046FFF752F84FB1D4E901213846904780
:10169000206A401C2062C01C206206E0206AFAE733
:1016A000D4E9012115F8010B9047761EF8D22046A7
:1016B000FFF751F8BDE8F0814E414E006E616E00BB
:1016C000494E4600696E66002DE9F0478146164690
:1016D0008AB0354878440DC88DE80D00324878440A
:1016E000801C03AC0DC884E80D0041F69B30084413
:1016F000372190FBF1F290FBF1F5A5F1800501FB9C
:1017000012041B3C02D56442012000E00020DFF8F7
:1017100098A080460027FA44AAF1BE0A0EE0E0072E
:101720000AD03246684607EB470101230AEB8101E4
:1017300000F06AFB8DE8070064107F1C002CEED1DE
:10174000194F7F44AE3F19E0E80715D007EB0410AE
:101750000DF1180A90E80E008AE80E00C068F04209
:1017600001D1981908903246012306A903A800F078
:101770004BFB03AB83E807006D10641C002DE3D125
:101780004FF0010332466946B8F1000F03A802D0BA
:1017900000F025FB01E000F037FBC9E90001C9F8C2
:1017A00008200AB0BDE8F087CCBD000010B50446A3
:1017B000AFF300802046BDE81040FEF7A8BD00282A
:1017C00001D000F029B8704710B5012805D00021DC
:1017D00003A000F027F8012010BD09A1F8E70000E0
:1017E00053494752544D454D3A204F7574206F660A
:1017F0002068656170206D656D6F72790000000072
:101800003A2048656170206D656D6F727920636F55
:10181000727275707465640001491820ABBEFEE7F2
:101820002600020070B505460C460A2000E06D1C3B
:1018300000F052F835B128780028F8D102E0641C95
:1018400000F04AF814B120780028F8D1BDE87040C3
:101850000A2000F041B800004FF0013C50F8042B82
:1018600051F8043B9A4221D1A2EB0C03934313EAB3
:10187000CC1317D150F8042B51F8043B9A4215D1E0
:10188000A2EB0C03934313EACC130BD150F8042BB7
:1018900051F8043B9A4209D1A2EB0C03934313EA9B
:1018A000CC13DBD04FF00000704700BFD01A01BA54
:1018B000B1FA81F101F0180122FA01F0CB40C1F137
:1018C0002001DBB2C0B2C01A2CFA01F3D11A914345
:1018D00011EAC311E6D1704708B569468DF80000DA
:1018E0000320ABBE08BD5FEA400C08BF91F0000FBB
:1018F0004FEA8C234FEAC12243EA51514FEA1C5070
:1019000018BF00F5F0404FEA300018BF41F0004129
:101910005FEA6C5C00F02980BCF1FF3F08BF40F03B
:1019200080407047130C06BF12044FF0100C4FF0AC
:10193000000C130E04BF12020CF1080C130F04BFAD
:1019400012010CF1040C930F04BF92000CF1020C75
:10195000D30F04BF52000CF1010C11464FF00002EE
:10196000A0F11F00A0EB0C00704711F0004F08BF62
:10197000704731F000413FF4D5AF0B0C06BF0904AE
:101980004FF0100C4FF0000C0B0E04BF09020CF1CD
:10199000080C0B0F04BF09010CF1040C8B0F04BFE2
:1019A00089000CF1020CCB0F04BF49000CF1010CB3
:1019B000CCF12003A0EB0C0022FA03F302FA0CF2A4
:1019C00041EA030100F10100704720F07F4C80EAFA
:1019D000030023F07F47ACEB070303F57C5300F0D3
:1019E000004003F1FF032DE980494FEA154B09B48C
:1019F0004FEA144325EA0B4E24EA03480FF204266B
:101A000006EB132749083E785FEA320203FB0667BC
:101A1000C7F5000707FB06F64FEA54374FEAD646EC
:101A200006F1020607FB066CCCF1005C4FEA1C478E
:101A30002CEA074C07FB06F40CFB06F504EB1546F5
:101A40004FEA961634BF00204FF000404FEAD137DE
:101A500006FB07FC4FEA1C4C0CFB0BF7D21B03FBED
:101A60000CF761EB07010CFB0EF7B0EB074072EBD4
:101A700017420CFB08F734BFA2EB0742B2EB074258
:101A800061EB17414FEA0C444FEA910706FB07FC54
:101A90004FEA1C4C0CFB0BF7B0EBC74072EB573214
:101AA00003FB0CF734BFA2EBC742B2EBC74261EBBA
:101AB00057310CFB0EF7B0EBC70072EB57720CFB03
:101AC00008F734BFA2EBC702B2EBC70261EB577154
:101AD000039F4FEA816141EA921104EBCC044FEA83
:101AE000D1374FEA826206FB07FC42EA90124FEAC6
:101AF00080604FEA1C4C0CFB0BF7D21B03FB0CF76E
:101B000061EB07010CFB0EF7B0EB074072EB1742DD
:101B10000CFB08F734BFA2EB0742B2EB074261EBC4
:101B200017414FEA8C554FEA910704EB9C2406FBC2
:101B300007FC4FEA1C4C0CFB0BF7B0EBC74072EBF9
:101B4000573203FB0CF734BFA2EBC742B2EBC742DC
:101B500061EB57310CFB0EF7B0EBC70072EB57721D
:101B60000CFB08F734BFA2EBC702B2EBC70261EB74
:101B7000577115EB4C254FEA816141EA92114FEA0A
:101B800082624FEAD13742EA901206FB07FC44F129
:101B900000044FEA80604FEA1C4C0CFB0BF7D21B91
:101BA00003FB0CF761EB07010CFB0EF7B0EB0740F2
:101BB00072EB17420CFB08F734BFA2EB0742B2EB03
:101BC000074261EB174115EB1C154FEA813141EAE1
:101BD00092414FEA823242EA90424FEA80304FEA25
:101BE0000C7644F1000448EA03434EEA0B484FF0F8
:101BF000000EB2EB080C71EB030724BF62463946B6
:101C00004EEB0E0E4FF0000B0018524149414BEBCA
:101C10000B0BB2EB080C71EB03077BF1000B24BF3D
:101C2000624639464EEB0E0E4FF0000B0018524143
:101C300049414BEB0B0BB2EB080C71EB03077BF14B
:101C4000000B24BF624639464EEB0E0E51EA0207E6
:101C500018BF46F0010616EB0E7655F1000254F15E
:101C6000000103D5BDE88901BDE80088BDE8890110
:101C7000BDE80048B619524141EB0101A3F101034F
:101C8000704780807F7E7D7C7B7A797877767675E9
:101C90007473727171706F6E6E6D6C6C6B6A6A6961
:101CA0006868676666656464636362616160605FFB
:101CB0005F5E5E5D5D5C5C5B5B5A5A595958585774
:101CC00057565655555554545353525252515150DC
:101CD00050504F4F4F4E4E4D4D4D4C4C4C4B4B4B2F
:101CE0004A4A4A4949494848484747474746464675
:101CF00045454544444444434343434242424241B0
:101D00004141002B9C4630D477002BD01CB54FEAC4
:101D1000370703B44FF010004FF01001BAF1000F75
:101D200006D0BCF1000FDCBF40F0080040F0080115
:101D30004FF000000FBCBDE810400BF1010BBBF1F0
:101D4000010F08BF5FEA170722BF12F1010211F16C
:101D500001014FF0004143F1000300F0004043EA6D
:101D600000007047F9D35708D0E746EA064613F15A
:101D7000400F4FEA16461FDD13F1200FDFBF164359
:101D80000A46002120335B42BED0C3F1200746EA59
:101D9000064602FA07F74FEA164646EA0706C3F177
:101DA000200722FA03F201FA07F721FA03F14FF0B4
:101DB000000342EA0702A7E746EA020646EA0646A9
:101DC0004FEA164646EA0106BCBF46EA0646360C0E
:101DD0004FF000034FF000024FF0000194E72DE9AF
:101DE000804C9A46934670B491E8380007C831EAAF
:101DF000400C48BF34EA430C03D5FFF7E6FDFFF77C
:101E000080FFF0BCBDE8008C2DE9804C9A469346DB
:101E100070B491E8380007C810F0804F08BF13F085
:101E2000804F03D100F005F8FFF76BFFF0BCBDE871
:101E3000008C20F07F4780EA030023F07F4C07EB03
:101E40000C03A3F57C5300F00040A3F1FE0392F0D5
:101E5000000F00F0B38095F0000F00F077802DE9BF
:101E600001494FEA11404FEA144621EA004800FBBD
:101E700006FC24EA064708FB06F607FB08F800FB09
:101E800007F718EB06484CEB164C4FEA124B18EBD1
:101E900007484FEA15464CEB174022EA0B4E0BFB66
:101EA00006FC25EA06470EFB06F607FB0EFE0BFBBB
:101EB00007F71EEB064E4CEB164C4FF000061EEBE0
:101EC000074E4CEB174B18EB0B0840F1000018EBDA
:101ED0000E0B58EB000840F100008F1A4FF0000184
:101EE0003CBFC943661B14BFB5EB040C00213CBFCB
:101EF000C943F61B4FEA17444EEA8E0E27EA044503
:101F00004FEA1C4704FB07622CEA074C05FB07F766
:101F10000CFB05F604FB0CFC16EB074642EB1742E4
:101F200016EB0C4642EB1C421BEB060658EB02027A
:101F3000414146EA9E0601D5BDE80189B6195241E4
:101F400041EB0101A3F10103BDE801894FEA14450A
:101F50004FEA114724EA054621EA074C05FB07F43E
:101F600006FB07F70CFB06F105FB0CFC11EB074128
:101F700044EB17444FEA124711EB0C4144EB1C446D
:101F800022EA074C05FB07F206FB07F70CFB06F6F7
:101F900005FB0CFC16EB074642EB174216EB0C4612
:101FA00042EB1C456A1854F1000148BF7047B6194E
:101FB000524141EB0101A3F10103704795F0000F7D
:101FC00037D04FEA11424FEA144721EA024624EA89
:101FD000074C02FB07F106FB07F70CFB06F402FBBC
:101FE0000CFC14EB074441EB17414FEA154714EB87
:101FF0000C4441EB1C4125EA074C02FB07F506FBAC
:1020000007F70CFB06F602FB0CFC16EB074645EB4C
:10201000174516EB0C4645EB1C42121951F1000115
:1020200048BF7047B619524141EB0101A3F10103CA
:1020300070474FEA14454FEA114724EA054621EA62
:10204000074C05FB07F106FB07F70CFB06F24FF008
:10205000000605FB0CFC12EB074241EB174112EBAB
:102060000C4251EB1C4148BF7047921841EB0101F3
:10207000A3F1010370470000454910B54A6822F4F6
:1020800040324A604A6843681A434A6001684A68B5
:1020900022F480724A6001684A68036942EA0322B6
:1020A0004A6001684A6822F040724A6001684A68E2
:1020B00083681A434A6001688A6822F400628A6071
:1020C00001688A68C3681A438A60816A6FF0706227
:1020D000D14201688A6822F070628A6001688A6869
:1020E0000CD0836A1A438A6001688A6822F04052E1
:1020F0008A6001688A68C36A1A4301E022F040528C
:102100008A6001688A6822F002028A6001688A682F
:10211000836942EA43028A60016A002901684A68C9
:102120000FD042F400624A6001684A6822F46042BB
:102130004A6001684A68174C436A04EB43331A4308
:1021400001E022F400624A600168CA6A22F4700267
:10215000CA620168CA6A838B0F4C04EB03531A43AB
:10216000CA6201688A6822F400728A6001688A681B
:10217000036B42EA43228A6001688A6822F4806223
:102180008A6001688A68406942EA8020886010BDE0
:102190000023014000E0FFFF0000F0FF10B52DED2F
:1021A000028BB0EE408A18EE100AB0F17E5F23DD9C
:1021B000B0EE480A01F0E4F8C0EE080A9FED100AFC
:1021C00020EE808AB0EE480A0AF06EFC0D4CD4ED89
:1021D000170A30EE200A84ED170AB0EE480A0AF01A
:1021E000C9FAD4ED180AA4F1800130EE200A84ED7A
:1021F000180A088D401C0885BDEC028B10BD00003C
:10220000DB0FC9408000002010B5214900202DEDD2
:10221000028B9FED1E0AC87001F180001E4980EDFF
:10222000050A9FED1C0A80ED060A90ED050ABCEE3A
:10223000C00A10EE100AA1F8660001F041F9B7EEED
:10224000008A1648C8EE000AC0ED000A01F026F91F
:10225000C8EE000A11486838C0ED000A01F01EF906
:10226000C8EE000A0D489FED0E0A34380021C0ED7B
:10227000000A0C4880ED080AC18004F0AFFEBDECF6
:10228000028BBDE8104004F09FBE000000007A46BB
:10229000000000200000FA45F0610020F00100205D
:1022A00000000000EC440020F0B5954EF0EE601AFE
:1022B0002DED088BB0EE40BA83B0D6ED0D0A96ED49
:1022C0000B0AF5EEC00AF1EE10FA01D8DFED8D0A27
:1022D000B5EEC00AF1EE10FA01D8B1EE000A20EE18
:1022E000800ADFED89AA894C80EE2A8A94ED000AE3
:1022F000DFED870A20EE201A96ED0A0AB5EEC00A35
:10230000F1EE10FA06DDB4EEC10AF1EE10FA01D2D8
:10231000B0EE401A11EE100A7E4A7F49904202DA6E
:10232000B1EE081A05E011EE100A884201DD9FEDBA
:102330007B1ADFED7B8AB0EE610AF0EE680A00F0EE
:10234000B7FC94F86E00B0EE40AAF0EE689A20B1A7
:1023500000EE100AB8EE409A01E0B7EE009A18EECF
:10236000100A4FF07E57B84201DA9FED6E8A6E4D2B
:10237000B0EE4B0AB0EE481A85ED108AF1EE480A2D
:1023800000F096FCB0EE408A94ED000A10EE100AC0
:10239000B84201DDCAEE009A9FED641AF0EE680AB9
:1023A000B0EE690A00F084FCF0EE409A28EE2A0AAA
:1023B000C5ED138AC5ED148A5B48C0EE090A80306A
:1023C000C5ED0D0A95ED0D0A85ED120AC0ED078ADF
:1023D00085ED198A95ED0D0A85ED1A0A01F05EF872
:1023E00060EE090A96ED080AB5EEC00AF1EE10FAA1
:1023F00001DC9FED4F0A20EE080A80EE201AF0EE75
:10240000690AB0EE480A85ED1B1A00F061FCF6EE91
:10241000001A30EE612A94ED000A70EEE10A22EE15
:10242000002A60EE800A84ED012AC4ED020A71EEF2
:10243000610A20EE800A84ED030A94ED070A0AF08F
:1024400033FBB0EE408A94ED070A0AF093F9F0EE00
:10245000408A94ED080A01A98DED000A94ED090A5D
:1024600068468DED010A00F067F8324E9DED000AD6
:10247000304686ED000A9DED010A86ED010A3169BC
:10248000884796ED020A06F11405284685ED000AF4
:1024900096ED030A85ED010A85ED028AC5ED038AF2
:1024A000A969884795ED040A304684ED040A95ED44
:1024B000050A84ED050A94ED010A86ED000A94ED03
:1024C000020A86ED010A3169884796ED020A28461C
:1024D00085ED000A96ED030A85ED010A85ED028A75
:1024E000C5ED038AA969884795ED040A84ED0B0AB6
:1024F00095ED050A84ED0C0A03B0BDEC088BF0BD28
:10250000D005002000803B4500007042F0610020B3
:102510003333333F0000C04000002042000020421F
:102520000000000000004843000000209A99593F35
:102530000000804924010020002820D000291ED05E
:102540000F4A13780BB1127901E00E4A527B02B1A7
:102550000122D1ED000A90ED000AC0ED000A81EDE4
:10256000000A002A0BD090ED000AB1EE400A80ED7F
:10257000000A91ED000AB1EE400A81ED000A7047B1
:10258000EC440020000000203348B0EE402AF5EE75
:10259000C01A90ED0A0AD0ED0B2AF1EE10FA04D918
:1025A000B5EEC01AF1EE10FA02D8B0EE600A70472C
:1025B000B5EEC00AF1EE10FA01D89FED280AF5EE4B
:1025C000C02AF1EE10FA01D8F0EE402A9FED243A2D
:1025D00061EE213A20EE030A62EE832AC3EE801AEE
:1025E00083EEA20AF5EEC01AF1EE10FA01D8F0EE71
:1025F000411AB5EEC00AF1EE10FA01D8B0EE410A68
:1026000022EE201AB5EEC01AF1EE10FA0BD3B0EE9E
:10261000E01AF0EEC22AB4EEE21AF1EE10FA02DD90
:10262000B0EE611A01E0B0EE401A30EEC20AB4EE2C
:10263000C10AF1EE10FA02DDB0EE410A08E0F1EE57
:10264000410AB4EEE00AF1EE10FA01D2B0EE600AEF
:1026500032EE000A704700008C050020000048435D
:102660006F12833A70B5464C2DED068BF0EE608A02
:10267000B0EE418AF0EE409AC4ED0B8A84ED0C8AEC
:102680002068B0F17E5F0EDAB6EE001A9FED3D0ACB
:10269000F6EE000A84ED010A84ED020A84ED030AD5
:1026A000B6EE000A66E0B0EE690A0AF0FDF9B0EE97
:1026B000409AB0EE690A0AF05DF8334DF0EE400A38
:1026C0002846C5ED008A85ED018A85ED029AC5EDA3
:1026D000030AA969884795ED040A05F11C063046EE
:1026E00086ED000A95ED050A86ED010A71698847B5
:1026F00096ED021AF7EE001A84ED011AD6ED032AC0
:10270000DFED229AC4ED022A96ED042A9FED20AA5D
:1027100084ED032A94ED000AC1EE800AB6EE000AA9
:10272000F0EE401AB0EE408A41EE201A02EEA08A86
:1027300002EE200AB0EE691AF0EE4A0AB0EE619A93
:1027400000F0B6FAF0EE408AB0EE691AF0EE4A0AEE
:10275000B0EE480A00F0ACFAB0EE408AB0EE691A6A
:10276000F0EE4A0AB0EE490A00F0A2FAB0EE681A9A
:10277000F0EE480ABDEC068BBDE8704000F0AEBD3F
:10278000F061002000000000540100203333733F4B
:10279000CDCC4C3DFEE70020704700207047000084
:1027A00010B500220449054806F00AFB0449034815
:1027B00006F000FB002010BDAC76002098660020DB
:1027C000AC6E002010B5084A044600781070096805
:1027D000204608F08FFC2146044806F0EBFA034837
:1027E00006F0CCFA002010BD5802002098660020A8
:1027F000094A10B5D2F81822D2F814220AB10120E1
:1028000010BD0A460146044806F0DAFABDE8104059
:10281000014806F015BB00009866002010B52DEDAC
:10282000048BB0EE608A18EE100AB0F17E5F03DC14
:102830000020BDEC048B10BD2148D0ED0B8AF5EED5
:10284000C08AF1EE10FA01DCF1EE008AF5EEC08AE2
:10285000F1EE10FA01D8F7EE008AF6EE000A28EE43
:10286000209AB4EEC09AF1EE10FA01D230EE480A86
:10287000B1EE400A0AF0B6F89FED120A044668EE7F
:10288000000A9FED110A28EE801A80EE810A0AF0F4
:10289000A9F8FDEEC90ABDEEC80A204410EE901A50
:1028A000814203DA10EE101A401AC2E710EE901AB5
:1028B00049428142BDDD10EE101A0844B9E700001C
:1028C000D00500209A19B4420000B44310B52DED94
:1028D000028BB0EE408A18EE100AB0F17E5F1FDD69
:1028E0001248008DE0B111488030D0ED180A90ED0B
:1028F000170A09F0E9FDDFED0E0AB5EEC00AF1EEA8
:1029000010FA01D230EE200A20EE081A81EE200AD9
:10291000F0EE480ABDEC028BBDE81040FFF77EBF29
:10292000B0EE480A00F02CFDF2E7000000000020A5
:10293000DB0FC94010B50846002304E0D45C5B1CE3
:10294000204480B2DBB28B42F8D300EB1020C0B23F
:1029500010BD000010B523482DED028B90ED000A4C
:10296000DFED218A214820EE288A90ED010A20EE31
:10297000280AB5EEC00AF1EE10FA0BDDB5EEC08AFA
:10298000F1EE10FA04D9B4EEC80AF1EE10FA01D251
:10299000B0EE408A18EE100A1549884201DA9FED20
:1029A000158A154CDFED150AB0EE481A94ED020AAF
:1029B000B0EEC00A00F07CF910EE100A104984ED68
:1029C000060A884201DAB0EE680AB4EEC80AF1EEEF
:1029D00010FA01DDB0EE480A84ED0A0ABDEC028B64
:1029E00010BD0000D0050020CDCC4C3E7062002010
:1029F000CDCCCC3DCDCCCC3DEC4400200000000043
:102A0000CDCC4C3E10B536489FED360A2DED028BED
:102A1000D0ED000A344820EE801AD0ED010A20EEF5
:102A2000800AB5EEC00AF1EE10FA0BDDB5EEC01A61
:102A3000F1EE10FA04D9B4EEC10AF1EE10FA01D2A7
:102A4000B0EE401A11EE100A2849884201DA9FEDD3
:102A5000281A284C9FED288A94ED020AF0EE480AC5
:102A6000B0EEC00A00F024F984ED060A94ED030AE2
:102A70009FED221AF6EE000A00F01AF984ED070A1B
:102A8000207818B11E49A069884206DAB0EE480ADB
:102A900084ED080ABDEC028B10BD00F0FFFC94ED44
:102AA000071AC1EE000A94ED080A30EE800A10EE13
:102AB000100A84ED080AB0F17E5F05DBF7EE000A2C
:102AC00030EE600A84ED080A10EE100AB0F17C5F67
:102AD00002DA94ED060ADDE7B0EE480ADAE7000014
:102AE000D0050020CDCC4C3E70620020CDCCCC3D3A
:102AF000CDCCCC3DEC44002000000000000048425A
:102B000017B7D1381948DFED180A017829B1417893
:102B100019B9807808B1DFED160A1648B6EE001A2A
:102B200090ED000A144820EE010A90ED0A1A20EEFA
:102B3000200A61EE200AF5EEC00AF1EE10FA0BDD74
:102B4000B5EEC00AF1EE10FA04D9F4EEC00AF1EEC7
:102B500010FA01D2B0EE600A10EE100AB0F17E5FFA
:102B600001DAB7EE000A7047CDCC4C3EEC440020B1
:102B70003333B33EF0610020D0050020F0B518B12A
:102B800011B1027CBABB01E04020F0BD2E4A92EDAB
:102B9000000A10EE103AB3F17E5F02DD92ED000AFA
:102BA00001E09FED2A0AF0EE000A41F2883320EEA0
:102BB000200ABCEEC00A10EE102A9A4200D21A4631
:102BC00044694FF0FF35641C4461944203D9057495
:102BD0004FF48070F0BD4FF0C8446288A4888668C6
:102BE00032448260C6683444C460468A761CB6B2F9
:102BF00046829E4201D20020F0BDB2FBF3F296B2B3
:102C0000B4FBF3F297B2A6F5FE42A7F5FE43FF3AF6
:102C1000A3F1FF0300D55242002B00DA5B420024EF
:102C20008460C460448244614FF40064A24201D8CD
:102C3000A34203D905744FF40070F0BD21F8686F0A
:102C40004F8001210174D6E79400002000007A46ED
:102C50000146F0EEC01A91ED010A0020F4EEC01A10
:102C6000F1EE10FA0DDCF0EEE00AF4EEC00AF1EE3F
:102C700010FA06DCF0EEC10AF4EEC00AF1EE10FA2A
:102C800000DD0120704700000146034A89690020E9
:102C9000914200DD082070470000A042006803490F
:102CA000884201DD022070470020704700005C422E
:102CB000B4EEC10AF1EE10FA02DDB0EE410A70473F
:102CC000B4EEE00AF1EE10FAF9D2B0EE600A704705
:102CD00010B556482DED048BB0EE608AD0ED000A99
:102CE000B4EEE00AF1EE10FA02DD90ED000A0CE01D
:102CF000D0ED000AF1EE600AB4EEE00AF1EE10FA4F
:102D000003D290ED000AB1EE400AB5EEC08AF1EEB2
:102D100010FA02D29FED468A06E018EE100A4549E5
:102D2000884201DD9FED448AF0EEC00A10EE900A61
:102D30004249F6EE008A884204DD18EE100A404946
:102D4000884210DCB0EE681AF0EE680AB0EE680A4D
:102D500000F0C4FAB0EE680AF0EE680AB0EE681A45
:102D6000BDEC048B10BD3748D0ED000A10EE901A70
:102D7000B1F17E5F02DDD0ED000A01E0DFED320A45
:102D8000F7EE001A324C81EEA01ADFED300A31491D
:102D900060EE201A94ED000A01EE810A10EE100A8E
:102DA00084ED000A884202DB30EE600A06E0B5EEF0
:102DB000C00AF1EE10FA03D230EE200A84ED000AC8
:102DC00009F072FEB0EE409A94ED000A09F0D2FCD0
:102DD000FEEE000A9FED203A69EE202AB0EE401A7E
:102DE000B0EE680AF0EE623A41EE032A68EE001A8D
:102DF00041EE433AF0EE400AB0EE402A01EEA20A5C
:102E000001EE892A41EEA30AB0EE403AB0EE420A42
:102E1000F0EE603AB0EE431A00F060FAB0EE420A0B
:102E2000F0EE630AB0EE431A9AE70000400000207B
:102E3000000000006666663F6666663FCDCCCC3D0E
:102E40006F12833A9400002000007A46DB0FC940DD
:102E5000D0030020DB0FC940D7B35D3F704701208E
:102E600001F096B84FF4005001F092B8022001F042
:102E70008FB8042001F08CB8002229B101291AD0A2
:102E800002291BD04FF440720E490B6823F44073A3
:102E90000B600B6813430B600A6822F0F8020A60AB
:102EA0000A68022303EBC00002430A60086840F48A
:102EB0008030086070474FF48072E5E74FF400728D
:102EC000E2E70000103C02401348016889050FD575
:102ED000016821F400710160016841F40061016042
:102EE000016821F400610160016841F40071016032
:102EF000016849050FD5016821F48061016001680E
:102F000041F480510160016821F480510160016841
:102F100041F4806101607047003C024008490A6842
:102F200022F440720A600A6842F004020A600A68E9
:102F30004FF4803343EA002002430A6070470000E8
:102F4000103C0240064A136823F440731360136870
:102F50001360136843F001031360017070470000B1
:102F6000103C0240084910B50C6824F440740C6011
:102F70000C6844F440740C600C6844F001040C606C
:102F80000260436010BD0000103C0240074A136815
:102F900023F440731360136843F480731360136861
:102FA00043F001031360018070470000103C0240B1
:102FB000074A136823F440731360136843F40073E3
:102FC0001360136843F00103136001607047000051
:102FD000103C024017490868C206174805D5C26967
:102FE00042F01002C26110220A600A68920605D5FA
:102FF000C26942F00802C26120220A600A685206D1
:1030000005D5C26942F00402C26140220A600A6822
:10301000120605D5C26942F00202C26180220A602E
:103020000A68920705D5C26942F02002C2610220F7
:10303000086070470C3C0240AC7E002070B511491E
:1030400004460020C86101F095F806460E4D09E0DF
:10305000601C07D024B101F08DF8801BA04201D97B
:10306000032070BD2868C003F2D42868C00701D0CF
:1030700001202860286810F0F200F2D0FFF7AAFFC4
:10308000012070BDAC7E00200C3C024070B5B3F551
:10309000804F05D06FF0704140F82210002070BDC5
:1030A00050F82240084B8E891C40D1E9003543EA94
:1030B00005138D6889692D0245EA06452B430B43AC
:1030C000234340F82230E9E70000F0CFF0B50C6868
:1030D00050F82430114A1340D1E90125D1E90367A2
:1030E0002A433E4332434E6932438E693243CE69AE
:1030F00032430E6A32434E6A32438E6A3243CE6A9C
:103100003243CE6B096B32430A431A43082D01D177
:1031100042F0400240F824200020F0BD8000F0FF83
:1031200030B500EB820250688D8900F04043D1E950
:10313000000440EA04108C68240244EA0544204359
:103140000C8A074D05EB045420430C7D6D0105EB03
:10315000046489692043084318435060002030BD4F
:103160000000F0FF2DE9F0411C4C0500277A667A3B
:103170004FF00000E071207260720ED0184904F127
:103180008002496D1162032161712179012901D009
:10319000A07104E00121A17101E004216171804668
:1031A000014610489FED100A01708170C18080EDCA
:1031B000080A80ED090A80ED0A0A03F027FF03F0F0
:1031C000B5FE1DB117B16670032102E084F80180DD
:1031D0000521BDE8F041054804F0E3BF00000020F0
:1031E000F0610020EC440020000000001C010020E1
:1031F000002206E050F822305B1C01D0012070470D
:10320000521C8A42F6D3002070470000F0B587B008
:103210000F46044600251646142168460595FDF71D
:10322000FCF90220049024480095844201D2002039
:1032300023E022498C4201D201201EE020498C4229
:1032400001D2022019E01F498C4201D2032014E070
:103250001D498C4201D204200FE01C498C4201D24E
:1032600005200AE01A498C4201D2062005E01949DE
:103270008C4201D2072000E00B2002900120164969
:103280000390F320086005A9684600F091FC50B94E
:1032900000250CE057F8252004EB850100230220CF
:1032A00000F0DCFC10B1002007B0F0BD6D1CB54291
:1032B000F0D30120F8E7000000400008008000087B
:1032C00000C0000800000108000002080000040817
:1032D00000000608000008080C3C0240DFED231A3D
:1032E000B5EEC00AF1EE10FA01D2B0EE610AF5EEC9
:1032F000C00AF1EE10FA01D2F0EE610AB5EEC01A82
:10330000F1EE10FA01D2B0EE611A10EE101A184860
:10331000DFED181A814201DDB0EE610A10EE901A5D
:10332000814201DDF0EE610A11EE101A814201DDE9
:10333000B0EE611ADFED101A104920EE210A08687C
:10334000BCEEC00A10EE102AC26320EEA10ABCEE49
:10335000C00A10EE102A826321EE210A0968BCEE31
:10336000C00A10EE100A4863704700000000000019
:103370006666663F6666663F00102446B00400201D
:1033800010B52DED028BB0EE408A18EE100AB0F1A8
:103390007E5F04DC9FED0F0ABDEC028B10BD0E4872
:1033A000D0ED130A0D48F5EEC00A90ED120AF1EEC9
:1033B00010FAB8EEC00A01D038EE400AF0EE480A22
:1033C00009F0B8FAB5EEC00AF1EE10FAE4D230EE28
:1033D000080AE1E700000000D0050020F0610020AD
:1033E000054890ED070AB5EEC00AF1EE10FA01D2D9
:1033F0009FED020A704700008C05002000000000CD
:10340000054890ED100ABCEEC00A10EE100AC0B2DA
:10341000012800D9002070478C050020094890ED54
:103420000C0AB5EEC00AF1EE10FA02D8443090ED65
:103430000D0AB5EEC00AF1EE10FA01D89FED020AAE
:10344000704700008C05002000803B4538B1012802
:1034500007D0022807D0032807D005A0704706A090
:10346000704707A0704708A0704709A07047000088
:10347000756E6B6E6F776E006E6F726D616C0000B3
:10348000696E7665727400007377617000000000E9
:10349000737761702B696E7665727400064890EDE3
:1034A000050A10EE101AB1F17E5F02DD90ED050AFB
:1034B00070479FED020A70478000002000007A46A6
:1034C000094810B590ED060A10EE101AB1F17E5FB2
:1034D00002DD90ED060A10BDFFF7E0FFF6EE000AF0
:1034E00020EE200A10BD000080000020F0B54FF053
:1034F000C8439A89A0F85820DA89A0F85A201A8A75
:10350000A0F85C205A8AA0F85E209A8AA0F8602071
:10351000DA8AA0F862201A8BA0F8642091ED070ADD
:1035200001250022BCEEC00A10EE104A042C7AD00D
:1035300006DC012C09D0022C47D0032C74D1B4E056
:103540000B2C72D00C2CF9D13FE0B0F85A4090F817
:103550005C6044EA06448464C66F866790F87460D1
:103560004EB191ED130A056DB5EEC00AF1EE10FAF9
:1035700006D1651B05E080F874501546C26701E06E
:103580002D1BC56791ED080ABDEEC00A10EE101A9A
:10359000B5EB610F10EE101A01DD691A06E0491053
:1035A00049428D4203DA10EE101A2944C1670465BE
:1035B00090ED1F0AD0ED100AB8EEC00A30EE800A76
:1035C00080ED100A80F87320B4E0B0F85A4090F80B
:1035D0005C6044EA06448464B0F85E60A0F8706001
:1035E000C76F876790F874704FB191ED130A056D3E
:1035F000B5EEC00AF1EE10FA06D1651B05E080F8C1
:1036000074501546C26701E02D1BC56791ED080A8D
:10361000BDEEC00A10EE107AB5EB670F10EE107A0F
:1036200004DDED1B09E04AE1F8E088E07F107F420D
:10363000BD4203DA10EE107A3D44C567046591ED92
:10364000060ABDEEC00A10EE105A45B190ED1F0AF1
:10365000D0ED100AB8EEC00A30EE800A20E091EDFD
:10366000130AB5EEC00AF1EE10FA00EE104A0CD1C2
:10367000F8EEC00A00EE106A91ED081AB8EE400AA2
:1036800040EE010AC0ED100A0CE0744200EE904AD0
:10369000B8EEC00A91ED081AF8EEE00A10EE810AC1
:1036A00080ED100AB0F86010B2E0B0F85840C4F3F2
:1036B000032480F87340B0F85E40B0F85C602405E5
:1036C000240B44EA16248464C66F866790F87460FD
:1036D0004EB191ED130A056DB5EEC00AF1EE10FA88
:1036E00006D1651B05E080F874501546C26701E0FD
:1036F0002D1BC56791ED080ABDEEC00A10EE101A29
:10370000B5EB610F10EE101A01DD691A06E04910E1
:1037100049428D4203DA10EE101A2944C16704654C
:1037200090ED1F0AD0ED100AB8EEC00A30EE800A04
:1037300080ED100AA0F8702080F872206EE0B0F8DA
:103740005C60B0F85A4006F0010744EA074484641C
:1037500090F85E703F0247EA1626A0F87060C76FC7
:10376000876790F874704FB191ED130A056DB5EE4F
:10377000C00AF1EE10FA06D1651B05E080F874501E
:103780001546C26701E02D1BC56791ED080ABDEE25
:10379000C00A10EE107AB5EB670F10EE107A01DD5B
:1037A000ED1B06E07F107F42BD4203DA10EE107A77
:1037B0003D44C567046591ED060AB5EEC00AF1EE19
:1037C00010FA73D191ED130AB5EEC00AF1EE10FABA
:1037D00000EE104A0CD1F8EEC00A00EE106A91ED2E
:1037E000081AB8EE400A40EE010AC0ED100A0DE0DA
:1037F000744200EE904AB8EEC00A91ED081AF8EE55
:10380000E00A10EE810A00BF80ED100AB0F85810EF
:103810005FEA112180F8721080F873201989A1F5F0
:10382000FE41FF3900EE101AF8EEC00A9FED610A62
:1038300060EE800A9FED601A60EE810AC0ED000A1A
:103840005988B0F86820891A00EE901AF8EEE00A5C
:1038500020EE801ADFED590A21EE201A80ED081AB9
:103860009988B0F86A20B1EE411A891A01EE901ACF
:10387000F8EEE11A61EE801A61EEA00AC0ED090AC5
:1038800071EE600AC0ED0A0AD988A1F5FE41FF3940
:1038900000EE901AF8EEE00A20EE800ADFED480A0A
:1038A00020EE200A80ED060AF0BDFFE700EE105A78
:1038B000D0ED100AB8EEC00A30EE800AA4E7B0F8E6
:1038C0005C60B0F85A4006F07F0744EA074484641D
:1038D000B0F85E704FEA076C4FEA1C4C4CEA1626B3
:1038E000A0F87060D0F87CC0C0F878C090F874C0C0
:1038F000BCF1000F09D091ED130A056DB5EEC00AB9
:10390000F1EE10FA06D1651B05E080F874501546FB
:10391000C26701E02D1BC56791ED080ABDEEC00A24
:1039200010EE10CAB5EB6C0F10EE10CA02DDA5EB5D
:103930000C0508E04FEA6C0CCCF1000C654503DA8D
:1039400010EE10CA6544C567046591ED060ABDEE28
:10395000C00A10EE105A45B190ED1F0AD0ED100AC2
:10396000B8EEC00A30EE800A20E091ED130AB5EE01
:10397000C00AF1EE10FA00EE104A0CD1F8EEC00ABF
:1039800000EE106A91ED081AB8EE400A40EE010A06
:10399000C0ED100A0CE0744200EE904AB8EEC00A86
:1039A00091ED081AF8EEE00A10EE810A80ED100A97
:1039B000390A2FE7000080371FFDAA44D7A3AAC108
:1039C0000000C84378B50024009490F83C20012AF8
:1039D00019D0012280F83C200A6807230568092ACB
:1039E00013D9EE680A3A02EB420293409E43EE601E
:1039F0000B788A680A3B03EB43039A400368DD684F
:103A00002A43DA6010E0022078BD2E6902EB420200
:103A100093409E432E610B788A6803EB43039A40E0
:103A200003681D692A431A614A681F23072A13D2B3
:103A300005686E6B521E02EB820293409E436E63DA
:103A40000B790A885B1E92B203EB83039A400368EA
:103A50005D6B2A435A6327E005680D2A12D22E6B4C
:103A6000D21F02EB820293409E432E630B790A8899
:103A7000DB1F92B203EB83039A4003681D6B2A435A
:103A80001A6311E0EE6A0D3A02EB820293409E4304
:103A9000EE620B790A880D3B92B203EB83039A40E6
:103AA0000368DD6A2A43DA62164B0568144A9D42B0
:103AB00006D10D68122D03D1556845F48005556077
:103AC00005689D4218D10B68102B01D0112B13D122
:103AD000536843F400035360096810290CD10A4964
:103AE0000A4A0968B1FBF2F101EB8101490000E0EB
:103AF000491E00910029FBD180F83C40002078BD90
:103B00000023014000200140B402002040420F0089
:103B100070B504004FF0000503D0206C002610B1F2
:103B200007E0012070BD666484F83C60204600F028
:103B300019F8206CC00610D4206C20F4885040F096
:103B4000020020642046FEF797FA6664206C20F09D
:103B5000020040F00100206400E0012584F83C6090
:103B6000284670BD08B500680649884208D1064855
:103B7000016841F480710160006800F48070009079
:103B800008BD0000002001404438024070B50446E2
:103B900000F0F0FA0546601C02D0044800780444A6
:103BA00000F0E8FA401BA042FAD370BDA802002042
:103BB0002DE9F047044622480F46017E01290AD02C
:103BC0000121804601764CF250394846FFF736FA1B
:103BD000020003D02FE00220BDE8F0874FF0FF3055
:103BE00038602068174D012801D0A6681CE0207CB1
:103BF0006168FFF793F94846FFF720FA0246286804
:103C000020F00400286014E0217C3046FFF734F9EE
:103C10004846FFF713FA0200286820F0FA002860EF
:103C200001D03E6005E0761CD4E902100844B042A1
:103C3000EAD8FFF749F9002188F818101046CBE7B9
:103C4000AC7E0020103C02400348016841F0004176
:103C50000160002070470000103C02402DE9F04751
:103C60001B4E05461446307E1F468946012808D063
:103C7000012030764CF250384046FFF7DFF918B19A
:103C800014E00220BDE8F0879DB1012D16D0022D71
:103C900019D022463B464846FFF764F94046FFF7F5
:103CA000CDF90C490A6822F001020A600021317640
:103CB000E8E7E1B24846FFF745F9EFE7A1B2484629
:103CC000FFF764F9EAE721464846FFF771F9E5E7AF
:103CD000AC7E0020103C0240074900200A68002A00
:103CE00009DA054A054B0C3A1360054B1360096865
:103CF000002900DA01207047103C0240230167458B
:103D0000AB89EFCDF0B5204887B00168002938D1E4
:103D1000012101601D480024016841F0010101609A
:103D20000068022500F0010005901F20CDE9000584
:103D300002AA03260C2782E8D0006946144800F046
:103D400033F94FF68070CDE9000502AA694682E892
:103D5000D000104800F028F94CF2B370CDE900050E
:103D600002AA694682E8D0000B4800F01DF928023B
:103D7000CDE9000502AA694682E8D000074800F0B4
:103D800013F907B0F0BD0000A0020020383802404F
:103D90000014024000100240000C024000180240D3
:103DA0002DE9F047B0F5005F78D10221724800F0AC
:103DB000D8F907F0C9FF7148C168491CC160A0F17A
:103DC0008004A078002869D102F078FF6C48FEF7E3
:103DD00065FF06466A48FEF757FF694F40EA060549
:103DE0008037674E97F9100004F58E7800280EDDB5
:103DF00098F80000042801D0022808D106F120011B
:103E00005F4891EC030A8030FEF722FF05430DB1B5
:103E1000284635E05B495A48FFF768FB08F046F84A
:103E200098F80000002506280ED007280CD001289D
:103E30000ED0554F4FF0010902283CD078B3052829
:103E40004BD0032875D07EE0002004F059FA6BE0D7
:103E5000788A20B947F6FF7026F8680F7080012035
:103E600004F04EFAB6EE001AF6EE000AB6EE000ABC
:103E7000FFF734FA424901F18000FEF77FFE18B1E6
:103E8000BDE8F04702F07ABF97F9100000284BDD3B
:103E900003F04CF8E07918B1022107E01BE01CE0C8
:103EA000A07A10B1A572052100E0032133489C30AF
:103EB00004F077F938E002206071012004F020FA64
:103EC00003F024FB08F04AFAB87810B10120FFF79C
:103ED00049F984F80090BDE8F08703F0AFF83D7031
:103EE000BD709FED2A0AFD8087ED080A87ED090A5B
:103EF00087ED0A0AFD626079012802D06079022804
:103F000000D16571E57125726572A57203F00EF836
:103F10001C3696EC030A07F087FF002004F0F0F946
:103F200098F80000052802D02570D4E701E00021B0
:103F3000BCE702F0FBFF012004F0E2F90F48042186
:103F40009C3004F02EF9012004F0DAF960780128A1
:103F500007D0607803280BD003F0D8FA08F0FEF9F8
:103F6000B7E7D4ED0F0A94ED0E0AFEF79DF9F5E7D9
:103F700003F0F4FFF2E70000001002408000002090
:103F8000F0610020D0050020EC440020000000007B
:103F9000044910B50A68024202D00860FFF700FF2A
:103FA00010BD0000143C01402DE9F84FDFF87CB152
:103FB00000224FF001084FF0030A4FF00F090BF1F8
:103FC000040E00BF0B6808FA02F42340A3426ED12E
:103FD0004D68022D01D0122D0ED1D50800EB850CB5
:103FE000DCF820505607F70E09FA07F6B5430E69BC
:103FF000BE402E43CCF82060066855000F790AFABF
:1040000005FC07F0030726EA0C06AF4037430760BC
:104010004E68012E05D0022E03D0112E01D0122E93
:104020000ED18668CF6826EA0C06AF40374387601A
:104030004668A6430C79C4F30014944034434460AA
:10404000C6688C6826EA0C06AC403443C4604C68F1
:10405000E40065D5364C256845F480452560246824
:1040600022F0030504F480440094324C2E19D6F853
:10407000084895072F0F09FA07F5AC432E4DA842C3
:1040800001D1002524E02D4DA84201D101251FE0DA
:104090002B4DA84201D102251AE02A4DA84201D198
:1040A000032515E0284DA84202D1042510E037E091
:1040B000264DA84201D105250AE0254DA84201D18F
:1040C000062505E0234DA84201D1072500E008257B
:1040D000BD402543C6F80858DBF800405D464E68F1
:1040E0009C43F60300D51C432C60DEF80040754667
:1040F0004E689C43B60300D51C432C600B4D08351D
:104100002C684E689C43F60200D51C432C60074D7A
:104110000C352C684E689C43B60200D51C432C60BD
:10412000521C102AFFF44EAFBDE8F88F003C01404E
:1041300044380240003001400000024000040240C8
:1041400000080240000C024000100240001402402F
:1041500000180240001C02400069084000D0012005
:10416000704742694A40426170470AB181617047B5
:104170000904FBE70148806870470000A80200209E
:10418000024881680278114481607047A8020020CB
:104190000B4810B5016841F400710160016841F4F9
:1041A00080610160016841F480710160032000F0CA
:1041B00097F8002000F006F800F024F8002010BD69
:1041C000003C024070B50D4D04464FF47A712878DA
:1041D000B1FBF0F00A490968B1FBF0F000F0D0FF44
:1041E00048B9102C07D200222146501E00F058F882
:1041F00000206C6070BD012070BD0000A80200208E
:10420000B40200201F4808B5016841F480410160F4
:10421000006800F4804000901A48001F016841F0D7
:1042200080510160006800F080500090032000F091
:1042300057F8002211466FF00B0000F031F8002211
:1042400011466FF00A0000F02BF8002211466FF0C3
:10425000090000F025F800221146501F00F020F858
:1042600000221146101F00F01BF800221146901E7C
:1042700000F016F80022BDE808401146501E00F07C
:104280000FB800004438024000F01F0201219140A5
:104290004009800000F1E020C0F8001170470000E4
:1042A000F0B40E4B1B680C46C3F30223C3F10705A1
:1042B000042D00D90425191D072901D2002300E08F
:1042C000DB1E012606FA05F1491E214099409E4059
:1042D000761E16403143F0BC02F027BC0CED00E026
:1042E000064900F0070208684FF6FF03184040EA4D
:1042F0000220034A10430860704700000CED00E004
:104300000000FA050068416200207047F0B50068BF
:104310000023446A31B1856A4FF4827604EB154478
:104320004D1E0AE044EA024181620FE006EB83077A
:10433000C7595B1C04EB1744DBB2AB42F6DB4FF40E
:10434000807303EB810144EA024242500020F0BD39
:10435000D0F8EC0304F096BFC1EBC10200EB82027F
:10436000D0F8EC03526C04F003BFC1EBC10200EBC8
:104370008202D0F8EC03D2F8042204F04EBFD0F849
:10438000EC0304F081BF10B504460A460B0601F0A9
:104390007F00C0EBC00104EB810101D5383101E0A1
:1043A00001F5FC710870D009487094F8B803012831
:1043B00009D0012084F8B803206805F0A7FA00208E
:1043C00084F8B80310BD022010BD70B50A4604463B
:1043D000090602F07F0005D5C0EBC00104EB8101A6
:1043E000383105E0C2EBC20104EB810101F5FC713B
:1043F00000258D700870D009487094F8B803012822
:1044000009D0012084F8B803206805F0DEFD84F8A7
:10441000B853002070BD022070BD01F00F01C1EB48
:10442000C10100EB8100B0F8100280B2704770B596
:1044300004460D460E0601F07F00C0EBC00104EB00
:10444000810101D5383101E001F5FC71ED090870F9
:104450004D708A60CB7000D0C8800025022B00D13F
:104460000D7194F8B803012809D0012084F8B8032D
:10447000206805F09FF9284684F8B85370BD0220E3
:1044800070BD70B50C4601F07F05C5EBC50100EBB2
:104490008101C1F80C32C1F804220023C1F81032A6
:1044A00081F8F93181F8F851036901F5FC71012BAC
:1044B00000D10A616206027C006803D005F0E6FDC7
:1044C000002070BD05F0C2FCFAE770B50D46044649
:1044D000090605F07F0005D5C0EBC00104EB8101A2
:1044E000383105E0C5EBC50104EB810101F5FC7134
:1044F00001228A700870E809487094F8B80301280E
:1045000007D084F8B823206805F091FD680602D032
:1045100007E0022070BD217C04F56F72206805F071
:1045200035FD002084F8B80370BD70B50C4601F06D
:104530007F05C5EBC50100EB8101CB644A64002314
:104540000B65012381F8393001F8385F0369012BCD
:1045500000D10A616206027C006803D005F096FD76
:10456000002070BD05F072FCFAE700002DE9F84F5D
:10457000044600680026054605F0DCFE002875D1DB
:10458000206806F0A2FD002870D0206806F09DFD8E
:10459000800704D52068416901F00201416120686B
:1045A00006F093FD010304F56F704FF0010B4FF01F
:1045B000000A00904DD5206806F069FD074646E0E8
:1045C000F80742D0F1B2206806F077FD8046C007B8
:1045D00028D005EB4612C2F808BB2069012811D18A
:1045E000C6EBC60004EB8001D2F8102BD1F8000214
:1045F000C2F31202821AC1F81022D1F80422104428
:10460000C1F80402F1B22046FFF7AFFE206901288D
:1046100008D13EB9D4F80C0220B920680121009AD3
:1046200005F0B4FC5FEA087007D5204600F0DCFA1C
:1046300005EB46110820C1F8080B5FEAC86004D5F5
:1046400005EB46111020C1F8080B7F08761C002FDF
:10465000B6D1206806F039FD40034FF040095ED521
:10466000206806F00DFD0746002656E0D2E1F80767
:1046700051D0F1B2206806F011FD8046C00724D069
:10468000D5F834280BFA06F08243C5F8342805EB38
:104690004610C0F808B92069012807D1C6EBC6004A
:1046A00004EB8000D0E9101211444164F1B22046BD
:1046B000FFF752FE2069012807D136B9E06C20B916
:1046C00020680121009A05F061FC5FEA087004D5BA
:1046D00005EB46110820C1F808095FEAC86004D557
:1046E00005EB46111020C1F808095FEA486003D5C0
:1046F00005EB4611C1F808995FEA887004D505EB0F
:1047000046110220C1F808095FEA086003D5314666
:10471000204602F021FA7F08761C002FA7D12068DE
:1047200006F0D3FC00280DDAD5F8040820F00100CB
:10473000C5F80408204600F03DFA2168486900F0F9
:1047400000404861206806F0C0FC00050BD5D5F894
:104750000808C00702D0204600F062FA20684169CC
:1047600001F400614161206806F0AFFCC0044CD543
:10477000D5F8040820F00100C5F8040810212068CD
:1047800005F0A8FD0020FF2107E000BF05EB401267
:10479000C2F80819C2F8081B401C62688242F5D8AA
:1047A0004FF0FF30C5F81808D5F81C0840F001108C
:1047B000C5F81C08206B60B1D5F8840840F00B00E8
:1047C000C5F88408D5F8440840F00B00C5F8440843
:1047D0000BE0D5F8140840F00B00C5F81408D5F824
:1047E000100840F00B00C5F81008D5F8000820F4B8
:1047F000FE60C5F80008217C2068009A05F0C6FB21
:104800002168486900F480504861206806F05DFC2A
:1048100080047DD5206805F00DF82068C16821F47A
:104820007051C160206805F067FD78B10320C4F8BD
:104830001490E06000F0A4FA7749784A014491426C
:104840000AD22068C16841F4705158E04FF40070FA
:10485000C4F80CA0606136E07149724A014491428B
:1048600004D22068C16841F4605148E06E496F4A43
:104870000144914204D22068C16841F450513EE0A5
:104880006B496C4A0144914204D22068C16841F4EA
:10489000405134E06849694A0144914204D2206899
:1048A000C16841F430512AE06549664A01449142A9
:1048B00004D22068C16841F4205120E062494218C6
:1048C00062498A4204D22068C16841F4105116E05E
:1048D0005F49604A0144914204D22068C16841F4B2
:1048E00000510CE05C4908445C4988422068C1687A
:1048F00003D241F4E05102E00AE041F4C051C1604A
:10490000204600F047F92068416901F400514161F7
:10491000206806F0DAFBC00636D52168886920F0E9
:1049200010008861D5F8208008F00F00C0EBC000AF
:1049300004EB8007C8F3434007F5FC77022802D058
:10494000062812D01BE047F6F07018EA000F16D0C8
:10495000C8F30A1290462846F96806F0BAFBF868D0
:104960004044F860B869404408E0082228460099AD
:1049700006F0AFFBB969C8F30A100844B8612068B3
:10498000816941F010018161206806F09EFB0007FB
:1049900007D5204600F012F92068416901F00801AE
:1049A0004161206806F091FBC00208D5F1B22046B3
:1049B00000F056F82068416901F4801141612068D7
:1049C00006F083FB800208D5F1B2204600F04CF8D7
:1049D0002068416901F400114161206806F075FB0F
:1049E000400007D52046FFF7B3FC2068416901F07D
:1049F00080414161206806F068FB40070AD52068C5
:104A00004568680702D52046FFF7B9FC2068416871
:104A100029434160BDE8F88F405327FF00350C0063
:104A2000401E1BFF40420F0000DC0BFF804F1200B6
:104A3000808CF9FE20D6130060B6E5FE60E3160018
:104A400000D3CEFE40771B00C05BB3FEC0912100B7
:104A500000CA91FE20753800E05459FEE09C4100E8
:104A6000D0F8EC0304F06EBCD0F8EC0304F06CBC9E
:104A7000F0B58BB004004FF0000556D0032084F849
:104A8000B903204600F054F8206805F05BF804F103
:104A9000100128220F466846FBF78DFD94E80F00B1
:104AA00004F0E2FE0021206806F0E6FE0126002068
:104AB000C5EBC50104EB810181F8396001F8385F6D
:104AC000CD80C8708860C8606D1C48610F2DEFD321
:104AD00000214FF4827300BFC1EBC10204EB8202DC
:104AE00003EB810582F8F90182F8F811D18782F889
:104AF000FB01C2F80002C2F80402C2F80C022268EC
:104B00005051491C0F29E7D3282239466846FBF744
:104B100052FD94E80F0004F075FF84F8B963206833
:104B200004F064FF00200BB0F0BD0120FBE70000A3
:104B300000B5006887B0B0F1A04F25D14FF4C05048
:104B400000900220019000200290032003900A2090
:104B5000049069460D48FFF727FA0D48016841F0B7
:104B6000800101600A481030016841F48041016011
:104B70000068002200F48040059011464320FFF7B2
:104B80008FFB4320FFF780FB07B000BD0000024011
:104B90003438024010B50446C068012100B9002134
:104BA000D4F8EC0304F026FCD4F8EC03BDE8104084
:104BB00004F0EFBBD0F8EC0304F00ABCD0F8EC032F
:104BC00004F00CBC10B5044690F8B803012809D0D5
:104BD000012084F8B803206806F064FE002084F801
:104BE000B80310BD022010BDD0F8EC2300F56F71A2
:104BF000104604F012BC10B5044690F8B803012822
:104C00000CD0012084F8B803206804F0E3FE20688B
:104C100005F04AFB002084F8B80310BD022010BD47
:104C200010B50446D0F8EC0304F044FC2068D0F83A
:104C3000001E41F00101C0F8001E206A002804D0C7
:104C40000248016841F00601016010BD10ED00E06E
:104C50002DE9F0470E46050065D0DFF81481D8F83D
:104C60000000F7B200F00F00B04207D288F80070E1
:104C7000D8F8000000F00F00B04254D128683D4C35
:104C8000810712D5400703D5206840F4E05020602A
:104C90002878000703D5206840F460402060206831
:104CA000A96820F0F000084320602878C0072DD0C4
:104CB000304968680839012812D0022813D0032827
:104CC00011D00968890700292DDA216821F0030134
:104CD00001432160FFF74EFA814641F2883A0EE027
:104CE00009688903EFE709688901ECE7FFF742FAF1
:104CF000A0EB0901514502D90320BDE8F0872068E7
:104D0000696800F00C00B0EB810FEFD1D8F800100B
:104D1000404601F00F01B14207D90770006800F06A
:104D20000F00B04201D00120E7E72878400705D501
:104D30002068E96820F4E0500843206028780007E4
:104D400006D52068296920F4604040EAC10020604F
:104D500000F01CF82168084AC1F30311515CC840F7
:104D6000064908600020FFF72DFA0020C5E7000083
:104D7000003C0240083802408CD30008B4020020F6
:104D80000148006870470000B4020020154810B5C3
:104D9000006810F00C02144813D01449042A0FD0F4
:104DA000082A0ED10F4C241F2268236802F03F020C
:104DB0005B0207D52068C0F38810A0FB010106E064
:104DC000084610BD2168C1F38811A1FB0001002332
:104DD000FBF71AFB2168C1F30141491C4900B0FBF4
:104DE000F1F010BD083802400024F40040787D0145
:104DF0002DE9F84F050076D02878DFF8F8B2BE4CE0
:104E0000C00749D0DBF800105846C1F381010129E1
:104E100008D00068C0F3810002280AD1201D006874
:104E2000400206D52068800336D568680028E2D0A5
:104E300032E06868B0F5803F10D0B0F5A02F206850
:104E400010D020F480302060206820F48020206082
:104E50006868A0B1FFF78EF906460CE0206840F4C0
:104E60008030F4E740F480202060F7E7FFF782F914
:104E7000801B642873D820688003F7D50CE0FFF707
:104E800079F9064605E000BFFFF774F9801B642836
:104E9000F0D820688003F7D42878DFF86082800794
:104EA0004FF000093ED5DBF80010584611F00C0F0A
:104EB00009D00068C0F3810002280BD18D48001F83
:104EC0000068400206D42068800715D5E8680128EC
:104ED00009D111E0E868B8B10120C8F80000FFF777
:104EE00049F9064605E002E1FFF744F9801B022874
:104EF000C0D820688007F7D52068296920F0F8001D
:104F000040EAC10020600DE0C8F80090FFF732F9D8
:104F1000064604E0FFF72EF9801B02281FD8206800
:104F20008007F7D42878000722D5724E7448696943
:104F30006C3671B101210160FFF71CF9074604E0EE
:104F4000FFF718F9C01B022809D830688007F7D589
:104F50000EE0C0F80090FFF70DF9074605E083E08A
:104F6000FFF708F9C01B02287ED830688007F7D405
:104F70002878400768D5DFF87CA100270AF1380AB5
:104F8000DAF80000C0000BD4DAF8001041F08051CC
:104F9000CAF80010DAF80000012700F080500090F5
:104FA000584E3068C00510D4306840F480703060CE
:104FB000FFF7E0F8009005E0FFF7DCF80099401AF1
:104FC000022851D83068C005F6D54A4EA868683620
:104FD00001280FD00528306810D020F00100306083
:104FE000306820F004003060A868B8B1FFF7C2F85C
:104FF00000900FE0306840F00100F4E740F004005A
:105000003060F7E7FFF7B6F80099411A41F28830AF
:10501000814264D830688007F4D50EE0FFF7AAF823
:10502000009007E0FFF7A6F80099411A41F2883096
:10503000814254D830688007F4D42FB1DAF80010D8
:1050400021F08051CAF80010A869C0B3DBF8001045
:10505000C1F3810102294AD00228484607D0C8F886
:105060006000FFF787F800E039E005463AE0474680
:10507000C8F86000FFF77EF8064604E0FFF77AF80C
:10508000801B02282BD820688001F7D4D5E90701BE
:105090000843A96A1C4A490802EB01416A6A41EACD
:1050A0008211084395F82C1040EA01611148001F55
:1050B000016001203866FFF75DF8054605E014E061
:1050C000FFF758F8401B022809D820688001F7D55F
:1050D0000BE000BFFFF74EF8401B022802D9032067
:1050E000BDE8F88F20688001F4D40020F8E70120A3
:1050F000F6E700000838024000380240000047424E
:10510000800E4742007000400000FFFF70B515465A
:105110000E46040003D094F8490010B107E00120C6
:1051200070BD002084F84800204600F01AF804F111
:1051300008012068FDF7CAFF3146A2682068FDF724
:10514000EFFFD4E901022946236BFDF79FFFA16819
:10515000206850F8212042F0010240F82120002070
:1051600070BDFEF7CFBD4FF0E0210428086903D0E1
:1051700020F004000861704740F00400FAE770472F
:1051800010B5401EB0F1807F01D3012010BD4FF05B
:10519000E02460610F21601701F0C7FC0020A061CE
:1051A00007202061002010BD10B5FFF7E8FF10BDFB
:1051B00010B590F83820012A25D0012280F8382037
:1051C000CA688C6822F4407222434C6822F48062E0
:1051D00022430C6822F4006222430C6922F48052BC
:1051E00022434C6922F4005222438C6922F480420B
:1051F000224322F40041026800232143516480F8D5
:105200003830002010BD022010BD30B590F8382095
:10521000012A20D0012280F83820022380F839307A
:1052200003685C6824F070045C6003685C680D6867
:105230002C435C6003689C6824F080049C600368D5
:105240009C6849680C439C6080F83920002180F8F4
:105250003810084630BD022030BD10B50446006845
:10526000042203F0B2FB2068416C41F40041416428
:105270002068016841F001010160002010BD10B5F7
:1052800004460068002203F0A0FB2068036A41F294
:1052900011110B4240F2444206D1036A134203D17A
:1052A000436C23F4004343642068036A0B4206D135
:1052B000016A114203D1016821F00101016000205F
:1052C00010BD10B5040003D094F8390010B107E008
:1052D000012010BD002084F83800204600F00CF8B2
:1052E000022084F83900211D206803F003FB01200F
:1052F00084F83900002010BD00B500680D4987B062
:10530000884215D10C480021026842F00202026076
:10531000006800F002000590012000900220CDE915
:1053200001010320CDE9031069460448FEF73CFE65
:1053300007B000BD000401404438024000000240B4
:10534000F0B500681A49002402251A4F85B088423A
:1053500009D140140090CDE901540120CDE903406A
:10536000694638461FE0144988421ED180200090CB
:10537000CDE901540326CDE9034669460F48FEF7FF
:1053800013FE0096CDE90154CDE90346694638463F
:10539000FEF70AFE4FF470700090CDE90154CDE99C
:1053A000034669460648FEF7FFFD05B0F0BD000064
:1053B00000000140000402400004014000000240DF
:1053C0000008024070B5044690F838000D460128E8
:1053D0000DD0012684F83860022084F8390042B1EB
:1053E000042A18D0082A2AD00C2A4DD139E00220EC
:1053F00070BD206803F0FEFA2068816941F0080161
:1054000081612068816921F00401816120688169DE
:105410002A69114311E0206803F018FB20688169B4
:1054200041F4006181612068816921F480618161BA
:10543000206881692A6941EA0221816124E02068AB
:1054400003F036FB2068C16941F00801C1612068A2
:10545000C16921F00401C1612068C1692A69114351
:1054600011E0206803F054FB2068C16941F4006139
:10547000C1612068C16921F48061C1612068C1698E
:105480002A6941EA0221C16184F83960002084F868
:10549000380070BD10B5040003D094F8390010B185
:1054A00007E0012010BD002084F83800204600F0FD
:1054B0000DF8022084F83900211D206803F01AFA43
:1054C000012084F83900002010BD000008B50068F4
:1054D0000649884208D10648016841F0010101608F
:1054E000006800F00100009008BD000000000140CD
:1054F0004438024010B504460068012203F05AFA0D
:1055000008492068884202D00749884203D1416C8B
:1055100041F4004141642068016841F001010160EB
:10552000002010BD000001400004014010B50446F9
:105530000068002203F03EFA114841F2111221687E
:105540009310814202D00F48814209D1086A10426B
:1055500006D1086A184203D1486C20F40040486420
:105560002068016A114206D1016A194203D101681B
:1055700021F001010160012084F83900002010BDF4
:10558000000001400004014070B5044690F8380066
:10559000012818D0012584F83850022084F83900F9
:1055A000204603F0DDFA2068C16821F04001C160A7
:1055B0002068C16821F48041C16084F8395000201E
:1055C00084F8380070BD022070BDFEE74FF48011F2
:1055D00040F8441F002180F829104FF47A52428489
:1055E000042280F82A2047F6FF728284C28402696E
:1055F00081639FED090A8260416300ED040A00EDBA
:10560000030A00ED010A00ED020A00ED0A0A80F823
:105610003010C160416070470000000070B50C465A
:105620002DED028BB0EE408A050027D0002C25D04E
:10563000B5EEC08AF1EE10FA20D995ED000AD4ED4E
:10564000000A20EE000A00EEA00A68EE080AB4EE96
:10565000E00AF1EE10FA11D907F0EEFAF0EE400A86
:1056600088EE200AD5ED000A60EE800AC5ED000A3A
:10567000D4ED000A20EE800A84ED000ABDEC028B16
:1056800070BD000010B544213448FAF7C6FF334816
:1056900080214430FAF7C1FF3048B7EE000ADFED51
:1056A000320A80ED010A9FED2E0A9FED331A80ED3C
:1056B000020AB6EE000A80ED070A9FED2A0ADFED26
:1056C000301A80ED030AC0ED040ADFED280A2F49E5
:1056D000C0ED050AC0ED060ADFED250AC0ED0A0A95
:1056E000C0ED0B0ADFED230AC0ED0C0A80ED0E0AB7
:1056F00080ED100A443080ED001A9FED201A80EDF5
:10570000011AB0EE081A80ED071AC0ED081ADFED95
:105710001D1AC0ED091ADFED1C1AC0ED0A1AC0ED02
:105720000D0AF1EE000AC0ED0B0A80ED101AF1EE41
:10573000040AC0ED110A80ED130A002048701449D4
:1057400048718871803108620448443006F088FC52
:10575000BDE81040014806F0EFB900008C050020BC
:10576000CDCC4C3D00000000000048426F12833A4F
:1057700000007A4400803B45CDCCCC3FCDCC4C40A2
:1057800000008049000048430000B642EC4400207D
:105790000000002010489FED111AD0ED100A90ED86
:1057A000110AF5EEC00AF1EE10FA01D2F0EE410A4C
:1057B000B5EEC00AF1EE10FA01D2B0EE410A084887
:1057C00000F13401C0ED020AC1ED020A80ED030AC6
:1057D00081ED030A70470000D005002000000000A2
:1057E0008801002030B5002305E000BF50F82340B9
:1057F00041F823405B1C9342F8D330BD7FB512487B
:105800001049002401604FF48031C0E901140461A3
:1058100084610E490462C0E90A140125C460C561AF
:1058200045610463FEF774F900B1FEE71020CDE98D
:105830000005694602940448FEF7C4F8002800D029
:10584000FEE77FBD002001402C0400200100000F76
:105850002DE9F04F2B4887B04FF02046DFF8A880A5
:1058600000240660C0E901841025C460C0E9044535
:105870008461C4614FF4805A0462C0E9094AC46279
:10588000046344638463446401270F20CDE90070FE
:1058900046204FF00609CDE902094FF0110B04959F
:1058A000CDE905B4002269461648FFF72FFC00B188
:1058B000FEE71448022150300022C0E90214C0E97A
:1058C00004458461C4610462C0E9094AC462046396
:1058D000446384634464C0E900680F20CDE900702C
:1058E000CDF80890CDE905B40648CDE903756946C1
:1058F0005030FFF70BFC002800D0FEE707B0BDE8F2
:10590000F08F0000EC040020040100A02DE9F04F0E
:10591000814887B00024016841F0100101600168EE
:1059200001F010010591016841F02001016001685A
:1059300001F020010591016841F0800101600168DA
:1059400001F080010591016841F0040101600168E6
:1059500001F004010591016841F001010160016855
:1059600001F001010591016841F002010160016847
:1059700001F002010591016841F0400101600168F8
:1059800001F040010591016841F0080101600068E3
:10599000DFF8889100F008000590012204214846B4
:1059A000FEF7E3FBDFF878A14FF480470022394689
:1059B0005046FEF7DAFBDFF86CB1002240F6050135
:1059C0005846FEF7D2FB002244215748FEF7CDFB94
:1059D0004FF40058012241465846FEF7C6FB01220B
:1059E0004FF4C0715148FEF7C0FB002279114F48B7
:1059F000FEF7BBFB002203214846FEF7B6FB072655
:105A000001250096CDE90154694648460394FEF706
:105A1000CBFA47480096CDE9010469464548FEF7B0
:105A2000C3FA4FF4CE60CDE90004694642480294BF
:105A3000FEF7BAFAE802CDE900046946504602943E
:105A4000FEF7B2FA3D48CDF80080CDE90104694681
:105A50005046FEF7A9FA0097CDE901546946504631
:105A60000394FEF7A1FA42F605000090CDE9015437
:105A7000694658460394FEF797FA44F26000CDE970
:105A80000004694629480294FEF78EFA44200090EB
:105A9000CDE90154694624480394FEF785FA0820AD
:105AA000CDE90004694620480294FEF77DFA4FF4E0
:105AB0005440CDE90004694658460294FEF774FA52
:105AC000F0010090CDE90154694618480394FEF7AF
:105AD0006BFA002201210620FEF7E2FB0620FEF70A
