:020000040800F2
:1000000048E1002071020008455000084B3B000801
:10001000ED4100084D0E00083D940008000000006E
:10002000000000000000000000000000915B0008DC
:10003000DD14000800000000FD500008115D0008FC
:100040008B0200088B0200088B0200088B0200085C
:100050008B0200088B020008DF140008ED14000872
:10006000F31400088B0200088B0200088B020008C2
:100070008B0200088B0200088B0200088B0200082C
:100080008B0200088B0200088B0200088B0200081C
:100090008B0200088B0200088B0200088B0200080C
:1000A0008B0200088B0200088B0200088B020008FC
:1000B0008B0200088B0200088B0200088B020008EC
:1000C0008B0200088B0200088B0200088B020008DC
:1000D0008B0200088B0200088B0200088B020008CC
:1000E000E51400088B0200088B0200088B02000850
:1000F0008B0200088B0200088B0200088B020008AC
:100100008B0200088B0200088B0200088B0200089B
:100110008B0200088B0200088B0200088B0200088B
:100120008B0200088B0200088B0200088B0200087B
:100130008B0200088B0200088B0200088B0200086B
:100140008B0200088B0200088B020008695000082F
:100150008B0200088B0200088B0200088B0200084B
:100160008B0200088B0200088B0200088B0200083B
:100170008B0200088B0200088B02000800000000C0
:100180008B0200088B02000800F002F800F060F813
:100190000AA090E8000C82448344AAF10107DA45E2
:1001A00001D100F055F8AFF2090EBAE80F0013F0D4
:1001B000010F18BFFB1A43F0010318472C9E0000E3
:1001C0004C9E00000A444FF0000C10F8013B13F065
:1001D000070408BF10F8014B1D1108BF10F8015BA0
:1001E000641E05D010F8016B641E01F8016BF9D193
:1001F00013F0080F1EBF10F8014BAD1C0C1B09D1EA
:100200006D1E58BF01F801CBFAD505E014F8016B5B
:1002100001F8016B6D1EF9D59142D6D370470000ED
:100220000023002400250026103A28BF78C1FBD8FF
:10023000520728BF30C148BF0B6070471FB509F097
:100240000CFE9DE8030000F0BDF91FBD10B510BD08
:1002500000F024FA1146FFF7F1FF09F057FC00F017
:1002600042FA03B4FFF7F2FF03BC00F073FA000098
:100270000948804709480047FEE7FEE7FEE7FEE73A
:10028000FEE7FEE7FEE7FEE7FEE7FEE70448054976
:10029000054A064B704700003D5E000889010008D2
:1002A0004881002048E1002048B1002048B10020EA
:1002B00070B5064600F06AF9056806F10B0020F0FB
:1002C0000704B4429CBF002070BD2B466A68BAB1D7
:1002D0001068A04210D304F1080188423CBF506866
:1002E000586007D35168101941601168091B0160FB
:1002F00058601460101D70BD13465268002AE7D183
:100300002146284600F04AF90028DED170BD70B5BC
:100310000446051F00F03AF90068002C14BF446839
:1003200070BD002C18BFAC423CBF20466468F8D3B7
:1003300001680A18AA4218BF456003D12A68054619
:100340001144016028684119A1421CBF6C6070BD56
:100350006168696021680844286070BD53EA020C36
:1003600000F069802DE9F04B4FF00006002B1FBF15
:10037000B3FA83F503FA05F424FA05F65E4012BFDA
:100380001643B2FA82F502FA05F4C5F120051EBF44
:1003900022FA05FC44EA0C04203556EA044C4FEAE4
:1003A000144418BF641C4FF000084FF0000990423D
:1003B00071EB030C39D3002919BFB1FA81F701FAA7
:1003C00007F6B0FA80F700FA07F6C7F120071EBF5C
:1003D00020FA07FC46EA0C062037B6FBF4FCA7EB34
:1003E0000507103F07F01F0BCBF120060CFA0BFBA3
:1003F0002CFA06F644BFB3460026202FA4BF5E4663
:100400004FF0000B5BEA060C08BF4FF0010B19EB35
:100410000B09ABFB027C48EB0608C01B06FB02CCB9
:100420000BFB03CC71EB0C01C1E70B4602464146C6
:100430004846BDE8F08B13B54FF000004FF00001C7
:10044000AFF30080BDE81C407047032A40F23080C3
:1004500010F0030C00F0158011F8013BBCF1020F05
:10046000624498BF11F801CB00F8013B38BF11F886
:10047000013BA2F1040298BF00F801CB38BF00F89D
:10048000013B11F0030300F02580083AC0F008801A
:1004900051F8043B083A51F804CBA0E80810F5E7FE
:1004A000121D5CBF51F8043B40F8043BAFF30080E1
:1004B000D20724BF11F8013B11F801CB48BF11F856
:1004C000012B24BF00F8013B00F801CB48BF00F826
:1004D000012B704710B5203AC0F00B80B1E81850DE
:1004E000203AA0E81850B1E81850A0E81850BFF41E
:1004F000F5AF5FEA027C24BFB1E81850A0E81850BD
:1005000044BF18C918C0BDE810405FEA827C24BF10
:1005100051F8043B40F8043B08BF7047D20728BF9E
:1005200031F8023B48BF11F8012B28BF20F8023BED
:1005300048BF00F8012B70474FF0000200B513468A
:1005400094469646203922BFA0E80C50A0E80C50F3
:10055000B1F12001BFF4F7AF090728BFA0E80C50A4
:1005600048BF0CC05DF804EB890028BF40F8042B9D
:1005700008BF704748BF20F8022B11F0804F18BF0A
:1005800000F8012B7047704770477047004870476C
:10059000EC800020704770477047704738B50446BC
:1005A0000A4600206946AFF30080002808BF38BD26
:1005B00002460099204600F04FF8012038BD012086
:1005C00000F064B8F8B5AFF30080054600200C4693
:1005D000102000BF0646A819A0420DD93246694630
:1005E0000020AFF30080070008BF00F04FF800982C
:1005F000A04218BF0546C419FFF7C8FF05600746AB
:10060000F01D20F007004619284600F00AF8B44211
:1006100008BFF8BDA21B31463868BDE8F84000F0BD
:100620001BB800210160C0E901107047102070471D
:1006300010B500F00DF8006810BD10B5044600F0CC
:1006400007F8046010BD000000487047E4800020F7
:1006500000487047E4800020034640688C4600282C
:1006600018BF88423CBF03464068F8D31868184456
:10067000884207D00CF1030020F00700001D411A4A
:10068000521A0146081D0A60FFF741BE10B500F07E
:1006900039F8BDE8104000F02FB870477546FFF7F5
:1006A000D3FFAE4605006946534620F00700854655
:1006B00018B020B5FFF7EAFDBDE820404FF0000676
:1006C0004FF000074FF000084FF0000B21F007013A
:1006D000AC46ACE8C009ACE8C009ACE8C009ACE87D
:1006E000C0098D46704710B50446AFF30080204620
:1006F000BDE81040FFF7B5BD002801D000F02AB8D2
:100700007047000010B5012805D0002103A000F0BB
:1007100027F8012010BD09A1F8E70000534947520E
:10072000544D454D3A204F7574206F6620686561C1
:1007300070206D656D6F7279000000003A20486589
:100740006170206D656D6F727920636F7272757064
:100750007465640001491820ABBEFEE72600020064
:1007600070B505460C460A2000E06D1C00F011F83B
:1007700035B128780028F8D102E0641C00F009F8AF
:1007800014B120780028F8D1BDE870400A20AFF3FA
:10079000008008B569468DF800000320ABBE08BD97
:1007A000454910B54A6822F440324A604A684368B5
:1007B0001A434A6001684A6822F480724A600168FC
:1007C0004A68036942EA03224A6001684A6822F0E3
:1007D00040724A6001684A6883681A434A60016847
:1007E0008A6822F400628A6001688A68C3681A43D2
:1007F0008A60816A6FF07062D14201688A6822F073
:1008000070628A6001688A680CD0836A1A438A60C1
:1008100001688A6822F040528A6001688A68C36A67
:100820001A4301E022F040528A6001688A6822F08F
:1008300002028A6001688A68836942EA43028A6028
:10084000016A002901684A680FD042F400624A60D8
:1008500001684A6822F460424A6001684A68174C9D
:10086000436A04EB43331A4301E022F400624A6016
:100870000168CA6A22F47002CA620168CA6A838B7C
:100880000F4C04EB03531A43CA6201688A6822F4CE
:1008900000728A6001688A68036B42EA43228A60B8
:1008A00001688A6822F480628A6001688A68406907
:1008B00042EA8020886010BD0023014000E0FFFF75
:1008C0000000F0FF10B5214900202DED028B9FEDB7
:1008D0001E0AC87001F180001E4980ED000A9FEDDC
:1008E0001C0A80ED010A90ED000ABCEEC00A10EE71
:1008F000100AA1F8660001F0ABF8B7EE008A1648BE
:10090000C8EE000AC0ED000A01F090F8C8EE000A37
:1009100011486838C0ED000A01F088F8C8EE000AF6
:100920000D489FED0E0A34380021C0ED000A0C4836
:1009300080ED080AC18004F027FDBDEC028BBDE804
:10094000104004F017BD000000007A4600000020AF
:100950000000FA45FC600020880100200000000033
:10096000F8430020F0B5964EF0EE601A2DED068BA0
:10097000B0EE409A83B0D6ED0D0A96ED0B0AF5EE77
:10098000C00AF1EE10FA01D8DFED8E0AB5EEC00A0A
:10099000F1EE10FA01D8B1EE000A20EE800ADFED88
:1009A0008AAA8A4C80EE2A8A94ED000ADFED880A32
:1009B00020EE201A96ED0A0AB5EEC00AF1EE10FA02
:1009C00006DDB4EEC10AF1EE10FA01D2B0EE401A23
:1009D00011EE100A7F4A8049904202DAB1EE081AFD
:1009E00005E011EE100A884201DD9FED7C1ADFED73
:1009F0007C8AB0EE610AF0EE680A00F099FC94F887
:100A00006E00B0EE40AA20B100EE100AF8EE409A57
:100A100001E0F7EE009A18EE100A4FF07E57B84248
:100A200001DA9FED708A704DB0EE490AB0EE481AB7
:100A300085ED0B8AB0EE688AF0EE480A00F078FC8B
:100A4000B0EE409A94ED000A10EE100AB84201DDB3
:100A5000CAEE008A9FED651AF0EE480AB0EE680A09
:100A600000F066FCF0EE408A29EE2A0A85ED0E8A37
:100A700085ED0F8A5C48C0EE290A8030C5ED080A72
:100A800095ED080A85ED0D0A80ED028A85ED149A30
:100A900095ED080A85ED150A00F0C8FF60EE290AF9
:100AA00096ED080AB5EEC00AF1EE10FA01DC9FEDF2
:100AB000500A20EE090A80EE201AF0EE680AB0EE25
:100AC000490A85ED161A00F043FCF6EE001A30EEE6
:100AD000612A94ED000A70EEE10A22EE002A60EE2F
:100AE000800A84ED012AC4ED020A71EE610A20EE4B
:100AF000800A84ED030A94ED070A08F065FEB0EE63
:100B0000408A94ED070A08F0C5FCF0EE408A94EDA7
:100B1000080A01A98DED000A94ED090A68468DEDD9
:100B2000010A00F067F8304E9DED000ABC363046F1
:100B300086ED000A9DED010A86ED010A31698847BC
:100B400096ED020A06F11405284685ED000A96ED99
:100B5000030A85ED010A85ED028AC5ED038AA969BC
:100B6000884795ED040A304684ED040A95ED050AA0
:100B700084ED050A94ED010A86ED000A94ED020A5F
:100B800086ED010A3169884796ED020A284685ED0F
:100B9000000A96ED030A85ED010A85ED028AC5ED8E
:100BA000038AA969884795ED040A84ED0B0A95ED3F
:100BB000050A84ED0C0A03B0BDEC068BF0BD000005
:100BC000DC04002000803B4500007042FC600020F7
:100BD0003333333F0000C040000020420000204279
:100BE0000000000000004843000000209A99593F8F
:100BF0000000804900281DD000291BD00E4A137820
:100C00000BB1527901E00D4A127B3AB1D1ED000AE5
:100C100090ED000AC0ED000A81ED000A90ED000A97
:100C2000B1EE400A80ED000A91ED000AB1EE400AF3
:100C300081ED000A70470000F8430020000000200A
:100C40003348B0EE402AF5EEC01A90ED0A0AD0ED16
:100C50000B2AF1EE10FA04D9B5EEC01AF1EE10FA33
:100C600002D8B0EE600A7047B5EEC00AF1EE10FA95
:100C700001D89FED280AF5EEC02AF1EE10FA01D84E
:100C8000F0EE402A9FED243A61EE213A20EE030A6D
:100C900062EE832AC3EE801A83EEA20AF5EEC01A32
:100CA000F1EE10FA01D8F0EE411AB5EEC00AF1EEFD
:100CB00010FA01D8B0EE410A22EE201AB5EEC01AA1
:100CC000F1EE10FA0BD3B0EEE01AF0EEC22AB4EE59
:100CD000E21AF1EE10FA02DDB0EE611A01E0B0EEB8
:100CE000401A30EEC20AB4EEC10AF1EE10FA02DD8B
:100CF000B0EE410A08E0F1EE410AB4EEE00AF1EE8E
:100D000010FA01D2B0EE600A32EE000A704700001D
:100D10009C040020000048436F12833A70B5464C93
:100D20002DED068BF0EE608AB0EE418AF0EE409A2F
:100D3000C4ED0B8A84ED0C8A2068B0F17E5F0EDA78
:100D4000B6EE001A9FED3D0AF6EE000A84ED010AA8
:100D500084ED020A84ED030AB6EE000A66E0B0EE06
:100D6000690A08F031FDB0EE409AB0EE690A08F069
:100D700091FB334DF0EE400A2846C5ED008A85ED23
:100D8000018A85ED029AC5ED030AA969884795EDA8
:100D9000040A05F11C06304686ED000A95ED050AA9
:100DA00086ED010A7169884796ED021AF7EE001A7E
:100DB00084ED011AD6ED032ADFED229AC4ED022A52
:100DC00096ED042A9FED20AA84ED032A94ED000AF3
:100DD000C1EE800AB6EE000AF0EE401AB0EE408A8C
:100DE00041EE201A02EEA08A02EE200AB0EE691A45
:100DF000F0EE4A0AB0EE619A00F09AFAF0EE408AFC
:100E0000B0EE691AF0EE4A0AB0EE480A00F090FA25
:100E1000B0EE408AB0EE691AF0EE4A0AB0EE490A26
:100E200000F086FAB0EE681AF0EE480ABDEC068BC8
:100E3000BDE8704000F090BDFC60002000000000A4
:100E4000EC0000203333733FCDCC4C3DFEE7002057
:100E5000704700207047000010B500220449054883
:100E600005F07CFA0449034805F072FA002010BD31
:100E7000B8750020A4650020B86D002010B5084AA0
:100E80000446007810700968204607F071FA214680
:100E9000044805F05DFA034805F03EFA002010BD55
:100EA000BC010020A4650020094A10B5D2F8182220
:100EB000D2F814220AB1012010BD0A4601460448A6
:100EC00005F04CFABDE81040014805F087BA000073
:100ED000A465002010B52DED048BB0EE408A18EE0D
:100EE000100AB0F17E5F03DC0020BDEC048B10BD66
:100EF0002C48D0ED0B8AF5EEC08AF1EE10FA01DC39
:100F0000F1EE008AF5EEC08AF1EE10FA01D8F7EEA4
:100F1000008AD0ED130A2448F5EEC00A90ED120ABB
:100F2000F1EE10FAB8EEC00A01D038EE400AF0EE49
:100F3000480A08F08FFBB5EEC00AF1EE10FA01D2B4
:100F400030EE080AF6EE000A28EE209AB4EEC09AB7
:100F5000F1EE10FA01D230EE480AB1EE400A08F084
:100F6000D1FB9FED120A9FED121A044668EE800A2B
:100F700081EE200A08F0C6FBFDEEC90ABDEEC80AE4
:100F8000204410EE901A814203DA10EE101A401A33
:100F9000ABE710EE901A49428142A6DD10EE101A1E
:100FA0000844A2E7DC040020FC6000200000B443F9
:100FB0000000000010B50846002304E0D45C5B1C70
:100FC000204480B2DBB28B42F8D300EB1020C0B2D9
:100FD00010BD000010B523482DED028B90ED000AE6
:100FE000DFED218A214820EE288A90ED010A20EECB
:100FF000280AB5EEC00AF1EE10FA0BDDB5EEC08A94
:10100000F1EE10FA04D9B4EEC80AF1EE10FA01D2EA
:10101000B0EE408A18EE100A1549884201DA9FEDB9
:10102000158A154CDFED150AB0EE481A94ED020A48
:10103000B0EEC00A00F07CF910EE100A104984ED01
:10104000060A884201DAB0EE680AB4EEC80AF1EE88
:1010500010FA01DDB0EE480A84ED0A0ABDEC028BFD
:1010600010BD0000DC040020CDCC4C3E7C61002093
:10107000CDCCCC3DCDCCCC3DF843002000000000D1
:10108000CDCC4C3E10B536489FED360A2DED028B87
:10109000D0ED000A344820EE801AD0ED010A20EE8F
:1010A000800AB5EEC00AF1EE10FA0BDDB5EEC01AFB
:1010B000F1EE10FA04D9B4EEC10AF1EE10FA01D241
:1010C000B0EE401A11EE100A2849884201DA9FED6D
:1010D000281A284C9FED288A94ED020AF0EE480A5F
:1010E000B0EEC00A00F024F984ED060A94ED030A7C
:1010F0009FED221AF6EE000A00F01AF984ED070AB5
:10110000207818B11E49A069884206DAB0EE480A74
:1011100084ED080ABDEC028B10BD00F087FC94ED55
:10112000071AC1EE000A94ED080A30EE800A10EEAC
:10113000100A84ED080AB0F17E5F05DBF7EE000AC5
:1011400030EE600A84ED080A10EE100AB0F17C5F00
:1011500002DA94ED060ADDE7B0EE480ADAE70000AD
:10116000DC040020CDCC4C3E7C610020CDCCCC3DBD
:10117000CDCCCC3DF84300200000000000004842E8
:1011800017B7D1381948DFED180A017829B141782D
:1011900019B9807808B1DFED160A1648B6EE001AC4
:1011A00090ED000A144820EE010A90ED0A1A20EE94
:1011B000200A61EE200AF5EEC00AF1EE10FA0BDD0E
:1011C000B5EEC00AF1EE10FA04D9F4EEC00AF1EE61
:1011D00010FA01D2B0EE600A10EE100AB0F17E5F94
:1011E00001DAB7EE000A7047CDCC4C3EF843002040
:1011F0003333B33EFC600020DC040020F0B518B1AE
:1012000011B1027CBABB01E04020F0BD2E4A92ED44
:10121000000A10EE103AB3F17E5F02DD92ED000A93
:1012200001E09FED2A0AF0EE000A41F2883320EE39
:10123000200ABCEEC00A10EE102A9A4200D21A46CA
:1012400044694FF0FF35641C4461944203D905742E
:101250004FF48070F0BD4FF0C8446288A48886685F
:1012600032448260C6683444C460468A761CB6B292
:1012700046829E4201D20020F0BDB2FBF3F296B24C
:10128000B4FBF3F297B2A6F5FE42A7F5FE43FF3A90
:10129000A3F1FF0300D55242002B00DA5B42002489
:1012A0008460C460448244614FF40064A24201D867
:1012B000A34203D905744FF40070F0BD21F8686FA4
:1012C0004F8001210174D6E78000002000007A469B
:1012D0000146F0EEC01A91ED010A0020F4EEC01AAA
:1012E000F1EE10FA0DDCF0EEE00AF4EEC00AF1EED9
:1012F00010FA06DCF0EEC10AF4EEC00AF1EE10FAC4
:1013000000DD0120704700000146034A8969002082
:10131000914200DD082070470000A04200680349A8
:10132000884201DD022070470020704700005C42C7
:10133000B4EEC10AF1EE10FA02DDB0EE410A7047D8
:10134000B4EEE00AF1EE10FAF9D2B0EE600A70479E
:1013500010B556482DED048BB0EE608AD0ED000A32
:10136000B4EEE00AF1EE10FA02DD90ED000A0CE0B6
:10137000D0ED000AF1EE600AB4EEE00AF1EE10FAE8
:1013800003D290ED000AB1EE400AB5EEC08AF1EE4C
:1013900010FA02D29FED468A06E018EE100A45497F
:1013A000884201DD9FED448AF0EEC00A10EE900AFB
:1013B0004249F6EE008A884204DD18EE100A4049E0
:1013C000884210DCB0EE681AF0EE680AB0EE680AE7
:1013D00000F0C2FAB0EE680AF0EE680AB0EE681AE1
:1013E000BDEC048B10BD3748D0ED000A10EE901A0A
:1013F000B1F17E5F02DDD0ED000A01E0DFED320ADF
:10140000F7EE001A324C81EEA01ADFED300A3149B6
:1014100060EE201A94ED000A01EE810A10EE100A27
:1014200084ED000A884202DB30EE600A06E0B5EE89
:10143000C00AF1EE10FA03D230EE200A84ED000A61
:1014400008F0C2F9B0EE409A94ED000A08F022F8D4
:10145000FEEE000A9FED203A69EE202AB0EE401A17
:10146000B0EE680AF0EE623A41EE032A68EE001A26
:1014700041EE433AF0EE400AB0EE402A01EEA20AF5
:1014800001EE892A41EEA30AB0EE403AB0EE420ADC
:10149000F0EE603AB0EE431A00F05EFAB0EE420AA7
:1014A000F0EE630AB0EE431A9AE700002C00002029
:1014B000000000006666663F6666663FCDCCCC3DA8
:1014C0006F12833A8000002000007A46DB0FC9408B
:1014D00034030020DB0FC940D7B35D3F70470120C4
:1014E00001F01AB84FF4005001F016B8022001F0D4
:1014F00013B8042001F010B8002229B101291AD034
:1015000002291BD04FF440720E490B6823F440733C
:101510000B600B6813430B600A6822F0F8020A6044
:101520000A68022303EBC00002430A60086840F423
:101530008030086070474FF48072E5E74FF4007226
:10154000E2E70000103C02401348016889050FD50E
:10155000016821F400710160016841F400610160DB
:10156000016821F400610160016841F400710160CB
:10157000016849050FD5016821F4806101600168A7
:1015800041F480510160016821F4805101600168DB
:1015900041F4806101607047003C024008490A68DC
:1015A00022F440720A600A6842F004020A600A6883
:1015B0004FF4803343EA002002430A607047000082
:1015C000103C0240064A136823F44073136013680A
:1015D0001360136843F0010313600170704700004B
:1015E000103C0240084910B50C6824F440740C60AB
:1015F0000C6844F440740C600C6844F001040C6006
:101600000260436010BD0000103C0240074A1368AE
:1016100023F440731360136843F4807313601368FA
:1016200043F001031360018070470000103C02404A
:10163000074A136823F440731360136843F400737C
:101640001360136843F001031360016070470000EA
:10165000103C024017490868C206174805D5C26900
:1016600042F01002C26110220A600A68920605D593
:10167000C26942F00802C26120220A600A6852066A
:1016800005D5C26942F00402C26140220A600A68BC
:10169000120605D5C26942F00202C26180220A60C8
:1016A0000A68920705D5C26942F02002C261022091
:1016B000086070470C3C0240B87D002070B51149AD
:1016C00004460020C86101F015F806460E4D09E0F9
:1016D000601C07D024B101F00DF8801BA04201D995
:1016E000032070BD2868C003F2D42868C00701D069
:1016F00001202860286810F0F200F2D0FFF7AAFF5E
:10170000012070BDB87D00200C3C024070B5B3F5DF
:10171000804F05D06FF0704140F82210002070BD5E
:1017200050F82240084B8E891C40D1E9003543EA2D
:1017300005138D6889692D0245EA06452B430B4345
:10174000234340F82230E9E70000F0CFF0B50C6801
:1017500050F82430114A1340D1E90125D1E903673B
:101760002A433E4332434E6932438E693243CE6947
:1017700032430E6A32434E6A32438E6A3243CE6A35
:101780003243CE6B096B32430A431A43082D01D111
:1017900042F0400240F824200020F0BD8000F0FF1D
:1017A00030B500EB820250688D8900F04043D1E9EA
:1017B000000440EA04108C68240244EA05442043F3
:1017C0000C8A074D05EB045420430C7D6D0105EB9D
:1017D000046489692043084318435060002030BDE9
:1017E0000000F0FF2DE9F0411C4C0500277A667AD5
:1017F0004FF00000E071207260720ED0184904F1C1
:101800008002496DD160032161712179012901D0E4
:10181000A07104E00121A17101E004216171804601
:10182000014610489FED100A01708170C18080ED63
:10183000080A80ED090A80ED0A0A03F059FD1DB17E
:1018400017B16670032102E084F801800521BDE82C
:10185000F0410248B43004F08EB9000000000020CE
:10186000FC600020F843002000000000002206E099
:1018700050F822305B1C01D001207047521C8A4274
:10188000F6D3002070470000F0B587B00F4604463D
:1018900000251646142168460595FEF74DFE0220E8
:1018A000049024480095844201D2002023E022497C
:1018B0008C4201D201201EE020498C4201D202203C
:1018C00019E01F498C4201D2032014E01D498C42CB
:1018D00001D204200FE01C498C4201D205200AE00D
:1018E0001A498C4201D2062005E019498C4201D2E6
:1018F000072000E00B200290012016490390F320FE
:10190000086005A9684600F01BFC50B900250CE0F2
:1019100057F8252004EB85010023022000F066FC27
:1019200010B1002007B0F0BD6D1CB542F0D301200E
:10193000F8E70000004000080080000800C0000830
:10194000000001080000020800000408000006086A
:10195000000008080C3C0240DFED231AB5EEC00A77
:10196000F1EE10FA01D2B0EE610AF5EEC00AF1EE26
:1019700010FA01D2F0EE610AB5EEC01AF1EE10FADB
:1019800001D2B0EE611A10EE101A1848DFED181AE5
:10199000814201DDB0EE610A10EE901A814201DD54
:1019A000F0EE610A11EE101A814201DDB0EE611A0B
:1019B000DFED101A104920EE210A0868BCEEC00ABB
:1019C00010EE102AC26320EEA10ABCEEC00A10EE8F
:1019D000102A826321EE210A0968BCEEC00A10EECB
:1019E000100A486370470000000000006666663F0A
:1019F0006666663F00102446C0030020094890ED4B
:101A00000C0AB5EEC00AF1EE10FA02D8403090EDA3
:101A10000D0AB5EEC00AF1EE10FA01D89FED020AE8
:101A2000704700009C04002000803B45064890ED74
:101A3000000A10EE101AB1F17E5F02DD90ED000A8F
:101A400070479FED020A70478000002000007A4630
:101A5000094810B590ED010A10EE101AB1F17E5F41
:101A600002DD90ED010A10BDFFF7E0FFF6EE000A7F
:101A700020EE200A10BD000080000020F0B54FF0DD
:101A8000C8439A89A0F85820DA89A0F85A201A8AFF
:101A9000A0F85C205A8AA0F85E209A8AA0F86020FC
:101AA000DA8AA0F862201A8BA0F8642091ED070A68
:101AB00001250022BCEEC00A10EE104A042C7AD098
:101AC00006DC012C09D0022C47D0032C74D1B4E0E1
:101AD0000B2C72D00C2CF9D13FE0B0F85A4090F8A2
:101AE0005C6044EA06448464C66F866790F874605C
:101AF0004EB191ED130A056DB5EEC00AF1EE10FA84
:101B000006D1651B05E080F874501546C26701E0F8
:101B10002D1BC56791ED080ABDEEC00A10EE101A24
:101B2000B5EB610F10EE101A01DD691A06E04910DD
:101B300049428D4203DA10EE101A2944C167046548
:101B400090ED1F0AD0ED100AB8EEC00A30EE800A00
:101B500080ED100A80F87320B4E0B0F85A4090F895
:101B60005C6044EA06448464B0F85E60A0F870608B
:101B7000C76F876790F874704FB191ED130A056DC8
:101B8000B5EEC00AF1EE10FA06D1651B05E080F84B
:101B900074501546C26701E02D1BC56791ED080A18
:101BA000BDEEC00A10EE107AB5EB670F10EE107A9A
:101BB00004DDED1B09E04AE1F8E088E07F107F4298
:101BC000BD4203DA10EE107A3D44C567046591ED1D
:101BD000060ABDEEC00A10EE105A45B190ED1F0A7C
:101BE000D0ED100AB8EEC00A30EE800A20E091ED88
:101BF000130AB5EEC00AF1EE10FA00EE104A0CD14D
:101C0000F8EEC00A00EE106A91ED081AB8EE400A2C
:101C100040EE010AC0ED100A0CE0744200EE904A5A
:101C2000B8EEC00A91ED081AF8EEE00A10EE810A4B
:101C300080ED100AB0F86010B2E0B0F85840C4F37C
:101C4000032480F87340B0F85E40B0F85C6024056F
:101C5000240B44EA16248464C66F866790F8746087
:101C60004EB191ED130A056DB5EEC00AF1EE10FA12
:101C700006D1651B05E080F874501546C26701E087
:101C80002D1BC56791ED080ABDEEC00A10EE101AB3
:101C9000B5EB610F10EE101A01DD691A06E049106C
:101CA00049428D4203DA10EE101A2944C1670465D7
:101CB00090ED1F0AD0ED100AB8EEC00A30EE800A8F
:101CC00080ED100AA0F8702080F872206EE0B0F865
:101CD0005C60B0F85A4006F0010744EA07448464A7
:101CE00090F85E703F0247EA1626A0F87060C76F52
:101CF000876790F874704FB191ED130A056DB5EEDA
:101D0000C00AF1EE10FA06D1651B05E080F87450A8
:101D10001546C26701E02D1BC56791ED080ABDEEAF
:101D2000C00A10EE107AB5EB670F10EE107A01DDE5
:101D3000ED1B06E07F107F42BD4203DA10EE107A01
:101D40003D44C567046591ED060AB5EEC00AF1EEA3
:101D500010FA73D191ED130AB5EEC00AF1EE10FA44
:101D600000EE104A0CD1F8EEC00A00EE106A91EDB8
:101D7000081AB8EE400A40EE010AC0ED100A0DE064
:101D8000744200EE904AB8EEC00A91ED081AF8EEDF
:101D9000E00A10EE810A00BF80ED100AB0F858107A
:101DA0005FEA112180F8721080F873201989A1F57B
:101DB000FE41FF3900EE101AF8EEC00A9FED610AED
:101DC00060EE800A9FED601A60EE810AC0ED000AA5
:101DD0005988B0F86820891A00EE901AF8EEE00AE7
:101DE00020EE801ADFED590A21EE201A80ED081A44
:101DF0009988B0F86A20B1EE411A891A01EE901A5A
:101E0000F8EEE11A61EE801A61EEA00AC0ED090A4F
:101E100071EE600AC0ED0A0AD988A1F5FE41FF39CA
:101E200000EE901AF8EEE00A20EE800ADFED480A94
:101E300020EE200A80ED060AF0BDFFE700EE105A02
:101E4000D0ED100AB8EEC00A30EE800AA4E7B0F870
:101E50005C60B0F85A4006F07F0744EA07448464A7
:101E6000B0F85E704FEA076C4FEA1C4C4CEA16263D
:101E7000A0F87060D0F87CC0C0F878C090F874C04A
:101E8000BCF1000F09D091ED130A056DB5EEC00A43
:101E9000F1EE10FA06D1651B05E080F87450154686
:101EA000C26701E02D1BC56791ED080ABDEEC00AAF
:101EB00010EE10CAB5EB6C0F10EE10CA02DDA5EBE8
:101EC0000C0508E04FEA6C0CCCF1000C654503DA18
:101ED00010EE10CA6544C567046591ED060ABDEEB3
:101EE000C00A10EE105A45B190ED1F0AD0ED100A4D
:101EF000B8EEC00A30EE800A20E091ED130AB5EE8C
:101F0000C00AF1EE10FA00EE104A0CD1F8EEC00A49
:101F100000EE106A91ED081AB8EE400A40EE010A90
:101F2000C0ED100A0CE0744200EE904AB8EEC00A10
:101F300091ED081AF8EEE00A10EE810A80ED100A21
:101F4000390A2FE7000080371FFDAA44D7A3AAC192
:101F50000000C84378B50024009490F83C20012A82
:101F600019D0012280F83C200A6807230568092A55
:101F700013D9EE680A3A02EB420293409E43EE60A8
:101F80000B788A680A3B03EB43039A400368DD68D9
:101F90002A43DA6010E0022078BD2E6902EB42028B
:101FA00093409E432E610B788A6803EB43039A406B
:101FB00003681D692A431A614A681F23072A13D23E
:101FC00005686E6B521E02EB820293409E436E6365
:101FD0000B790A885B1E92B203EB83039A40036875
:101FE0005D6B2A435A6327E005680D2A12D22E6BD7
:101FF000D21F02EB820293409E432E630B790A8824
:10200000DB1F92B203EB83039A4003681D6B2A43E4
:102010001A6311E0EE6A0D3A02EB820293409E438E
:10202000EE620B790A880D3B92B203EB83039A4070
:102030000368DD6A2A43DA62164B0568144A9D423A
:1020400006D10D68122D03D1556845F48005556001
:1020500005689D4218D10B68102B01D0112B13D1AC
:10206000536843F400035360096810290CD10A49EE
:102070000A4A0968B1FBF2F101EB8101490000E075
:10208000491E00910029FBD180F83C40002078BD1A
:1020900000230140002001401802002040420F00B0
:1020A00070B504004FF0000503D0206C002610B17D
:1020B00007E0012070BD666484F83C60204600F0B3
:1020C00019F8206CC00610D4206C20F4885040F021
:1020D000020020642046FEF763FB6664206C20F05B
:1020E000020040F00100206400E0012584F83C601B
:1020F000284670BD08B500680649884208D10648E0
:10210000016841F480710160006800F48070009003
:1021100008BD0000002001404438024070B504466C
:1021200000F0E8FA0546601C02D004480078044438
:1021300000F0E0FA401BA042FAD370BD0C02002070
:102140002DE9F047044622480F46017E01290AD0B6
:102150000121804601764CF250394846FFF7AEFA2D
:10216000020003D02FE00220BDE8F0874FF0FF30DF
:1021700038602068174D012801D0A6681CE0207C3B
:102180006168FFF70BFA4846FFF798FA024628689D
:1021900020F00400286014E0217C3046FFF7ACF901
:1021A0004846FFF78BFA0200286820F0FA00286002
:1021B00001D03E6005E0761CD4E902100844B0422C
:1021C000EAD8FFF7C1F9002188F818101046CBE7CC
:1021D000B87D0020103C02400348016841F00041F6
:1021E0000160002070470000103C02402DE9F047DC
:1021F0001B4E05461446307E1F468946012808D0EE
:10220000012030764CF250384046FFF757FA18B1AB
:1022100014E00220BDE8F0879DB1012D16D0022DFB
:1022200019D022463B464846FFF7DCF94046FFF707
:1022300045FA0C490A6822F001020A600021317651
:10224000E8E7E1B24846FFF7BDF9EFE7A1B248463B
:10225000FFF7DCF9EAE721464846FFF7E9F9E5E749
:10226000B87D0020103C0240074900200A68002A7F
:1022700009DA054A054B0C3A1360054B13600968EF
:10228000002900DA01207047103C02402301674515
:10229000AB89EFCDF0B5204887B00168002938D16F
:1022A000012101601D480024016841F00101016025
:1022B0000068022500F0010005901F20CDE900050F
:1022C00002AA03260C2782E8D0006946144800F0D1
:1022D0002FF94FF68070CDE9000502AA694682E821
:1022E000D000104800F024F94CF2B370CDE900059D
:1022F00002AA694682E8D0000B4800F019F92802CA
:10230000CDE9000502AA694682E8D000074800F03E
:102310000FF907B0F0BD0000040200203838024079
:102320000014024000100240000C0240001802405D
:102330002DE9F047B0F5005F76D10221704800F03A
:10234000CFF906F0A9FD6F4CA06F401CA067A078E4
:10235000002869D102F0FEFE6B48FEF7DFFF06465B
:102360006948FEF7D1FF684F40EA06058037664EA0
:1023700097F9100004F1B40800280EDD98F8000069
:10238000042801D0022808D106F120015E4891EC12
:10239000030A8030FEF79CFF05430DB1284635E067
:1023A0005A495948FFF76AFB06F028FE98F80000E2
:1023B000002506280ED007280CD001280ED0544F37
:1023C0004FF0010902283CD078B305284BD00328F0
:1023D00073D07CE0002003F04BFC69E0788A20B9E0
:1023E00047F6FF7026F8680F7080012003F040FC6C
:1023F000B6EE001AF6EE000AB6EE000AFFF7ACFAE7
:10240000414901F18000FEF7F9FE18B1BDE8F0473F
:1024100002F000BF97F91000002849DD02F068FFC4
:10242000E07918B1022107E01BE01CE0A07A10B1AE
:10243000A572052100E003213248B43003F09BFB74
:1024400036E002206071012003F012FC03F01AF85C
:1024500006F0A8FFB87810B10120FFF7C3F984F89F
:102460000090BDE8F0873D70BD709FED2A0AFD80A9
:1024700087ED080A87ED090A87ED0A0AFD6260798F
:10248000012802D06079022800D16571E5712572BA
:102490006572A57202F02CFF1C3696EC030A06F05A
:1024A0006BFD002003F0E4FB98F80000052802D043
:1024B0002570D6E701E00021BEE702F019FF0120F8
:1024C00003F0D6FB0F480421B43003F054FB012085
:1024D00003F0CEFB6078012807D0607803280BD08A
:1024E00002F0D0FF06F05EFFB9E7D4ED0A0A94EDE2
:1024F000090AFEF737FAF5E703F01AFAF2E70000E7
:102500000010024000000020FC600020DC040020DD
:10251000F843002000000000044910B50A68024298
:1025200002D00860FFF704FF10BD0000143C01401A
:102530002DE9F84FDFF87CB100224FF001084FF091
:10254000030A4FF00F090BF1040E00BF0B6808FAE5
:1025500002F42340A3426ED14D68022D01D0122D0A
:102560000ED1D50800EB850CDCF820505607F70E8D
:1025700009FA07F6B5430E69BE402E43CCF8206039
:10258000066855000F790AFA05FC07F0030726EAEA
:102590000C06AF40374307604E68012E05D0022E6F
:1025A00003D0112E01D0122E0ED18668CF6826EAF4
:1025B0000C06AF40374387604668A6430C79C4F3E6
:1025C0000014944034434460C6688C6826EA0C06C4
:1025D000AC403443C4604C68E40065D5364C256893
:1025E00045F480452560246822F0030504F4804406
:1025F0000094324C2E19D6F8084895072F0F09FA87
:1026000007F5AC432E4DA84201D1002524E02D4D05
:10261000A84201D101251FE02B4DA84201D102257E
:102620001AE02A4DA84201D1032515E0284DA84201
:1026300002D1042510E037E0264DA84201D105253E
:102640000AE0254DA84201D1062505E0234DA84208
:1026500001D1072500E00825BD402543C6F80858EC
:10266000DBF800405D464E689C43F60300D51C43F2
:102670002C60DEF8004075464E689C43B60300D5DA
:102680001C432C600B4D08352C684E689C43F602A9
:1026900000D51C432C60074D0C352C684E689C43BC
:1026A000B60200D51C432C60521C102AFFF44EAF1A
:1026B000BDE8F88F003C0140443802400030014042
:1026C000000002400004024000080240000C0240EA
:1026D000001002400014024000180240001C02409A
:1026E00042694A40426170470AB1816170470904FA
:1026F000FBE7000001488068704700000C020020E2
:102700000248816802781144816070470C02002001
:102710000B4810B5016841F400710160016841F493
:1027200080610160016841F480710160032000F064
:1027300097F8002000F006F800F024F8002010BD03
:10274000003C024070B50D4D04464FF47A71287874
:10275000B1FBF0F00A490968B1FBF0F000F0D0FFDE
:1027600048B9102C07D200222146501E00F058F81C
:1027700000206C6070BD012070BD00000C020020C4
:10278000180200201F4808B5016841F4804101602B
:10279000006800F4804000901A48001F016841F072
:1027A00080510160006800F080500090032000F02C
:1027B00057F8002211466FF00B0000F031F80022AC
:1027C00011466FF00A0000F02BF8002211466FF05E
:1027D000090000F025F800221146501F00F020F8F3
:1027E00000221146101F00F01BF800221146901E17
:1027F00000F016F80022BDE808401146501E00F017
:102800000FB800004438024000F01F02012191403F
:102810004009800000F1E020C0F80011704700007E
:10282000F0B40E4B1B680C46C3F30223C3F107053B
:10283000042D00D90425191D072901D2002300E029
:10284000DB1E012606FA05F1491E214099409E40F3
:10285000761E16403143F0BC02F0F5BB0CED00E0F3
:10286000064900F0070208684FF6FF03184040EAE7
:102870000220034A10430860704700000CED00E09E
:102880000000FA050068416200207047F0B500685A
:102890000023446A31B1856A4FF4827604EB154413
:1028A0004D1E0AE044EA024181620FE006EB830715
:1028B000C7595B1C04EB1744DBB2AB42F6DB4FF4A9
:1028C000807303EB810144EA024242500020F0BDD4
:1028D000D0F8EC0303F0A4BFC1EBC10200EB82020D
:1028E000D0F8EC03526C03F011BFC1EBC10200EB56
:1028F0008202D0F8EC03D2F8042203F05CBFD0F8D7
:10290000EC0303F08FBF10B504460A460B0601F036
:102910007F00C0EBC00104EB810101D5383101E03B
:1029200001F5FC710870D009487094F8B8030128CB
:1029300009D0012084F8B803206804F0B5FA00201B
:1029400084F8B80310BD022010BD70B50A460446D5
:10295000090602F07F0005D5C0EBC00104EB810140
:10296000383105E0C2EBC20104EB810101F5FC71D5
:1029700000258D700870D009487094F8B8030128BC
:1029800009D0012084F8B803206804F0E8FD84F839
:10299000B853002070BD022070BD01F00F01C1EBE3
:1029A000C10100EB8100B0F8100280B2704770B531
:1029B00004460D460E0601F07F00C0EBC00104EB9B
:1029C000810101D5383101E001F5FC71ED09087094
:1029D0004D708A60CB7000D0C8800025022B00D1DA
:1029E0000D7194F8B803012809D0012084F8B803C8
:1029F000206804F0ADF9284684F8B85370BD022071
:102A000070BD70B50C4601F07F05C5EBC50100EB4C
:102A10008101C1F80C32C1F804220023C1F8103240
:102A200081F8F93181F8F851036901F5FC71012B46
:102A300000D10A616206027C006803D004F0F0FD58
:102A4000002070BD04F0CCFCFAE770B50D460446DA
:102A5000090605F07F0005D5C0EBC00104EB81013C
:102A6000383105E0C5EBC50104EB810101F5FC71CE
:102A700001228A700870E809487094F8B8030128A8
:102A800007D084F8B823206804F09BFD680602D0C4
:102A900007E0022070BD217C04F56F72206804F00D
:102AA0003FFD002084F8B80370BD70B50C4601F0FE
:102AB0007F05C5EBC50100EB8101CB644A640023AF
:102AC0000B65012381F8393001F8385F0369012B68
:102AD00000D10A616206027C006803D004F0A0FD08
:102AE000002070BD04F07CFCFAE700002DE9F84FEF
:102AF000044600680026054604F0E6FE002875D16D
:102B0000206805F021FC002870D0206805F01CFC2E
:102B1000800704D52068416901F002014161206805
:102B200005F012FC010304F56F704FF0010B4FF03C
:102B3000000A00904DD5206805F0E8FB074646E006
:102B4000F80742D0F1B2206805F0F6FB8046C007D6
:102B500028D005EB4612C2F808BB2069012811D124
:102B6000C6EBC60004EB8001D2F8102BD1F80002AE
:102B7000C2F31202821AC1F81022D1F804221044C2
:102B8000C1F80402F1B22046FFF7AFFE2069012828
:102B900008D13EB9D4F80C0220B920680121009A6E
:102BA00004F0BEFC5FEA087007D5204600F0DCFAAE
:102BB00005EB46110820C1F8080B5FEAC86004D590
:102BC00005EB46111020C1F8080B7F08761C002F7A
:102BD000B6D1206805F0B8FB40034FF040095ED540
:102BE000206805F08CFB0746002656E0D2E1F80786
:102BF00051D0F1B2206805F090FB8046C00724D088
:102C0000D5F834280BFA06F08243C5F8342805EBD2
:102C10004610C0F808B92069012807D1C6EBC600E4
:102C200004EB8000D0E9101211444164F1B2204657
:102C3000FFF752FE2069012807D136B9E06C20B9B0
:102C400020680121009A04F06BFC5FEA087004D54B
:102C500005EB46110820C1F808095FEAC86004D5F1
:102C600005EB46111020C1F808095FEA486003D55A
:102C700005EB4611C1F808995FEA887004D505EBA9
:102C800046110220C1F808095FEA086003D5314601
:102C9000204602F0EFF97F08761C002FA7D12068AC
:102CA00005F052FB00280DDAD5F8040820F00100E9
:102CB000C5F80408204600F03DFA2168486900F094
:102CC00000404861206805F03FFB00050BD5D5F8B2
:102CD0000808C00702D0204600F062FA2068416967
:102CE00001F400614161206805F02EFBC0044CD561
:102CF000D5F8040820F00100C5F804081021206868
:102D000004F0B2FD0020FF2107E000BF05EB4012F8
:102D1000C2F80819C2F8081B401C62688242F5D844
:102D20004FF0FF30C5F81808D5F81C0840F0011026
:102D3000C5F81C08206B60B1D5F8840840F00B0082
:102D4000C5F88408D5F8440840F00B00C5F84408DD
:102D50000BE0D5F8140840F00B00C5F81408D5F8BE
:102D6000100840F00B00C5F81008D5F8000820F452
:102D7000FE60C5F80008217C2068009A04F0D0FBB2
:102D80002168486900F480504861206805F0DCFA49
:102D900080047DD5206804F01BF82068C16821F408
:102DA0007051C160206804F071FD78B10320C4F84F
:102DB0001490E06000F0A4FA7749784A0144914207
:102DC0000AD22068C16841F4705158E04FF4007095
:102DD000C4F80CA0606136E07149724A0144914226
:102DE00004D22068C16841F4605148E06E496F4ADE
:102DF0000144914204D22068C16841F450513EE040
:102E00006B496C4A0144914204D22068C16841F484
:102E1000405134E06849694A0144914204D2206833
:102E2000C16841F430512AE06549664A0144914243
:102E300004D22068C16841F4205120E06249421860
:102E400062498A4204D22068C16841F4105116E0F8
:102E50005F49604A0144914204D22068C16841F44C
:102E600000510CE05C4908445C4988422068C16814
:102E700003D241F4E05102E00AE041F4C051C160E4
:102E8000204600F047F92068416901F40051416192
:102E9000206805F059FAC00636D52168886920F007
:102EA00010008861D5F8208008F00F00C0EBC0004A
:102EB00004EB8007C8F3434007F5FC77022802D0F3
:102EC000062812D01BE047F6F07018EA000F16D063
:102ED000C8F30A1290462846F96805F039FAF868EE
:102EE0004044F860B869404408E008222846009948
:102EF00005F02EFAB969C8F30A100844B8612068D1
:102F0000816941F010018161206805F01DFA000718
:102F100007D5204600F012F92068416901F0080148
:102F20004161206805F010FAC00208D5F1B22046D0
:102F300000F056F82068416901F480114161206871
:102F400005F002FA800208D5F1B2204600F04CF8F4
:102F50002068416901F400114161206805F0F4F92D
:102F6000400007D52046FFF7B3FC2068416901F017
:102F700080414161206805F0E7F940070AD52068E3
:102F80004568680702D52046FFF7B9FC206841680C
:102F900029434160BDE8F88F405327FF00350C00FE
:102FA000401E1BFF40420F0000DC0BFF804F120051
:102FB000808CF9FE20D6130060B6E5FE60E31600B3
:102FC00000D3CEFE40771B00C05BB3FEC091210052
:102FD00000CA91FE20753800E05459FEE09C410083
:102FE000D0F8EC0303F07CBCD0F8EC0303F07ABC1F
:102FF000F0B58BB004004FF0000556D0032084F8E4
:10300000B903204600F054F8206804F069F804F190
:10301000100128220F466846FDF75CFA94E80F007D
:1030200003F0F0FE0021206805F02EFD01260020AF
:10303000C5EBC50104EB810181F8396001F8385F07
:10304000CD80C8708860C8606D1C48610F2DEFD3BB
:1030500000214FF4827300BFC1EBC10204EB820276
:1030600003EB810582F8F90182F8F811D18782F823
:10307000FB01C2F80002C2F80402C2F80C02226886
:103080005051491C0F29E7D3282239466846FDF7DD
:1030900021FA94E80F0003F083FF84F8B9632068F5
:1030A00003F072FF00200BB0F0BD0120FBE7000031
:1030B00000B5006887B0B0F1A04F25D14FF4C050E3
:1030C00000900220019000200290032003900A202B
:1030D000049069460D48FFF72BFA0D48016841F04E
:1030E000800101600A481030016841F480410160AC
:1030F0000068002200F48040059011464320FFF74D
:103100008FFB4320FFF780FB07B000BD00000240AB
:103110003438024010B50446C068012100B90021CE
:10312000D4F8EC0303F034FCD4F8EC03BDE8104011
:1031300003F0FDBBD0F8EC0303F018BCD0F8EC03AF
:1031400003F01ABC10B5044690F8B803012809D062
:10315000012084F8B803206805F0ACFC002084F856
:10316000B80310BD022010BDD0F8EC2300F56F713C
:10317000104603F020BC10B5044690F8B8030128AF
:103180000CD0012084F8B803206803F0F1FE206819
:1031900004F054FB002084F8B80310BD022010BDD9
:1031A00010B50446D0F8EC0303F052FC2068D0F8C8
:1031B000001E41F00101C0F8001E206A002804D062
:1031C0000248016841F00601016010BD10ED00E009
:1031D0002DE9F0470E46050065D0DFF81481D8F8D8
:1031E0000000F7B200F00F00B04207D288F800707C
:1031F000D8F8000000F00F00B04254D128683D4CD0
:10320000810712D5400703D5206840F4E0502060C4
:103210002878000703D5206840F4604020602068CB
:10322000A96820F0F000084320602878C0072DD05E
:10323000304968680839012812D0022813D00328C1
:1032400011D00968890700292DDA216821F00301CE
:1032500001432160FFF74EFA814641F2883A0EE0C1
:1032600009688903EFE709688901ECE7FFF742FA8B
:10327000A0EB0901514502D90320BDE8F087206881
:10328000696800F00C00B0EB810FEFD1D8F80010A6
:10329000404601F00F01B14207D90770006800F005
:1032A0000F00B04201D00120E7E72878400705D59C
:1032B0002068E96820F4E05008432060287800077F
:1032C00006D52068296920F4604040EAC1002060EA
:1032D00000F01CF82168084AC1F30311515CC84092
:1032E000064908600020FFF72DFA0020C5E700001E
:1032F000003C024008380240B89F00081802002035
:10330000014800687047000018020020154810B5F9
:10331000006810F00C02144813D01449042A0FD08E
:10332000082A0ED10F4C241F2268236802F03F02A6
:103330005B0207D52068C0F38810A0FB010106E0FE
:10334000084610BD2168C1F38811A1FB00010023CC
:10335000FDF704F82168C1F30141491C4900B0FBA5
:10336000F1F010BD083802400024F40040787D01DF
:103370002DE9F84F050076D02878DFF8F8B2BE4C7A
:10338000C00749D0DBF800105846C1F3810101297C
:1033900008D00068C0F3810002280AD1201D00680F
:1033A000400206D52068800336D568680028E2D040
:1033B00032E06868B0F5803F10D0B0F5A02F2068EB
:1033C00010D020F480302060206820F4802020601D
:1033D0006868A0B1FFF78EF906460CE0206840F45B
:1033E0008030F4E740F480202060F7E7FFF782F9AF
:1033F000801B642873D820688003F7D50CE0FFF7A2
:1034000079F9064605E000BFFFF774F9801B6428D0
:10341000F0D820688003F7D42878DFF8608280072E
:103420004FF000093ED5DBF80010584611F00C0FA4
:1034300009D00068C0F3810002280BD18D48001F1D
:103440000068400206D42068800715D5E868012886
:1034500009D111E0E868B8B10120C8F80000FFF711
:1034600049F9064605E002E1FFF744F9801B02280E
:10347000C0D820688007F7D52068296920F0F800B7
:1034800040EAC10020600DE0C8F80090FFF732F973
:10349000064604E0FFF72EF9801B02281FD820689B
:1034A0008007F7D42878000722D5724E74486969DE
:1034B0006C3671B101210160FFF71CF9074604E089
:1034C000FFF718F9C01B022809D830688007F7D524
:1034D0000EE0C0F80090FFF70DF9074605E083E025
:1034E000FFF708F9C01B02287ED830688007F7D4A0
:1034F0002878400768D5DFF87CA100270AF1380A50
:10350000DAF80000C0000BD4DAF8001041F0805166
:10351000CAF80010DAF80000012700F0805000908F
:10352000584E3068C00510D4306840F48070306068
:10353000FFF7E0F8009005E0FFF7DCF80099401A8B
:10354000022851D83068C005F6D54A4EA8686836BA
:1035500001280FD00528306810D020F0010030601D
:10356000306820F004003060A868B8B1FFF7C2F8F6
:1035700000900FE0306840F00100F4E740F00400F4
:103580003060F7E7FFF7B6F80099411A41F288304A
:10359000814264D830688007F4D50EE0FFF7AAF8BE
:1035A000009007E0FFF7A6F80099411A41F2883031
:1035B000814254D830688007F4D42FB1DAF8001073
:1035C00021F08051CAF80010A869C0B3DBF80010E0
:1035D000C1F3810102294AD00228484607D0C8F821
:1035E0006000FFF787F800E039E005463AE047461B
:1035F000C8F86000FFF77EF8064604E0FFF77AF8A7
:10360000801B02282BD820688001F7D4D5E9070158
:103610000843A96A1C4A490802EB01416A6A41EA67
:103620008211084395F82C1040EA01611148001FEF
:10363000016001203866FFF75DF8054605E014E0FB
:10364000FFF758F8401B022809D820688001F7D5F9
:103650000BE000BFFFF74EF8401B022802D9032001
:10366000BDE8F88F20688001F4D40020F8E701203D
:10367000F6E70000083802400038024000004742E8
:10368000800E4742007000400000FFFF70B51546F5
:103690000E46040003D094F8490010B107E0012061
:1036A00070BD002084F84800204600F01AF804F1AC
:1036B00008012068FEF74AF83146A2682068FEF744
:1036C0006FF8D4E901022946236BFEF71FF8A168C1
:1036D000206850F8212042F0010240F8212000200B
:1036E00070BDFEF7D7BD4FF0E0210428086903D074
:1036F00020F004000861704740F00400FAE77047CA
:1037000010B5401EB0F1807F01D3012010BD4FF0F5
:10371000E02460610F21601701F095FC0020A0619A
:1037200007202061002010BD10B5FFF7E8FF10BD95
:1037300010B590F83820012A25D0012280F83820D1
:10374000CA688C6822F4407222434C6822F480627A
:1037500022430C6822F4006222430C6922F4805256
:1037600022434C6922F4005222438C6922F48042A5
:10377000224322F40041026800232143516480F86F
:103780003830002010BD022010BD30B590F8382030
:10379000012A20D0012280F83820022380F8393015
:1037A00003685C6824F070045C6003685C680D6802
:1037B0002C435C6003689C6824F080049C60036870
:1037C0009C6849680C439C6080F83920002180F88F
:1037D0003810084630BD022030BD10B504460068E0
:1037E000042202F0C0FB2068416C41F400414164B6
:1037F0002068016841F001010160002010BD10B592
:1038000004460068002202F0AEFB2068036A41F221
:1038100011110B4240F2444206D1036A134203D114
:10382000436C23F4004343642068036A0B4206D1CF
:10383000016A114203D1016821F0010101600020F9
:1038400010BD10B5040003D094F8390010B107E0A2
:10385000012010BD002084F83800204600F00CF84C
:10386000022084F83900211D206802F011FB01209C
:1038700084F83900002010BD00B500680D4987B0FC
:10388000884215D10C480021026842F00202026011
:10389000006800F002000590012000900220CDE9B0
:1038A00001010320CDE9031069460448FEF740FEFC
:1038B00007B000BD0004014044380240000002404F
:1038C000F0B500681A49002402251A4F85B08842D5
:1038D00009D140140090CDE901540120CDE9034005
:1038E000694638461FE0144988421ED18020009066
:1038F000CDE901540326CDE9034669460F48FEF79A
:1039000017FE0096CDE90154CDE9034669463846D5
:10391000FEF70EFE4FF470700090CDE90154CDE932
:10392000034669460648FEF703FE05B0F0BD0000F9
:103930000000014000040240000401400000024079
:103940000008024070B5044690F838000D46012882
:103950000DD0012684F83860022084F8390042B185
:10396000042A18D0082A2AD00C2A4DD139E0022086
:1039700070BD206802F00CFB2068816941F00801ED
:1039800081612068816921F0040181612068816979
:103990002A69114311E0206802F026FB2068816942
:1039A00041F4006181612068816921F48061816155
:1039B000206881692A6941EA0221816124E0206846
:1039C00002F044FB2068C16941F00801C161206830
:1039D000C16921F00401C1612068C1692A691143EC
:1039E00011E0206802F062FB2068C16941F40061C7
:1039F000C1612068C16921F48061C1612068C16929
:103A00002A6941EA0221C16184F83960002084F802
:103A1000380070BD10B5040003D094F8390010B11F
:103A200007E0012010BD002084F83800204600F097
:103A30000DF8022084F83900211D206802F028FAD0
:103A4000012084F83900002010BD000008B500688E
:103A50000649884208D10648016841F00101016029
:103A6000006800F00100009008BD00000000014067
:103A70004438024010B504460068012202F068FA9A
:103A800008492068884202D00749884203D1416C26
:103A900041F4004141642068016841F00101016086
:103AA000002010BD000001400004014010B5044694
:103AB0000068002202F04CFA114841F2111221680C
:103AC0009310814202D00F48814209D1086A104206
:103AD00006D1086A184203D1486C20F400404864BB
:103AE0002068016A114206D1016A194203D10168B6
:103AF00021F001010160012084F83900002010BD8F
:103B0000000001400004014070B5044690F8380000
:103B1000012818D0012584F83850022084F8390093
:103B2000204602F0EBFA2068C16821F04001C16034
:103B30002068C16821F48041C16084F839500020B8
:103B400084F8380070BD022070BDFEE74FF480118C
:103B500040F8441F002180F829104FF47A52428423
:103B6000042280F82A2047F6FF728284C284026908
:103B700081639FED090A8260416300ED040A00ED54
:103B8000030A00ED010A00ED020A00ED0A0A80F8BE
:103B90003010C160416070470000000070B50C46F5
:103BA0002DED028BB0EE408A050027D0002C25D0E9
:103BB000B5EEC08AF1EE10FA20D995ED000AD4EDE9
:103BC000000A20EE000A00EEA00A68EE080AB4EE31
:103BD000E00AF1EE10FA11D905F0BEFEF0EE400A4F
:103BE00088EE200AD5ED000A60EE800AC5ED000AD5
:103BF000D4ED000A20EE800A84ED000ABDEC028BB1
:103C000070BD000010B540212F48FCF795FC2E48F0
:103C100080214030FCF790FC2B48B7EE000ADFED26
:103C20002B0A80ED010AC0ED020ADFED290A9FEDA3
:103C30002B1AC0ED050AF1EE040AC0ED060ADFED0D
:103C4000250A2D49C0ED0A0AC0ED0B0ADFED220A54
:103C5000C0ED0C0A80ED0E1A9FED211A403080ED68
:103C6000001A9FED201A80ED011AB0EE081A80EDBF
:103C7000071A9FED1D1A80ED081A9FED1C1A80EDA2
:103C8000091A9FED1B1A80ED0A1AC0ED0D0AF1EE1C
:103C9000000AC0ED0B0ADFED170A80ED100AC0ED37
:103CA000110A80ED130A0020487014494871887188
:103CB0008031C8600448403005F06EFABDE810401D
:103CC000014805F02BB800009C040020CDCC4C3DF1
:103CD0000AD7A33C00007A4300803B450000000067
:103CE000CDCCCC3FCDCC4C400000804900004843B7
:103CF0000000B64200001643F843002000000020F8
:103D000030B5002305E000BF50F8234041F82340C0
:103D10005B1C9342F8D330BD7FB512481049002494
:103D200001604FF48031C0E90114046184610E49DF
:103D30000462C0E90A140125C460C56145610463D9
:103D4000FEF7AEF900B1FEE71020CDE900056946A7
:103D500002940448FEF7FEF8002800D0FEE77FBD7D
:103D6000002001403C0300200100000F2DE9F04F2E
:103D70002B4887B04FF02046DFF8A880002406606B
:103D8000C0E901841025C460C0E904458461C461B0
:103D90004FF4805A0462C0E9094AC4620463446370
:103DA0008463446401270F20CDE9007046204FF062
:103DB0000609CDE902094FF0110B0495CDE905B4D0
:103DC000002269461648FFF761FC00B1FEE714487F
:103DD000022150300022C0E90214C0E90445846188
:103DE000C4610462C0E9094AC46204634463846331
:103DF0004464C0E900680F20CDE90070CDF8089058
:103E0000CDE905B40648CDE9037569465030FFF7A2
:103E10003DFC002800D0FEE707B0BDE8F08F0000B1
:103E2000FC030020040100A02DE9F04F814887B079
:103E30000024016841F010010160016801F01001E7
:103E40000591016841F020010160016801F0200145
:103E50000591016841F080010160016801F0800175
:103E60000591016841F004010160016801F004015D
:103E70000591016841F001010160016801F0010153
:103E80000591016841F002010160016801F0020141
:103E90000591016841F040010160016801F04001B5
:103EA0000591016841F0080101600068DFF8889120
:103EB00000F008000590012204214846FEF714FC9A
:103EC000DFF878A14FF48047002239465046FEF7CC
:103ED0000BFCDFF86CB1002240F605015846FEF7F6
:103EE00003FC002244215748FEF7FEFB4FF4005824
:103EF000012241465846FEF7F7FB01224FF4C071FC
:103F00005148FEF7F1FB002279114F48FEF7ECFB18
:103F1000002203214846FEF7E7FB0726012500960D
:103F2000CDE90154694648460394FEF701FB474832
:103F30000096CDE9010469464548FEF7F9FA4FF4C9
:103F4000CE60CDE90004694642480294FEF7F0FADB
:103F5000E802CDE90004694650460294FEF7E8FA0B
:103F60003D48CDF80080CDE9010469465046FEF792
:103F7000DFFA0097CDE90154694650460394FEF7F5
:103F8000D7FA42F605000090CDE90154694658463B
:103F90000394FEF7CDFA44F26000CDE900046946CF
:103FA00029480294FEF7C4FA44200090CDE9015458
:103FB000694624480394FEF7BBFA0820CDE90004C3
:103FC000694620480294FEF7B3FA4FF45440CDE915
:103FD0000004694658460294FEF7AAFAF0010090E0
:103FE000CDE90154694618480394FEF7A1FA00226E
:103FF00001210620FEF714FC0620FEF705FC002236
:1040000002210720FEF70CFC0720FEF7FDFB002233
:1040100002210820FEF704FC0820FEF7F5FB002231
:1040200011462820FEF7FCFB2820FEF7EDFB07B029
:10403000BDE8F08F3038024000100240001402400A
:1040400000180240000C0240000402400000211051
:1040500000080240000002400000111030B51E4868
:104060001C4991B00024602580E8320042F604111A
:10407000C0E903144461FFF7CDFC00B1FEE70E94E4
:104080000EA915480F94FFF780FB00B1FEE7CDE9BC
:1040900000540820CDE902400494059400226946AA
:1040A0000D480694FFF74EFC00B1FEE70794089414
:1040B00009944FF400500A94CDE90B4007A9064833
:1040C0000D94FFF735FB00B1FEE70348FFF7F8FB5F
:1040D00011B030BD000001408403002030B53448E9
:1040E000324995B00024602580E8320042F6041180
:1040F000C0E903144461FFF7A4FB00B1FEE72C48BC
:10410000FFF788FC00B1FEE704200E9070200F90AE
:104110004FF40040CDE910040EA925481294FFF792
:10412000F3FC00B1FEE7139413A921481494FFF7A0
:104130002CFB00B1FEE702200095CDE901400820EC
:10414000CDE9030405940022694619480694FFF757
:10415000F9FB00B1FEE7042269461548FFF7F2FBC0
:1041600000B1FEE7082269461148FFF7EBFB00B1FA
:10417000FEE70C2269460E48FFF7E4FB00B1FEE7BC
:104180000794CA200894CDE909404FF40050CDE9C6
:104190000B4007A906480D94FFF7CAFA00B1FEE7E5
:1041A0000348FFF78DFB15B030BD0000000401404F
:1041B000C003002010B500220849094802F071FA36
:1041C0000849074802F071FC0749054802F0B8F8B1
:1041D000BDE81040024802F0B5BC0000C00100205C
:1041E000A4650020FC020020F4010020FEE7B5EEEB
:1041F000C00AF1EE10FA01DAB1EE400A7047002869
:1042000009D00170002180F82810C1620163A0F874
:10421000AE1080F82A10704730B5039C60B159B1D8
:1042200053B10578042D03D090F82550642D03D3A5
:10423000022A01D9112C01D8002030BDD0ED110A7D
:104240009FED160A9FED161A60EE800AC3ED020A72
:10425000D0ED120A60EE810AC3ED030AD0ED130A15
:1042600020EE800A83ED040A90ED150A83ED0B0A17
:1042700090ED160A83ED100A90ED170A83ED110AEE
:1042800090ED180A81ED050A90ED190A81ED060AF4
:1042900090ED1A0A012081ED020A30BD00007A4437
:1042A00000247449002807D000F8251F012141701F
:1042B00041710021A0F889107047B4EEE00AF1EED8
:1042C00010FA02D2B0EE600A7047B4EEC10AF1EE05
:1042D00010FAF9DDB0EE410A7047002817D000212E
:1042E00080F8261080F82A10A0F8AE100178012975
:1042F00007D002290BD190F82810032907D1FFF726
:104300007EBF90F82810042901D10221F7E77047F9
:10431000B1EE000A002812D0D0ED0A0A0C4910EEC6
:10432000900AB0F17E5F0ADD9FED0A0A20EE800A56
:1043300010EE100AB0F1804F02DAB0EE000A7047BA
:1043400010EE100A8842FADDB2EE080A704700004B
:10435000000040419A99993E70B50D462DED048BB1
:10436000040067D094ED060A9FED341AF7EE000AB8
:10437000FFF7A3FFDFED328A9FED321AF6EE000A57
:1043800020EE288A94ED070AFFF797FF20EE289A7F
:1043900094ED080A9FED2C1ADFED2C0AFFF78DFF34
:1043A00060EE289A94ED120A20EE080A84ED160AAF
:1043B00094ED110A20EE080A84ED170A15B195ED67
:1043C000108A01E09FED228AB5EEC08AF1EE10FA64
:1043D00001D89FED208AD4ED158A18EE900AB0F12D
:1043E0007C5F01DCF7EE008A94ED140AB2EE041A49
:1043F000DFED190AFFF761FFF7EE080A28EE091A48
:1044000068EEA00A642020EE200AC1EE000AB5EE94
:10441000000A29EE000AC4ED180A20EE800A84ED95
:10442000190AC4ED1A9A84F825000420207000208F
:1044300084F82400BDEC048B70BD00000000FA4439
:10444000DB0FC9400000FA430000C842CDCCCC3D90
:104450000000000017B7D138ACC527372DE9F0416F
:104460001646884604004FF0010533D04FF4166716
:10447000394604F1B400FCF75FF8394604F614201D
:10448000FCF75AF841F2743039462044FCF754F8EE
:104490000020A4F8AC00A4F8AE0084F8278084F8CB
:1044A0002A0084F82600B810864206D906F257265C
:1044B000B6FBF0F5FF2D00D9FF25E8B200EE100A9B
:1044C00084F82900D4ED0F0AB8EE400A20EE800AE5
:1044D00084ED2C0ABDE8F08170B50C462DED028B01
:1044E0000546160005D024211046FCF725F80021CA
:1044F0003170002D5DD0002C5BD095F82400002891
:1045000057D094ED070AFFF772FEB0EE408A94EDA3
:10451000080AFFF76CFEB4EEC80AF1EE10FA05DDEA
:1045200094ED080AFFF763FEB0EE408A94ED090AA5
:10453000FFF75DFEB4EEC80AF1EE10FA05DD94ED6A
:10454000090AFFF754FEB0EE408A95ED100AB4EE6A
:10455000C80AF1EE10FA0AD2686B401C686328465C
:10456000BDEC028B0121BDE8704000F095BC2878BD
:1045700004281ED2DFE800F01D020B14BDEC028BF4
:10458000324621462846BDE8704000F0D9BABDEC5D
:10459000028B324621462846BDE8704000F09CB9A7
:1045A000BDEC028B324621462846BDE8704000F043
:1045B00003B8BDEC028B70BD2DE9F04715462DED1B
:1045C000068B0E46044691ED0E0A9FEDB21AF7EEE9
:1045D000000AFFF772FEB0EE40AAAF49201DB0EE10
:1045E0000E0AB0EE089A13D090ED030AF5EE000A19
:1045F00020EE200A10EE100A884202DAB0EE490AD4
:1046000006E010EE100AB0F1824F01DDB2EE000AB2
:10461000201DF0EE409A9FEDA18AA14A12D090EDA4
:10462000040ADFEDA00A20EE208A18EE100A884264
:1046300002DAB0EE498A05E018EE100A904201DD78
:10464000B2EE048AB1EE040A204600F0D9FB82469D
:104650009FED950A204600F0D3FB81469FED930A1B
:10466000204600F0CDFB804694F828100027DFEDAF
:10467000908A0320F1B3012975D0022974D003294F
:1046800073D1287094ED040A85ED060A94ED050AAD
:1046900085ED070A96ED040AD6ED050A20EE000A1C
:1046A00000EEA00AD6ED060A00EEA00AC0EE090A46
:1046B00094ED250A30EE200A84ED250A96ED0D0AC8
:1046C000FFF795FDD4ED260A30EE200A84ED260A88
:1046D000D4F89C00401CC4F89C00E16A491CE162CB
:1046E000414565D3F0B300EE900AF8EE600A80EE23
:1046F000208A00E005E018EE101A6E4A914265DB50
:1047000097E0E16A39B996ED0C0A84ED280AC4ED08
:10471000298AC4ED2A8A2870C5ED069A85ED078A94
:10472000B0EE690AFFF763FD94ED0F1AD4ED290A84
:1047300040EE010AC4ED290A96ED0C0AD4ED280AD0
:1047400070EE600A80EE8A0AFFF751FD10EE100A43
:1047500084ED2A0AB0F17E5F2EDB10EE100A564976
:10476000884203E00CE039E051E021E008DD94EDFF
:10477000291AC1EE000A10EE900AB0F17C5F01DA4E
:10478000042124E0B6EE000A30EE800A04F02AFF8D
:1047900084ED150A9FED491AF7EE000A2434FFF75D
:1047A0008CFD84ED0C0A4E2060700120A760207102
:1047B000BDEC068BBDE8F087E06A401CE062504526
:1047C000F6D310EE100A3E498842D9DA0221BDEC38
:1047D000068B2046BDE8F04700F05EBB2870C5EDB3
:1047E000068AC5ED078A9FED370A204600F008FBD0
:1047F000E16A491CE1628842DAD80220E76204F8E3
:10480000280FC4ED1B8AC4ED1C8A6767D0E72870A7
:1048100094ED040A85ED060A94ED050A85ED070A74
:10482000E16A491CE1624945C2D3E76284F8280085
:10483000BEE700EE100AD4ED250AB8EE401A80EE6D
:10484000810A05F089F8DFED200A94ED151ADFEDF5
:104850001F1A68EE200A1E4920EE811AC1EE210AB5
:1048600010EE900A88428BDD5F209FED1A1A3146C8
:1048700020EE011A81EE200A84ED140A84ED130A59
:1048800084F825002046BDEC068BBDE8F047FFF715
:1048900063BD00000000804B00004040666686401B
:1048A000000020413333333F9A99193F3333B33EED
:1048B000000000000000A0410AD7233C0000804215
:1048C0009A99193ECDCC4C3EDB0FC9400000704296
:1048D000BD378635F304B53F2DE9F05F15462DED64
:1048E000068B894604469FED8F0A00F089FA8346BD
:1048F0009FED8D0A204600F083FA06460520B6FBA0
:10490000F0F8B8F1030F01D24FF00308B708042FF5
:1049100000D2042794F828004FF0010A9FED838A03
:1049200098B101283AD085F800A085ED018A544657
:1049300085ED028A4846FFF7EBFC85ED050A85F810
:104940002040BDEC068BBDE8F09FE06A28B90BEB78
:10495000060202212046FFF781FD85F800A085EDC3
:10496000018A564685ED028A4846FFF7D1FC85ED5F
:10497000050A85F82060D9ED020A99ED000AB0EE2B
:10498000481A204600F0FCF9E06A401CE0625845F5
:10499000D7D30020E06284F82860D2E70220287094
:1049A00094ED030AB0EE481A85ED030A85ED041A6A
:1049B00085F820A0D4ED030A2046C4ED240A99ED21
:1049C000000A00F0DDF9E06A401CE062B042B8D3B2
:1049D000F0EE489AB4F8AC10B0EE690A0022B0EEDE
:1049E000409AB0EE408AF0EE408A062975D3B9426B
:1049F00001D9C81B82B20020F7EE000A15E040453D
:104A000007D204EB800330EE200A93ED2D1A31EE2D
:104A1000099A904207D304EB800378EEA08A93EDC5
:104A20002D1A31EE088A401C80B28142E7D8F7EE99
:104A3000000A9FED3FAAB0EE4A1AFFF73EFCC9EE0E
:104A4000000AB0EE4A1AB0EE680AC4ED210AF7EE89
:104A5000000AFFF732FCC8EE000AC4ED220A94ED0A
:104A6000210A70EEC08A00EE106AD4ED0F0AB8EE8B
:104A7000400A20EE808AB5EEC08AF1EE10FA3BD9EA
:104A8000B0EE680AFFF7B3FB10EE100A294988421E
:104A900032DB88EE880A84ED230AD4ED210A94EDF6
:104AA000221A94ED248A70EE810AB6EE001A60EEA6
:104AB000810A94ED111A01EE608AFFF798FB10EE5F
:104AC000100A1D49884209DDD4ED230A88EE200A28
:104AD000FFF78DFB84ED120A04E00DE0C4ED129A9D
:104AE000B0EE690AB5EEC00AF1EE10FA04D910EE84
:104AF000100A1249884207DDBDEC068B20460421CE
:104B0000BDE8F05F00F0C8B9032084F82800002059
:104B1000E0622046BDEC068B3C21BDE8F05FFFF76C
:104B2000C1BB0000CDCCCC3D0AD7A33C00000000A7
:104B300000007A448FC2F53CBD3786350000204125
:104B40002DE9F04715462DED048B0E4604469FEDEA
:104B5000870A00F055F980469FED850A204600F04F
:104B60004FF907463046FFF7D3FB94ED011A4FF09B
:104B7000010A85F800A085ED011A9FED7E8A85ED7A
:104B8000028A85ED050A85F820A094F828000228FD
:104B900006D2D6ED020A96ED000A204600F0F0F8A3
:104BA00094F828004FF0000958B1012822D00228BB
:104BB0003ED0032851D085ED018ABDEC048BBDE8C1
:104BC000F087E06A30B908EB070042000121204677
:104BD000FFF744FCE06A401CE0624045EDD3C4F8B6
:104BE0002C9084F828A084ED1B8A84ED1C8AC4F8DC
:104BF0007C90E2E794ED1B0AD6ED020A30EE200A23
:104C000084ED1B0A94ED1C0AD6ED000A30EE200A52
:104C100084ED1C0AE06F401CE067E06A401CE06223
:104C2000B842CAD30220C4F82C9084F82800C4E704
:104C300094ED020A85ED010AE06A401CE0624045FD
:104C4000BBD30321C4F82C9004F8281F84ED138AE9
:104C500084ED148AC4F85890AFE794ED020A85ED0C
:104C6000010A94ED1D0AD6ED020A30EE201A84EDF9
:104C70001D1A94ED1E0AD6ED000A70EE201AC4ED3E
:104C80001E1AD4F88000401CC4F88000E16A491C58
:104C9000E162B94291D3E16F002908D000EE101A09
:104CA00094ED1C2AB8EE400AC2EE000A01E0F0EED4
:104CB000480A08D000EE101A94ED1B2AF8EE402A9C
:104CC00082EE220A01E0B0EE480A002807D000BFB9
:104CD00002EE100AB8EE422AC1EE828A01E0F0EE3E
:104CE000488A05D001EE900AF8EE611A81EE218A19
:104CF00038EEE09A78EE409AB0EE490AFFF777FA7C
:104D000010EE100A1C4DA84202DD89EE890A09E066
:104D1000B0EE680AFFF76BFA10EE100AA8420FDD3A
:104D200088EE280AFFF763FAB5EEC00A84ED110A8F
:104D3000F1EE10FA04D910EE100A1049884207DD8E
:104D4000BDEC048B20460421BDE8F04700F0A4B878
:104D5000042084F82800C4F82C902046BDEC048B75
:104D60001E21BDE8F047FFF79DBA0000CDCC4C3EB8
:104D70008FC2F53D00000000CDCC4C3D00007A44D0
:104D800010B500282BD090F82710002927D0B0F8B4
:104D9000AC20B2F5167F22D290F82910012906D94D
:104DA000C36AB3FBF1F401FB1431002917D100EB06
:104DB000820181ED2D0AB0F8AC1000EB810101F504
:104DC0000061C1ED850AB0F8AC1000EB810101F57E
:104DD000805181EDDD1A30F8AC1F491C018010BDF7
:104DE00010B504000BD041F6D441FBF7A5FB201D04
:104DF00000F028F800202070607084F8270010BDB3
:104E000060B1D0ED0E0A4FF07E5110EE900A88424C
:104E100004DDB5EEC00AF1EE10FA01D801207047AA
:104E200020EE800A10EE100A884201DAB7EE000A7E
:104E3000F6EE000A30EE200ABCEEC00A10EE100AB0
:104E40007047000000281FD09FED100A80ED000A77
:104E50009FED0F0A80ED010AB0EE000A80ED020A14
:104E6000B2EE0E0A80ED030AB1EE080A80ED040AE4
:104E70009FED080A80ED050AB3EE040A80ED060AEC
:104E8000B1EE040A80ED070A70470000CDCC4C3E1D
:104E90006666E63E00004843002809D0002280F8FC
:104EA000242005230370417080F82A2080F82620F2
:104EB0007047000030B504002DED048B89B0B0EED2
:104EC000609AB0EE408A6BD06846FFF7BBFF19B11D
:104ED00020226846FBF7FEFA9DED000AB2EE041AA6
:104EE000DFED468AF0EE680AFFF7E7F98DED000A7C
:104EF00070EE280A9DED010AB3EE041AFFF7DDF902
:104F0000DFED3F9A8DED010A9DED020AB0EE691AC0
:104F1000F5EE000AFFF7D1F98DED020A9DED030AC7
:104F20009FED381AF7EE000AFFF7C7F98DED030A77
:104F30009DED040AB0EE691AF7EE000AFFF7BDF91D
:104F40008DED040A9DED050A9FED2F1AF7EE000A7C
:104F5000FFF7B3F9DFED2E9A8DED050A9DED060AF8
:104F60009FED2A1AF0EE690AFFF7A7F98DED060A00
:104F70009DED070A9FED271AF0EE680AFFF79DF9ED
:104F800018EE100A24498DED070A88420DDA202216
:104F90006946201DFBF79EFA03212046FFF77CFFA0
:104FA000002009B0BDEC048B30BD41F6D441204651
:104FB000FBF7C2FA20226946201DFBF78BFAB7EEF9
:104FC000000A0120C0EE080A20700025657084F8F0
:104FD000240084F8250084ED0E8A9FED101AB0EEAF
:104FE000490AC4ED0F0AF0EE690AFFF766F984ED8D
:104FF000100A84F827500120D3E70000CDCC4C3DA7
:1050000000002042000048430000FA440000FA4338
:10501000CDCCCC3D0000C8420000C84200007A441C
:1050200000280ED0002100F8241F00F8241C00F8EE
:10503000231C417081708171A0F88A10C170816059
:10504000C160704770470907090E002806DA00F0B2
:105050000F0000F1E02080F8141D704700F1E020FF
:1050600080F80014704700000148FDF73FBD0000C4
:10507000C86700202DE9F84F0F46C1EBC70100EBD0
:10508000810582460668D5E91301441A286C383533
:10509000A04200D20446E01C4FEA900806EB4719F4
:1050A00016E0441AA868A04200D20446E01C4FEA69
:1050B00090089AF810000090A3B2FAB23046E9685E
:1050C00003F004FEE8682044E860A8692044A86171
:1050D000D9F8180980B2404505D9D5E905018142C2
:1050E00001D20028DDD134B90120D6F83418B840F7
:1050F0008143C6F834180020BDE8F88F70470000DF
:10510000114A0123D37100B1012010725172537101
:10511000022050709FED0D0A0D4882ED080A82EDC5
:10512000090A82ED0A0A82ED0E0A82ED0F0A037067
:10513000437000218170C18080ED080A80ED090A6A
:1051400080ED0A0AC16270470000002000000000E4
:10515000F84300204FF0C8410A89284802834A8852
:1051600082828A88C282C9884183018B9FED251A79
:10517000A1F5FE41FF3900EE101A2349F8EEC00AEE
:105180009FED1F0A60EE800A60EE810AC1ED000A01
:10519000B1F86820838A9FED1D1A9A1A00EE902AB2
:1051A000F8EEE00A60EE800A60EE810AC1ED080ABE
:1051B000B1F86A20C38AF1EE600A9A1A01EE902AC9
:1051C000F8EEE11A61EE801A21EE811A81ED091ADA
:1051D00070EEC10AC1ED0A0A408BA0F5FE40FF380F
:1051E00000EE900AF8EEE00A20EE800ADFED080AF1
:1051F00020EE200A81ED060A704700000000002022
:10520000000080371FFDAA44FC600020D7A3AAC17C
:105210000000C8432DE9F041314C0746608A38430D
:105220006082A0832F4D04F1800605F1980195ED71
:10523000080A012086ED040A95ED090A86ED050AA3
:1052400095ED0A0A86ED060A81F80C0460780328B9
:1052500007D1F80701D0012100E004212248FFF71F
:105260001BFE4FF00008404684F801809FED1F0AA6
:105270001D4984ED090A84ED0A0AD5ED100A30397A
:10528000C4ED0C0A84ED0D0A86ED020A81F8008057
:1052900081F80280A1F8068081ED080A81ED090AF3
:1052A00081ED0A0AC1F82C80E07120726072607989
:1052B000012802D06079022801D1042060710848D9
:1052C0004FF0FF323946B43000F03AFC00F010F8ED
:1052D000002000F0CDFC84F80080BDE8F0810000E3
:1052E00000000020FC600020284400200000000096
:1052F0001C4810B5016B88471A483430016B884749
:1053000018486830016B884718489FED170A00F16C
:10531000800180ED0E0A80ED0F0A80ED0D0A81ED0F
:10532000020A0021817380ED140A80ED150A80EDD8
:10533000160A0F4880ED0B0A80ED0C0A80ED010A79
:1053400080ED020A80ED030A00F01EF800F012F86A
:10535000BDE81040B6EE001AF6EE000AB6EE000AFE
:10536000FCF7FABA20010020000000000000002035
:10537000FC60002003489FED020A80ED000A7047A0
:1053800000000000340300200A489FED090A0021B4
:1053900080ED070A80ED080A80ED090A8038C18394
:1053A00080ED170A80ED110A80ED130A70470000A6
:1053B0000000000080000020002101808160C160A9
:1053C0000174418241617047F0B506462DED048BB2
:1053D000B0EE618A18EE100A83B0F0EE418AB0EEAA
:1053E000409AB0F17C5F01DAB6EE008A224DB1EE50
:1053F000480A05F1340485ED048A85ED050A1F4F3E
:1054000084ED048A84ED050A97ED040A284630EEFF
:10541000C00A85ED010AE96A884795ED0A0A8DED13
:10542000010A4EB1216B204688479FED150A84ED95
:10543000010A8DED000A13E097ED050A0E4838EEDB
:10544000C00A343084ED010AE16A884794ED0A0A03
:1054500069468DED000AB0EE480A01A8FEF79EFBF2
:105460009DED001ADDED010AB0EE490AFBF756FC8E
:1054700003B0BDEC048BF0BD20010020FC600020D7
:10548000000000002DE9F04F00272DED088B89B0BA
:10549000FE4C2068B0F17E5F0CDAB6EE001AF6EE34
:1054A000000AB6EE000AFCF757FA09B0BDEC088B0B
:1054B000BDE8F08FDFF8D8B39BED089AB5EEC09A3F
:1054C000F1EE10FA01DC9FEDF39AF3480146027801
:1054D000897822B14378012B01D101B100E000238A
:1054E000DFEDEE0ADFEDEE1A0093E84B93ED070ACD
:1054F00030EE201A70EE600A30EE210ADFEDE98A04
:10550000DFF8A483002A08F5907908F5AA7A0CD070
:1055100090ED042A89ED022AD0ED051AC9ED031A8F
:105520008AED022ACAED031A0BE0DBED101AC9ED71
:10553000021A9BED112A89ED032ACAED021A8AED9F
:10554000032A94ED078A10D0D34809B1C0780EE041
:10555000B0EE688A4FF0010713E000BFB0EE410AD9
:105560000BE000BFB0EE600A07E098F80B000128DE
:10557000F4D00228F6D0032803D103F061FFB0EE87
:10558000408AB0EE480A04F01FF9B0EE40AAB0EE2F
:10559000480A03F07FFFF0EE40AA94ED080A04A940
:1055A0008DED030A94ED090A03A88DED040AFBF7BB
:1055B00021FBBD4E9DED030ABC36304686ED000A48
:1055C0009DED040A86ED010A3169884796ED020ACD
:1055D00006F11405284685ED000A96ED030A85EDCF
:1055E000010A85ED02AAC5ED03AAA969884795EDD0
:1055F000040AA94E84ED040A95ED050A84ED050A16
:10560000307808B3A848C8ED088A8030C8ED0D8A04
:10561000C0ED028AC8ED0F8A00984546384308D08D
:10562000FBF7D8FC85ED0E0AC6ED078AC6ED088AA1
:1056300003E0FBF727FD85ED0E0AFBF7A3FD86EDE2
:10564000090AB0EE408A7FE0B0EE688A86ED098AEA
:1056500086ED0A8A98F80E004546401CC0B288F8CC
:105660000E0002286AD395ED080A0020A873884826
:10567000403890ED010ABCEEC00A10EE100AC0B22C
:1056800002280ED0FCF7BAF98748F0EE409A803035
:10569000B0EE691A80ED028AF1EE690A95ED080A0A
:1056A00028E094ED100AD5ED0C0A30EEC0BAFCF7F4
:1056B000A5F97D48F0EE409A8030B0EECB0A80ED3F
:1056C00002BA10EE100AB0F17E5F02DAB0EE480ABC
:1056D0000CE06F48403890ED020AB5EEC00AF1EEDA
:1056E00010FA01D2B0EE480A20EE0B0AB0EE691AA9
:1056F000F1EE690AFBF71CFE6C48F0EE400AB0EED2
:10570000691AD0ED001A95ED0D0AFBF799FA85EDAF
:105710000D0AD4ED0D0AA846644D30EE600A284605
:1057200085ED010AE96A884795ED041AD5ED050A69
:1057300095ED0A0AFBF7FCFD88ED0F0A94ED000ACF
:10574000DFED5B0A20EE208A554689ED048AF1EEF2
:10575000489AC9ED059A8AED048ACAED059ADFF8E0
:105760004CA1D8ED0E0AAAF1B80A0AF150009AED40
:10577000040A30EEC00A89ED010AD9F82C108847D6
:1057800045480078A8B1296B0AF184008847C5ED27
:10579000018AC5ED0A8AC5ED068A4E4699ED0A0AC8
:1057A000B0EE481AF0EE690AFBF7C2FD86ED0A0A70
:1057B00013E09AED050AD8ED0F0A3C4830EEC00A16
:1057C000343885ED010AE96A88473849B0EE480A5D
:1057D0000C39A1F13400FEF7E1F999ED0A0A84EDE4
:1057E0000B0AD5ED0A0A314DC4ED0C0A9C3D284642
:1057F00085ED02AAC5ED03AA85EC020AA9698847CE
:1058000095ED040A05F11C06304686ED000A95ED7B
:10581000050A86ED010A71698847D6ED022AF7EE7E
:10582000000AC4ED012A96ED032A9FED22AA84ED19
:10583000022AD6ED041ADFED20AAC4ED031A94ED76
:10584000000A80EE801AB6EE000AF0EE400A42EE40
:10585000810AF0EE609AF0EE400A01EE810A42EE13
:10586000010AB0EE4A1AB0EE608AF0EE6A0AFBF75F
:105870005FFDF0EE408AB0EE4A1AF0EE6A0AB0EE32
:10588000480AFBF755FDB0EE408A17E0FC600020A7
:10589000DC04002000008049F8430020DB0FC93FF2
:1058A000DB0F4940000000000000002088010020BC
:1058B0006666E63E3333733FCDCC4C3DB0EE4A1ABC
:1058C000F0EE6A0AB0EE690AFBF732FDB0EE681A34
:1058D000F0EE480AFCF740F8002F3FF4E6ADFCF785
:1058E000A5F8F5EE000A114D20EE200ABCEEC00A24
:1058F00010EE100A81B2E888814202D9401CE8808B
:10590000D3E5B0EE490AFBF7E5FA00EE100AE862CB
:1059100084ED150AB8EEC00A01208BED120AA870BA
:105920000020E880FFF7E4FCBFE50000F84300201A
:1059300010B5794C2DED028B9AB0206894ED078A52
:10594000B0F17E5F0BDAB6EE001AF6EE000AB6EEA4
:10595000000AFCF701F81AB0BDEC028B10BD94ED03
:10596000091AD4ED080AB0EE480A03F005FB4421F9
:1059700009A8FAF7E1FD94ED040A68488DED090ADB
:1059800094ED050A8DED0A0A94ED0B0A8DED0B0AD4
:1059900094ED0C0A8DED0C0A94ED010A8DED0D0AC3
:1059A00094ED020A8DED0E0A94ED030A8DED0F0AB7
:1059B00094ED080A8DED100A94ED090A8DED110A97
:1059C00094ED0A0A8DED120A94ED000A8DED130A8A
:1059D0008DED148A94ED100A8DED150A94ED0D0AE3
:1059E0008DED160A90ED080AB5EEC00AF1EE10FA38
:1059F00001DC9FED4B0A8DED170A90ED000AB5EE24
:105A0000C00AF1EE10FA01DC9FED460A8DED180A8E
:105A100090ED050ADFED440A6A4609A920EE200A46
:105A200042488DED190AFEF757FDDFED410A414866
:105A3000C0ED0E0AC0ED0F0AC0ED080AC0ED090A5C
:105A4000C0ED0A0A9DF80010012922D002293CD09D
:105A5000032943D0C4ED0B0AC4ED0C0AC4ED010ABE
:105A6000C4ED020AC4ED030AB6EE001AF6EE000A0F
:105A7000B6EE000AFBF770FF2C480078042802D02D
:105A800005287FF468AF2B480521B43000F073F887
:105A900061E7DDED051AF5EEC01AF1EE10FA05D852
:105AA00094ED000ADFED240A60EE201ADDED010A14
:105AB000B0EE480AC0ED0E0A9DED021A80ED0F1AF5
:105AC0009DF82000FFF780FCD6E79DED041ADDED80
:105AD000030AB0EE480AFBF721F9CDE79DED060A6F
