:020000040800F2
:10000000607C0020710200085B2D00084F2800086A
:10001000592D0008ED070008954700080000000072
:10002000000000000000000000000000132E000887
:100030000D09000800000000112E00088D2E000898
:100040008B0200088B0200088B0200088B0200085C
:100050008B0200088B0200080F0900081D09000828
:10006000230900088B0200088B0200088B0200089D
:100070008B0200088B0200088B0200088B0200082C
:100080008B0200088B0200088B0200088B0200081C
:100090008B0200088B0200088B0200088B0200080C
:1000A0008B0200088B0200088B0200088B020008FC
:1000B0008B0200088B0200088B0200088B020008EC
:1000C0008B0200088B0200088B0200088B020008DC
:1000D0008B0200088B0200088B0200088B020008CC
:1000E000150900088B0200088B0200088B0200082B
:1000F0008B0200088B0200088B0200088B020008AC
:100100008B0200088B0200088B0200088B0200089B
:100110008B0200088B0200088B0200088B0200088B
:100120008B0200088B0200088B0200088B0200087B
:100130008B0200088B0200088B0200088B0200086B
:100140008B0200088B0200088B0200087D2D00083E
:100150008B0200088B0200088B0200088B0200084B
:100160008B0200088B0200088B0200088B0200083B
:100170008B0200088B0200088B02000800000000C0
:100180008B0200088B02000800F002F800F060F813
:100190000AA090E8000C82448344AAF10107DA45E2
:1001A00001D100F055F8AFF2090EBAE80F0013F0D4
:1001B000010F18BFFB1A43F00103184790490000D4
:1001C000B04900000A444FF0000C10F8013B13F056
:1001D000070408BF10F8014B1D1108BF10F8015BA0
:1001E000641E05D010F8016B641E01F8016BF9D193
:1001F00013F0080F1EBF10F8014BAD1C0C1B09D1EA
:100200006D1E58BF01F801CBFAD505E014F8016B5B
:1002100001F8016B6D1EF9D59142D6D370470000ED
:100220000023002400250026103A28BF78C1FBD8FF
:10023000520728BF30C148BF0B6070471FB504F09C
:1002400067FC9DE8030000F051F91FBD10B510BD1B
:1002500000F0B8F91146FFF7F1FF04F037FC00F0A9
:10026000D6F903B4FFF7F2FF03BC00F007FA000071
:100270000948804709480047FEE7FEE7FEE7FEE73A
:10028000FEE7FEE7FEE7FEE7FEE7FEE70448054976
:10029000054A064B704700003D2F00088901000801
:1002A000601C0020607C0020604C0020604C00201E
:1002B00070B5064600F0FEF8056806F10B0020F068
:1002C0000704B4429CBF002070BD2B466A68BAB1D7
:1002D0001068A04210D304F1080188423CBF506866
:1002E000586007D35168101941601168091B0160FB
:1002F00058601460101D70BD13465268002AE7D183
:100300002146284600F0DEF80028DED170BD70B529
:100310000446051F00F0CEF80068002C14BF4468A6
:1003200070BD002C18BFAC423CBF20466468F8D3B7
:1003300001680A18AA4218BF456003D12A68054619
:100340001144016028684119A1421CBF6C6070BD56
:100350006168696021680844286070BD53EA020C36
:1003600000F069802DE9F04B4FF00006002B1FBF15
:10037000B3FA83F503FA05F424FA05F65E4012BFDA
:100380001643B2FA82F502FA05F4C5F120051EBF44
:1003900022FA05FC44EA0C04203556EA044C4FEAE4
:1003A000144418BF641C4FF000084FF0000990423D
:1003B00071EB030C39D3002919BFB1FA81F701FAA7
:1003C00007F6B0FA80F700FA07F6C7F120071EBF5C
:1003D00020FA07FC46EA0C062037B6FBF4FCA7EB34
:1003E0000507103F07F01F0BCBF120060CFA0BFBA3
:1003F0002CFA06F644BFB3460026202FA4BF5E4663
:100400004FF0000B5BEA060C08BF4FF0010B19EB35
:100410000B09ABFB027C48EB0608C01B06FB02CCB9
:100420000BFB03CC71EB0C01C1E70B4602464146C6
:100430004846BDE8F08B13B54FF000004FF00001C7
:10044000AFF30080BDE81C40704710B5203AC0F003
:100450000B80B1E81850203AA0E81850B1E81850C5
:10046000A0E81850BFF4F5AF5FEA027C24BFB1E802
:100470001850A0E8185044BF18C918C0BDE8104073
:100480005FEA827C24BF51F8043B40F8043B08BF7C
:100490007047D20728BF31F8023B48BF11F8012B43
:1004A00028BF20F8023B48BF00F8012B7047704777
:1004B0007047704700487047081C0020704770471D
:1004C0007047704738B504460A4600206946AFF3C6
:1004D0000080002808BF38BD02460099204600F081
:1004E0004FF8012038BD012000F064B8F8B5AFF333
:1004F0000080054600200C46102000BF0646A819C3
:10050000A0420DD9324669460020AFF300800700B3
:1005100008BF00F04FF80098A04218BF0546C41964
:10052000FFF7C8FF05600746F01D20F007004619D9
:10053000284600F00AF8B44208BFF8BDA21B3146B5
:100540003868BDE8F84000F01BB800210160C0E940
:10055000011070471020704710B500F00DF80068CA
:1005600010BD10B5044600F007F8046010BD00008F
:1005700000487047001C002000487047001C002005
:10058000034640688C46002818BF88423CBF03469B
:100590004068F8D318681844884207D00CF103006B
:1005A00020F00700001D411A521A0146081D0A607A
:1005B000FFF7ADBE10B500F039F8BDE8104000F00F
:1005C0002FB870477546FFF7D3FFAE460500694662
:1005D000534620F00700854618B020B5FFF756FEB9
:1005E000BDE820404FF000064FF000074FF0000834
:1005F0004FF0000B21F00701AC46ACE8C009ACE8B5
:10060000C009ACE8C009ACE8C0098D46704710B518
:100610000446AFF300802046BDE81040FFF721BE3E
:10062000002801D000F02AB87047000010B501285A
:1006300005D0002103A000F027F8012010BD09A17A
:10064000F8E7000053494752544D454D3A204F7545
:1006500074206F662068656170206D656D6F7279BA
:10066000000000003A2048656170206D656D6F7272
:100670007920636F72727570746564000149182087
:10068000ABBEFEE72600020070B505460C460A2008
:1006900000E06D1C00F011F835B128780028F8D181
:1006A00002E0641C00F009F814B120780028F8D1A9
:1006B000BDE870400A20AFF3008008B569468DF8A8
:1006C00000000320ABBE08BD454910B54A6822F4BE
:1006D00040324A604A6843681A434A6001684A687F
:1006E00022F480724A6001684A68036942EA032280
:1006F0004A6001684A6822F040724A6001684A68AC
:1007000083681A434A6001688A6822F400628A603A
:1007100001688A68C3681A438A60816A6FF07062F0
:10072000D14201688A6822F070628A6001688A6832
:100730000CD0836A1A438A6001688A6822F04052AA
:100740008A6001688A68C36A1A4301E022F0405255
:100750008A6001688A6822F002028A6001688A68F9
:10076000836942EA43028A60016A002901684A6893
:100770000FD042F400624A6001684A6822F4604285
:100780004A6001684A68174C436A04EB43331A43D2
:1007900001E022F400624A600168CA6A22F4700231
:1007A000CA620168CA6A838B0F4C04EB03531A4375
:1007B000CA6201688A6822F400728A6001688A68E5
:1007C000036B42EA43228A6001688A6822F48062ED
:1007D0008A6001688A68406942EA8020886010BDAA
:1007E0000023014000E0FFFF0000F0FFFEE70020D3
:1007F000704700207047000010B5002204490548EA
:1008000002F02CFE0449034802F022FE002010BD35
:1008100000140020EC030020000C002010B501465D
:10082000034802F015FE024802F0F6FD002010BD5C
:10083000EC03002010B510EE100A2DED068B2B49AD
:100840009FED291A884202DCDFED298A08E010EECC
:10085000900A2849F0EE608A884201DDDFED268AA1
:10086000DFED260A264C274960EE201A94ED000A97
:1008700001EE810A10EE100A84ED000A884203DDC1
:1008800030EE600A84ED000A03F09AFFB6EE008AAB
:100890009FED1DAA68EE889AB0EE489A09EE809AFC
:1008A00094ED000A30EE4A0A03F08AFFF0EE488A1F
:1008B00049EE808A94ED000A30EE0A0A03F080FFC8
:1008C00009EE808AF0EE680AB0EE490AB0EE481AE6
:1008D00000F096F8B0EE490AF0EE680AB0EE481A59
:1008E000BDEC068B10BD00006F128338CDCCCC3D23
:1008F000000000006666663F6666663FDB0FC94023
:1009000088010020DB0FC940920A06407047012091
:1009100000F088BC4FF4005000F084BC022000F0CE
:1009200081BC042000F07EBC70B5B3F5804F05D0CB
:100930006FF0704140F82210002070BD50F8224046
:10094000084B8E891C40D1E9003543EA05138D68B8
:1009500089692D0245EA06452B430B43234340F8A2
:100960002230E9E70000F0CFF0B50C6850F82430F1
:10097000114A1340D1E90125D1E903672A433E43D7
:1009800032434E6932438E693243CE6932430E6A36
:1009900032434E6A32438E6A3243CE6A3243CE6B62
:1009A000096B32430A431A43082D01D142F0400239
:1009B00040F824200020F0BD8000F0FF30B500EBAF
:1009C000820250688D8900F04043D1E9000440EA7A
:1009D00004108C68240244EA054420430C8A074D25
:1009E00005EB045420430C7D6D0105EB046489691B
:1009F0002043084318435060002030BD0000F0FF42
:100A000010EE101A1648DFED171A814201DDB0EE24
:100A1000610A10EE901A814201DDF0EE610A11EEDA
:100A2000101A814201DDB0EE611ADFED0F1A0F4896
:100A300020EE210A0168BCEEC00A10EE102ACA633B
:100A400020EEA10ABCEEC00A10EE102A8A6321EE45
:100A5000210A0068BCEEC00A10EE101A416370470C
:100A60006666663F6666663F0010244610020020F8
:100A7000F0B54FF0C8439A89A0F85820DA89A0F859
:100A80005A201A8AA0F85C205A8AA0F85E209A8A16
:100A9000A0F86020DA8AA0F862201A8BA0F86420FF
:100AA00091ED070A01250022BCEEC00A10EE104AA3
:100AB000042C7AD006DC012C09D0022C47D0032C60
:100AC00074D1B4E00B2C72D00C2CF9D13FE0B0F80B
:100AD0005A4090F85C6044EA06448464C66F8667B6
:100AE00090F874604EB191ED130A056DB5EEC00A31
:100AF000F1EE10FA06D1651B05E080F8745015463A
:100B0000C26701E02D1BC56791ED080ABDEEC00A62
:100B100010EE101AB5EB610F10EE101A01DD691A14
:100B200006E0491049428D4203DA10EE101A2944BA
:100B3000C167046590ED1F0AD0ED100AB8EEC00A37
:100B400030EE800A80ED100A80F87320B4E0B0F82F
:100B50005A4090F85C6044EA06448464B0F85E60F1
:100B6000A0F87060C76F876790F874704FB191ED0F
:100B7000130A056DB5EEC00AF1EE10FA06D1651B39
:100B800005E080F874501546C26701E02D1BC5676B
:100B900091ED080ABDEEC00A10EE107AB5EB670FB2
:100BA00010EE107A04DDED1B09E050E1F8E088E07A
:100BB0007F107F42BD4203DA10EE107A3D44C567D4
:100BC000046591ED060ABDEEC00A10EE105A45B15B
:100BD00090ED1F0AD0ED100AB8EEC00A30EE800A80
:100BE00020E091ED130AB5EEC00AF1EE10FA00EE26
:100BF000104A0CD1F8EEC00A00EE106A91ED081A06
:100C0000B8EE400A40EE010AC0ED100A0CE0744252
:100C100000EE904AB8EEC00A91ED081AF8EEE00A2C
:100C200010EE810A80ED100AB0F86010B2E0B0F862
:100C30005840C4F3032480F87340B0F85E40B0F825
:100C40005C602405240B44EA16248464C66F86671E
:100C500090F874604EB191ED130A056DB5EEC00ABF
:100C6000F1EE10FA06D1651B05E080F874501546C8
:100C7000C26701E02D1BC56791ED080ABDEEC00AF1
:100C800010EE101AB5EB610F10EE101A01DD691AA3
:100C900006E0491049428D4203DA10EE101A294449
:100CA000C167046590ED1F0AD0ED100AB8EEC00AC6
:100CB00030EE800A80ED100AA0F8702080F87220D3
:100CC0006EE0B0F85C60B0F85A4006F0010744EA04
:100CD0000744846490F85E703F0247EA1626A0F845
:100CE0007060C76F876790F874704FB191ED130A09
:100CF000056DB5EEC00AF1EE10FA06D1651B05E0F0
:100D000080F874501546C26701E02D1BC56791ED50
:100D1000080ABDEEC00A10EE107AB5EB670F10EEB0
:100D2000107A01DDED1B06E07F107F42BD4203DA41
:100D300010EE107A3D44C567046591ED060AB5EEE4
:100D4000C00AF1EE10FA79D191ED130AB5EEC00A9E
:100D5000F1EE10FA00EE104A0CD1F8EEC00A00EEE7
:100D6000106A91ED081AB8EE400A40EE010AC0ED93
:100D7000100A0DE0744200EE904AB8EEC00A91ED00
:100D8000081AF8EEE00A10EE810A00BF80ED100AA2
:100D9000B0F858105FEA112180F8721080F87320C3
:100DA0005988684A11609988674A11601989A1F5C4
:100DB000FE41FF3900EE101AF8EEC00A9FED630AFB
:100DC00060EE800A9FED621A60EE810AC0ED000AB3
:100DD0005988B0F86820891A00EE901AF8EEE00AF7
:100DE00060EE800A9FED5B1A60EE810AC0ED080A92
:100DF0009988B0F86A20F1EE600A891A01EE901A1B
:100E0000F8EEE11A61EE801A21EE811A80ED091ADE
:100E100070EEC10AC0ED0A0AD988A1F5FE41FF397A
:100E200000EE901AF8EEE00A20EE800ADFED4A0AA2
:100E300020EE200A80ED060AF0BDFFE700EE105A12
:100E4000D0ED100AB8EEC00A30EE800A9EE7B0F886
:100E50005C60B0F85A4006F07F0744EA07448464B7
:100E6000B0F85E704FEA076C4FEA1C4C4CEA16264D
:100E7000A0F87060D0F87CC0C0F878C090F874C05A
:100E8000BCF1000F09D091ED130A056DB5EEC00A53
:100E9000F1EE10FA06D1651B05E080F87450154696
:100EA000C26701E02D1BC56791ED080ABDEEC00ABF
:100EB00010EE10CAB5EB6C0F10EE10CA02DDA5EBF8
:100EC0000C0508E04FEA6C0CCCF1000C654503DA28
:100ED00010EE10CA6544C567046591ED060ABDEEC3
:100EE000C00A10EE105A45B190ED1F0AD0ED100A5D
:100EF000B8EEC00A30EE800A20E091ED130AB5EE9C
:100F0000C00AF1EE10FA00EE104A0CD1F8EEC00A59
:100F100000EE106A91ED081AB8EE400A40EE010AA0
:100F2000C0ED100A0CE0744200EE904AB8EEC00A20
:100F300091ED081AF8EEE00A10EE810A80ED100A31
:100F4000390A29E70C00002010000020000080373B
:100F50001FFDAA44D7A3AAC10000C84378B5002446
:100F6000009490F83C20012A19D0012280F83C20FE
:100F70000A6807230568092A13D9EE680A3A02EBC2
:100F8000420293409E43EE600B788A680A3B03EB73
:100F900043039A400368DD682A43DA6010E00220C8
:100FA00078BD2E6902EB420293409E432E610B787E
:100FB0008A6803EB43039A4003681D692A431A6158
:100FC0004A681F23072A13D205686E6B521E02EB74
:100FD000820293409E436E630B790A885B1E92B235
:100FE00003EB83039A4003685D6B2A435A6327E04F
:100FF00005680D2A12D22E6BD21F02EB820293409B
:101000009E432E630B790A88DB1F92B203EB8303A6
:101010009A4003681D6B2A431A6311E0EE6A0D3A89
:1010200002EB820293409E43EE620B790A880D3BED
:1010300092B203EB83039A400368DD6A2A43DA62C3
:10104000164B0568144A9D4206D10D68122D03D136
:10105000556845F48005556005689D4218D10B68B8
:10106000102B01D0112B13D1536843F400035360AC
:10107000096810290CD10A490A4A0968B1FBF2F142
:1010800001EB8101490000E0491E00910029FBD1DC
:1010900080F83C40002078BD002301400020014042
:1010A0006C00002040420F0070B504004FF00005B6
:1010B00003D0206C002610B107E0012070BD6664EB
:1010C00084F83C60204600F019F8206CC00610D46B
:1010D000206C20F4885040F0020020642046FFF786
:1010E000F3FA6664206C20F0020040F001002064F6
:1010F00000E0012584F83C60284670BD08B5006812
:101100000649884208D10648016841F480710160AF
:10111000006800F48070009008BD000000200140CD
:101120004438024070B5044600F066F90546601C7C
:1011300002D004480078044400F05EF9401BA0424D
:10114000FAD370BD60000020F0B5204887B0016878
:10115000002938D1012101601D480024016841F0B7
:10116000010101600068022500F0010005901F20C8
:10117000CDE9000502AA03260C2782E8D0006946C3
:10118000144800F05BF84FF68070CDE9000502AA24
:10119000694682E8D000104800F050F84CF2B37075
:1011A000CDE9000502AA694682E8D0000B4800F0AC
:1011B00045F82802CDE9000502AA694682E8D00078
:1011C000074800F03BF807B0F0BD000058000020D1
:1011D000383802400014024000100240000C024067
:1011E000001802400D4810B5B7EE000A80ED070A5E
:1011F00001468030FFF73CFC094C2078012803D0E1
:10120000BDE8104001F006BE01F022FED4ED020A56
:1012100094ED010ABDE81040FFF70CBBEC02002082
:1012200000000020044910B50A68024202D008609C
:10123000FFF7D8FF10BD0000143C01402DE9F84F26
:10124000DFF87CB100224FF001084FF0030A4FF0A5
:101250000F090BF1040E00BF0B6808FA02F42340DB
:10126000A3426ED14D68022D01D0122D0ED1D508AA
:1012700000EB850CDCF820505607F70E09FA07F64C
:10128000B5430E69BE402E43CCF820600668550079
:101290000F790AFA05FC07F0030726EA0C06AF40AF
:1012A000374307604E68012E05D0022E03D0112E61
:1012B00001D0122E0ED18668CF6826EA0C06AF4008
:1012C000374387604668A6430C79C4F30014944002
:1012D00034434460C6688C6826EA0C06AC4034434C
:1012E000C4604C68E40065D5364C256845F48045FB
:1012F0002560246822F0030504F480440094324CF5
:101300002E19D6F8084895072F0F09FA07F5AC43B0
:101310002E4DA84201D1002524E02D4DA84201D137
:1013200001251FE02B4DA84201D102251AE02A4DCC
:10133000A84201D1032515E0284DA84202D1042579
:1013400010E037E0264DA84201D105250AE0254DE1
:10135000A84201D1062505E0234DA84201D1072569
:1013600000E00825BD402543C6F80858DBF80040DA
:101370005D464E689C43F60300D51C432C60DEF8A6
:10138000004075464E689C43B60300D51C432C6054
:101390000B4D08352C684E689C43F60200D51C4363
:1013A0002C60074D0C352C684E689C43B60200D566
:1013B0001C432C60521C102AFFF44EAFBDE8F88F7E
:1013C000003C01404438024000300140000002402F
:1013D0000004024000080240000C024000100240DD
:1013E0000014024000180240001C02400AB1816152
:1013F00070470904FBE7000001488068704700005F
:1014000060000020024881680278114481607047C2
:10141000600000200B4810B5016841F400710160C4
:10142000016841F480610160016841F480710160EC
:10143000032000F097F8002000F006F800F024F8F0
:10144000002010BD003C024070B50D4D04464FF425
:101450007A712878B1FBF0F00A490968B1FBF0F025
:1014600000F0D0FF48B9102C07D200222146501EB0
:1014700000F058F800206C6070BD012070BD0000C5
:10148000600000206C0000201F4808B5016841F48E
:1014900080410160006800F4804000901A48001FFD
:1014A000016841F080510160006800F080500090B8
:1014B000032000F057F8002211466FF00B0000F0F7
:1014C00031F8002211466FF00A0000F02BF80022DC
:1014D00011466FF0090000F025F800221146501F58
:1014E00000F020F800221146101F00F01BF8002227
:1014F0001146901E00F016F80022BDE80840114683
:10150000501E00F00FB800004438024000F01F02E7
:10151000012191404009800000F1E020C0F8001155
:1015200070470000F0B40E4B1B680C46C3F3022357
:10153000C3F10705042D00D90425191D072901D27F
:10154000002300E0DB1E012606FA05F1491E2140BA
:1015500099409E40761E16403143F0BC01F0FEBB20
:101560000CED00E0064900F0070208684FF6FF03A3
:10157000184040EA0220034A104308607047000008
:101580000CED00E00000FA050068416200207047A1
:10159000F0B500680023446A31B1856A4FF4827661
:1015A00004EB15444D1E0AE044EA024181620FE05B
:1015B00006EB8307C7595B1C04EB1744DBB2AB4255
:1015C000F6DB4FF4807303EB810144EA02424250A0
:1015D0000020F0BDD0F8EC0302F08AB9C1EBC102E3
:1015E00000EB8202D0F8EC03526C02F0F7B8C1EBCA
:1015F000C10200EB8202D0F8EC03D2F8042202F020
:1016000042B9D0F8EC0302F075B910B504460A46A9
:101610000B0601F07F00C0EBC00104EB810101D596
:10162000383101E001F5FC710870D009487094F878
:10163000B803012809D0012084F8B803206802F01B
:101640009BFC002084F8B80310BD022010BD70B5CB
:101650000A460446090602F07F0005D5C0EBC0012A
:1016600004EB8101383105E0C2EBC20104EB8101DA
:1016700001F5FC7100258D700870D009487094F850
:10168000B803012809D0012084F8B803206802F0CB
:1016900054FE84F8B853002070BD022070BD01F0E4
:1016A0000F01C1EBC10100EB8100B0F8100280B264
:1016B000704770B504460D460E0601F07F00C0EB82
:1016C000C00104EB810101D5383101E001F5FC7165
:1016D000ED0908704D708A60CB7000D0C88000257D
:1016E000022B00D10D7194F8B803012809D0012014
:1016F00084F8B803206802F093FB284684F8B853B6
:1017000070BD022070BD70B50C4601F07F05C5EBC1
:10171000C50100EB8101C1F80C32C1F8042200239D
:10172000C1F8103281F8F93181F8F851036901F5F7
:10173000FC71012B00D10A616206027C006803D0B3
:1017400002F05CFE002070BD02F038FDFAE770B5D3
:101750000D460446090605F07F0005D5C0EBC00123
:1017600004EB8101383105E0C5EBC50104EB8101D3
:1017700001F5FC7101228A700870E809487094F83C
:10178000B803012807D084F8B823206802F007FEC8
:10179000680602D007E0022070BD217C04F56F725C
:1017A000206802F0ABFD002084F8B80370BD70B56E
:1017B0000C4601F07F05C5EBC50100EB8101CB6450
:1017C0004A6400230B65012381F8393001F8385F42
:1017D0000369012B00D10A616206027C006803D014
:1017E00002F00CFE002070BD02F0E8FCFAE70000F9
:1017F0002DE9F84F044600680026054602F052FF26
:10180000002875D1206802F076FF002870D020688B
:1018100002F071FF800704D52068416901F00201E0
:101820004161206802F067FF010304F56F704FF01B
:10183000010B4FF0000A00904DD5206802F03DFFEB
:10184000074646E0F80742D0F1B2206802F04BFFAD
:101850008046C00728D005EB4612C2F808BB2069B5
:10186000012811D1C6EBC60004EB8001D2F8102B81
:10187000D1F80002C2F31202821AC1F81022D1F884
:1018800004221044C1F80402F1B22046FFF7AFFE73
:101890002069012808D13EB9D4F80C0220B920688B
:1018A0000121009A02F02AFD5FEA087007D5204660
:1018B00000F0DCFA05EB46110820C1F8080B5FEADE
:1018C000C86004D505EB46111020C1F8080B7F084D
:1018D000761C002FB6D1206802F00DFF40034FF0B8
:1018E00040095ED5206802F0E1FE0746002656E07A
:1018F000D2E1F80751D0F1B2206802F0E5FE80464F
:10190000C00724D0D5F834280BFA06F08243C5F876
:10191000342805EB4610C0F808B92069012807D122
:10192000C6EBC60004EB8000D0E9101211444164FC
:10193000F1B22046FFF752FE2069012807D136B9DF
:10194000E06C20B920680121009A02F0D7FC5FEA20
:10195000087004D505EB46110820C1F808095FEAB4
:10196000C86004D505EB46111020C1F808095FEAEC
:10197000486003D505EB4611C1F808995FEA887005
:1019800004D505EB46110220C1F808095FEA08609A
:1019900003D53146204601F0F7F97F08761C002F69
:1019A000A7D1206802F0A7FE00280DDAD5F80408B8
:1019B00020F00100C5F80408204600F03DFA216837
:1019C000486900F000404861206802F094FE00057C
:1019D0000BD5D5F80808C00702D0204600F062FAFF
:1019E0002068416901F400614161206802F083FED2
:1019F000C0044CD5D5F8040820F00100C5F804084F
:101A00001021206802F01EFE0020FF2107E000BF29
:101A100005EB4012C2F80819C2F8081B401C6268A6
:101A20008242F5D84FF0FF30C5F81808D5F81C08E9
:101A300040F00110C5F81C08206B60B1D5F884088F
:101A400040F00B00C5F88408D5F8440840F00B00BE
:101A5000C5F844080BE0D5F8140840F00B00C5F8B1
:101A60001408D5F8100840F00B00C5F81008D5F898
:101A7000000820F4FE60C5F80008217C2068009A68
:101A800002F03CFC2168486900F4805048612068FD
:101A900002F031FE80047DD5206802F001FA206852
:101AA000C16821F47051C160206802F0DDFD78B199
:101AB0000320C4F81490E06000F0A4FA7749784A53
:101AC000014491420AD22068C16841F4705158E043
:101AD0004FF40070C4F80CA0606136E07149724A9E
:101AE0000144914204D22068C16841F4605148E049
:101AF0006E496F4A0144914204D22068C16841F4A2
:101B000050513EE06B496C4A0144914204D2206836
:101B1000C16841F4405134E06849694A0144914246
:101B200004D22068C16841F430512AE06549664A10
:101B30000144914204D22068C16841F4205120E060
:101B40006249421862498A4204D22068C16841F45D
:101B5000105116E05F49604A0144914204D2206866
:101B6000C16841F400510CE05C4908445C4988427A
:101B70002068C16803D241F4E05102E00AE041F478
:101B8000C051C160204600F047F92068416901F466
:101B900000514161206802F0AEFDC00636D52168D3
:101BA000886920F010008861D5F8208008F00F00C7
:101BB000C0EBC00004EB8007C8F3434007F5FC7797
:101BC000022802D0062812D01BE047F6F07018EA6F
:101BD000000F16D0C8F30A1290462846F96802F0A2
:101BE0008EFDF8684044F860B869404408E0082277
:101BF0002846009902F083FDB969C8F30A10084429
:101C0000B8612068816941F010018161206802F0AB
:101C100072FD000707D5204600F012F920684169DF
:101C200001F008014161206802F065FDC00208D59D
:101C3000F1B2204600F056F82068416901F48011A5
:101C40004161206802F057FD800208D5F1B22046BC
:101C500000F04CF82068416901F4001141612068EE
:101C600002F049FD400007D52046FFF7B3FC20688D
:101C7000416901F080414161206802F03CFD40076C
:101C80000AD520684568680702D52046FFF7B9FCE9
:101C90002068416829434160BDE8F88F405327FF21
:101CA00000350C00401E1BFF40420F0000DC0BFF04
:101CB000804F1200808CF9FE20D6130060B6E5FE3E
:101CC00060E3160000D3CEFE40771B00C05BB3FE7E
:101CD000C091210000CA91FE20753800E05459FEE1
:101CE000E09C4100D0F8EC0301F062BED0F8EC03B8
:101CF00001F060BEF0B58BB004004FF0000556D087
:101D0000032084F8B903204600F054F8206802F05C
:101D10004FFA04F1100128220F466846FEF795FBA2
:101D200094E80F0002F0D6F80021206802F0F7FCDA
:101D300001260020C5EBC50104EB810181F8396063
:101D400001F8385FCD80C8708860C8606D1C48613C
:101D50000F2DEFD300214FF4827300BFC1EBC102FE
:101D600004EB820203EB810582F8F90182F8F81195
:101D7000D18782F8FB01C2F80002C2F80402C2F85F
:101D80000C0222685051491C0F29E7D328223946FA
:101D90006846FEF75AFB94E80F0002F069F984F8F0
:101DA000B963206802F058F900200BB0F0BD0120A3
:101DB000FBE7000000B5006887B0B0F1A04F25D167
:101DC0004FF4C050009002200190002002900320A8
:101DD00003900A20049069460D48FFF72FFA0D483A
:101DE000016841F0800101600A481030016841F447
:101DF000804101600068002200F480400590114697
:101E00004320FFF78FFB4320FFF780FB07B000BDA7
:101E1000000002403438024010B50446C068012179
:101E200000B90021D4F8EC0301F01AFED4F8EC0359
:101E3000BDE8104001F0E3BDD0F8EC0301F0FEBDB9
:101E4000D0F8EC0301F000BE10B5044690F8B803DA
:101E5000012809D0012084F8B803206802F075FC3D
:101E6000002084F8B80310BD022010BDD0F8EC2388
:101E700000F56F71104601F006BE10B5044690F8EB
:101E8000B80301280CD0012084F8B803206802F0C0
:101E9000D7F8206802F0C0FB002084F8B80310BD1A
:101EA000022010BD10B50446D0F8EC0301F038FE56
:101EB0002068D0F8001E41F00101C0F8001E206A21
:101EC000002804D00248016841F00601016010BDFD
:101ED00010ED00E02DE9F0470E46050065D0DFF873
:101EE0001481D8F80000F7B200F00F00B04207D21A
:101EF00088F80070D8F8000000F00F00B04254D10C
:101F000028683D4C810712D5400703D5206840F46E
:101F1000E05020602878000703D5206840F4604036
:101F200020602068A96820F0F0000843206028782D
:101F3000C0072DD0304968680839012812D002281E
:101F400013D0032811D00968890700292DDA2168E8
:101F500021F0030101432160FFF74EFA814641F26F
:101F6000883A0EE009688903EFE709688901ECE720
:101F7000FFF742FAA0EB0901514502D90320BDE861
:101F8000F0872068696800F00C00B0EB810FEFD19A
:101F9000D8F80010404601F00F01B14207D9077090
:101FA000006800F00F00B04201D00120E7E7287878
:101FB000400705D52068E96820F4E0500843206018
:101FC0002878000706D52068296920F4604040EA97
:101FD000C100206000F01CF82168084AC1F3031119
:101FE000515CC840064908600020FFF72DFA002028
:101FF000C5E70000003C0240083802401A4B0008C8
:102000006C00002001480068704700006C00002050
:10201000154810B5006810F00C02144813D014498C
:10202000042A0FD0082A0ED10F4C241F22682368DF
:1020300002F03F025B0207D52068C0F38810A0FBC6
:10204000010106E0084610BD2168C1F38811A1FB1B
:1020500000010023FEF782F92168C1F30141491C08
:102060004900B0FBF1F010BD083802400024F40034
:1020700040787D012DE9F84F050076D02878DFF80B
:10208000F8B2BE4CC00749D0DBF800105846C1F387
:102090008101012908D00068C0F3810002280AD11B
:1020A000201D0068400206D52068800336D5686888
:1020B0000028E2D032E06868B0F5803F10D0B0F57B
:1020C000A02F206810D020F480302060206820F4F9
:1020D000802020606868A0B1FFF78EF906460CE00A
:1020E000206840F48030F4E740F480202060F7E777
:1020F000FFF782F9801B642873D820688003F7D526
:102100000CE0FFF779F9064605E000BFFFF774F928
:10211000801B6428F0D820688003F7D42878DFF883
:10212000608280074FF000093ED5DBF8001058466A
:1021300011F00C0F09D00068C0F3810002280BD108
:102140008D48001F0068400206D42068800715D51E
:10215000E868012809D111E0E868B8B10120C8F8A1
:102160000000FFF749F9064605E002E1FFF744F9F0
:10217000801B0228C0D820688007F7D5206829690D
:1021800020F0F80040EAC10020600DE0C8F800909F
:10219000FFF732F9064604E0FFF72EF9801B02280C
:1021A0001FD820688007F7D42878000722D5724E00
:1021B000744869696C3671B101210160FFF71CF93F
:1021C000074604E0FFF718F9C01B022809D8306859
:1021D0008007F7D50EE0C0F80090FFF70DF907462D
:1021E00005E083E0FFF708F9C01B02287ED83068BD
:1021F0008007F7D42878400768D5DFF87CA100274E
:102200000AF1380ADAF80000C0000BD4DAF800103E
:1022100041F08051CAF80010DAF80000012700F000
:1022200080500090584E3068C00510D4306840F49B
:1022300080703060FFF7E0F8009005E0FFF7DCF811
:102240000099401A022851D83068C005F6D54A4E88
:10225000A868683601280FD00528306810D020F013
:1022600001003060306820F004003060A868B8B128
:10227000FFF7C2F800900FE0306840F00100F4E78B
:1022800040F004003060F7E7FFF7B6F80099411A14
:1022900041F28830814264D830688007F4D50EE07E
:1022A000FFF7AAF8009007E0FFF7A6F80099411A97
:1022B00041F28830814254D830688007F4D42FB17D
:1022C000DAF8001021F08051CAF80010A869C0B3F4
:1022D000DBF80010C1F3810102294AD002284846E8
:1022E00007D0C8F86000FFF787F800E039E005463E
:1022F0003AE04746C8F86000FFF77EF8064604E07B
:10230000FFF77AF8801B02282BD820688001F7D4C9
:10231000D5E907010843A96A1C4A490802EB0141B3
:102320006A6A41EA8211084395F82C1040EA01617B
:102330001148001F016001203866FFF75DF805466F
:1023400005E014E0FFF758F8401B022809D8206880
:102350008001F7D50BE000BFFFF74EF8401B0228C5
:1023600002D90320BDE8F88F20688001F4D4002052
:10237000F8E70120F6E70000083802400038024084
:1023800000004742800E4742007000400000FFFFFF
:1023900070B515460E46040003D094F8490010B1FC
:1023A00007E0012070BD002084F84800204600F0BE
:1023B0001AF804F108012068FEF7D6FA3146A2683F
:1023C0002068FEF7FBFAD4E901022946236BFEF7E9
:1023D000ABFAA168206850F8212042F0010240F8D1
:1023E0002120002070BDFEF7AFBE4FF0E021042891
:1023F000086903D020F004000861704740F0040031
:10240000FAE7704710B5401EB0F1807F01D301207C
:1024100010BD4FF0E02460610F21601700F09EFCBA
:102420000020A06107202061002010BD10B5FFF73B
:10243000E8FF10BD10B590F83820012A25D0012200
:1024400080F83820CA688C6822F4407222434C68B5
:1024500022F4806222430C6822F4006222430C6959
:1024600022F4805222434C6922F4005222438C69A8
:1024700022F48042224322F40041026800232143D7
:10248000516480F83830002010BD022010BD30B5F6
:1024900090F83820012A20D0012280F83820022329
:1024A00080F8393003685C6824F070045C6003686D
:1024B0005C680D682C435C6003689C6824F08004B1
:1024C0009C6003689C6849680C439C6080F83920D4
:1024D000002180F83810084630BD022030BD10B50C
:1024E00004460068042200F0BEFD2068416C41F4FF
:1024F000004141642068016841F001010160002051
:1025000010BD10B504460068002200F0ACFD206844
:10251000036A41F211110B4240F2444206D1036AB0
:10252000134203D1436C23F4004343642068036ADD
:102530000B4206D1016A114203D1016821F0010169
:102540000160002010BD10B5040003D094F83900DC
:1025500010B107E0012010BD002084F838002046AB
:1025600000F00CF8022084F83900211D206800F0EA
:102570000FFD012084F83900002010BD00B500686F
:102580000D4987B0884215D10C480021026842F0FD
:1025900002020260006800F0020005900120009035
:1025A0000220CDE901010320CDE90310694604486A
:1025B000FEF744FE07B000BD00040140443802406D
:1025C00000000240F0B500681A49002402251A4FA5
:1025D00085B0884209D140140090CDE90154012012
:1025E000CDE90340694638461FE0144988421ED1B0
:1025F00080200090CDE901540326CDE903466946C9
:102600000F48FEF71BFE0096CDE90154CDE90346C5
:1026100069463846FEF712FE4FF470700090CDE91F
:102620000154CDE9034669460648FEF707FE05B0AA
:10263000F0BD000000000140000402400004014021
:10264000000002400008024070B5044690F83800CF
:102650000D4601280DD0012684F83860022084F848
:10266000390042B1042A18D0082A2AD00C2A4DD1A8
:1026700039E0022070BD206800F00AFD2068816901
:1026800041F0080181612068816921F004018161C4
:10269000206881692A69114311E0206800F024FD57
:1026A0002068816941F4006181612068816921F4B9
:1026B00080618161206881692A6941EA0221816122
:1026C00024E0206800F042FD2068C16941F0080163
:1026D000C1612068C16921F00401C1612068C1693C
:1026E0002A69114311E0206800F060FD2068C1698B
:1026F00041F40061C1612068C16921F48061C16158
:102700002068C1692A6941EA0221C16184F83960FF
:10271000002084F8380070BD10B5040003D094F890
:10272000390010B107E0012010BD002084F8380006
:10273000204600F00DF8022084F83900211D2068A1
:1027400000F026FC012084F83900002010BD0000B4
:1027500008B500680649884208D10648016841F07A
:1027600001010160006800F00100009008BD000058
:10277000000001404438024010B5044600680122C0
:1027800000F066FC08492068884202D00749884268
:1027900003D1416C41F4004141642068016841F07B
:1027A00001010160002010BD000001400004014053
:1027B00010B504460068002200F04AFC114841F2BE
:1027C000111221689310814202D00F48814209D131
:1027D000086A104206D1086A184203D1486C20F4F6
:1027E000004048642068016A114206D1016A19421A
:1027F00003D1016821F001010160012084F8390052
:10280000002010BD000001400004014070B50446E6
:1028100090F83800012818D0012584F8385002209B
:1028200084F83900204600F0E9FC2068C16821F0F6
:102830004001C1602068C16821F48041C16084F812
:102840003950002084F8380070BD022070BDFEE7CA
:102850004FF4801140F8441F002180F829104FF4F4
:102860007A524284042280F82A2047F6FF7282843A
:10287000C284026981638260416380F83010C16064
:10288000416070477FB512481049002401604FF441
:102890008031C0E90114046184610E490462C0E919
:1028A0000A140125C460C56145610463FEF7FCFBA1
:1028B00000B1FEE71020CDE9000569460294044806
:1028C000FEF74CFB002800D0FEE77FBD0020014052
:1028D0008C0100200100000F2DE9F04F2B4887B03C
:1028E0004FF02046DFF8A88000240660C0E901848C
:1028F0001025C460C0E904458461C4614FF4805A66
:102900000462C0E9094AC4620463446384634464A2
:1029100001270F20CDE9007046204FF00609CDE9D0
:1029200002094FF0110B0495CDE905B40022694668
:102930001648FFF72DFD00B1FEE714480221503084
:102940000022C0E90214C0E904458461C461046244
:10295000C0E9094AC4620463446384634464C0E90F
:1029600000680F20CDE90070CDF80890CDE905B4DE
:102970000648CDE9037569465030FFF709FD002888
:1029800000D0FEE707B0BDE8F08F00004C02002049
:10299000040100A02DE9F04F814887B000240168B0
:1029A00041F010010160016801F01001059101681A
:1029B00041F020010160016801F0200105910168EA
:1029C00041F080010160016801F08001059101681A
:1029D00041F004010160016801F004010591016802
:1029E00041F001010160016801F0010105910168F8
:1029F00041F002010160016801F0020105910168E6
:102A000041F040010160016801F040010591016859
:102A100041F0080101600068DFF8889100F00800CB
:102A20000590012204214846FEF7E0FCDFF878A17A
:102A30004FF48047002239465046FEF7D7FCDFF8B6
:102A40006CB1002240F605015846FEF7CFFC00228B
:102A500044215748FEF7CAFC4FF400580122414672
:102A60005846FEF7C3FC01224FF4C0715148FEF7EF
:102A7000BDFC002279114F48FEF7B8FC002203216B
:102A80004846FEF7B3FC072601250096CDE9015420
:102A9000694648460394FEF7D1FB47480096CDE9C6
:102AA000010469464548FEF7C9FB4FF4CE60CDE905
:102AB0000004694642480294FEF7C0FBE802CDE9F3
:102AC0000004694650460294FEF7B8FB3D48CDF835
:102AD0000080CDE9010469465046FEF7AFFB009740
:102AE000CDE90154694650460394FEF7A7FB42F630
:102AF00005000090CDE90154694658460394FEF75D
:102B00009DFB44F26000CDE9000469462948029427
:102B1000FEF794FB44200090CDE901546946244817
:102B20000394FEF78BFB0820CDE90004694620489A
:102B30000294FEF783FB4FF45440CDE9000469464C
:102B400058460294FEF77AFBF0010090CDE901545B
:102B5000694618480394FEF771FB00220121062004
:102B6000FEF7E0FC0620FEF7D1FC00220221072040
:102B7000FEF7D8FC0720FEF7C9FC0022022108203E
:102B8000FEF7D0FC0820FEF7C1FC002211462820E9
:102B9000FEF7C8FC2820FEF7B9FC07B0BDE8F08FAF
:102BA0003038024000100240001402400018024079
:102BB000000C024000040240000021100008024006
:102BC000000002400000111030B51E481C4991B0B1
:102BD0000024602580E8320042F60411C0E90314A5
:102BE0004461FFF799FD00B1FEE70E940EA9154868
:102BF0000F94FFF74CFC00B1FEE7CDE9005408202C
:102C0000CDE9024004940594002269460D480694DB
:102C1000FFF71AFD00B1FEE70794089409944FF4FA
:102C200000500A94CDE90B4007A906480D94FFF720
:102C300001FC00B1FEE70348FFF7C4FC11B030BD52
:102C400000000140D401002030B53448324995B02D
:102C50000024602580E8320042F60411C0E9031424
:102C60004461FFF770FC00B1FEE72C48FFF754FD0C
:102C700000B1FEE704200E9070200F904FF400404A
:102C8000CDE910040EA925481294FFF7BFFD00B14D
:102C9000FEE7139413A921481494FFF7F8FB00B141
:102CA000FEE702200095CDE901400820CDE90304AC
:102CB00005940022694619480694FFF7C5FC00B147
:102CC000FEE7042269461548FFF7BEFC00B1FEE7A7
:102CD000082269461148FFF7B7FC00B1FEE70C2255
:102CE00069460E48FFF7B0FC00B1FEE70794CA2022
:102CF0000894CDE909404FF40050CDE90B4007A9F5
:102D000006480D94FFF796FB00B1FEE70348FFF776
:102D100059FC15B030BD0000000401401002002035
:102D200010B500220849094800F023FD084907486A
:102D300000F023FF0749054800F082FBBDE8104082
:102D4000024800F067BF000014000020EC030020E0
:102D50005001002048000020FEE770470907090ED7
:102D6000002806DA00F00F0000F1E02080F8141DC2
:102D7000704700F1E02080F8001470470148FEF72A
:102D800037BD0000100600202DE9F84F0F46C1EBBB
:102D9000C70100EB810582460668D5E91301441A94
:102DA000286C3835A04200D20446E01C4FEA900857
:102DB00006EB471916E0441AA868A04200D2044660
:102DC000E01C4FEA90089AF810000090A3B2FAB203
:102DD0003046E96801F0CAFCE8682044E860A86968
:102DE0002044A861D9F8180980B2404505D9D5E931
:102DF0000501814201D20028DDD134B90120D6F885
:102E00003418B8408143C6F834180020BDE8F88F64
:102E10007047704710B500210C48FFF7C9FC04212A
:102E20000A48FFF7C5FC08210848FFF7C1FC00214C
:102E30000648FFF766FB04210448FFF762FBBDE884
:102E4000104008210148FFF75CBB00001002002081
:102E500010B500210C48FFF78FFC04210A48FFF74A
:102E60008BFC08210848FFF787FC00210648FFF784
:102E700036FB04210448FFF732FBBDE8104008216F
:102E80000148FFF72CBB00001002002010B5FEF730
:102E9000B9FABDE81040FFF7C9BA000030B52548BF
:102EA00093B00025016841F080510160006800F096
:102EB000805011902048016841F480410160006811
:102EC000022400F480401190012000900004019041
:102ED0008001CDE90640192008904FF4A870CDE993
:102EE000090407200B906846FFF7C4F800B1FEE71D
:102EF0000CA90F2081E831004FF4A0500F904FF43F
:102F00008050109005210CA8FEF7E4FF00B1FEE709
:102F1000FFF778F84FF47A71B0FBF1F0FFF772FA2F
:102F20000420FFF762FA00221146501EFEF7FAFA5B
:102F300013B030BD403802400070004010480168B6
:102F400041F4700101600F48016841F00101016026
:102F50000C4A00210832116002680B4B1A400260D3
:102F6000031D0A4A1A60026822F4802202600548A2
:102F70000C30016002495806803908607047000033
:102F800088ED00E000380240FFFFF6FE103000241C
:102F9000F0B50268234B244D244E254F254C4FF0AD
:102FA000804C984209D0604507D0A84205D0B04275
:102FB00003D0B84201D0A04204D122F0700E4A687A
:102FC00042EA0E0298421BD0604519D0A84217D0A1
:102FD000B04215D0B84213D0A04211D0164DA8422D
:102FE0000ED0164DA8420BD0154DA84208D0154D55
:102FF000A84205D0144DA84202D0144DA84203D1D6
:1030000022F44075CA682A4302608A68C2620A686C
:103010008262984201D0A04201D109690163012175
:103020004161F0BD00000140000400400008004084
:10303000000C0040000401400040014000440140F9
:103040000048014000180040001C004000200040E3
:1030500010B50123046A8B409C430462036A8A40D2
:103060001343036210BD10B50423046A8B409C43D4
:103070000462036A8A401343036210BD10B584687A
:1030800042EA032224F47F440A432243826010BDB3
:1030900030B5026A22F001020262026A4368846962
:1030A0000D6824F07304254322F002048A68224349
:1030B0000B4CA04202D00B4CA0420BD122F00804D2
:1030C000CA6823F4407322434C6922F004021C4373
:1030D0008B6923434360856149684163026230BD67
:1030E000000001400004014030B5026A22F01002E5
:1030F0000262026A436884690D6824F4E64444EA83
:1031000005248D6822F0200242EA05120D4DA842E6
:1031100002D00D4DA8420ED1CD6822F0800242EAC5
:1031200005124D6923F4406343EA85038D6922F05B
:10313000400243EA85034360846149688163026217
:1031400030BD0000000001400004014030B5026ABB
:1031500022F480720262036A4268C46923F4007335
:1031600024F073050C682C438D6843EA05230D4D4C
:10317000A84202D00C4DA8420ED1CD6823F40063C2
:1031800043EA05234D6922F4405242EA05128D6953
:1031900023F4806342EA05124260C4614968C16356
:1031A000036230BD000001400004014030B5026AF6
:1031B00022F480520262046A4268C3690D6823F4F3
:1031C000E64343EA05238D6824F4005444EA0534B9
:1031D000084DA84202D0084DA84204D14D6922F4FE
:1031E000804242EA85124260C36149680164046218
:1031F00030BD0000000001400004014030B403680D
:103200009A6822F070044A68224322F007040A6890
:1032100022439A604A6812F00F0F1FD11211082A38
:103220001CD2DFE802F01B1B1B1B0B1D23040B69C8
:10323000D1E90221006830BCFFF720BF0268136AA1
:10324000146A24F00104146202689469096924F084
:10325000F00444EA011191610068036230BC7047D8
:103260000A698968006830BC00F006B80A69896894
:10327000006830BC00F011B810B5036A046A24F08D
:1032800001040462846924F0F00444EA021423F087
:103290000A020A438461026210BD10B5036A23F07A
:1032A000100303628369046A23F4704343EA023221
:1032B00024F0A00343EA01118261016210BDD0F83D
:1032C000180220B10021C0F81412084670470220ED
:1032D000704770B50546D0F8184200F016FBC4F8E8
:1032E0000C02D5F8180248B1D5F81C12D4F8040223
:1032F000CA6804F503719047002070BD022070BDBC
:1033000070B504460025812100F058FA01212046BD
:1033100000F054FA8221204600F050FAD4F8180246
:1033200050B1D4F81C0204F5067440688047206848
:10333000FCF7EDFF00202060284670BD10B5D0E9F5
:10334000864159B194F80002FF2807D08B6894F8A1
:10335000012221469847FF2084F80002002010BD7A
:103360000A21018000487047780000204321018035
:1033700000487047C8000020432101800048704782
:103380008400002043210180004870470C01002088
:103390002DE9F0410446007C00254FF4007670B31F
:1033A000402302228121204600F006FB4023022216
:1033B0000121204600F000FB082303228221204641
:1033C00000F0FAFA4FF40770FCF772FFC4F8180225
:1033D000F0B10746D4F81C02006880470020C7F807
:1033E0001402C7F81802207CD7F8042290B14023B9
:1033F0000121204600F0F3FA2846BDE8F081FFE7FE
:10340000334602228121204600F0D6FA3346CEE729
:103410000125F1E73346EBE710B5D0F8181269B192
:10342000027C002AD1F8042205D04023012100F0BB
:10343000D6FA002010BD4FF40073F7E7022010BD4C
:1034400002460220002902D00020C2F81C12704758
:10345000D0F81802C0F8041200207047D0F8180203
:10346000C0F81022C0F808120020704770B5064658
:10347000D0F8185208780C4610F0600121D02029AD
:1034800027D1E288AAB10006607807D5D6F81C12C9
:103490008B6829469847E288294617E085F800029C
:1034A000A07985F80102E2882946304600F038F814
:1034B0000FE0D6F81C12607800228B6821469847EE
:1034C00007E060780A2804D103490122304600F061
:1034D00041F8002070BD00007400002010B5D0F845
:1034E000142252689047002010BD134610B50A46BA
:1034F000002100F074FA002010BD134610B50A46F2
:10350000002100F016FB002010BD10B504468021FC
:1035100000F0E6FA2046BDE81040002100F0E0BAD5
:1035200010B50323C0F80821C0F8F431C0F80C210D
:1035300013460A46002100F052FA002010BD10B5D3
:1035400005210023C0F8F4111A46194600F047FA85
:10355000002010BD10B502238261C0F8F431C261B1
:1035600013460A46002100F0E4FA002010BD10B511
:1035700004210023C0F8F4111A46194600F0D9FAC4
:10358000002010BD10B50A46024903A000F0CEF895
:10359000004810BD000A002043444320436F6E667C
:1035A000696700001220088000487047340000203E
:1035B00010B50A46024903A000F0B8F8004810BD53
:1035C000000A002043444320496E746572666163BB
:1035D000650000000420088000487047300000208B
:1035E00010B50A46024903A000F0A0F8004810BD3B
:1035F000000A00204E52000010B50A46024903A0FE
:1036000000F094F8004810BD000A00204574686579
:103610007243415420414320536572766F204472B7
:10362000697665720000000010B50A46024903A0E1
:1036300000F07CF8004810BD000A00203030303027
:10364000303030303030314100000000F8B50446F1
:1036500048880D46010A08294BD2DFE801F04A04E8
:1036600009174A4A4048D4F81012207C0A6832E010
:10367000207C02260028D4F8140205D0C16A6846CE
:1036800088470146467041E0816AF8E7C0B20628E3
:103690002FD2DFE800F003080D12171CD4F8101227
:1036A000207C4A6817E0D4F81012207C8A6812E067
:1036B000D4F81012207CCA680DE0D4F81012207CD7
:1036C0000A6908E0D4F81012207C4A6903E0D4F8B3
:1036D0001012207C8A6969469047014616E0207CDA
:1036E00038B9D4F81402416B68468847F5E7207C66
:1036F00020B129462046FFF708FFF8BDD4F8140290
:10370000016B68468847014607204870BDF80000F5
:103710000028F2D0EA88002AEFD0824200D902467F
:10372000ADF800202046FFF715FFF8BD70B5002367
:1037300000281DD00446002502E06D1CEDB2641C7B
:103740002678002EF9D1022404EB45041480CC54D1
:103750005B1C0322CA5400245B1C06E0CA545B1C99
:10376000DAB28C54521CD3B2401C0278002AF5D134
:1037700070BD10B580B1D0F8143213B10023C0F879
:10378000143209B1C0F81012012180F8FC11027046
:1037900000F0C0F8002010BD022010BD10B50024BC
:1037A000D0F82002FDF753FF30B1012801D00228E4
:1037B00001D0022400E00124204610BD10B50024F1
:1037C000D0F82002FDF721FF30B1012801D00228F6
:1037D00001D0022400E00124204610BD2DE9F04173
:1037E0001746044641B1D4F8140242698AB394F8EA
:1037F000FC01032842D043E0D4F8F411002504F181
:103800001400022933D1D0E902639E4207D9F31A8A
:1038100083609AB239462046FFF76FFE12E0406897
:10382000B0FBF3F103FB1101A1B9984212D3D4F814
:10383000F81188420ED2002211462046FFF75DFEA5
:10384000C4F8F85100231A461946204600F0C7F87C
:103850000DE012E0D4F81402C16829B194F8FC011B
:10386000032801D1204688472046FFF768FE94F8D8
:103870000002012804D184F8005201E0204690475C
:103880000020BDE8F08170B51546044641B1D4F87A
:10389000140282693AB394F8FC01032824D025E08D
:1038A000D4F8F41104F5827003291FD1D0E9022164
:1038B0008A420BD9531A83600846834200D30346D9
:1038C0009AB229462046FFF710FE0FE0D4F8140202
:1038D000016929B194F8FC01032801D120468847E9
:1038E0002046FFF744FE01E020469047002070BDCF
:1038F0000020704710B5012180F8FC11D0F8142287
:10390000017952689047002010BDD0F82002FDF7E1
:10391000C6BE000010B5017859BB17490222C1F894
:10392000EC03C0F820124FF0A0400860042048606B
:103930000020C1E90320C1E90502C86108624862AC
:10394000C86208630846FEF7D5F920B14FF4A571A7
:103950000AA000F020FF80210748FDF715FE402255
:1039600000210548FDF714FE802201210248FDF7E1
:103970000FFE002010BD0000100600202E2E2F5339
:1039800072632F757362645F636F6E662E630000EF
:103990000A0601F07F01D0F82002C1EBC10100EB63
:1039A000810002D590F83A00704790F8FA0170470C
:1039B000002070470020704770B51D461346002454
:1039C000D0F820022A46FDF774FE30B1012801D05C
:1039D000022801D0022400E00124204670BD10B569
:1039E0000024D0F82002FDF78EFE30B1012801D06E
:1039F000022801D0022400E00124204610BD70B549
:103A00000022044640231146FFF7D6FF40252B46EF
:103A1000002280212046C4F81051FFF7CDFF01207D
:103A2000256284F8FC01D4F8180228B1D4F81402F5
:103A30002179426820469047002070BD90F8FD1122
:103A400080F8FC110020704710B590F8FC11032994
:103A500004D1D0F81412C96901B18847002010BD03
:103A600001740020704710B50024D0F82002FEF742
:103A7000EBF930B1012801D0022801D0022400E086
:103A80000124204610BD70B5044600F502700546BD
:103A900000F05FF80120C4F8F401B4F80E02C4F895
:103AA000F80194F8080210F01F010AD001290DD086
:103AB000022910D000F08001204600F011F800200B
:103AC00070BD2946204600F0AAF8F8E729462046AE
:103AD00000F08CF9F3E72946204600F019F9EEE7EB
:103AE00010B50024D0F82002FDF731FE30B10128D6
:103AF00001D0022801D0022400E00124204610BD9C
:103B000010B50024D0F82002FEF7B7F930B1012833
:103B100001D0022801D0022400E00124204610BD7B
:103B200090F8FC1180F8FD11042180F8FC110020B0
:103B3000704710B50024D0F82002FDF738FE30B1F0
:103B4000012801D0022801D0022400E001242046EF
:103B500010BD0A7802704A7842708A78CB7802EBFE
:103B6000032242800A794B7902EB032282808A7910
:103B7000C97902EB0121C18070470246002011B1D2
:103B8000C2F8141270470220704710B5D0F8142202
:103B900002241AB11268904700B90024204610BDD3
:103BA00070B50E461A4D897804462970012928D827
:103BB00094F8FC01022802D0032822D105E099B133
:103BC0000320616084F8FC0109E091B160688842DB
:103BD0000AD0C1B22046FFF781FC297861602046F7
:103BE000FFF7D3FF02280CD02046BDE87040FFF756
:103BF000BEBC022084F8FC0120466160FFF76EFC29
:103C0000F2E731462046BDE87040FFF77EBC000079
:103C10007000002010B5FFF773FF002010BD2DE9E4
:103C2000F04100264B78012532460A2B43D2DFE8CB
:103C300003F03C584251420805422A27FFF706FD8F
:103C400063E004468888C8B9C888B8B9887800F0A5
:103C50007F0794F8FC01032810D084F8FE713946E0
:103C60002046FFF700FF2046FFF781FC1FB102202E
:103C700084F8FC0149E084F8FC5146E020461AE053
:103C8000FFF78EFF41E0CB88012B14D190F8FC3177
:103C9000022B02D0032B0ED104E08260012200F13E
:103CA000080114E00122011D11E090F8FC21022A14
:103CB00004D0032A02D0FFF728FC26E0C560D0F824
:103CC000041209B10321C160022200F10C01FFF7C7
:103CD00041FC1AE004464888012816D1C4F8045271
:103CE0000BE0044690F8FC01022801D00328C5D15E
:103CF0004888012809D1C4F80422D4F81402826843
:103D0000204690472046FFF732FC3046BDE8F08160
:103D100070B50D460446287800260979C0F3411095
:103D2000012806D06878A0B301281FD003283FD10E
:103D300007E0D4F814022946826820469047002004
:103D400070BD94F8FC01022817D003282CD1688894
:103D500028B921B1802902D02046FFF7C1FED4F84E
:103D60001402294682682046904713E094F8FC012B
:103D7000022802D0032817D103E0C9B180291BD142
:103D800016E06888A0B9480604D02046FFF706FD73
:103D9000E5E703E02046FFF7EAFB09E094F8FC01C1
:103DA000022807D003280BD029462046FFF7ADFB99
:103DB000304670BD4806FBD02046FFF791FEF7E77E
:103DC000080601F07F0004EB001501D5143501E071
:103DD00005F582752046FFF7DBFD00B10120286064
:103DE000022229462046FFF7B5FBE1E770B50546FC
:103DF00090F8FC010C4603280DD1207901280AD83F
:103E0000D5F81402826828469047E08830B92846E1
:103E1000FFF7ADFB02E02846FFF777FB002070BDFF
:103E200030B54C781D4B01220D78AA40012CD0F8FA
:103E30001C4818D044EA0242C0F81C280A7800EB5B
:103E40004210D0F8002B12040BD4D0F8002B0C89B0
:103E5000C4F30A042243C97843EA81410A43C0F803
:103E6000002B002030BD92B21443C0F81C480C78DF
:103E700000EB4410D0F800291204F2D4D0F8002945
:103E80000D89C5F30A052A43C978890441EA84519A
:103E90000A431A43C0F80029E3E70000008000103D
:103EA000D0F800196FF30A01C0F80019D0F808180B
:103EB000C1F34101022905D1D0F8001941F00301F5
:103EC000C0F80019D0F8041841F48071C0F8041843
:103ED0000020704770B50446049D06990D9801298D
:103EE0000CD0E06840F04000E060204600F028F888
:103EF0004FF48030A063012D16D01DE0A16B21F49A
:103F00008031A163E1680D4A1140E160E16821F46C
:103F10004011E160012803D1E06840F48010E060C6
:103F2000204600F00DF8E6E7A06840F00600A0602B
:103F3000A06840F02000A060002070BDBFFFBDFF62
:103F400001220C4902E0521C8A420BD80369002B63
:103F5000F9DA026942F001020261012204E0521C16
:103F60008A4201D9032070470369DB07F7D100209B
:103F700070470000400D0300F0B50D4604464F7831
:103F80000126F206D3002D49287804EB4010012FBA
:103F900014D0D0F8007B27F40047C0F8007B2878C5
:103FA00004EB4010C0F8002B287804EB4010C0F858
:103FB000003B01202A7804EB42122BE0D0F8007974
:103FC00027F40047C0F80079287804EB4010C0F8C7
:103FD0000029287804EB4010C0F8003901202A7825
:103FE00004EB421202E0401C884211D8D2F8083992
:103FF0005B00F8D41021204600F024FBD4F81C0804
:1040000029788E40B1B2884314E0401C884201D91F
:104010000320F0BDD2F8083BDB06F6D4D4F8040840
:1040200040F48060C4F80408D4F81C0829788E4055
:1040300020EA0640C4F81C080020F0BD400D030033
:1040400010B5D0F8041821F00201C0F804180320BC
:10405000FDF768F8002010BD10B5D0F8041841F045
:104060000201C0F804180320FDF75CF8002010BD21
:104070002DE9F0470E460446DDE90A0A0025DDF881
:104080003C80089F5FEA0801A16B11D041F4002138
:10409000A1634FF00009C4F8009ED4F80018C4F8DA
:1040A0000018012807D0D4F8000840F0030007E00A
:1040B00041F40011ECE7D4F800080BB140F0010026
:1040C000C4F800081021204600F0BCFA204600F099
:1040D000A9FA4846C4F81098C4F814984FF0FF3174
:1040E000C4F81818C4F81C984FF0904CFF230FE048
:1040F00004EB4511D1F80029002A02DAC1F800C901
:1041000001E0C1F80009C1F81009C1F808396D1CB7
:10411000AE42EDD800210FE004EB4112D2F8005B73
:10412000002D02DAC2F800CB01E0C2F8000BC2F8A1
:10413000100BC2F8083B491C8E42EDD8D4F8101879
:1041400021F48071C4F81018012F0AD11449C4F861
:104150003018D4F83018134A1143C4F83018D4F882
:104160003018A0616FF0804060611FB9A06940F015
:104170001000A061A0690C490843A061BAF1000FCA
:1041800003D0A06940F00800A061B8F1010F03D18D
:10419000A06906490843A0610020BDE8F08700003F
:1041A000000180000300010000383C800400004052
:1041B000816821F0010181600020704730B54D78A1
:1041C0004D4C0B7800EB4313012D28D0D3F8105B36
:1041D0006FF31205C3F8105B0B7800EB4313D3F8B1
:1041E000105B2540C3F8105B4B690BB18B684B61CA
:1041F0000B7800EB4313D3F8104B44F40024C3F8BE
:10420000104B0B7800EB4313D3F8104B8D68C5F3BC
:1042100012052C43C3F8104B012A5CD061E04D69B4
:10422000002DD3F810593BD06FF31205C3F8105985
:104230000B7800EB4313D3F810592540C3F81059FD
:104240004C698B689C4200D94B610B7800EB43139F
:10425000D3F8104944F40024C3F810490B7800EB5C
:104260004313D3F810494D69C5F3120554EA050408
:10427000C3F810490B7800EB4313D3F8004944F01E
:104280000444C3F80049012A1ED04A6912B3D0F889
:1042900034280B78012199400A43C0F8342829E0DA
:1042A0002540C3F810590B7800EB4313D3F810499D
:1042B00044F40024C3F810490B7800EB4313D3F8FF
:1042C00010496FF31204D3E70A69097800EB411033
:1042D000C0F814290EE00B7800EB4313CA68C3F84A
:1042E000142B097800EB4110D0F8001B41F0044179
:1042F000C0F8001B002030BDFFFF07E00023C0F81E
:10430000103BD0F8103B43F40023C0F8103BD0F82A
:10431000103B43F01803C0F8103BD0F8103B43F0BB
:10432000C043C0F8103B012905D1C0F8142B4FF051
:104330008021C0F8001B002070474B780A7800EB02
:104340004212012B0BD0D2F8003B23F40013C2F829
:10435000003BCA78032A17D0022A15D01DE0D2F8F4
:10436000003923F40013C2F80039CA78032A01D0B7
:10437000022A12D1097800EB4110D0F8001941F05F
:104380008051C0F8001908E0097800EB4110D0F81E
:10439000001B41F08051C0F8001B002070474B7893
:1043A0000A7800EB4212012B14D0D2F8003B002B0C
:1043B00005DBD2F8003B23F08043C2F8003B0978CC
:1043C00000EB4110D0F8001B41F40011C0F8001BB5
:1043D00000207047D2F80039002B05DBD2F80039F5
:1043E00023F08043C2F80039097800EB4110D0F87F
:1043F000001941F40011C0F80019E9E778B54E78CA
:104400006FF06045834C0B7800EB4313012E2FD0E7
:10441000D3F8106B6FF31206C3F8106B0B7800EB38
:104420004313D3F8106B2640C3F8106B4B69002B75
:104430007DD08C6823445B1EB3FBF4F39BB20C78F5
:1044400000EB4414D4F8106B05EAC3452E43C4F8BE
:10445000106B0C7800EB4414D4F8105B8E685E434C
:10446000C6F312031D43C4F8105B012A73D0B2E0F7
:104470004E6966B3D3F810696FF31206C3F810697A
:104480000B7800EB4313D3F810692640C3F810698A
:104490004C698B681C44641EB4FBF3F305EAC34407
:1044A0000B7800EB4313D3F810592C43C3F8104991
:1044B0000B7800EB4313D3F810494D69C5F312058F
:1044C0002C43C3F81049CB78012B16D027E0D3F842
:1044D00010592540C3F810590B7800EB4313D3F85B
:1044E000104944F40024C3F810490B7800EB43133F
:1044F000D3F810496FF312040FE00B7800EB43136D
:10450000D3F8104924F0C044C3F810490B7800EBED
:104510004313D3F8104944F00054C3F81049012A5A
:1045200012D0CB78012B17D04B692BB300E037E0CA
:10453000D0F834380D780124AC402343C0F8343827
:10454000CB78012B08D017E00C7800EB44140B69F2
:10455000C4F81439F4E738E0D0F80838DB050B78F4
:1045600000EB4313D3F8004902D444F0005401E0B7
:1045700044F08054C3F800490B7800EB4313D3F8A0
:10458000004944F00444C3F80049CB78012B3ED1E4
:1045900000928A8A93B20A78C96800F0E7F836E098
:1045A0000B7800EB4313D3F8104B8D68C5F312055D
:1045B0002C43C3F8104B0B7800EB4313D3F8104B8C
:1045C00044F40024C3F8104B4FE70B7800EB43137F
:1045D000CA68C3F8142BCA78012A0FD1D0F808286A
:1045E000D2050A7800EB4212D2F8003B02D443F025
:1045F000005301E043F08053C2F8003B097800EB20
:104600004110D0F8001B41F00441C0F8001B00200D
:1046100078BD0000FFFF07E0816841F00101816083
:1046200000207047002110220261054A491C914276
:1046300001D9032070470369DB06F7D400207047D7
:10464000400D03000022202343EA81110161054946
:10465000521C8A4201D90320704703699B06F7D494
:1046600000207047400D03000021D0F8082812F008
:10467000060F15D0D0F80828C2F34102012A0CD049
:10468000D0F80828C2F34102032A06D0D0F808085F
:10469000C0F34100022802D002E0032100E0022121
:1046A00008467047406900F001007047D0F81818BC
:1046B000D0F81C08084080B27047D0F81818D0F81D
:1046C0001C080840000C7047D0F81038D0F8342887
:1046D000CA4002F0010243EAC21200EB4110D0F8D6
:1046E00008091040704700EB4111D1F8081BD0F8C1
:1046F000140808407047416980690840704710B548
:1047000003460020D21C920803F5805303E01C6886
:1047100041F8044B401C9042F9D3084610BD10B537
:10472000C26822F0C042C260012901D021B107E075
:10473000C16841F0005102E0C16841F08041C160B0
:104740003220FCF7EFFC002010BDD0F8002822F446
:10475000FE62C0F80028D0F800284FF4FE6303EA98
:1047600001110A43C0F800280020704730B500242A
:10477000039D6DB9DB1C9B0800EB023000F58050F7
:1047800004E000BF51F8042B0260641C9C42F9D382
:10479000002030BDFEE7FEE74100080218BF0420FC
:1047A0000A0E18BF40F001004FF07F4232EA0101CB
:1047B00008BF40F00200012808BF05207047000034
:1047C00000B510EE101A2DED028B81B0524A6846EA
:1047D000B2EB410F2ED94FF0E640B0EB410F94BF42
:1047E00000204FF0FF3000900098B0EE408A002883
:1047F0006ADB10F0010F4BD068EE080A9FED471AF4
:104800009FED470A00EE810A9FED461A10F0020F55
:1048100000EE801AB7EE000A00EE810A02BF01B076
:10482000BDEC028B00BD00BF01B0B1EE400ABDEC93
:10483000028B00BD3C4B21F00042934241D911F064
:10484000004FDFED3A0A20EE201ADFED390A19BFDA
:1048500031EE601A71EE200A31EE201A71EE600A14
:10486000BDEEE01A11EE100A9FED321A00F00300BF
:1048700000EEC10A9FED301A009000EEC10A9FEDD4
:104880002F1A00EEC10A9FED2E1A00EEC10AABE707
:1048900028EE080A9FED2B1ADFED2B0A10F0020F0D
:1048A00040EE410A9FED291A00EE201A61EE000A3F
:1048B000B0EE480A08EE200AB6D101B0BDEC028B7A
:1048C00000BD00F059F88FE718EE100A4000B0F173
:1048D0007F4F0DD218EE100AFFF75EFF042808BFC5
:1048E00000F042F8B0EE480A01B0BDEC028B00BD0A
:1048F00009D10120FBF735FE01B0BDEC028B5DF85C
:1049000004EB00F029B801B0B0EE480ABDEC028B10
:104910005DF804EB00F01CB8B61F927EB93AB2BA4B
:10492000CA9F2A3DDDFFFFBE490E494683F9223F5B
:104930000000004B0000C93F00A0FD390020A23359
:104940001A61342C336D4C39DA82083CA0AA2ABE95
:1049500030EE000A70470000DFED020A80EEA00A88
:1049600070470000000000009FED020A20EE000AE0
:1049700070470000000000102DE9F0014FF07F4269
:10498000B2EB410F9FBF4FF0FF310160BDE8F00176
:1049900070474FF0004242EA0123C1F3C752783A10
:1049A000551112F01F0C434CCCF120067C44C1F38E
:1049B000C752A2F178024FEA621204EB820254F865
:1049C000254008BFD2E9015612D0556804FA0CF40C
:1049D00025FA06F73C43976805FA0CF527FA06F81E
:1049E000D26807FA0CFCF24045EA08054CEA0206D8
:1049F000A4FB034CA5FB0352A6FB03631D449D428D
:104A000034BF012600261319334416B1934202D94C
:104A100003E0934201D2012200E00022624402F14D
:104A2000200C9206DC0C42EA443200EE102A5B03B2
:104A3000DFED210AF8EEC01A00EE103A4FEA9C1C96
:104A400011F0004FB8EE400AC0F800C020EE201A66
:104A500000EE105ADFED190AB8EE400A20EE200AE7
:104A600071EE810A70EE800A10EE902A02F5006263
:104A70006FF30B0200EE902A70EEE11A31EEC11ACC
:104A8000DFED101A30EE411A9FED0D0A20EE800A7C
:104A900001EE210A9FED0C1A00EE810A04BFBDE869
:104AA000F0017047CCF180510160BDE8F001B1EE3A
:104AB000400A70477C010000000000360000802C96
:104AC00022AAFD29DB0FC92F0000C92FFCF7A2FC89
:104AD000FEF7E4F9FDF75EFFFEF7B6F8FEF774F8AF
:104AE000FDF7FAFEFEF71CF9FDF7CCFE0648FDF7D0
:104AF000AFFE012211460548FCF778FC4FF0C84193
:104B000001204881FEE700006C03002000180240ED
:104B10004FF04070E1EE100A704700000000000006
:104B2000000001020304060708090000000000005D
:104B30006E83F9A22915444ED15727FCC0DD34F508
:104B4000999562DB4190433CAB6351FE6C4B00088E
:104B5000000000208C010000C4010008304C000857
:104B60008C010020D47A000020020008011413A553
:104B7000351B08D5041AE1041AF9041329361B0859
:104B800085081AB104170403090412011402020271
:104B900016404C04405726020102030113F9071B7B
:104BA00008F3041AEF04131D088208191B11821060
:104BB0009324F4130A0632022A40201C09024347B8
:104BC000111DC0320904311A020B130524161001FD
:104BD0000524011009010424020205240617010717
:104BE000058203081C1009047D320A1D0705010215
:104BF000432C070581070938442A40072A810711F9
:104C00002B0907440A2204440A16FF441391331B5C
:104C1000080104136D3442081A3D0C13BF321B08FF
:104C2000D304C12A792419041A85041A61044100A5
:040000050800018965
:00000001FF
